:10802000000001200181000079810000EDA2000024
:108030007981000079810000798100000000000052
:10804000000000000000000000000000D1BF0000A0
:10805000798100000000000021C0000065C100001F
:108060006D62010079810000798100007981000052
:108070007981000079810000F98900007981000090
:108080007981000079810000798100007981000008
:1080900079810000798100007981000079810000F8
:1080A00079810000D18F0000798100007981000082
:1080B00079810000798100007981000079810000D8
:1080C00079810000798100007981000079810000C8
:1080D00079810000798100000000000079810000B2
:1080E000798100007981000079810000E991000028
:0880F000798100007981000094
:1081000008B5144A144B15498B4213D3144B154A26
:108110000021934213D300F075F800F051F8124C8F
:10812000124DAC420ED3124C124DAC420ED302F0A3
:1081300029F9FEE752F8040B43F8040BE4E743F88F
:10814000041BE6E754F8043B9847EAE754F8043B7D
:108150009847EAE7B475010000000020681300208A
:10816000001400202C830020B4750100B4750100B8
:10817000B4750100B47501004FF0A04337B54FF45A
:1081800080320E4CC3F808254FF40041C3F818257F
:1081900000254FF0E020C3F808150195019AC72A81
:1081A00008DDD3F81025C3F80C159204F3D4C0F8F9
:1081B0000C4DF0E7019A01320192EFE70400FA0555
:1081C00010B50A4A0A4811460023013350F8044BFF
:1081D00041F8044B362BF8D14FF0E023C3F8082DBB
:1081E000BFF34F8FBFF36F8F10BD00BF001400208F
:1081F00020800000024AD2F80034002BFBD07047E8
:1082000000E0014008B54FF0A0434FF48032032155
:10821000C3F80825C3F81825C3F84017C3F8082584
:108220004FF0804301220021C3F87825C3F81825B8
:10823000C3F804119A60D3F80421002AFBD04FF050
:108240001020D0F80C32023312D01749FFF7D2FFBA
:108250000123C1F80435FFF7CDFF6FF00103C0F82B
:108260000C32FFF7C7FF0023C1F80435FFF7C2FF48
:108270000E4B012200215A600420DA60C3F8041575
:108280000321C3F80815C3F810051A604FF0A04386
:108290004FF48032C3F80825C3F81825C3F84017F7
:1082A000C3F8082508BD00BF00E001400090004071
:1082B000064B01211964D3F8402510441964D3F802
:1082C0004025121A002AF9DB704700BF00900040D9
:1082D00070B504464FF47A7604B970BDB4F5FA7FF0
:1082E000254628BF4FF4FA7506FB05F0FFF7E0FFBF
:1082F000641B01F067F9EFE74FF0A0434FF48032C1
:10830000C3F808257047000038B54FF0A044032398
:10831000C4F83C374FF400450C23C4F834370A2026
:10832000C4F81855C4F80855FFF7C2FFD4F8102553
:108330000F4BC4F80C550120186412F4005FD3F8F9
:1083400040350C4A10D114780B4914B90B601070E9
:1083500038BD0A689B1A094A9342F9D34FF0E023CB
:10836000074AC3F80C2DFEE700231370F0E700BFA7
:1083700000900040DC140020D814002000127A0085
:108380000400FA05084A536A116A013310B5B3FBB9
:10839000F1F401FB1433916A99421FBF516AD46909
:1083A0005362605410BD00BF0000002010B5441E91
:1083B00014F8010F00B910BDFFF7E4FFF8E7000063
:1083C00008B5FFF7F3FFBDE808400148FFF7EEBF2F
:1083D0005C69010070B505460748084EFFF7E6FFE7
:1083E0001C2425FA04F303F00F03043CF05CFFF7B0
:1083F000C9FF231DF5D170BD486B01004F6F01000F
:10840000022838B504460D4612D80A48013CFFF749
:10841000CDFF032C96BF084B3F20185DFFF7B2FF3E
:108420000648FFF7C3FF2846BDE83840FFF7C8BF3E
:1084300038BD00BF5F6901004B6F01006169010039
:1084400038B5214A4FF0A043032100200424082519
:10845000C2F80005C3F80817C3F80C45C3F80C1799
:10846000C3F80C554FF48025C3F81007C3F848171C
:10847000C3F808554FF00075C3F86417C3F80855E2
:108480002025C3F81417C3F808550223C2F808358D
:108490004FF00043C2F80C15C2F81045C2F824355D
:1084A0000623C2F85435FF23C2F8C0350723C2F8AB
:1084B0000035064C064B187023681BB9012002F0EA
:1084C0001FFF206038BD00BF00300040F0160020C4
:1084D000F416002010B50A4C236843B102F04EFC9C
:1084E000022804D120684FF0FF3103F07DF8054BDE
:1084F0000722C3F80025044B01221A7010BD00BFEB
:10850000F016002000300040F416002070B5094B32
:10851000094C00251D7023685BB102F02FFC022876
:1085200007D120682B462A462946BDE8704002F054
:1085300045BE70BDF4160020F01600200C4B70B53F
:108540000024012501B970BDFF290A4628BFFF227A
:10855000C3F81841C3F84405C3F84825C3F83845A3
:108560001D61D3F81861002EFBD01044891AE9E789
:1085700000300040F8B515461C4610B109B1FFF7B0
:10858000DDFFD5B1CCB10D4B0D4900200126FF2CEC
:10859000224628BFFF22C3F81801C3F84415C3F8C8
:1085A0004825C3F83455C3F838251E61D3F818712F
:1085B000002FFBD0A41A1544E9D1F8BD00300040CB
:1085C000F015002001234FF0A0428340C2F80C3583
:1085D000704701234FF0A0428340C2F8083570472E
:1085E0004FF0A0434FF48022C3F80C2570474FF0A2
:1085F000A0434FF48022C3F80825704737B51546CD
:108600000C468DF80700FFF765FF1920FFF7DAFF2A
:10861000FFF7E6FF0DF107000121FFF78FFFFFF7DE
:10862000E6FF29462046FFF789FF1920FFF7D1FF13
:10863000FFF76CFF03B030BD07B58DF80700FFF7FB
:1086400049FF1920FFF7BEFFFFF7CAFF01210DF117
:108650000700FFF773FF1920FFF7BBFFFFF756FF77
:1086600003B05DF804FB37B552BAADF8062040BA46
:108670000422ADF804000D462A200DEB02011C4631
:10868000FFF7BCFF04226DBA64BA0DEB02012B2088
:10869000ADF80450ADF80640FFF7B0FF2C2003B052
:1086A000BDE83040FFF7C8BF10B50022F8B06B46F8
:1086B00011460132F02A1970597003F10203F8D102
:1086C0000024A3B21946EF220020FFF7CCFFFFF7EA
:1086D00001FF1920FFF776FFFFF789FF4FF4F071D4
:1086E0006846FFF72BFF01341920FFF772FFFFF7F1
:1086F0000DFFB4F5A07FE4D178B010BD7FB54FF089
:10870000A04403234FF000724FF08065C4F8643733
:108710000A20C4F80825C4F86837C4F80855C4F816
:108720000C55FFF7D5FDC4F808557820FFF7D0FDAC
:108730000120FFF781FF9620FFF7CAFD1120FFF708
:108740007BFF0A20FFF7C4FD5523012269463A202A
:108750008DF80030FFF752FF0023012269463620D2
:108760008DF80030FFF74AFF4F4B186800901B79D7
:108770008DF8043005226946B220FFF73FFF35230C
:1087800001226946B7208DF80030FFF737FF192323
:1087900001226946BB2001258DF80030FFF72EFF2E
:1087A0002C2301226946C0208DF80030FFF726FFF8
:1087B0002A466946C2208DF80050FFF71FFF12239A
:1087C0002A466946C3208DF80030FFF717FF2023A3
:1087D0002A466946C4208DF80030FFF70FFF0F23AB
:1087E0002A466946C6208DF80030FFF707FF4AF297
:1087F000A41302226946D020ADF80030FFF7FEFE38
:108800002A4B6C466A4603F10806186859681546F3
:1088100003C50833B3422A46F7D118689B882860FD
:10882000AB800E222146E020FFF7E8FE204B2246D7
:1088300003F1080618685968154603C50833B342A2
:108840002A46F7D118689B88AB8021460E22286003
:10885000E120FFF7D3FE2120FFF7EEFE0120FFF716
:1088600037FD1320FFF7E8FE0120FFF731FD00255B
:10887000104B0093214606223320ADF80450FFF739
:10888000BDFE022221463720ADF80050FFF7B6FEAC
:108890002920FFF7D1FE1420FFF71AFD04B0BDE830
:1088A0007040FFF701BF00BF606F01006D690100FC
:1088B0007C6901000000014038B50D460446FFF711
:1088C00009FE1920FFF77EFEFFF791FE294620469C
:1088D000FFF734FE1920FFF77CFEBDE83840FFF7B4
:1088E00015BE00000D4A4FF08023C2E900330C4B47
:1088F000C3F820250422C3F8242501210022C3F84F
:108900002825C3F82C2599605960C3F800254FF03D
:10891000A043044AC3F80825704700BFF81600209A
:1089200000C001400040C0004FF0A04303224FF4BC
:108930008041C3F83827C3F808154FF48001C3F805
:108940005827C3F80815C3F85C274FF40002C3F892
:108950000825114B00220E21C3F80025C3F860152D
:108960001621C3F864151721C3F868154FF00041AC
:10897000C3F86C15FF21C3F80425C3F80C25C3F810
:1089800008150221C3F81015C3F814250122C3F8F5
:108990000025FFF7A7BF00BF00C0014010B418B901
:1089A0005DF8044BFFF79EBF104C1149642828BFA7
:1089B0006420C0EB00236422B3FBF2F30D4A23438F
:1089C0009BB20120C2F800050B804B808B800423F2
:1089D000CC80C2F82015C2F824350023C2F828350F
:1089E0005DF8044BC2F82C35906070470080FFFFA3
:1089F000F816002000C00140104BD3F87C21AAB12A
:108A00000022C3F87C210E4B01221A704FF0A043C4
:108A1000D3F8702722F44031C3F8701742F4403283
:108A20004FF08051C3F82015C3F87027034BD3F8DB
:108A3000002112B10022C3F80021704700600040FD
:108A4000001700202DE9F041089E0C4696469846F6
:108A5000DDE9061276B307282CD814F0100529D1C9
:108A600014F0010702D0A30720D52F464FF0020CC7
:108A7000099B02EB0C05AB421CD3F42D1AD802B1B2
:108A8000D1B104F01F0444EA4014347086F801E0C8
:108A900027B14FEA182386F80280F3701AB106EB6B
:108AA0000C000DF0E5FE2846BDE8F08101274FF0EF
:108AB000040CDDE70025F6E70D46F4E72DE9F04F5D
:108AC000C5B081464E9C9846164642B14F9B33B185
:108AD000B4F5805F03D824B1B8F1000F16D100209F
:108AE00011E007AFCDE90147F423039301F01C0126
:108AF000CDF800803278A3B241F003014846FFF779
:108B0000A1FF002836D145B0BDE8F08FF22CE8D99E
:108B100001F01C05A3B245F001010027F0220593E6
:108B20004FF0F40B0DF11C0AE31B934228BF1346D0
:108B3000CDE902AB3A4642441F440193A74200925A
:108B400028BF41F00201059B32784846FFF77AFFC3
:108B500001460028C3D03378509A01333370504611
:108B60004F9B98470028BAD0A7424FF0F202CAD2D2
:108B70002946D9E73378509A0133337001464F9B29
:108B800038469847BFE707299FBF00EBC102002383
:108B900040F83130C2F8033070472DE9F04700F556
:108BA0008058002316460446C8F840300A4659B19A
:108BB000B31EF22B08D80B7813F010094FEA5315A7
:108BC00007D02946FFF7DFFF4FF002094846BDE80E
:108BD000F087062D7CD0072D03D198F84510002989
:108BE00076D003F0020A13F0010307D0BAF1000FA8
:108BF00004D1032E32D829462046E3E74FF0000C7B
:108C00000227D119F61BEF0050782744002B3BD0E8
:108C1000002344F83530C7F803300123BB711844F2
:108C2000BAFA8AF35B09787004F83530BCF1000FAA
:108C300018D053887B805A1EB2F5805FDBD2B342D6
:108C4000D9D3324604F140000DF012FEB3B2BB801E
:108C5000BAF1000F0CD14FF00109B7E74FF0010C4A
:108C60000427CEE7BAF1000FC5D0B3B27B80E6E7A8
:108C70007A889A42BFD1C8F8406088F844502946A3
:108C80002046FFF780FFA1E714F83530002BB2D063
:108C9000BB79002BAFD07B788342ACD101337B70A2
:108CA000BB887A8898199042A5D804F140003246D2
:108CB00018440DF0DDFDBB881E44B6B27B88BE8033
:108CC000BAF1000F01D09E42D4E79E42C3D192E791
:108CD0004FF003097AE7034610B45C680846114672
:108CE00024B19A6823465DF8044B184720465DF886
:108CF000044B704730B5C1B08123B2F5807F054683
:108D000014468DF8003008D94FF48074621E01318A
:108D10000DF101000DF0ACFD01E0012AF6D822466C
:108D200069462846FFF7D7FF41B030BD7FB5037FC6
:108D30000546002B3ED0D0E908329A423AD3036868
:108D4000C3B39847AA6A6E6A0023841A2B7733D07C
:108D50001A482246A6FB00010DF0BCFA82238DF8CA
:108D60000030230A8DF80230230C8DF80330330ACB
:108D70008DF80630330C8DF80730330E8DF808303F
:108D8000030A8DF80A30030C8DF80B30030E8DF8B2
:108D900001408DF80900240E8DF80C300E220023BE
:108DA000694628468DF804408DF805608DF80D3031
:108DB000FFF791FF04B070BD2046CFE7A086010009
:108DC000042A38B50446154619D90368BBB1D1F851
:108DD00001200262002242629847236AA0621A1EA2
:108DE00018BF0122052D227709D043B1636A053BE4
:108DF0002B4463622046BDE83840FFF797BF38BD7B
:108E0000017F31B12AB1416A013A11444162FFF751
:108E10008DBF7047F0B5012A93B0054614461DD9A1
:108E20000368DBB1013A402A18D8842301310DF1DF
:108E300001008DF800300DF01BFD2B6898476E4641
:108E40003719030A0DF804007B70030CBB70030E86
:108E5000FB70221D69462846FFF73DFF13B0F0BDA9
:108E600030B5436987B0044643B3816901A8984788
:108E7000BDF80400BDF80610BDF80820BDF80A30A2
:108E80008DF80D008DF80F108DF81120000A090AD9
:108E9000120A8DF80E008DF810108DF812208DF842
:108EA000133085251B0A092203A920468DF80C5092
:108EB0008DF81430FFF70FFF07B030BD1A46194682
:108EC0001846DDE730B5012A85B0054638D9C468B3
:108ED000DCB30369013A01316846A047DDE90012BD
:108EE000029B9DF80C008DF8011086248DF800403F
:108EF0000C0A8DF802400C0C090E8DF80410110AB2
:108F00008DF805208DF80610110C120E8DF8082032
:108F10001A0A8DF80A201A0C8DF807108DF80930FE
:108F20008DF80B201B0E8DF80D000E226946284689
:108F30008DF803408DF80C30FFF7CDFE05B030BD45
:108F4000012000231A461946CDE701202346F9E700
:108F5000F8B5134641B34AB30E78771E052F03D9EF
:108F6000BDE8F840FFF7B7BE023E042E04D8DFE8A4
:108F700006F0080C101417001A46FFF7BBFE01207C
:108F8000F8BD1A46FFF71CFFF9E71A46FFF738FF4E
:108F9000F5E71A46FFF73EFFF1E7FFF761FFEEE75F
:108FA0001A46FFF78FFFEAE70846E9E71046E7E7CA
:108FB000054BD3F80C2132B10022C3F80C21034A2F
:108FC000136801331360704700100140041700203C
:108FD000FFF7EEBF094A08B513680BB9002008BDBA
:108FE000906898470028F9DB4FF4FA63584340F241
:108FF000D943B0FBF3F080B2F1E700BF08170020BF
:10900000034A53680BB1906818471846704700BF71
:1090100008170020054A08B5136823B190689847DF
:10902000C043C00F08BD1846FCE700BF081700206A
:1090300008B5FFF7EFFF08B9002008BDFFF7CAFF2A
:1090400040F6E4439842F7D941F2670398424FF063
:1090500064039FBF5843A0F5A120A0F588704FF48A
:1090600061738EBF1846B0FBF3F0C0B2E5E713B5ED
:10907000FF2305248DF807308DF80640FFF72AFA04
:109080002046FFF79FFA01230DF1070219460DF163
:109090000600FFF76FFA2046FFF79BFAFFF736FA54
:1090A0009DF8070002B010BD10B5054CFFF7DFFFBB
:1090B000C30704D53220FFF7FBF8013CF6D110BD01
:1090C000A086010007B58DF80700FFF703FA052019
:1090D000FFF778FA01210DF10700FFF72FFA0520BD
:1090E000FFF777FAFFF712FA03B05DF804FB000010
:1090F00010B5064C23783BB1AB20FFF7E3FF3220DD
:10910000FFF7D6F80023237010BD00BF141700200E
:10911000F0B50546C3B016460C46A1B3531EFF2B4F
:1091200031D852FA80F3B3F5807F2CD81318B3F5F9
:10913000800F28D8FFF7DCFF01AF0620FFF7C2FF42
:1091400002233B702B0C6DBA7B707D8020460DF1A5
:109150000703A21910F8011B03F8011F9042F9D16F
:10916000FFF7B8F90520FFF72DFA311D3846FFF754
:10917000E5F90520FFF72DFAFFF7C8F9FFF794FF8F
:10918000012043B0F0BD0020FBE713B50446C0F357
:109190000B0020BBB4F5800F1FD2FFF7A9FF0620FC
:1091A000FFF790FF20238DF80430230C64BA8DF86C
:1091B0000530ADF80640FFF78DF90520FFF702FAFC
:1091C00004210DEB0100FFF7B9F90520FFF701FAC3
:1091D000FFF79CF9FFF768FF012002B010BD0020E7
:1091E000FBE7FFF785BF0000054BD3F840212AB10C
:1091F0000022C3F84021034B01221A70704700BFC0
:109200000040024015170020FFF7EBBF10B5FFF735
:10921000E8FF4FF480242046FFF7B7FF20B104F5A4
:109220008054B4F5342FF6D110BDF8B50446164677
:109230000F46E1B1DAB1B0F5E82F18D8C0F5E82350
:10924000934214D3FFF7CDFF04F58024E5B2C5F5B2
:109250008075B54228BF35462A4639462046FFF775
:1092600057FF20B1761B2C442F44EFD1F8BD0020CE
:10927000FCE700001FB5054B0FCB8DE80F00102257
:1092800069460348FFF7D1FF04B010BD686F0100C5
:10929000F03F07004FF0E023014AC3F80C2DFEE732
:1092A0000400FA0500234FF6FF72C0E9093380F885
:1092B0002030C285038680F83230704770B40C4687
:1092C000064605460FCC0FC594E80F0085E80F0051
:1092D000304670BCFFF7E6BFC36810B504460BB953
:1092E000012010BD03693BB9E368E06998471D2878
:1092F00094BF00200120F4E7C06998470028F3D00C
:10930000EEE7836913B553B110248DF805108DF87D
:1093100006208DF80440C269032101A8984702B0D5
:1093200010BD13B584698CB111230093836A8DF845
:1093300001301A0A8DF802201A0C1B0E8DF803203A
:109340008DF80430C26905216846A04702B010BDFF
:1093500070B50B46044601B3FAB10978481E0728D8
:1093600000F29180DFE800F0041A3D5874868F48BF
:10937000012A02D05B78042B03D00322012120466E
:109380007DE02046FFF7A8FF08B90622F6E7204651
:10939000FFF788FF012384F8203070BD94F8201077
:1093A0000239012902D902220221E8E7012AFAD072
:1093B0005B781BB9032384F82030EEE7012BF2D150
:1093C00094F85330012B07D9234493F8322093F8B3
:1093D000313043EA0223A385042384F8203001229C
:1093E000E2E794F82030042B09BF0023022284F81E
:1093F000323001220321C2E7012A4FF0000218BFD8
:109400005B7884F8312008BF134684F8322084F852
:10941000303001220821B2E794F82050042D04D105
:10942000636A13B1A26A934202D005220421A6E71F
:10943000E28DA38D9A42F8D1A36823B1E0699847E1
:1094400008B90622F2E7052384F820300122EDE76F
:1094500094F82010052902D0022205218FE701226D
:109460002046FFF74EFF6369002B96D0E069BDE808
:10947000704018472046FFF715FF06210122BDE87E
:109480007040FFF73EBF032279E7F8B50446154662
:109490000E46002947D0002A45D090F82070012FB1
:1094A0002BD10B2A3FD98D686B1EB3F5E82F08D35B
:1094B00004220221FFF725FF2046BDE8F840FFF710
:1094C000F1BE03681BB9062201212046F2E7C069FC
:1094D00098470028F7D00023A3624FF6FF7284F864
:1094E00053300223E285656284F820303A463946DB
:1094F0002046BDE8F840FFF704BF032F14D190F8D1
:1095000053309A18202A02D9D3F120050BD004F148
:10951000330018442A4631460DF0AAF994F8533026
:109520002B4484F85330F8BD042FFCD1D0E9093C1A
:1095300062449A4203D913B13A460321BAE76768F5
:109540008FB3E3692A4631466046B84758B3E38D86
:10955000711916F8012B5BBA9BB25A40C2F3031380
:109560005A4013039BB25A40530103F4FF538E42F7
:1095700083EA0203EDD1E385A36A94F830202B44FB
:10958000A36294F832300133DBB284F83230002A1F
:10959000C9D09342C7D3002384F832302046BDE8B7
:1095A000F840FFF7BEBE062203218EE7FFF77ABE22
:1095B000024B034AC3F80026704700BF0000014079
:1095C0003546526E38B54FF0A044FEF79DFE03239A
:1095D000C4F83C374FF400450C23C4F834370A2054
:1095E000C4F81855C4F80855FEF762FED4F81035D3
:1095F000C4F80C559B0442BF024B034AC3F8002633
:1096000038BD00BF000001403546526E08B572B645
:10961000FEF772FEFEF770FEFEF776FE44F620605F
:10962000FEF746FEF6E72AB102F58052936C0BB1C5
:10963000D26C18470020704700F58050C0E9121224
:10964000704700F5805200F583500B6803604B684B
:1096500043600B8903818B7A92F86C108372DBB2C2
:1096600021B143F0020382F86A30704703F0FD0332
:10967000F9E7000030B50729054685B0084615D83A
:1096800004D105F5805191F86C4064B1084C029505
:1096900000F582511831CDE9003413466A180021D3
:1096A000FFF70CFA0446204605B030BD0024FAE767
:1096B0002796000070B50546FFF76FFA012808D01D
:1096C000831EDBB2012B05F5805403D8236F0133D1
:1096D000236770BD94F84400226C072805F140010F
:1096E00015D194F86C3093B1A36F23B1BDE87040ED
:1096F0001846FFF72DBC13460A4601462846FFF7D9
:10970000B9FF0028E5D0636F01336367E1E7256D9A
:10971000002DDED0636DAC46BDE870406047034667
:10972000084603B118477047F8B507460D4614467A
:10973000002A00F08880444B03F1100153F8040B19
:1097400042F8040B8B42F9D11B8813803F49E8692A
:10975000FFF7E5FF2B6813B1F72098472080238897
:10976000F62B8CBF01230023A37303D83849E86983
:10977000FFF7D5FF3749E869FFF7D1FF6B681BB1E9
:10978000FB2108469847E073AB6813B1211DA01C6C
:10979000984763883F2B02D9A3883F2B05D8002325
:1097A0002D49E869E373FFF7BAFF2C49E869FFF731
:1097B000B6FFEB68002B33D101262B6913B1E11DF5
:1097C000A01D9847002E34D0E28840F202239A422E
:1097D0002FD101232374002F32D0022F0CBF0C266F
:1097E00018261F49E869FFF79AFF6B6923B14FF408
:1097F000C872002130469847AB6933B104F10C02BE
:1098000004F10A0104F1080098472389E869154921
:10981000003B18BF01236374BDE8F840FFF77FBF2A
:10982000984706460028C7D10F49E869FFF777FF38
:10983000C3E700230D49E8692374FFF770FFCAE707
:109840004FF4C876CDE7F8BD786F01008B69010051
:10985000AA690100E3690100026A01003A6A010095
:10986000A36A0100CA6A0100546A0100756A010016
:10987000034B1B6813B1034A10681847704700BFB9
:109880002417002020170020034B1B6813B1034A44
:1098900010681847704700BF1C17002018170020D9
:1098A00003880B7003881B0A4B7043888B704388B6
:1098B0001B0ACB7083880B7183881B0A4B718379D9
:1098C0008B71C379CB7103890B7203891B0A4B72AD
:1098D000837A8B720023CB72704782B0C0E900128A
:1098E0000C220021083002B00CF0A7BF006808B1BC
:1098F000FFF7E0BE704700007FB5144E0B460446EC
:109900007168306801AD03C5B06828609888ADF80B
:10991000080020685D8819891E88DB88ADF804601E
:10992000ADF80650ADF80A30ADF80C108DF80E20E9
:1099300010B101A9FFF785FE04F1080101A8FFF7A6
:10994000AFFF00F0BDFBE07404B070BD8A6F010092
:10995000006808B1FFF770BE70470000004870470C
:109960004800002008B1FB23038009B1FB230B80D2
:109970007047000038B1094B1B7863B1022B0CBF54
:109980000C231823038009B100230B8012B14FF47C
:10999000C873138070474FF4C873F3E7BA00002010
:1099A0000220704701460320FEF72ABD02F09EBE4A
:1099B000FFF73EBB70B503780F2B90B0044600F064
:1099C000DB8007D8002B32D0012B00F0B4800020C0
:1099D00010B070BD122BFAD14368002BF7D1C37AB7
:1099E000827A6A4C6A4D6B4E2B70022B08BF022A9A
:1099F000E371694832700CBF012300232374A27104
:109A0000FEF7D4FC3078FEF7E5FC6448FEF7CEFCA8
:109A10002878FEF7DFFC6248FEF7D2FC614B18683D
:109A20000028D4D001222146FFF766FFCFE7436824
:109A3000002BCCD15C4D03895C492B800320FEF7C1
:109A4000DFFC5B4B08935B4B09935B4B0A935B4BCF
:109A50000B935B4B0C935B4B0D935B4B0E935B4BF0
:109A60000F935B4B03AA03F110061868596814465C
:109A700003C40833B3422246F7D11B882380554BD9
:109A800003AA187808A9FFF74FFE404B03AC07AEB6
:109A9000224603CAB24218605960144603F1080313
:109AA000F6D112881A809DF812303A4A03B9137819
:109AB00013709DF81330364A03B91378394E13707A
:109AC0003068B0B1444C012203A9FFF715FF238889
:109AD0007BB12A884FF6FF739A420AD030680C2176
:109AE000083009F024FF024618B12188288807F0C1
:109AF0001DFA3A48FEF75AFCBDF80C00FEF76AFC66
:109B00003748FEF753FCBDF80E00FEF763FC3548FE
:109B1000FEF74CFC9DF81200FEF75CFC3248FEF7A5
:109B200045FCBDF81400FEF755FC1D48FEF748FC47
:109B3000FFF79EFE4BE71C4B2C494FF6FF720320AC
:109B40001A80FEF75DFC2A48FFF730FDFFF79CFE08
:109B5000022300218DF820308DF82130254B009311
:109B6000019108AB6FF000420846CDF82210CDF805
:109B7000261005F091FC2AE71F48FEF717FC208904
:109B8000FEF728FC0648FEF71BFC20E74E000020ED
:109B90006000002061000020906B0100A76B0100B5
:109BA0005E69010030170020B80000200D6B010035
:109BB000E99C0000C19C000065990000999C000090
:109BC0003D9C0000FD9B000075990000A5990000D8
:109BD00014710100BA0000202C170020356B010021
:109BE0004B6B0100566B0100616B0100686B01005B
:109BF00064000020B59900007A6B01001FB50E4B80
:109C0000044618884FF6FF7398424FF0000310D0B7
:109C1000ADF8081001A90393ADF80440ADF8064073
:109C2000ADF80A2005F040FFB0FA80F0400904B01A
:109C300010BD1846FBE700BFB8000020134B37B536
:109C4000054618884FF6FF7398420C4613D0002340
:109C50000DF107020DF106018DF806308DF8073081
:109C600005F0D0F938B90A4B9DF806201A70094B57
:109C70009DF807201A7015B1054B1B782B7014B195
:109C8000044B1B78237003B030BD00BFB800002028
:109C9000610000206000002008B5084B18884FF6CE
:109CA000FF73984208D002220023114605F0D9F92B
:109CB000B0FA80F0400908BD0020FCE7B8000020A1
:109CC0000A46084908B5034608884FF6FF718842DE
:109CD00006D0194605F0A0FFB0FA80F0400908BD93
:109CE0000020FCE7B800002010B50A4C22884FF68F
:109CF000FF739A420BD003F035FA002220881146F8
:109D000007F0E6F82088BDE8104003F027BA1720D6
:109D100010BD00BFB800002008B5134612785AB92C
:109D2000064A116841B158680C22083102F0B4FDAE
:109D3000002818BF112008BD0E20FCE730170020B6
:109D400030B51378012BBFB003D00E2420463FB0AE
:109D500030BD5068058AF42D0DD800232A4601A98C
:109D600009F0F8FD04460028EFD104482A4601A96D
:109D7000FFF78BFBEAE70D24E8E700BF6400002053
:109D800030B51378012B89B003D00E24204609B0DA
:109D900030BD5068058A202D0DD800232A4669461B
:109DA00009F0D8FD04460028EFD104482A46694648
:109DB000FFF7CEFAEAE70D24E8E700BF64000020D1
:109DC00070B51378012BBEB003D00E2528463EB0E7
:109DD00070BD5068068AF42E1FD80023324601A9B0
:109DE00009F0B8FD05460028EFD1FFF7B7FD04469E
:109DF00002F0E2FC237980B213B12388834200D9B8
:109E0000208001232371064B608018680028DDD074
:109E1000324601A9FFF76AFDD8E70D25D6E700BF56
:109E20003017002030B51F20A1B0364C364D00F061
:109E3000D7F935480CF038F923683BB19B792BB141
:109E400028460CF001FA31480CF0F8F9236843B1C8
:109E50001B7933B12E4B1B781BB1FFF7E9F80CF0DF
:109E6000ADF92C4808F02AF930B12B49012021B076
:109E7000BDE83040FEF7C4BA264808F0FBF80446B7
:109E800008B12649F2E70146682206A80CF0D5FC85
:109E90000623234A8DF81830BDF838300D9513404D
:109EA00043F4827343F00103ADF838301D4B0B933C
:109EB000BDF83030134043F4807343F0010306A82B
:109EC000ADF8303005F0DBFB02238DF80C308DF857
:109ED0000D30154B00936FF0004203AB2146019407
:109EE0002046CDF80E40CDF8124005F0D5FA0F49C6
:109EF0000320FEF785FA4FF6FF7000F071F921B0EC
:109F000030BD00BF30170020AE6B0100B46B010004
:109F100028170020986F0100BD6B0100D96B01006C
:109F200000FEFFFF03710100B5990000F46B010012
:109F3000FFF7B0B9FFF764B8FFF79CB9FFF775B941
:109F4000FFF764B938B50B4C25884FF6FF72954280
:109F50000ED0094D2A885AB150B189B209F0E7FCF8
:109F6000024628B129882088BDE8384006F0DEBFC7
:109F700038BD00BFB80000202A17002008B51346DE
:109F8000127842B905495868022202F085FC00287F
:109F900018BF112008BD0E20FCE700BF287001008B
:109FA000F8B5154E32884FF6FF739A4201D1002062
:109FB000F8BD124F3B88002BF9D089B209F0B7FCED
:109FC0000546FFF7CBFC044602F0F6FB227983B28C
:109FD00012B122889A4200D9238001222271638023
:109FE000002DE4D0398830882A4606F09FFFB0FA69
:109FF00080F04009DCE700BFB80000202E170020E9
:10A0000010B51F4B88B018601E4B0446197018B16C
:10A010001D490022FFF79CFCFFF7F6F80023079389
:10A020001A4B00931A4B01931A4B02931A4B03934A
:10A030001A4B04931A4B1B48059369461A4B069317
:10A04000FFF73CF902F034FB184B194A1A610CF087
:10A050003FF80CF08FF854B1237923B10CF0C2F81B
:10A06000144B01221A70A3790BB10CF0F3F81248CB
:10A070000BF056FE11490320FEF7C2F908B010BDDF
:10A0800030170020BA000020A19F0000419F00006F
:10A090003D9F0000399F0000B1990000359F0000EE
:10A0A000319F000064000020459F00006C110020DB
:10A0B000259E000028170020AD990000136C0100B8
:10A0C000014B1878704700BF341700202DE9F84382
:10A0D0001746BDF8205006460C469846FEF7C3FAD0
:10A0E000791C891B184B89B200224FEA152C90B2BB
:10A0F000814203F1020306D84D004FF00009A0454C
:10A1000007D2BDE8F88303F802CC03F8015C013202
:10A11000EDE723463A462146304609F10109FEF7AC
:10A12000A2FA1FFA89F908482946FEF7C5FBB9F1DA
:10A13000200F05D1FFF73CFAFEF7DEF84FF00009DB
:10A140000134A4B2DBE700BF381700202DE9F04F3F
:10A1500000F10F0389B09BB2074605911C250393BC
:10A16000059B23FA05F4A5EB85061C4B04F00F04B0
:10A170005C3604EB8404B6B21C4439464FF61F0922
:10A180004FF6FF7A8B1C9BB214F801BB0493304648
:10A190004FF000082BFA08F212F0010F0CBF4B46EB
:10A1A0005346821C009392B2049BCDE90601FFF74F
:10A1B0008DFF0698079908F101080330B8F1030FE5
:10A1C00080B2E7D1039B033189B28B42DAD1043DDF
:10A1D0002B1DC5D109B0BDE8F08F00BF267101006D
:10A1E00007B5EF23002100901A460846FFF76EFFDF
:10A1F00003B05DF804FB08B572B643F69824FEF789
:10A200007BF8FFF7DFF9C82C254628BFC82528466C
:10A21000FEF75EF8641BF2D12046FFF7E1FFFFF77F
:10A22000F5F90000F0B54FF0804389B00020D3F875
:10A230000074FFF7D5FF164A164BCDE90223164BE3
:10A240000FCB04AC84E80F0002AE142554F8043B95
:10A250003B4214BF338842F2041305F13202284610
:10A260003735009392B296235A21ADB2FFF72EFFF5
:10A27000F02D06F10206E9D14FF080434FF0FF3296
:10A28000C820C3F8002409B0BDE8F040FEF720B8AC
:10A2900000F820FDE0FFFF077871010008B50446D3
:10A2A000FEF72AF84FF0E023D3F8286DD3F82C5DA1
:10A2B00004B1A4694FF61F00FFF792FF3146282032
:10A2C000FFF744FF29464620FFF740FF2146642060
:10A2D000FFF73CFFFFF78FFF08B540F2FF70FFF775
:10A2E0007FFFFFF788FF08B5FFF7D8FF1EF0040FC8
:10A2F0000CBFEFF30880EFF30980FFF7F4BF000015
:10A3000037B5164916484FF08072FFF7E6FA144841
:10A310000121FFF775FE3224FDF7EEFFFFF752F93A
:10A32000CC2000F0BFFB013CF6D14FF6FF70FFF7E9
:10A3300057FF43F69824FDF7DFFFFFF743F9C82CDA
:10A34000254628BFC8252846FDF7C2FF641BF2D169
:10A350002046FFF745FFFFF759F900BFD000002066
:10A36000BC00002008B5FDF7C7FFBDE80840FFF7B7
:10A3700029B908B5FFF7B0FF08B5FFF7ADFF08B57D
:10A38000FFF7AAFF07B5FDF7B7FFFFF711F9FEF7D3
:10A3900057F8FEF7B3F9FEF7C7FA3720FEF7FEFAD3
:10A3A0004FF47840FFF71CFFFFF73CFF4FF62050BB
:10A3B000FFF716FF02220023CDE9002306490748D4
:10A3C0004FF4806200F0AEF8012801D0FFF784FF5F
:10A3D00000F08EF9FAE700BF4B6C010001A300000A
:10A3E0002DE9F843224B234C1D68234BD3F8008002
:10A3F000224B0646D3F80090206804300F4601F047
:10A4000065FA40B922681E49D06A0B680122824071
:10A4100023EA02030B60731C14D19FB1194B21680E
:10A420005A688A6021689068C86021680431416078
:10A43000216804319160226853611A6801321A6000
:10A44000BDE8F88323682168AD195D6001F104015E
:10A4500004D34846BDE8F84301F021BA404601F074
:10A460001EFA094B1A68AA4288BF1D60E8E700BFC0
:10A470003C190020181A0020881900208419002097
:10A48000381900204419002020190020064A1368BA
:10A490001968064B19B94FF0FF321A6070471268FD
:10A4A000D2681268F9E700BF88190020201900203F
:10A4B000F8B50E4C0E4F0F4E236803B9F8BD01F0EE
:10A4C0001FFEFB68DD68281D01F000FA3368013BC0
:10A4D00033602368013B236001F030FE286B01F0FC
:10A4E000F7FC284601F0F4FCE6E700BF581900200D
:10A4F0005C1900204019002008B5094C4FF0E025F8
:10A500004FF08056FFF7D4FF2368012B05D9C5F81B
:10A51000046DBFF34F8FBFF36F8FFFF723FFF1E79A
:10A52000B41900202DE9F84F970080463846DDE940
:10A530000A5A0E46994601F003FC834618B94FF0BB
:10A54000FF30BDE8F88F502001F0FAFB04460028E8
:10A5500000F09880502200210CF06FF93A46C4F8C0
:10A5600030B0A52158460CF068F9236B043F1F4416
:10A5700027F007076EB1731E04F133020B3613F890
:10A58000011F02F8011F09B1B342F8D1002384F87A
:10A590003F30042D05D9484840F26471FFF7EFFEC3
:10A5A0000425261DE5622564304601F075F9C5F1E4
:10A5B000050504F1180001F06FF92461A5616462DA
:10A5C0004A464146384601F085FD2060BAF1000F49
:10A5D00001D0CAF8004001F093FD384B384F1A689B
:10A5E000DFF8048101321A603D68002D4ED13C60D5
:10A5F0001B68012B1FD1C1464846013501F041F9C6
:10A60000052D09F11409F7D1DFF8E0902D4D4846EA
:10A6100001F037F9284601F034F92B4801F031F9FF
:10A620002A4801F02EF92A4801F02BF9294BC3F8EA
:10A630000090294B1D60294A294913680868013395
:10A640001360E36A01229A4002430A6014225343D2
:10A6500008EB03014A68A2609068E060466096607B
:10A6600058F803206161013248F8032001F066FDCB
:10A670001C4B1B6823B13B68DA6AE36A9A4210D329
:10A6800001205EE7584601F023FC58E7154B1B6894
:10A69000002BD0D13B68DA6AE36A9A4298BF3C60EB
:10A6A000C9E74FF0E0234FF08052C3F8042DBFF309
:10A6B0004F8FBFF36F8FE3E74E6C0100401900200E
:10A6C000181A00208C190020701900205C19002035
:10A6D0004419002088190020841900202419002022
:10A6E0003819002034190020B4190020A0190020C6
:10A6F00010B51B4A86B003AB12F8014B03F8014BAF
:10A70000002CF9D1174B1848CDE90043802223468D
:10A7100003A9FFF707FF012808D0144840F6A961F4
:10A72000FFF72DFE124B1B6806B010BD01F02EFA8C
:10A73000012812D14FF0600383F31188BFF36F8FAC
:10A74000BFF34F8F0B4B4FF0FF321A600A4B18606C
:10A750000A4B1C6001F028FDE4E70130E2D1DCE7A0
:10A760009C6C01001C190020F9A400004E6C010033
:10A770008871010020190020341900203C190020A4
:10A78000024A136801331360704700BF1819002094
:10A79000014B1868704700BF3C19002008B501F054
:10A7A000ADFD014B186808BD3C190020014B18682D
:10A7B000704700BF401900202DE9F84F564B1B6829
:10A7C000002B40F0A280554B1C6801341C609CB9E2
:10A7D000534D2B681B6823B1524841F25F21FFF7AC
:10A7E000CEFD514B2A68196829601A604F4A1368D8
:10A7F00001331360FFF74AFE4D4D4E492B68DFF8D9
:10A8000044C19C424FF0000207D3454F4A4E3B687B
:10A810001B689BB94FF0FF332B60DCF800304748D2
:10A82000DB6A046814204343C858012898BF002CF1
:10A8300014BF012000201043BDE8F88F3B68DB689F
:10A84000DB685868844201D22860E6E7D3E9020950
:10A85000D3F81480C0F80890C9F80400D8F80400B0
:10A8600003F1040E70454FF0000008BFC8F80490D3
:10A870005861D8F800000138C8F80000D3F82880E3
:10A88000B8F1000F15D0D3E90709C0F80890C9F84E
:10A890000400D8F8040003F1180A50454FF00000F6
:10A8A00008BFC8F804909862D8F800000138C8F8CA
:10A8B0000000D86AD6F800904FF0010808FA00F8B6
:10A8C00048EA0908C6F800804FF0140808FB00F8B1
:10A8D00001EB080ADAF80490C3F80890D9F808B038
:10A8E000C3F80CB0CBF804E0C9F808E0C3F814A032
:10A8F00051F80830013341F80830DCF80030DB6AE9
:10A90000984288BF42F0010281E70D4A1368013383
:10A910001360002090E700BF181900203C190020A8
:10A92000881900204E6C010084190020281900208D
:10A9300020190020B4190020381900202C190020FB
:10A9400030190020181A00202DE9F84F4C4C01F066
:10A95000D7FB236823B94B4840F68B71FFF70FFDF7
:10A960002368013B236023682BB1002401F0E6FB40
:10A970002046BDE8F88F444A1268002AF5D04348C3
:10A98000434C444ADFF818C1434D0126142753E0D5
:10A99000C368DB68D3E90718D3F828E0C1F808805A
:10A9A000C8F80410DEF8041003F1180949454FF007
:10A9B000000108BFCEF804809962DEF8001001396A
:10A9C000CEF80010D3E90218D3F814E0C1F80880DB
:10A9D000C8F80410DEF8041003F104094945DEF854
:10A9E000001008BFCEF804800139CEF80010D3F86B
:10A9F0002CE0D4F8008006FA0EF141EA080107FBCA
:10AA00000EF802EB080A2160DAF804109960D1F818
:10AA100008B0C3F80CB0CBF80490C1F8089052F815
:10AA20000810C3F814A0013142F80810DCF8001037
:10AA3000C96A8E4500D92E6001680029A8D10BB1E2
:10AA4000FFF724FD154D2C6844B1134E0127FFF785
:10AA5000B3FE00B13760013CF9D12C600E4B1B688E
:10AA6000002B82D00E4B1B684FF0E0234FF080523A
:10AA7000C3F8042DBFF34F8FBFF36F8F012475E729
:10AA8000181900204E6C0100401900207019002098
:10AA900038190020B41900202C190020301900208A
:10AAA000181A002010B5044650B94FF0E0234FF0BB
:10AAB0008052C3F8042DBFF34F8FBFF36F8F10BDCB
:10AAC000FFF75EFE084B1B68012B04D0074840F6D9
:10AAD0008E11FFF754FC00212046FFF781FCFFF7A1
:10AAE00033FF0028E1D0EAE7181900204E6C01007E
:10AAF000204B1A68204B70B512B101221A6070BD4C
:10AB00001E4D1A602B681B6B1A68B2F1A53F0BD162
:10AB10005A68B2F1A53F07D19A68B2F1A53F03D1B7
:10AB2000DB68B3F1A53F04D0296828683431FFF70A
:10AB300023FC134B1C68B4FA84F4E4B2C4F11F0480
:10AB40001423104E6343F35823B90F4841F2FA31EE
:10AB5000FFF715FC14235C433219083453685B6813
:10AB600053602644B34204BFD3685360DB682B6054
:10AB70002B68C4E7181900202C190020181A00208F
:10AB800038190020B41900204E6C010038B50D466C
:10AB9000044620B908484FF4A451FFF7F0FB074BD7
:10ABA00019682046183100F07AFE28460121BDE8D8
:10ABB0003840FFF715BC00BF4E6C0100181A00208A
:10ABC00070B50E461546044620B9114841F2BE4103
:10ABD000FFF7D5FB0F4B626819689068CA61196866
:10ABE000086219681831416019681B681831916052
:10ABF0009C622368002D03F10103236029460CBFEA
:10AC000030464FF0FF30BDE87040FFF7E9BB00BFB2
:10AC10004E6C0100181A0020F8B5C368DC6824B92E
:10AC2000284841F2F541FFF7AAFBD4E90712A36ACD
:10AC30008A605160596804F11800814208BF5A6067
:10AC40000022A2621A68013A1A601F4BE26A1B686E
:10AC5000002B2AD1D4E902016369816048605868F9
:10AC6000251DA84208BF59601968013919601749A4
:10AC700001230868934003430B6015491423534391
:10AC8000CE187068A0608768E7607D608560C858EE
:10AC900066610130C8500F4B1B68DB6A9A4283BF64
:10ACA0000D4B012018600020F8BD0C4B5968E16184
:10ACB0008D682562686088601968A3620131196037
:10ACC000E9E700BF4E6C0100181900203819002078
:10ACD000B4190020181A00202C1900207019002027
:10ACE000034B1B680360034B1B684360704700BF46
:10ACF000281900203C19002070B50D46044620B9E3
:10AD0000154841F2A551FFF73AFB25B9124841F227
:10AD1000A651FFF734FB01F0F3F9104B19682B68CB
:10AD20005A1C17D00E48266800686268864208D010
:10AD30008A4206D800232B60012401F0FFF9204647
:10AD400070BD881A8342F5D95B1A13442B602046E4
:10AD5000FFF7C6FF0024F0E74E6C01003C1900200D
:10AD600028190020014B01221A6070472C1900207D
:10AD7000014B1868704700BF181A0020054B1B686C
:10AD800033B1054B1868B0FA80F0400940007047B5
:10AD9000012070473419002018190020F8B5044626
:10ADA000002837D0224DC36A2A68D26A934236D22D
:10ADB0008269204E002AA1BF2A68D26AC2F1050228
:10ADC0008261142202FB036342699A4223D1071D68
:10ADD000384600F07BFD184930B9E06A0B68012263
:10ADE000824023EA02030B602B680868DB6AE36297
:10ADF00001229A4002430A6014225343F1184A6820
:10AE0000A2609068E06047609760F258616101322B
:10AE1000F2500120F8BD2B68DB6AC362F9E72B68AA
:10AE2000006CDB6A98422CBF00200120F2E700BFD3
:10AE3000181A0020B419002038190020F8B504466B
:10AE400008B90020F8BD204B1B68834204D01F487E
:10AE500041F62821FFF793FA636C23B91B4841F6AA
:10AE60002921FFF78CFA636CE16A226C013B914265
:10AE70006364E6D0002BE4D1251D284600F026FDB2
:10AE8000134A30B9E06A13680121814023EA0103C3
:10AE90001360236C1668E362C3F105010120A16110
:10AEA00000FA03F1314311600A4A14214B43D618CA
:10AEB0007168A1608F68E7607D608D60D1586661C0
:10AEC0000144D150BEE700BF181A00204E6C0100AB
:10AED00038190020B419002070B50D46044600282A
:10AEE00045D0436C23B9224841F68621FFF747FA43
:10AEF000236C9D4238BF1D46E36AAB4237D0636C7A
:10AF0000012B34D11B4B1B68A34204D1184841F6D6
:10AF1000A121FFF734FAA269E36AE562002AA4BF1F
:10AF2000C5F10505A561144D142202FB03536269A6
:10AF30009A421CD1261D304600F0C8FCE36A0F4A35
:10AF40000121994018B9106820EA010010601068CA
:10AF50000143116014225343E9184A68A2609068C3
:10AF6000E06046609660EA5861610132EA5070BD67
:10AF70004E6C0100181A0020B41900203819002066
:10AF8000034B186810B1436C01334364704700BF32
:10AF9000181A002010B5044601F0B2F8A46B01F0B5
:10AFA000CDF8B4FA84F0400910BD70B51646026CB5
:10AFB000856B044642B906689EB98068FFF73EFF7C
:10AFC000A6600135A56370BD6EB940680BF050FCFA
:10AFD0006368226C1344A2686360934224BF2368B1
:10AFE00063600020EDE7C0680BF042FC226CE36870
:10AFF00051429B1A2268E36093423EBFA3685B18EC
:10B00000E360022EEDD10DB1013DEAE72846D8E715
:10B01000034610B41A6C084662B1DC68A1189C683B
:10B02000D960A14228BF19685DF8044B28BFD960D8
:10B030000BF01EBC5DF8044B704770B5044601F080
:10B040005FF894F8455004F124066DB2002D01DD3F
:10B05000636AB3B9FF2384F8453001F06FF801F05B
:10B060004FF894F8445004F110066DB2002D01DD44
:10B0700023697BB9FF2384F84430BDE8704001F0B8
:10B080005DB83046FFF7C8FD08B1FFF76BFE013D24
:10B090006DB2DBE73046FFF7BFFD08B1FFF762FE98
:10B0A000013D6DB2E2E7000070B50E46044640B1C6
:10B0B000C56B65B921484FF4B671FFF760F9002000
:10B0C00031E01E4840F23711FFF759F9F2E7036CFF
:10B0D000A3FB0535002DEDD101F012F8D4E90F31B5
:10B0E000226862604B43D0185B1A1A44FF23A563A1
:10B0F000A06084F84430E26084F84530A6B9236942
:10B1000073B104F11000FFF787FD48B14FF0E02361
:10B110004FF08052C3F8042DBFF34F8FBFF36F8FF2
:10B1200001F00CF8012070BD04F1100000F0A9FB43
:10B1300004F1240000F0A5FBF2E700BFA16C0100C0
:10B1400070B50D460646C8B1A1FB0023B3B948430C
:10B1500010F1490F12D8483000F0F2FD044690B1CA
:10B1600055B100F14803C4E90F6523600121204671
:10B17000FFF79AFF204670BD0346F4E7034840F20C
:10B180002A21FFF7FCF80024F4E700BFA16C0100BE
:10B1900010B50C4640B1884206D302220021FFF7C9
:10B1A000CFFF00B1846310BD034840F29F31FFF729
:10B1B000E6F80020F7E700BFA16C01002DE9FF4190
:10B1C0000E4601921D46044620B94C4840F2B63165
:10B1D000FFF7D5F836B9236C23B1484840F2B731B0
:10B1E000FFF7CDF8022D07D1E36B012B04D04348C4
:10B1F0004FF46E71FFF7C3F8FFF7C0FD30B9019B44
:10B2000023B13E4840F2BB31FFF7B9F80027B846FA
:10B2100000F076FFA26BE36B9A421BD22A463146BE
:10B220002046FFF7C2FE636A1BB104F12400FFF75A
:10B23000F3FC48B14FF0E0234FF08052C3F8042DE7
:10B24000BFF34F8FBFF36F8F00F078FF012004B082
:10B25000BDE8F081022DE1D0019B1BB900F06EFF2B
:10B260000020F4E717B902A8FFF73AFD00F066FFE7
:10B27000FFF786FA00F044FF94F84430FF2B08BF34
:10B2800084F8448094F84530FF2B08BF84F845804B
:10B2900000F054FF01A902A8FFF72EFD38BB00F013
:10B2A0002FFFA26BE36B9A420ED100F047FF01998A
:10B2B00004F11000FFF76AFC2046FFF7BEFEFFF71F
:10B2C00043FB48B10127A3E700F038FF2046FFF712
:10B2D000B4FEFFF739FBF5E74FF0E0234FF0805263
:10B2E000C3F8042DBFF34F8FBFF36F8FEAE72046FB
:10B2F000FFF7A3FEFFF728FBB2E700BFA16C010038
:10B3000010B5024600210120FFF71AFF044638B1AC
:10B31000002383600360C3601A461946FFF74EFF9F
:10B32000204610BD38B5044620B90C4840F2FB2138
:10B33000FFF725F8A568FFF71BFD85420BD1E368F1
:10B34000013BE3600BB1012038BD1A461946204687
:10B35000FFF734FFF7E70020F6E700BFA16C01001C
:10B360002DE9F843894617461E46044620B92B4866
:10B370004FF49261FFF703F8B9F1000F06D1236C87
:10B3800023B1264840F29141FEF7F9FF022E07D182
:10B39000E36B012B04D0214840F29241FEF7EFFF0E
:10B3A00000F0ACFFEFF311884FF0600383F31188D6
:10B3B000BFF36F8FBFF34F8FA26BE36B9A4201D342
:10B3C000022E29D194F84550A36B6DB232464946FE
:10B3D0002046FFF7EAFD6B1C0ED1636A3BB104F116
:10B3E0002400FFF719FC10B10FB101233B600120CD
:10B3F00088F31188BDE8F883FFF7D8F98542F6D2C3
:10B400007F2D04D1054840F21E51FEF7B8FF0135EB
:10B410006DB284F84550EAE70020E9E7A16C01002D
:10B42000F8B50E46044620B925484FF4A861FEF74A
:10B43000A6FF236C23B1224840F24451FEF79FFF40
:10B44000236833B9A36823B11D4840F24951FEF780
:10B4500096FF00F053FFEFF311874FF0600383F383
:10B460001188BFF36F8FBFF34F8FA36BE26B9A42CC
:10B4700024D994F845200133FF2A55B2A3630DD196
:10B48000636A3BB104F12400FFF7C6FB10B10EB1B3
:10B4900001233360012087F31188F8BDFFF786F997
:10B4A0008542F7D27F2D04D1054840F2CB51FEF7FB
:10B4B00066FF01356DB284F84550EBE70020EAE7FE
:10B4C000A16C01002DE9FF410D460192044620B90F
:10B4D000444840F2E951FEF752FF35B9236C23B1DD
:10B4E000404840F2ED51FEF74AFFFFF747FC30B904
:10B4F000019B23B13B4840F2F251FEF740FF002789
:10B50000B84600F0FDFDA66BE6B129462046FFF7E0
:10B510007FFD2369013EA66373B104F11000FFF7BC
:10B520007BFB48B14FF0E0234FF08052C3F8042D6D
:10B53000BFF34F8FBFF36F8F00F000FE012004B008
:10B54000BDE8F081019B1BB900F0F8FD0020F6E793
:10B5500017B902A8FFF7C4FB00F0F0FDFFF710F9E0
:10B5600000F0CEFD94F84430FF2B08BF84F84480EF
:10B5700094F84530FF2B08BF84F8458000F0DEFDCD
:10B5800001A902A8FFF7B8FB00BB2046FFF702FDA8
:10B59000B0B1019904F12400FFF7F8FA2046FFF753
:10B5A0004CFDFFF7D1F948B94FF0E0234FF080523E
:10B5B000C3F8042DBFF34F8FBFF36F8F0127A0E7B0
:10B5C0002046FFF73AFDFFF7BFF9F7E72046FFF700
:10B5D00034FDFFF7B9F92046FFF7DCFC0028EDD079
:10B5E000B4E700BFA16C0100F0B585B0044601913D
:10B5F00020B9504840F28261FEF7C1FE236C23B1AE
:10B600004C4840F28661FEF7BAFEFFF7B7FB30B94F
:10B61000019B23B1474840F28B61FEF7B0FE002545
:10B620002F462E4600F06CFDA36BE3B1013BA363F4
:10B63000236813B9FFF7A4FCA060236973B104F178
:10B640001000FFF7E9FA48B14FF0E0234FF08052C5
:10B65000C3F8042DBFF34F8FBFF36F8F00F06EFD63
:10B66000012005B0F0BD019B1BB900F067FD002073
:10B67000F7E717B902A8FFF733FB00F05FFDFFF70C
:10B680007FF800F03DFD94F84430FF2B08BF84F8AC
:10B69000446094F84530FF2B08BF84F8456000F003
:10B6A0004DFD01A902A8FFF727FB50BB2046FFF77D
:10B6B00071FC00B323683BB900F022FDA068FFF7DE
:10B6C0006DFB054600F03AFD019904F12400FFF7F7
:10B6D0005DFA2046FFF7B1FCFFF736F948B94FF0A5
:10B6E000E0234FF08052C3F8042DBFF34F8FBFF318
:10B6F0006F8F012796E72046FFF79FFCFFF724F99D
:10B70000F7E72046FFF799FCFFF71EF92046FFF701
:10B7100041FC0028EDD0002DA9D000F0F1FC616AB9
:10B7200019B1236B1968C1F10501A068FFF7D4FBBB
:10B730009BE700BFA16C010070B50D46044620B91F
:10B740000A4840F23731FEF71AFEA668FFF710FBF1
:10B75000864204D1E3680133E360012005E0294615
:10B760002046FFF741FF0028F4D170BDA16C010015
:10B770002DE9F84389469046044620B9254840F211
:10B78000FD71FEF7FCFDB9F1000F06D1236C23B16A
:10B79000204840F2FE71FEF7F2FD00F0AFFDEFF33E
:10B7A00011874FF0600383F31188BFF36F8FBFF3EE
:10B7B0004F8FA66B66B394F8445049466DB220464D
:10B7C000FFF726FC013E6B1CA66311D1236953B120
:10B7D00004F11000FFF720FA28B1B8F1000F02D0F1
:10B7E0000123C8F80030012087F31188BDE8F883F1
:10B7F000FEF7DCFF8542F6D27F2D04D1054840F6E6
:10B800004401FEF7BCFD01356DB284F84450EAE70F
:10B810003046E9E7A16C010010B5044620B906489E
:10B8200040F69B01FEF7ABFD00F06AFCA46B00F054
:10B8300085FC204610BD00BFA16C010070B5044618
:10B840000D46164600F05CFC94F84430FF2B04BF14
:10B85000002384F8443094F84530FF2B04BF0023C4
:10B8600084F8453000F06AFCA36B2BB932462946B8
:10B8700004F12400FFF7A4F92046BDE87040FFF76B
:10B88000DCBB00F108034FF0FF32C0E90223436044
:10B89000036100230360704700230361704730B5E4
:10B8A0000C68631C0AD103695A684A6091608B6016
:10B8B0005960036808610133036030BD00F108027C
:10B8C000134652681568A542FAD9EDE7D0E901128E
:10B8D00003698A6051605968814208BF5A6000223A
:10B8E000026118680138186070470000914208B57D
:10B8F000416000610AD8D21A83699A420DD2084B7E
:10B90000011D1868FFF7CBFF002008BD9A4201D245
:10B91000994202D2034B011DF3E70120F5E700BF76
:10B92000281A00202C1A002070B504460D46164631
:10B93000A1692B46324629442046FFF7D7FF00B9BC
:10B9400070BDA36920461D44236A9847F0E70000B4
:10B950000E4B1B68DB6870B5DC680546201D0E4683
:10B96000FFF7B4FF94F824305A0709D53246294628
:10B970002046FFF7D9FF236A2046BDE870401847EC
:10B9800023F0010384F82430F5E700BF2C1A0020CF
:10B9900010B5084C23681A6822B9074A116821605B
:10B9A000136010BDDB684FF0FF311868FFF7D0FF60
:10B9B000F0E700BF2C1A0020281A0020F8B50D4C23
:10B9C00000F09EFB25688DB90B4F0C4E3846FFF7F3
:10B9D00058FF3046FFF755FF094B1F60094B2A46B9
:10B9E0000C2108201E60FFF7ABFB2060BDE8F8408B
:10B9F00000F0A4BB241A0020441A0020301A0020B2
:10BA00002C1A0020281A00202DE9F0435A4E85B048
:10BA100000275A4B1B68D3F80090B9F1000F2BD0C8
:10BA2000DB68D3F800900025FEF7AAFEFEF7B0FE13
:10BA30003368DFF85481984204461FD33060002DEC
:10BA400049D04F4B1B681D68B5FA85F56D09D8F8CC
:10BA500000002A46A9EB0401FFF7F0FEFEF774FF91
:10BA600088B94FF0E0234FF08052C3F8042DBFF3A4
:10BA70004F8FBFF36F8F06E00125D5E7FFF788FFF3
:10BA80003460FEF761FFCDE901770397D8F8000035
:10BA9000002201A9FFF716FD0028BAD0019B002B58
:10BAA000F4DB039C636913B1201DFFF70FFFFEF762
:10BAB0006FFE33689842054601D2FFF769FF019B8C
:10BAC0003560013B082BE1D8DFE803F00E0E31387A
:10BAD0004E0E0E3138008145B9D8FEF735FF2146AC
:10BAE0004846FFF735FFCEE794F82430A16943F0CC
:10BAF000010384F82430029B2A4619442046FFF7AC
:10BB0000F5FE0028C2D094F8243059070AD5A3695D
:10BB100002992A4619442046FFF706FF236A204669
:10BB20009847B3E723F0010384F82430F6E794F84C
:10BB3000243023F0010384F82430A7E794F824305C
:10BB400043F0010384F82430029BA36123B90D481C
:10BB50004FF48261FEF713FCA1692B462A46294463
:10BB60002046FFF7C3FE91E794F824309A07E0D40B
:10BB7000204600F0ADF989E71C1A00202C1A00209D
:10BB8000281A0020EF6C0100241A002007B5FFF7E7
:10BB900015FF0D4B1B6843B90C484FF4A371FEF71A
:10BBA000EEFB002003B05DF804FB094B0193042376
:10BBB00000930849084800234FF48072FEF7B2FC56
:10BBC0000028E9D0EEE700BF241A0020EF6C010046
:10BBD000201A00203E6D010009BA00002DE9F04155
:10BBE000804628200D4616461F4600F0A9F8044658
:10BBF000D0B1002380F8243025B90D4840F2A911B6
:10BC0000FEF7BDFBFFF7DAFE069BC4F80080C4E92F
:10BC100006572362201DFFF73FFE2EB194F8243013
:10BC200043F0040384F824302046BDE8F08100BFCF
:10BC3000EF6C0100F0B50C4685B01646054620B9FC
:10BC4000114840F2CD11FEF79AFB104F3B68ABB1A3
:10BC5000052CCDE9014603950BDCFFF78FF8034671
:10BC6000022B38680DD10A9A002301A9FFF7A6FA22
:10BC700005E005484FF4EC71FEF781FB002005B0AC
:10BC8000F0BD00231A46F0E7EF6C0100241A0020F3
:10BC9000F0B50C4685B017461E46054620B90D483E
:10BCA0004FF40071FEF76BFB0B4B186880B1052C4D
:10BCB000CDE90147039506DD0023324601A9FFF7D0
:10BCC0004FFB05B0F0BD034840F20B21FEF757FBD8
:10BCD0000020F6E7EF6C0100241A002010B504469E
:10BCE00020B9034840F28521FEF749FB606810BD8A
:10BCF000EF6C010010B5044620B9074840F29141AD
:10BD0000FEF73DFB00F0FCF994F8244004F0010438
:10BD100000F014FA204610BDEF6C010010B5044687
:10BD200020B9064840F2AE41FEF729FB00F0E8F9E1
:10BD3000E46900F003FA204610BD00BFEF6C01007B
:10BD40002DE9F84F431E0A3338D810F0070300F1ED
:10BD5000080505D0A3F10902AA422FD31030C51A55
:10BD6000534EFEF70DFD3368F3B9524A524851075E
:10BD70001FBFD11D21F0070102F59042531A0CBFDD
:10BD80004FF490430A461344083B23F00703002175
:10BD900041600260C3E90011991AC2E900313360C1
:10BDA000464B1960464B1960002D09DCFEF7CCFDAF
:10BDB000FEF7DFFA00263046BDE8F88F0025CFE712
:10BDC0003F4F3B68AB42F1D33B4BDFF8E8A01C6828
:10BDD000544502D33B4B9C4203D93B48F521FEF727
:10BDE000CEFADFF8D480DFF8DCB06368AB4204D26F
:10BDF000D4F80090B9F1000F4ED13368A342D5D0EA
:10BE0000D8F800600836564502D32E4B9E4204D91E
:10BE10002D4840F20511FEF7B2FA2368C8F8003049
:10BE20006368AB4204D2284840F20D11FEF7A7FA2E
:10BE300063685A1B102A14D904EB050919F0070F7F
:10BE400004D021484FF48B71FEF799FA63685B1BAD
:10BE5000C9F80430D8F80030C9F80030C8F80090AC
:10BE60002B4616493A680868D21A824238BF0A60DF
:10BE70003A6043F00043154A63600023236013686F
:10BE800001331360FEF760FD730794D00E4840F253
:10BE90005711FEF774FA8EE7D14501D3D94503D97E
:10BEA0000948FB21FEF76BFAA0464C469DE700BF10
:10BEB000681A0020741A00206C1A0020601A0020F2
:10BEC000641A002073620020466D01005C1A002095
:10BED000F8B50546002868D0344FA0F10804BC42EC
:10BEE00002D3334B9C4204D932484FF4B571FEF76C
:10BEF00046FA55F8043C002B04DB2E4840F26B1147
:10BF0000FEF73DFA55F8083C23B12A484FF4B671C4
:10BF1000FEF735FA55F8043C002B46DA55F8082CA4
:10BF2000002A42D123F0004345F8043CFEF728FCE8
:10BF3000214A55F8043C11680B4413601F4B1A4604
:10BF40001E461B689C42FBD8964209D0BE4202D3D3
:10BF5000174B9E4204D917484FF4FD71FEF70FFAB4
:10BF60007268B3189C4201BF55F8043C34469B18D4
:10BF70007360616833686218934214D1104A126882
:10BF8000934203D05A680A4462601A6822600D4ADC
:10BF90001368A64203F1010318BF34601360BDE8C3
:10BFA000F840FEF7D1BC1A46F0E7F8BD741A00203D
:10BFB00073620020466D0100641A00206C1A002094
:10BFC000681A0020581A002000000000000000003D
:10BFD000074B19680868B0E8F04F80F30988BFF391
:10BFE0006F8F4FF0000080F311887047AFF300802F
:10BFF000181A002008480068006880F308884FF08D
:10C00000000080F3148862B661B6BFF34F8FBFF3B0
:10C010006F8F00DF00BF000008ED00E000000000AF
:10C02000EFF30980BFF36F8F154B1A681EF0100FE6
:10C0300008BF20ED108A20E9F04F10602DE90900BB
:10C040004FF0600080F31188BFF34F8FBFF36F8F05
:10C05000FEF74EFD4FF0000080F3118809BC19680F
:10C060000868B0E8F04F1EF0100F08BFB0EC108A5F
:10C0700080F30988BFF36F8F704700BFAFF3008074
:10C08000181A0020DFF80C00016841F4700101600B
:10C090007047000088ED00E007B5002301930B4BCB
:10C0A0001B68013303D00A48F421FEF768F94FF00A
:10C0B000600383F31188BFF36F8FBFF34F8F019B32
:10C0C000002BFCD003B05DF804FB00BF4C11002036
:10C0D000A66D01004FF0807340F8043C074B40F818
:10C0E0000C3C21F001016FF0020340F8081C40F8FD
:10C0F000202C40F8243C4438704700BF99C0000011
:10C100004FF0600383F31188BFF36F8FBFF34F8F3E
:10C11000084A13680133012B13600AD14FF0E02362
:10C12000D3F8043DDBB223B103484FF4F471FEF7BA
:10C1300026B970474C110020A66D010010B5074CC0
:10C14000236823B9064840F2EF11FEF718F9236877
:10C15000013B23600BB983F3118810BD4C11002003
:10C16000A66D010008B54FF0600383F31188BFF39B
:10C170006F8FBFF34F8FFEF71FFB28B14FF0E02307
:10C180004FF08052C3F8042D002383F3118808BDBB
:10C190004FF0E02300221A619A614FF223425A6164
:10C1A00007221A617047000037B54FF0E0244A4B70
:10C1B000D4F8002D9A4204D1484840F23711FEF7D6
:10C1C000DEF8D4F8002D464B9A4204D143484FF490
:10C1D0009C71FEF7D4F84FF0E023D3F8084D414BA3
:10C1E000E26A9A4204D03D4840F25711FEF7C7F880
:10C1F000A26B3D4B9A4204D038484FF4AC71FEF725
:10C20000BEF800230193394B1A78D2B28DF8022080
:10C21000FF221A701B78364ADBB28DF803309DF886
:10C22000033003F06003137023B92C4840F27B11F4
:10C23000FEF7A5F89DF80330DB4313F0600F04D040
:10C24000264840F27F11FEF79AF89DF8033013F06C
:10C25000800F019B36D1082B18BF019B254A14BFC4
:10C26000C3F1070300231B0203F4E06313609DF88E
:10C2700002301E4A4FF0E024DBB21370D4F8203DA8
:10C2800043F47F03C4F8203DD4F8203D002543F05B
:10C290007F43C4F8203DC4F81C5DFFF779FF164BBF
:10C2A0001D60FFF7EFFED4F8343F43F04043C4F87D
:10C2B000343FFFF79FFEFEF71BFCFFF7EDFE28461D
:10C2C00003B030BD013301939DF803305B00DBB256
:10C2D0008DF80330B9E700BF71C20F41A66D0100B0
:10C2E00070C20F41D1BF000021C0000000E400E097
:10C2F00078620020746200204C11002008B5EFF332
:10C3000005830F2B0AD90E4A9B5C0E4A12789A427B
:10C3100004D90D4840F27A31FEF731F84FF0E023AE
:10C320000A4AD3F80C3D126803F4E063934206D93D
:10C33000BDE80840044840F28A31FEF720B808BD45
:10C34000F0E300E078620020A66D01007462002036
:10C350000170090A417070470B0A017043700B0CA1
:10C36000090E8370C170704700887047006870477D
:10C37000002808DB4309044900F01F000122403374
:10C38000824041F82320704700E100E0F8B50769DA
:10C390000446FFF7B5FED7F80455D7F804316668B0
:10C3A0005BB106F180760023D7F804556660C7F8C4
:10C3B000043194F90100FFF7DBFF3543FFF7BEFEC0
:10C3C0002846F8BD30B484780369BCB34FF48022AA
:10C3D000C3F80823D3F80445D3F8045142681DB1CB
:10C3E000D3F8044502F1807222438A1A002A4FF0E2
:10C3F000010506DCC3F8085330BC90F90100FFF7D3
:10C40000B7BF022A07DCC3F80453D3F804359C42B3
:10C41000F2D130BC7047B2F1807FB4BF21F07F41D0
:10C4200004F500044FF48022C3F80853B4BFC3F8E6
:10C430004815C3F84845C3F80423EAE74FF400223F
:10C44000C3F80823C3F84C15C3F84C41C3F80423C0
:10C4500001229A64D3F848355B1A002BD9DBCBE76D
:10C460002DE9F041254C2669D6F84C3113B1002353
:10C47000C6F84C31A3680133A360D6F808331B0318
:10C4800037D5FFF73DFE01274FF00008656945B13C
:10C49000A3789BB11948FFF779FFEB68C01A002811
:10C4A00011DA6369EBB9A278236922B34FF48022D1
:10C4B000C3F808230122C3F8082316E023699F6408
:10C4C000D3F84805E9E7D5E9043243B15A616A690E
:10C4D0001360D5E90130C5F814809847D6E7A2610A
:10C4E000F5E7D9680548FFF76DFFFFF727FED6F897
:10C4F0004C31BDE8F0814FF40022DCE77C62002083
:10C50000052810B504461CDC0F4B53F82030C3B18E
:10C510001B78B3B9A8B90D4B0D4A1A6108205870A1
:10C520000C4B4FF48072C3F88020BFF34F8FBFF3E2
:10C530006F8FE022084983F8082309F0C1FE2046E6
:10C5400010BD1624FBE700BF8C7101007C62002047
:10C550000080004000E100E061C40000052870B5E3
:10C560004BDC274B53F82050002D46D02C78002C64
:10C5700043D1244B994240D8B3FBF1F1B1F5007F90
:10C580003BD82B69002B38D001290ED001231A4645
:10C5900002FA03F088422BD3DCB2013B9A408A1A9C
:10C5A000401A824201D2013CE4B2164B01262341DB
:10C5B000EB602E70FFF7A4FD2B6900225E60DE6049
:10C5C000C3F804250322C3F80825C3F810451E60EC
:10C5D00095F901206B78002A06DB5A0903F01F0346
:10C5E0009E40094B43F82260FFF7A8FD002070BD74
:10C5F00001330A2BCCD11C46D7E71620F7E700BF42
:10C600008C7101000024F40000E100E005280DDC3D
:10C61000074B53F8200050B183780BB1FFF7B6BE3B
:10C62000036901229A64D3F84805704700207047D7
:10C630008C710100F7B5089F0C469DB2099B0093D1
:10C64000164603463A462946204600F09FFC40B96C
:10C650002B46BAB22146304603B0BDE8F04000F0A8
:10C66000B7B803B0F0BD70B504680E461946238A0A
:10C67000B342054603D800230360204670BD304610
:10C680009047044670B129683346002200F065F9EE
:10C6900040B92868314600F0B3F9286800F0D1FBB2
:10C6A0002860EAE7204600F0E4F80024E5E700000F
:10C6B00008B5002204212020FEF742FD0A4B186035
:10C6C00000F0D2FC00F0D8FC08F032F905F07DFF54
:10C6D00000210520FFF714FF4FF4004000F018F888
:10C6E000BDE8084008F0A3BA9862002008B54FF0F2
:10C6F000FF31034809F042FB43689847F7E700BF62
:10C7000098620020004870479862002008F0C6B97F
:10C7100001460020FFF722BF0020FFF777BF4379D3
:10C72000072B00F1100298BF002300681344C01AC1
:10C7300080B270478268C188128800F110031344E8
:10C7400002680A44981A80B270470000074A10B580
:10C7500011680346084618B909B15068083810BD79
:10C7600004889C42FBD28068F5E700BF501100208E
:10C7700010B50C4A13682BB98360536818600830F1
:10C7800050600CE0198804888C42996801D80B46E7
:10C79000F1E7816011B900F1080151609860002053
:10C7A00010BD00BF50110020024B0022C3E900233E
:10C7B000704700BF50110020044B1B68002003B9D4
:10C7C00070475A689B68D2881044F8E750110020DF
:10C7D000103A028041600020704738B503888B42D0
:10C7E00004460D460CD3406800F0FFFB38B100232F
:10C7F000C360436000F110032B440360846038BDC4
:10C800000020FCE710B50C46FFF7A0FF20B1214641
:10C81000BDE81040FFF7E1BF10BD38B5038801F156
:10C820000805AB420DD3FF2D0BD80021FFF7D5FF34
:10C8300030B1036845712B4403600023C0E9043321
:10C8400038BD0020FCE70830084410B580B20C4623
:10C85000FFF77CFF20B1E1B2BDE81040FFF7DDBF7C
:10C8600010BD0146806808B510B1406800F0E4FBD7
:10C8700008BD10B500B910BDC468FFF7F2FF00286D
:10C88000F9D12046F6E70346002003B97047DA885D
:10C89000DB68104480B2F8E72DE9F0470F461546F3
:10C8A0000646002846D0D0F808A003469946DB6823
:10C8B000002BFBD148462C46FFF73CFF98B1A8421D
:10C8C000A8BF28460446D9F80030B9F80600224629
:10C8D0003946184409F0CCFFB9F806302344274400
:10C8E000A9F806302C1B002C05DD00215046FFF76F
:10C8F00074FF804638B97379072B16D8201E18BFED
:10C900000120BDE8F087BAF80020A242A8BF224665
:10C91000C2803946006809F0ABFFB8F80630C9F8A4
:10C920000C801F44E41AC146DDE7338A1D442D1BE9
:10C930003582E3E70220E4E710B508B910BD002115
:10C940000446C068E3888B4202DC04D10028F6D19B
:10C9500011802046F2E7C91AEFE7F7B50546084609
:10C9600011460DF106021F46FFF7E6FF064617B90E
:10C97000384603B0F0BDAEB1BDF80630F48831687A
:10C98000E41ABC42A8BF3C46A4B222461944284639
:10C99000FFF782FF0028ECD13C1BF668ADF80600DB
:10C9A000A7B2E4E70220E4E7F8B505461F461446BF
:10C9B0003AB92046F8BD05B3EB888B4203DCED683D
:10C9C000C91A0029F7DC002C05DC002CD4BF002498
:10C9D00001246442EDE7002DF7D0EE882B68761A2B
:10C9E000A642A8BF264619443846324609F040FF01
:10C9F000A41BED6837440021E5E74FF0FF34D8E78A
:10CA000070B5002830D000291ADA4B4204460025C0
:10CA1000E2882646E4681544002CF9D19A4244790C
:10CA200023DB9BB2D21A072CF2801DD9028AD31ABB
:10CA300019E0E41AD48014681C44146000230CE04C
:10CA400002460B460025002BF8D0D4889C42F0DC2F
:10CA5000D580D2681B1B002AF5D14279072A03D959
:10CA6000028A521A1344038270BD294421EAE171FB
:10CA7000072C88BF0182C3888B420446C06807DB4D
:10CA8000E1800028F0D0FFF7F4FE0023E360EBE73D
:10CA9000C91A0028EFD1E7E72DE9F7431E1E174614
:10CAA0001DDD0DF10602FFF747FF044620B96FF0C8
:10CAB000004003B0BDE8F0830025A946BDF806009C
:10CAC000E288731B121A9A42A8BF1A461FFA82F80C
:10CAD000B8F1000F05D14544ADB2B5420AD10020EE
:10CAE000E7E7236892B27919184409F07DFE00281F
:10CAF000F1D0DEE7E468ADF80690002CDED1D6E791
:10CB00002DE9F7431E461446002301AAADF8043070
:10CB1000ADF80630BDF82870FFF70EFF3146054628
:10CB20000DF106022046FFF707FF0646002F43D00F
:10CB3000BDF8043000227DBB0AB1ADF80430BDF869
:10CB4000062000219EB3F38893422CD909B1ADF899
:10CB5000062065B3BDF80490EC88BDF80680316806
:10CB60002868A4EB0904A4B2BC42A3EB080328BFC5
:10CB70003C469BB29C4228BF1C4622464144484446
:10CB800009F032FEA8B9A144A0443C1BADF80490C2
:10CB9000ADF80680A7B2C9E7E9889942CCD8ED681C
:10CBA00001220023C7E7F66801210022CAE76FF0DF
:10CBB000004003B0BDE8F0833846FAE72DE9F041C4
:10CBC0000E4604464FF000082046FFF7A8FDE28815
:10CBD00061792368B042A8BF304612FA80F2072973
:10CBE000A3EB0003E28088BF228A236083B284BF64
:10CBF0009B182382361A0CD00729A0680CD9083953
:10CC0000C9B2FFF70AFE054650B92046FFF731FECC
:10CC10002C462046BDE8F0810021FFF7DEFDF2E75B
:10CC20006279072A0CD900F11007384604F1100187
:10CC300009F01EFE63796B711F442F6084F8058034
:10CC40002846FFF777FD2B68EC6003442B602C46E9
:10CC5000BAE72DE9F34791460DF1060207468846EB
:10CC60001C46FFF769FE054660B34FF0000ABDF8A9
:10CC70000600EE88361AA642A8BF2646002E07DD1B
:10CC80002B6849463246184409F0F2FDB144A41B12
:10CC9000A4B1EB681BB1ADF806A01D46E7E7A2B250
:10CCA00049462846FFF7F8FD48B97B79072B05D997
:10CCB0003B8A44449C42B8BF1C463C82002002B0E0
:10CCC000BDE8F0874FF0FF30F9E710B503461A468C
:10CCD000DB68002BFBD1D1604379072B06D94B7958
:10CCE000072B0ED9038A0A8A1344038200234B714F
:10CCF00010BDDC88028ADB6822440282002BF8D156
:10CD0000F4E70B46FAE72DE9F041D0F80880B8F8CF
:10CD100000308B4205460C4602D20020BDE8F0816F
:10CD200007463E46FF68002FFBD13046FFF702FD65
:10CD3000A04207D239464046FFF74FFD0028ECD00D
:10CD4000F0600646F38830681A19F2806A79072A7B
:10CD500001D81844E2E72A8A14442C82F9E72DE925
:10CD6000F041C5888D4204460E4630D2FFF7E2FC02
:10CD70002844B0422EDBE76867B3751BAEB2254688
:10CD80002846FFF7D7FC8046FC88E8883968464586
:10CD90003346A8BF43469C42A8BF1C462B68224688
:10CDA000184409F065FDEB88A2B21344EB80FB88C0
:10CDB0009B1AB61A9BB2B6B2FB80A8EB040823B349
:10CDC0003B6823443B603C4676BBEC602C462046E7
:10CDD000BDE8F081A068627903889B1A9E421EDC40
:10CDE0000021FFF7FAFC0546C8B16279072A0AD983
:10CDF00000F11007384604F1100109F039FD63799C
:10CE00006B711F442F602746BAE73846FC68FFF76E
:10CE100028FD002ED9D03CB92846FFF722FD204638
:10CE2000FFF727FD0024D2E72746ADE710B50C46F3
:10CE3000FFF7C4FE20B12146BDE81040FFF78FBFC9
:10CE400010BDC38870B5054613B12C46204670BD91
:10CE5000C468002CF9D0E38883B12046FFF75FFC5B
:10CE60006A799042F1D3627105F1100104F110006A
:10CE700009F0FEFC2846FFF7F4FCE7E7E668EE6001
:10CE80002046FFF7EEFC3446E3E72DE9F843804601
:10CE9000F0B109B1FFF719FF44462046FFF73FFC08
:10CEA00058B16379E288216804F11005072B88BF27
:10CEB000ED18284609F0A8FC2560E3882268E5689B
:10CEC000204602EB0309FFF735FC07462FB315B9DF
:10CED0004046BDE8F883EE882968BE4228BF3E463A
:10CEE000B6B24846324609F0C3FCE3883344E380D7
:10CEF0002B6833442B60EB88BF1B9B1BB144BFB234
:10CF0000EB80EB88002BE1D1EB68E3602846FFF76C
:10CF1000A8FCE568002DF4D1D8E7002DD8D02C4628
:10CF2000BBE7000070B5044610B10AB113B919B1DE
:10CF3000032022E09D0725D19DF81400A0720498DB
:10CF40002260C4E90530E1802181A1801D46E360B3
:10CF500061B190071CBF22F0030204320120564247
:10CF600088420BDB0139514300234B51064B5A6871
:10CF700000202061146010345C6070BD13440130E7
:10CF80009B51EDE70420F8E79C62002013B50024D4
:10CF90000194049C0094FFF7C5FF02B010BD37B5A3
:10CFA00001250195069D00950446FFF7BBFF08B9D2
:10CFB000C4E9070003B030BD03689A07C2681CBF0C
:10CFC00023F0030304338A420DD8808803FB00203A
:10CFD000814208D2891AB1FBF3F203FB1211B1FAB4
:10CFE00081F0400970470020704738B5044680B191
:10CFF000FFF786F8E38873B165692A686261013BCF
:10D0000022899BB29A42E38000D92381FFF796F8E8
:10D010002C46204638BD1D46F8E738B504460D4677
:10D02000FFF76EF863692B60E38865610133E38085
:10D03000FFF784F8002038BD10B50A46034680B1DA
:10D0400079B1847AE40706D5C46924B12346026A1B
:10D05000BDE81040184711461846FFF7DEFF0020D4
:10D0600010BD0320FCE70000024B0022C3E90023AF
:10D07000704700BF9C62002007B5FFF795FB084B87
:10D0800001934FF492730093064A07490748062319
:10D09000FFF7D0FA034803B05DF804EBFFF768BB75
:10D0A000096E0100C0620020A4620020CC62002052
:10D0B0002DE9F34110F0400805460E4617461C4680
:10D0C0000ED11868018AFFF79BFC0623CDE9008387
:10D0D000394622682B46304600F08FFEC4F80080A7
:10D0E00002B0BDE8F08106F065BC7047172938BF73
:10D0F00017218181704710B5044606F0B9FE30B1A2
:10D10000A38923B16089984228BF184610BD172013
:10D11000FCE710B50C46FFF7EEFF218A814205DDE2
:10D12000411A2046BDE81040FFF76ABC10BD37B574
:10D1300004460D4605F018F96B4601AA294620461B
:10D1400006F038FC40B90098FFF7D5FF044605F01B
:10D150000DF9204603B030BD0024F8E70421FFF7A5
:10D16000E6BF0000A0F11703B3F5FC7F70B50546DC
:10D1700016D80C4B188005F0F7F80026304605F05D
:10D18000F5FD044618B905F0F1F8204670BD0421FC
:10D1900005F02AFD837BDB0758BF45810136EDE7AB
:10D1A0000320F3E7A469002008B506F041FE38B17A
:10D1B00004230381C380034B1B884381024B83619B
:10D1C00008BD00BFA469002019D2000023280FD891
:10D1D000052806D8022818BF04280CBF012000200B
:10D1E0007047044B0638C0B2C34003F001007047DB
:10D1F0000020704755158524012809D00338C3B293
:10D200001E2B04D80348D84000F0010070470020CE
:10D21000704700BF555551482DE9FF41044606F0BF
:10D220005CFE4FF6FF73984205463BD02069268985
:10D230000DF107030122002104F11007FFF7B4FBF1
:10D2400070BB042E16D19DF80700FFF7D5FF88B1FB
:10D2500005F08AF802AA03AB3146284606F0C1FB66
:10D26000024638B90298039980F86C2000F089FBD7
:10D2700005F07CF89DF80700DFF86080002398F83F
:10D280000020904210D004D301331E2B08F108086F
:10D29000F5D13B4632462946FFF70AFF082418E03D
:10D2A000042416E0072414E020690121FFF7A8FBFD
:10D2B000D8F804303A46314628469847044640B1EB
:10D2C000082C06D19DF807003B4632462946FFF759
:10D2D000EFFE204604B0BDE8F08100BFA47101005C
:10D2E000024BF7221A800020704700BFA46900207B
:10D2F000F8B506460F4610460421154606F03BFBDE
:10D30000044640B92B681A683946D378B2F8012030
:10D31000304603F083FE2046F8BD30B5162985B0AF
:10D3200005460C463BD905F01FF801AB02AA0421C3
:10D330002846FFF7D8FE28B105F018F80724204644
:10D3400005B030BD019B9B7BDB0709D405F00EF8CF
:10D35000022103AA084600F004FB28B90624EEE7E0
:10D3600005F004F80224EAE70480039A0421284621
:10D3700000F03CFB04460028E1D104F0F5FF01ABCE
:10D3800002AA04212846FFF7AEFE044620B9019AFE
:10D39000937B43F00103937304F0E8FFCFE703248A
:10D3A000CDE7F7B506460F4610460221154606F0B2
:10D3B000E2FA044668B92B681D6804F0D5FF2246DE
:10D3C00001AB39463046FFF78EFE044618B104F033
:10D3D000CDFF00250EE029880198FFF787FE019810
:10D3E000FFF789FE054604F0C1FF2A4604213046B6
:10D3F00002F098FC30462B462246042103F028FE1A
:10D40000204603B0F0BDF7B506460F461D4614464C
:10D4100082B19A420ED8042101AA084600F0A1FA6E
:10D4200050B104804580019A3946304600F0DEFA5A
:10D4300003B0F0BD0320FBE70620F9E72DE9F04734
:10D44000064686B00F4610460121144606F093FAB0
:10D450000546A8BB20680121D0F80090FFF7D0FA5C
:10D4600023681B8A63B399F800A0BAF1010F23D097
:10D47000BAF1020F23D14FF012084146204606F0C0
:10D480007AFA48BB23681868FEF76EFFBAF1020FFC
:10D490002168ADF800001CD002231A4601A807F04D
:10D4A000ABF960B920684146FFF7AAFA6A463946E7
:10D4B000304603F0E1FDD3E74FF00408DDE70A252D
:10D4C00030462A46394603F003FE284606B0BDE83A
:10D4D000F08710235246E1E70546F1E72DE9F341D5
:10D4E000DDF8288006460F461D461446D2B19A4202
:10D4F00018D801AA08F10601062000F032FA98B106
:10D50000BDF820300999048045808380424606306A
:10D5100009F0AEF9019A3946304600F067FA02B0D8
:10D52000BDE8F0810320FAE70620F8E773B5054669
:10D530000E46144623681A8A32B92846314603F04B
:10D5400017FE002002B070BD0421204606F013FA39
:10D55000B0B92068036859781A7842EA0122ADF818
:10D5600004209A78DB78042142EA0323ADF80630E0
:10D57000FFF746FA01AA3146284603F0CBFDD9E76A
:10D580000A22DAE72DE9F341DDF8208006460F464E
:10D590001D461446C2B19A4216D8404607F074F9A7
:10D5A00001AA011D082000F0DCF978B1011D0480FA
:10D5B0004580404607F032F9019A3946304600F07E
:10D5C00015FA02B0BDE8F0810320FAE70620F8E77B
:10D5D0002DE9F043064685B00F461046012114465A
:10D5E00006F0C9F9054670B92068036893F8008011
:10D5F0000121FFF705FAB8F1010F28D9A8F10209B6
:10D6000023681B8A43B930462A46394603F0EEFDAB
:10D61000284605B0BDE8F0834146204606F0ABF948
:10D62000B8B923681B6859781A78CDF8089042EA8F
:10D630000122ADF8042002333946304601AA039393
:10D6400003F0BAFD20684146FFF7DAF9D8E70A256A
:10D65000D9E70546D7E773B505460E4614466AB1C5
:10D6600001AA02210A2000F07CF948B10480019A45
:10D670003146284600F0BAF902B070BD0320FBE73E
:10D680000620F9E708B51346002203F023FE002028
:10D6900008BDF7B505460E461F46144672B101AAED
:10D6A00004210C2000F05DF950B104804780019AFC
:10D6B0003146284600F09AF903B0F0BD0320FBE79D
:10D6C0000620F9E708B51346002203F01FFE0020EC
:10D6D00008BD13B5002413460094224603F029FE2A
:10D6E000204602B010BD082070472DE9F341DDF857
:10D6F000208006460F461D461446C2B19A4216D8EF
:10D70000404607F0C1F801AA011D102000F029F9D8
:10D7100078B1011D04804580404607F07FF8019AEA
:10D720003946304600F062F902B0BDE8F0810320CE
:10D73000FAE70620F8E72DE9F043064685B00F46E4
:10D7400010460121144606F016F9054658B920681E
:10D750000368012193F80080FFF752F9A8F104094A
:10D7600023681B8A43B930462A46394603F08FFDA9
:10D77000284605B0BDE8F083B8F1040F21DD41462D
:10D78000204606F0F8F8F0B923681868FEF7ECFDBB
:10D790002368ADF8040018680230FEF7E5FD236841
:10D7A000ADF806001B68CDF80890043339463046C2
:10D7B00001AA039303F034FD20684146FFF720F9E6
:10D7C000CEE70425CFE70546CDE708B503F0C7FD52
:10D7D000002008BD2DE9F341089D074688461C46F8
:10D7E000164602B32B8A2344B3F5007F1BDCFFF7F8
:10D7F0009EFC2B8A0438984215DD01AA04211620CC
:10D8000000F0AFF8A0B14480068029460198FFF7E8
:10D810005CFA019A4146384600F0E8F80446204692
:10D8200002B0BDE8F08103242846FFF722F8F6E7AE
:10D830000624F9E72DE9F74306460F461046042172
:10D84000154606F098F80446A0B928680368042134
:10D85000B3F80090B3F80280FFF7D2F83046CDE974
:10D8600000854B462246394603F08AFD204603B028
:10D87000BDE8F0834FF00008C146EFE773B50446FA
:10D880000D461646012101AA182000F06AF838B1A9
:10D890000670019A2946204600F0A8F802B070BD33
:10D8A0000620FBE708B5002203F08CFD002008BD30
:10D8B00073B5064615460C4699B101AA02211B20F4
:10D8C00000F04FF890B1048029460198FFF7FDF968
:10D8D000019A0421304600F089F80446204602B03F
:10D8E00070BD03242846FEF7C4FFF7E70624F9E7D6
:10D8F000F7B506460F461D4614469AB101AA022105
:10D900001D2000F02EF890B1048029460198FFF701
:10D91000DCF9019A3946304600F068F804462046A2
:10D9200003B0F0BD03242846FEF7A3FFF7E7062463
:10D93000F9E708B503F060FD002008BD013170B5BE
:10D9400089B2064610461546FFF7DDF9044620B9B0
:10D950002846FEF78EFF204670BD2C6804F8016B48
:10D96000F9E770B5164604460D4605F0DAFF0246A3
:10D97000306028B129462046BDE87040FFF7DEBF81
:10D9800070BD70B505460E4614465AB990F86C3015
:10D99000C3B9446EB4B16368436613B900F164035C
:10D9A0008366103C23681878FFF710FC78B195F86F
:10D9B0006C304BB100236361AB6E04F11002143480
:10D9C0001A60AC66002070BD012385F86C302368B6
:10D9D0001878FFF78AFB21463046FFF79AFB22466C
:10D9E00031462846BDE8704006F006BB37B5044610
:10D9F000154604F0B9FC20466B4601AA042105F047
:10DA0000F0FF044638B104F0B1FC2846FEF731FFC0
:10DA1000204603B030BDDDE900102A46FFF7B1FF14
:10DA2000044604F0A3FCF3E738B505460C4604F0C1
:10DA30009BFC284605F098F9836D2360BDE83840CB
:10DA400004F094BC2DE9F0430746147A9FB01646C3
:10DA50001D46A1B1E00705D402232B7010201FB092
:10DA6000BDE8F08304F0040904F0080804F0100491
:10DA700049EA040454EA08040CD10020EFE7A107A6
:10DA800001D40323E9E704F0200904F0400804F07E
:10DA90008004EDE769463846FFF7C6FF59EA0809F2
:10DAA0009DF8003038D013F001092BD104F05CFC54
:10DAB000384605F041F901AC80B103A905F06AF9D7
:10DAC00008224946204608F0B8FEDDF81300BDF8EC
:10DAD00017209DF819300190A280A37104F046FC34
:10DAE0000AA9204606F0DAFD50B99DF8503013F02F
:10DAF000010F14BF0F200520287000F58070AEE7DD
