:1080200000000120F980000071810000A78B000092
:10803000718100007181000071810000000000006A
:10804000000000000000000000000000718100003E
:10805000718100000000000071810000718100004A
:108060007181000071810000718100007181000048
:1080700071810000718100008D8800007181000015
:108080007181000071810000718100007181000028
:108090007181000071810000718100007181000018
:1080A00071810000F9880000718100007181000079
:1080B00071810000718100007181000071810000F8
:1080C00071810000718100007181000071810000E8
:1080D00071810000718100000000000071810000CA
:1080E000718100007181000071810000FD88000035
:0880F0007181000071810000A4
:1080F80008B5144A144B15498B4213D3144B154A2F
:108108000021934213D300F075F800F051F8124C97
:10811800124DAC420ED3124C124DAC420ED300F0AD
:1081280047FDFEE752F8040B43F8040BE4E743F875
:10813800041BE6E754F8043B9847EAE754F8043B85
:108148009847EAE79C8C000000000020000000200F
:1081580000000020D40200209C8C00009C8C0000B1
:108168009C8C00009C8C00004FF0A04337B54FF466
:1081780080320E4CC3F808254FF40041C3F8182587
:1081880000254FF0E020C3F808150195019AC72A89
:1081980008DDD3F81025C3F80C159204F3D4C0F801
:1081A8000C4DF0E7019A01320192EFE70400FA055D
:1081B80010B50A4A0A4811460023013350F8044B07
:1081C80041F8044B362BF8D14FF0E023C3F8082DC3
:1081D800BFF34F8FBFF36F8F10BD00BF00000020AB
:1081E80020800000024AD2F80034002BFBD07047F0
:1081F80000E0014008B54FF0A0434FF4803203215E
:10820800C3F80825C3F81825C3F84017C3F808258C
:108218004FF0804301220021C3F87825C3F81825C0
:10822800C3F804119A60D3F80421002AFBD04FF058
:108238001020D0F80C32023312D01749FFF7D2FFC2
:108248000123C1F80435FFF7CDFF6FF00103C0F833
:108258000C32FFF7C7FF0023C1F80435FFF7C2FF50
:108268000E4B012200215A600420DA60C3F804157D
:108278000321C3F80815C3F810051A604FF0A0438E
:108288004FF48032C3F80825C3F81825C3F84017FF
:10829800C3F8082508BD00BF00E001400090004079
:1082A800064B01211964D3F8402510441964D3F80A
:1082B8004025121A002AF9DB704700BF00900040E1
:1082C80070B504464FF47A7604B970BDB4F5FA7FF8
:1082D800254628BF4FF4FA7506FB05F0FFF7E0FFC7
:1082E800641B00F021FBEFE74FF0A0434FF480320E
:1082F800C3F808257047000038B54FF0A0440323A1
:10830800C4F83C374FF400450C23C4F834370A202E
:10831800C4F81855C4F80855FFF7C2FFD4F810255B
:108328000F4BC4F80C550120186412F4005FD3F801
:1083380040350C4A10D114780B4914B90B601070F1
:1083480038BD0A689B1A094A9342F9D34FF0E023D3
:10835800074AC3F80C2DFEE700231370F0E700BFAF
:1083680000900040DC000020D800002000127A00B5
:108378000400FA054FF0A0431C4A30B50321002041
:1083880004240825C2F80005C3F80817C3F80C45EB
:10839800C3F80C17C3F80C554FF48025C3F8100721
:1083A800C3F84817C3F808554FF00075C3F86417A9
:1083B800C3F808552025C3F81417C3F80855022335
:1083C800C2F808354FF00043C2F80C15C2F8104542
:1083D800C2F824350623C2F85435FF23C2F8C03545
:1083E8000723C2F80035024B187030BD003000403A
:1083F800DD000020034B0722C3F80025024B0122B1
:108408001A70704700300040DD000020014B002248
:108418001A707047DD0000200C4B70B50024012550
:1084280001B970BDFF290A4628BFFF22C3F81841C9
:10843800C3F84405C3F84825C3F838451D61D3F887
:108448001861002EFBD01044891AE9E7003000407B
:1084580001234FF0A0428340C2F80C357047012336
:108468004FF0A0428340C2F8083570474FF0A04350
:108478004FF48022C3F80C2570474FF0A0434FF407
:108488008022C3F80825704737B515460C468DF885
:108498000700FFF7AFFF1920FFF7DAFFFFF7E6FF46
:1084A8000DF107000121FFF7B7FFFFF7E6FF2946A7
:1084B8002046FFF7B1FF1920FFF7D1FFFFF7A6FF0E
:1084C80003B030BD07B58DF80700FFF793FF1920FB
:1084D800FFF7BEFFFFF7CAFF01210DF10700FFF705
:1084E8009BFF1920FFF7BBFFFFF790FF03B05DF874
:1084F80004FB37B552BAADF8062040BA0422ADF8ED
:1085080004000D462A200DEB02011C46FFF7BCFFB4
:1085180004226DBA64BA0DEB02012B20ADF80450A9
:10852800ADF80640FFF7B0FF2C2003B0BDE830409F
:10853800FFF7C8BF10B50022F8B06B4611460132EC
:10854800F02A1970597003F10203F8D10024A3B27C
:108558001946EF220020FFF7CCFFFFF74BFF192049
:10856800FFF776FFFFF789FF4FF4F0716846FFF7D2
:1085780053FF01341920FFF772FFFFF747FFB4F5E7
:10858800A07FE4D178B010BD7FB54FF0A04403239D
:108598004FF000724FF08065C4F864370A20C4F8C1
:1085A8000825C4F86837C4F80855C4F80C55FFF70F
:1085B80087FEC4F808557820FFF782FE0120FFF7F0
:1085C80081FF9620FFF77CFE1120FFF77BFF0A2032
:1085D800FFF776FE5523012269463A208DF80030D0
:1085E800FFF752FF00230122694636208DF800303C
:1085F800FFF74AFF4F4B186800901B798DF804303D
:1086080005226946B220FFF73FFF3523012269465C
:10861800B7208DF80030FFF737FF1923012269468C
:10862800BB2001258DF80030FFF72EFF2C230122F7
:108638006946C0208DF80030FFF726FF2A466946B4
:10864800C2208DF80050FFF71FFF12232A46694603
:10865800C3208DF80030FFF717FF20232A4669460C
:10866800C4208DF80030FFF70FFF0F232A46694614
:10867800C6208DF80030FFF707FF4AF2A413022244
:108688006946D020ADF80030FFF7FEFE2A4B6C4655
:108698006A4603F1080618685968154603C5083381
:1086A800B3422A46F7D118689B882860AB800E220F
:1086B8002146E020FFF7E8FE204B224603F108069A
:1086C80018685968154603C50833B3422A46F7D1D6
:1086D80018689B88AB8021460E222860E120FFF7AE
:1086E800D3FE2120FFF7EEFE0120FFF7E9FD13205E
:1086F800FFF7E8FE0120FFF7E3FD0025104B00938C
:10870800214606223320ADF80450FFF7BDFE0222B1
:1087180021463720ADF80050FFF7B6FE2920FFF7B5
:10872800D1FE1420FFF7CCFD04B0BDE87040FFF780
:1087380001BF00BF368C0000188C0000278C000099
:108748000000014038B50D460446FFF753FE1920D6
:10875800FFF77EFEFFF791FE29462046FFF75CFEF5
:108768001920FFF77CFEBDE83840FFF74FBE000038
:108778000D4A4FF08023C2E900330C4BC3F8202583
:108788000422C3F8242501210022C3F82825C3F8B0
:108798002C2599605960C3F800254FF0A043044A7E
:1087A800C3F80825704700BFE000002000C0014062
:1087B8000040C0004FF0A04303224FF48041C3F8AB
:1087C8003827C3F808154FF48001C3F85827C3F8B1
:1087D8000815C3F85C274FF40002C3F80825114BAD
:1087E80000220E21C3F80025C3F860151621C3F82E
:1087F80064151721C3F868154FF00041C3F86C15CC
:10880800FF21C3F80425C3F80C25C3F80815022175
:10881800C3F81015C3F814250122C3F80025FFF783
:10882800A7BF00BF00C0014010B418B95DF8044BE1
:10883800FFF79EBF104C1149642828BF6420C0EB85
:1088480000236422B3FBF2F30D4A23439BB20120B9
:10885800C2F800050B804B808B800423CC80C2F8C3
:108868002015C2F824350023C2F828355DF8044BDA
:10887800C2F82C35906070470080FFFFE0000020B0
:1088880000C00140104BD3F87C21AAB10022C3F8E4
:108898007C210E4B01221A704FF0A043D3F87027A9
:1088A80022F44031C3F8701742F440324FF080513F
:1088B800C3F82015C3F87027034BD3F8002112B171
:1088C8000022C3F80021704700600040E800002043
:1088D800054BD3F80C2132B10022C3F80C21034A0E
:1088E800136801331360704700100140EC0000204A
:1088F800FFF7EEBF054BD3F840212AB10022C3F899
:108908004021034B01221A70704700BF004002400B
:10891800F0000020024B034AC3F80026704700BF4E
:10892800000001403546526E38B54FF0A044FFF7BD
:10893800E3FC0323C4F83C374FF400450C23C4F888
:1089480034370A20C4F81855C4F80855FFF7A8FCAE
:10895800D4F81035C4F80C559B0442BF024B034AA7
:10896800C3F8002638BD00BF000001403546526EEE
:1089780008B572B6FFF7B8FCFFF7B6FCFFF7BCFC0A
:1089880044F62060FFF78CFCF6E700002DE9F84379
:108998001746BDF8205006460C469846FFF7A9FD35
:1089A800791C891B184B89B200224FEA152C90B20A
:1089B800814203F1020306D84D004FF00009A0459B
:1089C80007D2BDE8F88303F802CC03F8015C013252
:1089D800EDE723463A462146304609F10109FFF7FB
:1089E80088FD1FFA89F908482946FFF7ABFEB9F157
:1089F800200F05D1FFF78EFFFFF776FC4FF0000937
:108A08000134A4B2DBE700BFF40000202DE9F04FE9
:108A180000F10F0389B09BB2074605911C2503930B
:108A2800059B23FA05F4A5EB85061C4B04F00F04FF
:108A38005C3604EB8404B6B21C4439464FF61F0971
:108A48004FF6FF7A8B1C9BB214F801BB0493304697
:108A58004FF000082BFA08F212F0010F0CBF4B463A
:108A68005346821C009392B2049BCDE90601FFF79E
:108A78008DFF0698079908F101080330B8F1030F34
:108A880080B2E7D1039B033189B28B42DAD1043D2E
:108A98002B1DC5D109B0BDE8F08F00BF3B8C00008D
:108AA80007B5EF23002100901A460846FFF76EFF2E
:108AB80003B05DF804FB08B572B643F69824FFF7D7
:108AC80013FCFFF731FFC82C254628BFC8252846C8
:108AD800FFF7F6FB641BF2D12046FFF7E1FFFFF733
:108AE80047FF0000F0B54FF0804389B00020D3F86D
:108AF8000074FFF7D5FF164A164BCDE90223164B33
:108B08000FCB04AC84E80F0002AE142554F8043BE4
:108B18003B4214BF338842F2041305F1320228465F
:108B28003735009392B296235A21ADB2FFF72EFF44
:108B3800F02D06F10206E9D14FF080434FF0FF32E5
:108B4800C820C3F8002409B0BDE8F040FFF7B8BB5F
:108B580000F820FDE0FFFF078C8C000008B50446F4
:108B6800FFF7C2FB4FF0E023D3F8286DD3F82C5D54
:108B780004B1A4694FF61F00FFF792FF3146282081
:108B8800FFF744FF29464620FFF740FF21466420AF
:108B9800FFF73CFFFFF78FFF08B5FFF7DFFF1EF079
:108BA800040F0CBFEFF30880EFF30980FFF7F4BF61
:108BB80008B5FFF799FBFFF7ADFEFFF7DBFBFFF703
:108BC800E3FCFFF7F7FD3720FFF72EFE4FF4784060
:108BD800FFF766FFFFF786FF4FF62050FFF760FFAD
:108BE8004FF6E070FFF75CFF43F69824FFF77CFB35
:108BF800FFF79AFEC82C254628BFC8252846FFF748
:108C08005FFB641BF2D12046FFF74AFFFFF7B0FE77
:108C1800D0040D11132B3F544C180D0B1F2300D0FB
:108C2800040C11132C3F44512F1F1F2023000C0C40
:108C38000033330705050507020202020207010790
:108C480004070701070107050507010107040701D4
:108C580007070407050707010101010705070507BD
:108C680007050701070705070505040407050707A2
:108C7800040404070101070507070407040707049C
:108C880007040400010000000200000004000000C6
:048C980008000000D0
:04000003000080F980
:00000001FF
