:1080200000000120018100007981000079810000B9
:108030007981000079810000798100000000000052
:10804000000000000000000000000000914201005C
:108050007981000000000000F14201005543010059
:108060004DE40100798100007981000079810000F0
:108070007981000079810000A192000079810000DF
:108080007981000079810000798100007981000008
:1080900079810000798100007981000079810000F8
:1080A00079810000F5C2000079810000798100002B
:1080B00079810000798100007981000079810000D8
:1080C00079810000798100007981000079810000C8
:1080D00079810000798100000000000079810000B2
:1080E00079810000798100007981000021DC0000A5
:0880F000798100007981000094
:1081000008B5144A144B15498B4213D3144B154A26
:108110000021934213D300F053F800F02FF8124CD3
:10812000124DAC420ED3124C124DAC420ED30AF09B
:10813000D3FAFEE752F8040B43F8040BE4E743F8E4
:10814000041BE6E754F8043B9847EAE754F8043B7D
:108150009847EAE768FE010000000020142D002087
:10816000002E00203CED002064FE010064FE0100B2
:1081700064FE010068FE0100FEE7000010B50A4A37
:108180000A4811460023013350F8044B41F8044BD0
:10819000362BF8D14FF0E023C3F8082DBFF34F8FF3
:1081A000BFF36F8F10BD00BF002E002020800000A5
:1081B000024AD2F80034002BFBD0704700E00140A7
:1081C00008B54FF0804301220021C3F87825C3F899
:1081D0001825C3F804119A60D3F80421002AFBD0B3
:1081E0004FF01020D0F80C32023312D01549FFF7AF
:1081F000DFFF0123C1F80435FFF7DAFF6FF0010359
:10820000C0F80C32FFF7D4FF0023C1F80435FFF7A4
:10821000CFFF0D4B012200215A600420DA60C3F821
:1082200004150321C3F80815C3F810051A604FF0B0
:10823000A0434FF48032C3F84017C3F80C25C3F8AD
:10824000182508BD00E0014000800040024B0122DB
:108250001A64D3F84005704700800040064B0121A6
:108260001964D3F8402510441964D3F84025121A34
:10827000002AF9DB704700BF0080004070B504465B
:108280004FF47A7604B970BDB4F5FA7F254628BF5D
:108290004FF4FA7506FB05F0FFF7E0FF641B06F0EC
:1082A00025F9EFE738B54FF0A0444FF48035C4F816
:1082B0000855FFF7E3FFC4F80C5538BD084A536A68
:1082C000116A013310B5B3FBF1F401FB1433916A69
:1082D00099421FBF516AD4695362605410BD00BFF8
:1082E00000000020704710B5441E14F8010F00B9BB
:1082F00010BDFFF7E3FFF8E708B5FFF7F4FFBDE8AF
:1083000008400148FFF7EFBF60EC010070B505467B
:108310000748084EFFF7E7FF1C2425FA04F303F093
:108320000F03043CF05CFFF7C9FF231DF5D170BDBE
:10833000D4F001007AF40100022838B504460D4655
:1083400012D80A48013CFFF7CEFF032C96BF084B1A
:108350003F20185DFFF7B2FF0648FFF7C4FF28462D
:10836000BDE83840FFF7C8BF38BD00BF63EC01006F
:1083700076F4010065EC01004FF0A0431C4A30B5D3
:108380000321002004240825C2F80005C3F80817BB
:10839000C3F80C45C3F80C17C3F80C554FF48025EF
:1083A000C3F81007C3F84817C3F808554FF0007515
:1083B000C3F86417C3F808552025C3F81417C3F889
:1083C00008550223C2F808354FF00043C2F80C15D7
:1083D000C2F81045C2F824350623C2F85435FF23ED
:1083E000C2F8C0350723C2F80035024B187030BD03
:1083F00000300040E8300020034B0722C3F800257E
:10840000024B01221A70704700300040E830002013
:10841000014B00221A707047E8300020014B187899
:10842000704700BFE83000200D4BF0B54FF6FF75E8
:108430000024012601B9F0BDA9420A4628BF2A46F8
:10844000C3F81841C3F84405C3F84825C3F83845B4
:108450001E61D3F81871002FFBD01044891AE9E788
:1084600000300040F8B515461C4610B109B1FFF7C1
:10847000DBFFE5B1DCB10E4B0E4900200126B4F55F
:10848000807F224628BF4FF48072C3F81801C3F8DA
:108490004415C3F84825C3F83455C3F838251E6180
:1084A000D3F81871002FFBD0A41A1544E7D1F8BDFA
:1084B00000300040E82F002001234FF0A04283400D
:1084C000C2F80C35704701234FF0A0428340C2F838
:1084D000083570474FF0A0434FF48022C3F80C25B5
:1084E00070474FF0A0434FF48022C3F8082570472F
:1084F00037B515460C468DF80700FFF77DFF1920AC
:10850000FFF7DAFFFFF7E6FF0DF107000121FFF7A4
:108510008BFFFFF7E6FF29462046FFF785FF19206E
:10852000FFF7D1FFFFF774FF03B030BD07B58DF83B
:108530000700FFF761FF1920FFF7BEFFFFF7CAFF33
:1085400001210DF10700FFF76FFF1920FFF7BBFFB7
:10855000FFF75EFF03B05DF804FB00007FB54FF04E
:10856000A04403234FF000724FF08065C4F86437D5
:108570000A20C4F80825C4F86837C4F80855C4F8B8
:108580000C55FFF77BFEC4F808557820FFF776FE00
:108590000120FFF7CBFF9620FFF770FE1120FFF7B9
:1085A000C5FF0A20FFF76AFE5523012269463A20DB
:1085B0008DF80030FFF79CFF00230122694636202A
:1085C0008DF80030FFF794FF454B186800901B7939
:1085D0008DF8043005226946B220FFF789FF352364
:1085E00001226946B7208DF80030FFF781FF19237B
:1085F00001226946BB2001258DF80030FFF778FF86
:108600002C2301226946C0208DF80030FFF770FF4F
:108610002A466946C2208DF80050FFF769FF1223F1
:108620002A466946C3208DF80030FFF761FF2023FA
:108630002A466946C4208DF80030FFF759FF0F2302
:108640002A466946C6208DF80030FFF751FF4AF2EE
:10865000A41302226946D020ADF80030FFF748FF8E
:10866000204B6C466A4603F108061868596815469F
:1086700003C50833B3422A46F7D118689B8828609F
:10868000AB800E222146E020FFF732FF164B224638
:1086900003F1080618685968154603C50833B34244
:1086A0002A46F7D118689B88AB800E2221462860A5
:1086B000E120FFF71DFF2120FFF738FF0120FFF722
:1086C000DDFD1320FFF732FF0120FFF7D7FD292042
:1086D000FFF72CFF142004B0BDE87040FFF7CEBDBB
:1086E0008BF4010071EC010080EC010008B5102052
:1086F000FFF71CFFBDE808400520FFF7BFBD08B528
:108700001120FFF713FFBDE808407820FFF7B6BD42
:1087100037B552BAADF8062040BA0422ADF80400CD
:108720000D462A200DEB02011C46FFF7E1FE042254
:108730006DBA64BA0DEB02012B20ADF80450ADF810
:108740000640FFF7D5FE2C2003B0BDE83040FFF710
:10875000EDBE38B50D460446FFF74EFE1920FFF773
:10876000ABFEFFF7BEFE29462046FFF75DFE19204F
:10877000FFF7A9FEBDE83840FFF74ABE4FF4B473D7
:1087800090FBF3F202FB13001844B0FBF3F203FB7F
:1087900012005A28094B02DC33F910007047B42844
:1087A00002DCC0F1B400F7E7B0F5877FD4BFB4387E
:1087B000C0F5B47033F910004042704790F40100E6
:1087C00070B500F5805400254FF0FF330646C4F81D
:1087D000005EC4F8043EC4F8085EC4F80C5E4FF4B2
:1087E000F052294616F07DF9C4F8005E304670BD9F
:1087F00000F5805010B5B0F80C3EA3B1B0F8084EAB
:108800008C4212D823449BB28B420ED9B0F80A3E58
:1088100093420AD8B0F80E1E581880B2904294BF06
:108820000020012010BD0120FCE70020FAE7EF291D
:10883000F8B504460D4616461F461FD8EF2A1DD828
:10884000FFF7D6FFD0B104F58053D208D3F8041E49
:10885000002901DB914211D1F02106F0070601FB4E
:108860000655390A04F8151004EB45040121677018
:108870009140D3F8002E0A43C3F8002EF8BD2DE92D
:10888000F0471446BDF82020BDF82480CD18F02D07
:108890002244A8BFF025F02AA8BFF022EF290746FE
:1088A0000E4613D8EF2C11D8013A1FFA82F9E108CD
:1088B000C2F3CC0200F580504FF0010C8A4201D384
:1088C0001E2905D1013DADB24C451AD9BDE8F0874E
:1088D000D0F8003E0CFA01FE43EA0E03C0F8003E59
:1088E0000131EBE75146434622463846FFF79FFFEA
:1088F0000AF1010A1FFA8AFAAA45F3D90134A4B28F
:10890000E2E7B246F8E72DE9F04F994687B00E4608
:108910001FFA89FC89B2BDF84050BDF94030009380
:10892000ACEB01071FFA87FA14463FB292B2A5EBEF
:108930000208002F1FFA88FBB8BFA1EB0C010FFA49
:1089400088F8BCBF1FFA81FA0FB2B8F1000FA2BFBE
:10895000521B1FFA82FB0FFA82F8B145D4BF4FF0C9
:10896000FF3201220192009ABDF84430A242D4BFE6
:108970004FF0FF3201220AEB0B0502922DB2B1B289
:10898000EF290AD8A2B2EF2A07D8CDE90413039041
:10899000FFF74DFFDDE9041303984E4502D1009A1D
:1089A000944214D01FFA85FC4FEA4C0212B2904553
:1089B00005DC019EDC4431440FFA8CF50EB297427F
:1089C000DDDB029A554414442DB224B2D7E707B038
:1089D000BDE8F08F89B2EF2907D892B2EF2A04D808
:1089E000036840681B88FFF722BF70472DE9F04FEE
:1089F00085B04FF0000B009099465C468EB297B25E
:108A0000A14502DA05B0BDE8F08F0EAB0293009BE2
:108A100003931FFA89FAA5B216FA89F317FA84F4B8
:108A20001BB20FFA84F8A6EB0A041946424624B298
:108A300002A80193FFF7CEFF4246214602A8FFF7A6
:108A4000C9FF019B7A1B0FFA82F81946424602A819
:108A5000FFF7C0FF4246214602A8FFF7BBFFAB1954
:108A60000FFA83F80AEB0702741B12B224B24146D4
:108A700002A80192FFF7AEFF2146019A02A8FFF774
:108A8000A9FFA7EB0A0212B2414602A80192FFF722
:108A9000A1FF2146019A02A8FFF79CFFBBF1000F3E
:108AA00005F10105C8BF0AF1FF3AABB22CB2C8BF4D
:108AB0000FFA8AF90BF10105ADB2C8BFA4EB0903A7
:108AC00005EB43050FFA85FB9AE710B44468036889
:108AD00024781B8889B20CB9494289B21944C36809
:108AE0001B7889B292B20BB9524292B2EF290CD8DC
:108AF00083681B881A4492B2EF2A06D803695DF88E
:108B0000044B1B884069FFF792BE5DF8044B704729
:108B10002DE9F04788B04FF0000A8DF80330036864
:108B2000ADF80610ADF80420B3F9005006465446DF
:108B30000DF106070DF103080DF10409A54202DA53
:108B400008B0BDE8F08710AB05937368069329461B
:108B5000B3680793224602A8CDE90278CDF81090B9
:108B6000FFF7B3FF2A46214602A8FFF7AEFFBAF18E
:108B7000000F04F10104C8BF05F1FF35A2B20AF1EC
:108B8000010324B2C8BF2DB29BB2C8BF621B03EB66
:108B900042030FFA83FAD1E72DE9F04F8BB08146FB
:108BA000BDF85470BDF85050BDF858B002938846D7
:108BB00016462FBB0124CDF804B00094FFF75FFEEA
:108BC0006A1E3244029B92B241464846CDE9004BB0
:108BD000FFF755FE2346324641464846CDE9005B45
:108BE000FFF74DFE029B591E4144CDE9005B234631
:108BF000324689B24846FFF742FE0BB0BDE8F08F1F
:108C0000029CCDF804B0AC4228BF2C466408BC429C
:108C100028BF3C460B199BB2039363009BB204939D
:108C20000499029BADF81A404FF0010A77195B1ABC
:108C3000BFB20399CDF800A09BB20593FFF71FFECA
:108C40007A1E059B03994846CDE900AB92B2FFF727
:108C500016FE049BED1A3444ADB2A2B2CDE9005B1E
:108C60005346414648460492FFF709FE029B049A88
:108C7000029208EB0304A4B2611ECDE9005B5346E7
:108C8000484689B2FFF7FBFD029ABDF90C100DF1C1
:108C90001A030025079316ABCDE9083907A82B4620
:108CA000009512B2FFF734FFBDF81A1000958A192B
:108CB000611A0139534607A812B209B2FFF728FF1B
:108CC000BDF81A10CDF800A07A1A013A41442B469B
:108CD00007A812B209B2FFF71BFFBDF81A30CDF892
:108CE00000A0FA1AE11A013A0139534612B209B248
:108CF00007A8FFF70DFF80E72DE9F84FBDF92840E1
:108D0000BDF92CA0BDF830B006460F4690461D4672
:108D10004FF4B479544501D1BDE8F88F04F15A00FD
:108D2000FFF72CFD684348BFFF3007EB2021EF29F8
:108D30000FD82046FFF722FD684348BFFF30A8EB5D
:108D40002020EF2805D882B25B4689B23046FFF773
:108D50006EFD013494FBF9F309FB134424B2D9E707
:108D60002DE9F74F03EB0109BDF830B00D469046F1
:108D70001E4600241FFA89F95C452DD20D9B04FB89
:108D8000063A04EB080329469FB220E01AF8012BAB
:108D900002F003034FEA521E4FEA921CC2F3820212
:108DA00002EBC2024CEA8E0C520142EACC2203EBE7
:108DB000830C5B0843EA4C0313439BB23A46CDE96C
:108DC0000001FFF734FD01990098013189B289450E
:108DD000DCD10134A4B2CFE703B0BDE8F08F2DE9B8
:108DE000F04F87B0984608EB0109BDF84030BDF858
:108DF00048A0BDF84CB001920D46029300241FFA22
:108E000089F9029B9C4224D2019BE21808FB04F6DC
:108E1000294692B218E0119F0390F3086FEA060CFE
:108E2000FB5C0CF0070C43FA0CF313F0010F0CBFC2
:108E30005B465346CDE90412FFF7F9FC0499059A05
:108E40000398013189B201364945E4D10134A4B215
:108E5000D7E707B0BDE8F08F00F58050C0F8041EDA
:108E6000704700F58050A0F80C3EBDF80030A0F827
:108E7000081EA0F80A2EA0F80E3E704700F580509C
:108E80000023C0F80C3E704710B500230C0A421CAA
:108E9000C9B200F8134002F813100133B3F5F06FB4
:108EA000F7D110BD38B500F580550446D5F8041E3D
:108EB0001D290FD8C90089B2CB1D9BB2EF2200201B
:108EC000FFF726FC4FF470612046FFF742FC0023B9
:108ED000C5F8003E38BD00000D4A4FF08023C2E9BE
:108EE00000330C4BC3F820250422C3F824250121AC
:108EF0000022C3F82825C3F82C2599605960C3F8CF
:108F000000254FF0A043044AC3F80825704700BF6E
:108F1000EC30002000C001400040C0004FF0A043F2
:108F200003224FF48041C3F83827C3F808154FF4E3
:108F30008001C3F85827C3F80815C3F85C274FF41D
:108F40000002C3F80825114B00220E21C3F80025AA
:108F5000C3F860151621C3F864151721C3F8681506
:108F60004FF00041C3F86C15FF21C3F80425C3F886
:108F70000C25C3F808150221C3F81015C3F81425F1
:108F80000122C3F80025FFF7A7BF00BF00C00140C2
:108F900010B418B95DF8044BFFF79EBF104C11498F
:108FA000642828BF6420C0EB00236422B3FBF2F3E3
:108FB0000D4A23439BB20120C2F800050B804B8071
:108FC0008B800423CC80C2F82015C2F824350023FE
:108FD000C2F828355DF8044BC2F82C359060704714
:108FE0000080FFFFEC30002000C00140FFF774BF9D
:108FF0001920FFF7CDBF3C20FFF7CABF6420FFF761
:10900000C7BF4FF040230022C3F80421C3F8242136
:10901000C3F86021C3F85C21C3F848217047F8B554
:1090200006460D46FFF712F94FF040240746D4F8E4
:10903000043123B10023C4F804310120F8BDD4F871
:10904000242122B3C4F82431D4F8C434C4F8C4347D
:109050009A071AD413F0040F14BF032304234FF00C
:1090600040242B700023C4F8043101236361FFF70F
:10907000EDF80546D4F804312BB9FFF7E7F8401BAB
:10908000B0F57A7FF6DD0020D8E70223E7E7FFF7A7
:10909000DDF8C31BB342CADD01232B706361F2E725
:1090A0004FF0402370B500224FF0A044C3F80025D4
:1090B00040F20D63C4F81C378026C4F818374023EB
:1090C000C4F808650520C4F80835FFF7C7F8092576
:1090D000D4F810355B060BD40520C4F80C65FFF7F7
:1090E000BDF8C4F808650520FFF7B8F8013DEFD1D9
:1090F0004FF0A04440250520C4F80C55FFF7AEF80A
:109100008023C4F808350520FFF7A8F8C4F80855EF
:109110000520FFF7A3F80C23C4F81C37C4F8183750
:109120004FF040230722C3F808250622C3F80C2578
:10913000C3F8002570BD08B54FF040214FF0A042A4
:1091400000230C20C1F80035C2F81C07C2F818072C
:109150000722C1F8082506204FF0C862C1F80C05A7
:10916000C1F82425C1F80032FFF74BFFC1F8000514
:1091700008BD73B506461546184612B34FF0402495
:109180000623C4F80035FFF73CFF4FF48073C4F8A2
:109190008865C4F84415C4F84855C4F80032012362
:1091A000A36000250DF107018DF80750FFF737FF89
:1091B00028B9FFF775FF9DF8070002B070BDC4F82D
:1091C00000520020F9E773B506461546184612B35B
:1091D0004FF040240623C4F80035FFF712FF4FF488
:1091E0008053C4F88865C4F83415C4F83855C4F8F9
:1091F00000320123236000250DF107018DF807508F
:10920000FFF70DFF28B9FFF74BFF9DF8070002B0ED
:1092100070BDC4F800520020F9E72DE9F3471D4660
:10922000DDE90A8716463AB93B464246294602B06E
:10923000BDE8F047FFF7C7BFB8F1000F05D13B46C7
:1092400002B0BDE8F047FFF794BF4FF0402406237B
:10925000C4F80035FFF7D5FE4FF4A053C4F88805D5
:10926000C4F84415C4F84865C4F83455C4F83885C2
:10927000C4F800320123A36000250DF10701384630
:109280008DF80750FFF7CBFE30B9FFF709FF9DF8C7
:10929000070002B0BDE8F087C4F800522846F8E79E
:1092A000104BD3F87C21AAB10022C3F87C210E4BCD
:1092B00001221A704FF0A043D3F8702722F44031F6
:1092C000C3F8701742F440324FF08051C3F82015B4
:1092D000C3F87027034BD3F8002112B10022C3F862
:1092E0000021704700600040F53000207FB51D4B25
:1092F0004FF0A04500241C704FF480660323C5F88E
:1093000028370A20C5F80C65FEF7B8FFC5F80865D0
:109310003220FEF7B3FF144BC5F87037134B4FF0F4
:109320000042C3F81045C3F87C41C3F804234FF052
:10933000E0234022C3F88022C3F8002162B6012254
:109340004FF4FA63CDE900230DF10F010DF10E0387
:1093500015208DF80E408DF80F40FFF75EFF04B02A
:1093600070BD00BFF53000200C000300006000401D
:10937000014B1878704700BFF530002030B5214A06
:109380001178002393B004460360436001B1137069
:109390003F252A46002102A815F0A3FB40F6B8336A
:1093A000CDE90053184902AB01221520FFF735FF24
:1093B00020BB9DF8093023709DF80A309DF80D20E0
:1093C0009DF80B1003F00F03637012029DF80E302E
:1093D00002F47062134309029DF80C2001F47061DD
:1093E0000A43EF2AA8BFEF22EF2BA8BFEF23A380E9
:1093F00023886280003B18BF0123A371204613B06D
:1094000030BD00BFF5300020F430002070B54FF0C3
:10941000A0464FF40043C6F808350A20FEF71EFFA9
:1094200004250024D6F8103505209B0458BF0134CC
:10943000FEF714FF013DF5D14FF0A043022C4FF48D
:109440000042C3F80C2594BF0020012070BD00002D
:109450004FF0A0430322C3F83C274FF40042C3F867
:109460000C250C22C3F83427034A00231370034A47
:109470001370034A1370704700310020F63000204B
:10948000F730002037B5FFF7C1FF0446FEF7DEFED8
:109490003D4B1A78042A19D8DFE802F0031629494F
:1094A000670024B101221A70384B18600EE0384A68
:1094B00013785BB1354B37491B68C31A8B4205DD06
:1094C000147040F2011325E014B91C70002321E050
:1094D0002E4A126844F62061801A8842F6DD022185
:1094E00019702D4B1A602D4B00221A70EEE70CB943
:1094F0000322D8E729490A78002AE7D1264B1B68BE
:10950000C31A27488342E1DD01230B70204B1A70F8
:109510004FF48173ADF804309DF80430002063F3FC
:1095200007009DF8053063F30F2003B030BD0CB188
:109530000222DAE715490A6844F62065821AAA422F
:10954000C4DD164A1578124A15B11C701470BDE7B7
:10955000157825B11C70147040F20313DAE701246A
:10956000147004221A700860B0E7084A1CB1012187
:1095700019701060AAE71268801A064A9042A5DDA9
:109580001C70034B1C709CE700310020FC30002055
:10959000F630002030570500F8300020F73000206A
:1095A00020A10700F0B51AB315461C464FF0000C79
:1095B000634505D1A3421BD90C235C43105BF0BD6E
:1095C000EF888FB12E897EB1B5F802E070450BD3DC
:1095D0007744BFB2B84207D2AF88B94204D33E4401
:1095E000B6B2B14238BF64460CF1010C0C35DFE76E
:1095F0004FF6FF70E3E70000024A00231360024ABF
:10960000136070470831002004310020024B1860BD
:10961000024B1960704700BF083100200431002060
:1096200037B5324A136803605368436093688360B8
:109630000446FFF727FF10F47F4FADF8000008D075
:109640009DF800302BB104222270E371204603B054
:1096500030BDFFF78DFE0028F8D06846FFF78EFE7C
:109660009DF80630002BF1D09DF80030BDF80200C7
:10967000BDF8041060805A1EA1800B2AE6D801A50F
:1096800055F822F0D7960000D7960000D796000034
:10969000D7960000B59600004D9600004D9600004C
:1096A0004D9600004D9600004D960000BB960000C0
:1096B000D39600000123237003E0052323700223C7
:1096C000A3720B4B0B4A1B681268FFF76BFF2081DC
:1096D000BCE70223EFE7023BDBB20322022B22703E
:1096E00096BF054A0123D35CA371AFE74AF5010099
:1096F000043100200831002046F501001FB5044662
:1097000001A880E80E0007C884E80B00069BE36010
:10971000079B23610023C4E905334FF6FF73A3833E
:1097200004B010BDC0E905127047034610B41C68B0
:109730000846114664B158B152B11A691AB1127E85
:10974000023A022A04D89A6823465DF8044B184767
:109750005DF8044B704703464069F0B560B1D3F83B
:1097600018C0002703466646BC4506D1B44586BFEF
:109770000C2303FB06000020F0BDDD888DB11C89A1
:109780007CB1B3F802E071450BD37544ADB2A94288
:1097900007D29D88AA4204D32C44A4B2A24238BF67
:1097A0003E4601370C33DFE7022804D0C31E58427F
:1097B000584140007047012070477FB50B78013B4E
:1097C00004460D46042B15D8DFE803F0646420033B
:1097D00097000369CA797BB19B7E6BB1012A0BD1DB
:1097E000062369468DF80030FFF79FFF20690021AE
:1097F00002F0DAFA04B070BD1046FFF7D5FF04237B
:109800008DF800308DF80100022231E08B794A8812
:10981000042B28BF01230F2A12D8032B10D140F2AA
:109820000921ADF800108DF80320694604228DF857
:109830000230FFF77AFF20690028DBD00021D7E74C
:10984000E06808B300F500525168E9B1B2F894112C
:109850009BB9183189B201F083FCE36803F500532A
:109860000522B3F89431ADF80020ADF8023004229F
:1098700069462046FFF759FFBCE7012B04D11829A0
:1098800038BF18211839E5E703228DF800208DF83C
:109890000130B9E78A884988FFF75DFFD8B1837A3C
:1098A000DE06A7D41907068848BFA6835A0704D541
:1098B000636813B1A168002098472A78022AF3B29E
:1098C0004FEA16260AD18DF800208DF801308DF868
:1098D00002600322CCE74FF6FF76EEE72A79A978FB
:1098E0008DF8042001208DF800008DF801308DF8EE
:1098F00002608DF803100522BAE78A884988FFF7CD
:109900002AFF0346D0B1827A12F0100016D11E88C9
:10991000530703D563680BB1A1689847AA78A97A61
:109920002B798DF8042008208DF800008DF80110A7
:10993000ADF802608DF80530062299E74FF6FF7604
:10994000ECE7037B10B54BB9D0E90142A24298BFC6
:10995000A31A99424FF0010302D90373002010BDEE
:109960001846FCE710B501210446FFF7EAFF20B1D5
:10997000A3682268591CA160D05C10BD037B70B540
:1099800004460E46154623BB1AB3FFF7EBFF03460A
:10999000207BF8B99BB902212046FFF7D2FF03468E
:1099A00048B1A2682068511CA160835C0232A260A9
:1099B000425C43EA0223207B60B92B800AE0013B32
:1099C000DBB20F2B03D8F21892F820201AB9022329
:1099D0002373022070BD36F81330EEE738B5037BF1
:1099E00005460C464BB941B1FFF7BCFF0346287B47
:1099F00020B93F2B03D902232B73022038BD03F07B
:109A00000302032AF7D0C3F38703012B38BF0123D6
:109A100022706370F2E700290CBF002000F0010003
:109A2000704710B502210446FFF78BFF48B1A368C9
:109A300021685A1CA260C85C0233A3608B5C40EAB8
:109A4000032010BD38B504460D46FFF77AFF20B15C
:109A5000A368206818442B44A36038BD10B50446A1
:109A6000EF2C18460CD8EF290AD84AB13BB1144460
:109A7000F02C05DC1944F029CCBF0020012010BDDA
:109A80000020FCE72DE9F04FA1B0884617460021E1
:109A900014222A9C05461E4615F023F8B8F1000F43
:109AA00006D147B102232B70284621B0BDE8F08FC4
:109AB0007368BB42F6D3CDE91087002730223946C0
:109AC00014A812978DF84C7015F00BF80A970997A7
:109AD0009DF84C20129B6ABB119A9A422AD90A9A85
:109AE0001AB96F683268974203D302222A70AB60BA
:109AF000DAE710A8FFF736FF9DF84C30D3B900F134
:109B00002003DBB201370F2B6F601AD810A8FFF7C4
:109B100088FF9DF84C30DDF84880074653B9014670
:109B200010A8FFF70EFF08B1474412979DF84C307C
:109B3000002BCDD02B78002B7FD19DF84C302B7093
:109B40007BE0312837D8002842D0013830283FD870
:109B5000DFE810F05A0075009F00EB0041018E0114
:109B6000D6012A027B02AE023E003E003E003E00CD
:109B70003E00BA0214038403C7033E003E003E00C9
:109B80003E003E003E003E003E003E003E003E00E5
:109B90003E00FB0351043E003E003E003E003E00FE
:109BA0003E003E003E003E003E003E003E003E00C5
:109BB0003E00AA04F704602800F091850DD85028D3
:109BC00000F00585512800F05F85402800F0CF8423
:109BD00002238DF84C302B702BE0F02800F0AC8580
:109BE000F12800F0D2856128F2D110A8FFF7BAFE63
:109BF0009DF84C200346E2B9642840F28F85022389
:109C00008DF84C302B7014E000230DF13E0214A9A6
:109C100010A8ADF83E30FFF7B1FE50B9307A2146BA
:109C2000FFF7F9FE28B12368BDF83E101B682046F7
:109C300098472B78022B7FF479AF129B57E710A837
:109C4000FFF790FE074610A8FFF7EBFE9DF84C309B
:109C50000246002BEDD10F2F04D902238DF84C3092
:109C60002B70E6E720AB03EB4703012123F8300C10
:109C700007F180036B44307A03F8101C2146FFF78C
:109C8000CAFE0028D5D0236839465B68204698472D
:109C9000CFE710A8FFF766FE074610A8FFF762FEA1
:109CA000804610A8FFF75EFE814610A8FFF75AFE17
:109CB0009DF84CB08246BBF1000FBAD103464A462C
:109CC00041463846FFF7CAFE20B902238DF84C30D2
:109CD0002B70AEE74FF480730DF13E0214A910A86B
:109CE000ADF83EB0ADF83C30FFF748FE0028A0D1FB
:109CF0000FA910A8FFF772FE00289AD1307A2146EA
:109D0000FFF789FE002894D0BDF83C202368ADF809
:109D10000820BDF83E20CDE900A23946D3F808A0BE
:109D200042464B462046D04783E710A8FFF71AFE6D
:109D3000074610A8FFF716FE804610A8FFF712FE90
:109D4000814610A8FFF70EFE824610A8FFF70AFE14
:109D50009DF84CB00B90BBF1000F7FF46AAF5346F7
:109D60004A4641463846FFF779FE20B902238DF86E
:109D70004C302B705DE74FF480730DF13E0214A957
:109D800010A8ADF83EB0ADF83C30FFF7F7FD002865
:109D90007FF44FAF0FA910A8FFF720FE00287FF433
:109DA00048AF307A2146FFF736FE00283FF441AF36
:109DB000BDF83C202368ADF80C20BDF83E2002928F
:109DC0000B9ACDE900A23946D3F80CA042464B4687
:109DD0002046D0472DE710A8FFF7C4FD074610A87E
:109DE000FFF7C0FD804610A8FFF7BCFD814610A814
:109DF000FFF7B8FD9DF84C308246002B7FF419AF79
:109E0000EF2F30D8B8F1EF0F2DD8B9F1EF0F2AD8D6
:109E1000EF2828D80DF13E0214A910A8ADF83E3065
:109E2000FFF7ACFD00287FF404AF10A8FFF79AFD00
:109E30009DF84C200346002A7FF4FBAE307A214681
:109E4000FFF7E9FD00283FF4F4AE22680293BDF865
:109E50003E30CDE900A33946D2F810A04B46424629
:109E60002046D047E5E602238DF84C302B70E0E623
:109E700010A8FFF777FD074610A8FFF773FD80468F
:109E800010A8FFF76FFD9DF84C308146002B7FF442
:109E9000D0AEEF2F2FD8B8F1EF0F2CD8ADF83E3061
:109EA0000DF13E024FF4807314A910A8ADF83C30B8
:109EB000FFF764FD00287FF4BCAE0FA910A8FFF7E0
:109EC0008DFD00287FF4B5AE307A2146FFF7A3FD63
:109ED00000283FF4AEAEBDF83C202368ADF8042066
:109EE000BDF83E200092D3F814A042464B463946B6
:109EF0002046D0479DE602238DF84C302B7098E623
:109F000010A8FFF72FFD074610A8FFF72BFD80468E
:109F100010A8FFF727FD834610A8FFF782FD8146B2
:109F200010A8FFF77EFD9DF84C308246002B7FF491
:109F300080AEEF2F33D8B8F1EF0F30D8B9F5B47F3A
:109F40002DD2B0F5B47F2AD20DF13E0214A910A88B
:109F5000ADF83E30FFF712FD00287FF46AAE10A87E
:109F6000FFF700FD9DF84C200346002A7FF461AE08
:109F7000307A2146FFF74FFD00283FF45AAE2268A1
:109F80000393BDF83E30CDF80090CDE901A33946EA
:109F9000D2F818905B4642462046C84749E602235D
:109FA0008DF84C302B7044E610A8FFF7DBFC9DF8D1
:109FB0004C300746002B7FF43CAE012804D8022326
:109FC0008DF84C302B7034E60DF13E0214A910A828
:109FD000ADF83E30FFF7D2FC00287FF42AAE10A87F
:109FE000FFF7C0FC9DF84C308046002B7FF421AE7B
:109FF000790010A8FFF726FD9DF84C200346002AA3
:10A000007FF417AE013013F81210EF29D7D810F8EB
:10A010001210EF29D3D80132D1B28F42F3D82A7867
:10A02000022A3FF406AE307A2146FFF7F4FC0028FE
:10A030003FF4FFAD22680093D2F81C90BDF83E209B
:10A04000434639462046C847F3E510A8FFF78AFC87
:10A05000074610A8FFF786FC804610A8FFF782FC91
:10A06000814610A8FFF77EFC9DF84C308246002BFD
:10A070007FF4DFAD03464A4641463846FFF7EEFC23
:10A0800020B902238DF84C302B70D2E5307A21466E
:10A09000FFF7C1FC00283FF4CCAD2368CDF800A049
:10A0A000D3F820A042464B4639462046D047C0E56B
:10A0B000307A2146FFF7AFFC00283FF4BAAD2368A1
:10A0C00020465B6A9847B4E510A8FFF74BFC814631
:10A0D00010A8FFF747FC074610A8FFF743FC9DF8C0
:10A0E0004C308046002B7FF4A4ADB9F1000F40D175
:10A0F000EF2F3ED8EF283CD80DF13E0214A910A84E
:10A10000ADF83E90FFF73AFC00287FF492AD10A81E
:10A11000FFF728FC814610A8FFF724FC9DF84C307F
:10A120008246002B7FF485ADB9F1020F21D801469C
:10A1300010A8FFF787FC9DF84CB00346BBF1000F59
:10A140007FF477AD307A2146FFF765FC00283FF4B5
:10A1500070AD2268CDF80490CDE902A3BDF83E3081
:10A160000093D2F8289043463A4659462046C847BD
:10A170005FE502238DF84C302B705AE510A8FFF7ED
:10A18000F1FB804610A8FFF7EDFB0B9010A8FFF73E
:10A19000E9FB0C9010A8FFF7E5FB074610A8FFF7B6
:10A1A000E1FB9DF84C300D90002B7FF442ADB8F1EF
:10A1B000000F4ED103463A46DDE90B01FFF74EFC96
:10A1C000002846D00DF13E0214A910A8ADF83E803B
:10A1D000FFF7D4FB00287FF42CAD10A8FFF7C2FBDB
:10A1E000804610A8FFF7BEFB814610A8FFF7BAFB18
:10A1F0009DF84C308246002B7FF41BADB8F1020F66
:10A2000027D8B9F1070F24D8014610A8FFF71AFC88
:10A210009DF84CB00346BBF1000F7FF40AAD307AD5
:10A220002146FFF7F8FB00283FF403AD2268CDE993
:10A2300005A3BDF83E3002930D9BCDE90389CDE91E
:10A2400000735946D2F82C802046DDE90B23C04725
:10A25000EFE402238DF84C302B70EAE410A8FFF7EE
:10A2600081FB074610A8FFF7DCFB804610A8FFF72C
:10A2700079FB814610A8FFF775FB9DF84C308246AC
:10A28000002B7FF4D6AC3FBBB8F1020F24D8B9F154
:10A29000EF0F21D8EF281FD80DF13E0214A910A806
:10A2A000ADF83E70FFF76AFB074600287FF4C1ACAB
:10A2B000307A2146FFF7AFFB00283FF4BAACBDF877
:10A2C0003E202368CDE900A23946D3F830A04246AB
:10A2D0004B462046D047ACE402238DF84C302B701F
:10A2E000A7E410A8FFF73EFB814610A8FFF799FBF3
:10A2F000074610A8FFF736FB804610A8FFF732FB91
:10A300009DF84C200346002A7FF493ACB9F1000F6E
:10A3100016D1AFB9B8F1EF0F12D8EF2810D8307AB4
:10A320002146FFF778FB00283FF483AC22680093B6
:10A33000D2F8349043463A4639462046C84778E436
:10A3400002238DF84C302B7073E410A8FFF70AFB42
:10A350000B9010A8FFF706FB804610A8FFF702FB42
:10A36000814610A8FFF7FEFA074610A8FFF7FAFA91
:10A370009DF84CB08246BBF1000F7FF45AAC0B98AD
:10A380003B464A464146FFF769FB78B3BAF1640F92
:10A390002CD80FAA14A910A8ADF83CB0ADF83EB067
:10A3A000FFF7ECFA00287FF444AC0DF13E0214A94B
:10A3B00010A8FFF7E3FA00287FF43BAC307A21467F
:10A3C000FFF729FB00283FF434ACBDF83E2023689A
:10A3D0000392BDF83C200097CDE901A20B99D3F878
:10A3E00038A042464B462046D04722E402238DF84F
:10A3F0004C302B701DE410A8FFF7B4FA074610A8E4
:10A40000FFF7B0FA804610A8FFF7ACFA824610A812
:10A41000FFF7A8FA9DF84C308146002B7FF409AC79
:10A42000EF2F3BD8B8F1EF0F38D8642836D80FAAF1
:10A4300014A910A8ADF83C30ADF83E30FFF79EFAF5
:10A4400000287FF4F6AB0DF13E0214A910A8FFF727
:10A4500095FA00287FF4EDAB10A8FFF783FA9DF87A
:10A460004C200346002A7FF4E4AB307A2146FFF704
:10A47000D2FA00283FF4DDAB22680393BDF83E30EA
:10A480000293BDF83C30CDE900933946D2F83C90B8
:10A49000534642462046C847FFF7CBBB02238DF800
:10A4A0004C302B70FFF7C5BB10A8FFF7BAFA0B9022
:10A4B00010A8FFF757FA074610A8FFF753FA80468F
:10A4C00010A8FFF74FFA814610A8FFF74BFA824613
:10A4D00010A8FFF747FA9DF84C308346002B7FF415
:10A4E000A8AB53464A4641463846FFF7B7FA58B13B
:10A4F000BBF11F0F08D8099B072B0BD902238DF83E
:10A500004C302B70FFF795BB02238DF84C302B702D
:10A51000FFF78FBB307A2146FFF77DFA20B9099B00
:10A5200001330993FFF785BB2368CDF80090CDE98F
:10A5300001AB0B99D3F840903A4643462046C847B2
:10A54000EDE7099B2BB902238DF84C302B70FFF7F8
:10A5500070BB307A2146FFF75EFA18B123682046B7
:10A560005B6C9847099B013B0993FFF762BB10A8FE
:10A57000FFF7F8F9074610A8FFF7F4F9804610A88E
:10A58000FFF74FFA9DF84C200346002A7FF451ABA9
:10A59000EF2F16D8B8F1000F13D007EB0802F02AFE
:10A5A0000FDC307A2146FFF736FA00283FF441AB42
:10A5B00022683946D2F8489020464246C847FFF7FD
:10A5C00038BB02238DF84C302B70FFF732BB10A83C
:10A5D000FFF7C8F90D9010A8FFF7C4F9834610A83B
:10A5E000FFF7C0F9804610A8FFF7BCF90B9010A840
:10A5F000FFF7B8F90C9010A8FFF7B4F9814610A83E
:10A60000FFF7B0F9824610A8FFF70BFA9DF84C301F
:10A610000746002B7FF40DABDDE90B23414658467E
:10A62000FFF71CFA50B3B9F1030F27D8BAF1010FA5
:10A6300024D8B7F5805F21D8394610A8FFF702FA71
:10A640009DF84C200346002A7FF4F3AA307A214675
:10A65000FFF7E1F900283FF4ECAA22680D99CDE953
:10A660000473CDE9029A0C9B01930B9B0093D76C6A
:10A6700043465A462046B847FFF7DBBA02238DF817
:10A680004C302B70FFF7D5BA10A8FFF76BF9804656
:10A6900010A8FFF767F9074610A8FFF763F99DF8C0
:10A6A0004C200346002A7FF4C4AAEF2F11D8EF28CC
:10A6B0000FD8307A2146FFF7AEF900283FF4B9AA47
:10A6C00022684146D2F8509020463A46C847FFF7E4
:10A6D000B0BA02238DF84C302B70FFF7AABA10A83D
:10A6E000FFF740F99DF84C200346002A7FF4A1AA09
:10A6F000042805D902238DF84C302B70FFF799BA46
:10A70000307A2146FFF787F900283FF492AA2268A1
:10A710001946526D20469047FFF78BBA307A214692
:10A72000FFF779F900283FF484AA22681946926D50
:10A7300020469047FFF77DBA10A8FFF713F99DF860
:10A740004C200346002A7FF474AA032805D902236B
:10A750008DF84C302B70FFF76CBA099A2AB102239E
:10A760008DF84C302B70FFF764BA68730122307A91
:10A770002A732146FFF74FF90A9000B32268194661
:10A78000D26D20469047FFF754BA10A8FFF749F959
:10A790009DF84C200346002A7FF44BAA0122E88151
:10A7A0002146307A2A74FFF736F900283FF441AA8F
:10A7B00022681946126E20469047FFF73ABA0A926D
:10A7C000FFF737BA70477047704770477047704758
:10A7D00070477047704770477047704770477047C1
:10A7E00070477047704770477047704770477047B1
:10A7F00070477047704730B5046D072C11D8651C41
:10A800000234056500EBC40520F83410EB709DF8A8
:10A810000C302B719DF810306B719DF81430AA70BC
:10A82000AB7130BD026D2DE9F34103466AB3511E91
:10A83000013200EBC202016592E8030002AA02E9BC
:10A8400003009DF80650AA071FD45C68ECB1986815
:10A85000D8B10268DB689A4217D20C2151436318C1
:10A860009DF802E09DF803C09DF804709DF8056016
:10A87000BDF8008024F801800132A3F802E0A3F8BB
:10A8800004C0DF801E819D72026002B0BDE8F081CD
:10A8900010B5446D04B12170816D01B10A70C26DB3
:10A8A00002B11380036E0BB101221A7010BD704704
:10A8B00070470846FEF76CBB042938B59ABF094BB0
:10A8C0005D5C1E250C462846FDF7ECFC022C07D1EA
:10A8D0002820FDF7D3FC2846BDE83840FDF7E2BC50
:10A8E00038BD00BF56F5010010B504464068FEF7BC
:10A8F000C5FA0023237410BD0123018183724068CF
:10A90000FEF7C2BA2DE9F04F85B092469DF8382087
:10A9100081469DF83C00012A9B460C464FEA800385
:10A9200011D1B1EB530F4FEA530212D98B1A9CB2DB
:10A93000DDF8408008EB00030393039B98450AD1A0
:10A9400005B0BDE8F08F022AF2D18B4201D2CB1ABA
:10A95000EDE70024ECE718F8015B303D092D0CD938
:10A9600005230093CDF804B0032352462146484600
:10A97000FDF785FF0434A4B2DFE7104BEDB205EB21
:10A9800085051D4400270026EB5DC6F10202D34079
:10A99000DB070BD50AEB0702A1190123CDF804B0A0
:10A9A000009392B289B24846FDF769FF0136032E43
:10A9B000EAD10137052FE6D1DCE700BFA0F60100A0
:10A9C00007B50123C17202730374009240680A46FE
:10A9D000F0230021FEF745FA03B05DF804FB28B12F
:10A9E00019448B1A04D4EF2B04DCDBB218467047F1
:10A9F0000023FBE7EF23F9E72DE9F04F85B0D0F80E
:10AA000004909DF83880BDF83CA00F461D46C17AE1
:10AA10001346C289007CFFF7E2FF9DF840409DF895
:10AA200041B014F0FD0F064607D10246CDE9008A79
:10AA30002B4639464846FDF722FF013C012C23D81E
:10AA400000241EE0B5EB440F4FEA44031CD998459F
:10AA50001AD9A1B2C1EBC130400080B205EB000CA5
:10AA600040447218002380B2394401930090CDF81D
:10AA700008A01FFA8CF392B289B24846FEF78CF810
:10AA80000134E3B25B45DDD305B0BDE8F08F2DE9BD
:10AA9000F74F04460D461F46C17A9DF83C809DF84D
:10AAA00030909DF834B0BDF838A01346C289007CC0
:10AAB000FFF795FF18F0FD0F064607D1CDE9009A84
:10AAC00002463B4660682946FDF7D9FE08F1FF388B
:10AAD000B8F1010F0CD8CDE90DBACDF8309060680F
:10AAE0003B463246294603B0BDE8F04FFEF754B866
:10AAF00003B0BDE8F08F2DE9F04F85B004460F4656
:10AB00009946C17A9DF83C60BDF838A01346C289C9
:10AB1000007CFFF764FF16F0FD0580460FD102B2FE
:10AB20000FFA87FBCDF800A0EBB26068039259469C
:10AB30000135FDF75BFFEBB24B45039AF2D9013EBD
:10AB4000012E0BD8CDF838A060684B460FFA88F27A
:10AB5000394605B0BDE8F04FFDF748BF05B0BDE888
:10AB6000F08F2DE9F14F077C90F80BB0D0F80480FE
:10AB70009DF828A0BDF82C900C461E465946134659
:10AB8000C2893846FFF72BFF5346054659463846DB
:10AB9000FFF725FF00B20A9033462AB2214640460D
:10ABA000CDF82C9001B0BDE8F04FFDF7ACBE2DE91B
:10ABB000F04F85B005460E9C0E46904600270137A3
:10ABC000FBB29E4204F1020402D805B0BDE8F08F4A
:10ABD00095F810B0E97AEA8914F8013C03915846D7
:10ABE000FFF7FDFE63780399D5F804A08146584627
:10ABF000FFF7F5FE00B20090CDF80480237814F83A
:10AC0000021C0FFA89F25046FDF77DFED7E72DE9C9
:10AC1000F047D0F80480BDF82060BDF82470BDF87E
:10AC200028900C461D46C17A1346C289007CFFF766
:10AC3000D6FE3FB236B2CDF82890099708962B463B
:10AC400002B221464046BDE8F047FEF755B82DE96F
:10AC5000FF470546BDF838909DF83040BDF834A058
:10AC60000E461F46C17A1346C289007CFFF7B7FE25
:10AC7000CDF8089040F267134FF00009CDE900933A
:10AC80000FFA80F836B23FB23B466868424631461A
:10AC9000FEF732F84FF4B47314FB03F46423B4FBEF
:10ACA000F3F46CB124B2CDE90C94CDF838A0686807
:10ACB0003B464246314604B0BDE8F047FEF71CB8BB
:10ACC00004B0BDE8F0872DE9F04146689DF81870A2
:10ACD0000C461D46C17A1346C289007CFFF77FFEF1
:10ACE000069702462B4621463046BDE8F041FEF766
:10ACF000B8B82DE9F04F87B005469DF84CB00392E7
:10AD0000159A9DF840609DF844709DF84840BDF844
:10AD100050A00492BBF1000F60D1C289C17A007CBF
:10AD2000FFF75DFE814674BB06FB07F3BAEB430FEA
:10AD300054D3A3461FFA8BF297424FD9049B4A443F
:10AD400003EB440A4FF0000892B212E0039B1AF89A
:10AD5000010C059219441AF8023C43EA00230193BE
:10AD600001230093686889B2FDF789FD059A08F10F
:10AD700001081FFA88F18E420AF1020AE6D80BF1A7
:10AD8000010B3444D6E7012C0FD107FB06F39A459B
:10AD900024D3049B0399CDE91073024668683346B7
:10ADA00007B0BDE8F04FFDF7DBBF032C16D107FB62
:10ADB00006F30733BAEBD30F10D34FF6FF7312939A
:10ADC000049BCDF84CB0CDE9107302460399686836
:10ADD000334607B0BDE8F04FFEF701B807B0BDE855
:10ADE000F08F2DE9F0414568C17ABDF818609DF8F3
:10ADF00020809DF81C701446C289007CFFF7EFFD8F
:10AE0000099B0697CDE9078302463346214628462B
:10AE1000BDE8F041FFF776BD2DE9F0414568C17A04
:10AE2000BDF820609DF82C809DF824701446C289DE
:10AE3000007CFFF7D4FD0C9B0697CDE90783024603
:10AE4000334621462846BDE8F041FFF75BBD70B5AB
:10AE5000C2894568C17A007CBDF814601C469DF823
:10AE60001030FFF7BCFD08230246059604932146E7
:10AE70002846BDE87040FDF702BD37B54568C28978
:10AE8000C17A007C1C469DF81830FFF7A8FD1023FE
:10AE900047F6EF31CDE90031024621462846FDF75D
:10AEA000EEFC03B030BD2DE9F74F9DF83080BDF8C2
:10AEB0003CB09DF834A0BDF838901D4604461346BA
:10AEC0000E46C289C17A007CFFF789FDCDE9008B6F
:10AED0002B4602460746314660680AFB05F5FDF73A
:10AEE000CEFC632D0CD9CDE90C8960683A46314619
:10AEF0006423B5FBF3F303B0BDE8F04FFDF7BFBC2F
:10AF000003B0BDE8F08F016000F5005000234360FE
:10AF1000C0F88C3180F89631A0F894317047000069
:10AF200070B500F50055A4B0002604464422314611
:10AF3000C5E9636685F896610FA813F0D2FD1F4B33
:10AF40000B932B460A330C9304F506530C330D93E5
:10AF500020230E9304F506531033209304F5065373
:10AF60001133174A219304F5065307CA123322936B
:10AF700004F506531633239308AB83E80700012238
:10AF80008DF828200BAA009204F580516A680431DC
:10AF900002A8FEF777FD95F896316BB1B5F89231BE
:10AFA00095F89121934284BF9B1A9EB2B5F89431D3
:10AFB000B34288BFA5F8946124B070BD64F5010068
:10AFC000D4F601002DE9F043036891B00446002B4C
:10AFD0003FD000F500577A68002A3AD01E4ADFF8C1
:10AFE0007C800025CDE90B2300F58056B7F894311D
:10AFF0000F95CDE90D55A946ADF83A3004362946EE
:10B000002068FDF729FF2068FDF738FF2068002140
:10B01000FDF73AFF98E8070008AB83E80700012234
:10B020008DF828200BAA00927A688DF83C90314662
:10B0300002A8FEF727FD01352068FDF733FF1E2D1E
:10B04000DDD120684FF0FF31FDF706FF2068FDF7E6
:10B0500015FF11B0BDE8F083D0F50100D4F6010072
:10B060002DE9F0430D4695B09046002114221F466D
:10B07000044613F036FD2B6813B1B8F1000F05D16B
:10B0800002232370204615B0BDE8F083B7F5805F3A
:10B09000F6D8FDF7DBF8304E814696E8070009AB9D
:10B0A00083E807000022009241463A460FA8FEF7C7
:10B0B000E9FC109BE360119B2361FDF7C7F89DF845
:10B0C0003C30A0EB09006060002BDAD19DF84830DD
:10B0D000002BD5D005F10409414605F580583A46C4
:10B0E000484608F1040813F045FD49463A464046F3
:10B0F00013F040FD05F500599DF84C30C9F8047077
:10B100001BB1BDF84A30A9F808302846FFF708FF00
:10B1100005F50050D9F88C110A30FEF777FA96E859
:10B1200007000E4B08930CAB83E8070001228DF853
:10B13000382008AA0092D9F80420414602A8FEF758
:10B14000A1FCFDF783F806462846FFF73BFFFDF715
:10B150007DF8801BA06095E7D4F601003CF6010065
:10B1600010B400F5005494F8963123B9A4F8943142
:10B170005DF8044B704794F89131B4F892219A42EB
:10B1800086BFD31A9BB200238B4228BF0B46A4F87C
:10B1900094315DF8044BFFF715BF2DE9F041089E8F
:10B1A0000C4696469846DDE9061276B307282CD859
:10B1B00014F0100529D114F0010702D0A30720D5FF
:10B1C0002F464FF0020C099B02EB0C05AB421CD33F
:10B1D000F42D1AD802B1D1B104F01F0444EA40148E
:10B1E000347086F801E027B14FEA182386F8028010
:10B1F000F3701AB106EB0C0013F0BCFC2846BDE856
:10B20000F08101274FF0040CDDE70025F6E70D463D
:10B21000F4E72DE9F04FC5B081464E9C984616469E
:10B2200042B14F9B33B1B4F5805F03D824B1B8F17C
:10B23000000F16D1002011E007AFCDE90147F4233C
:10B24000039301F01C01CDF800803278A3B241F0E5
:10B2500003014846FFF7A1FF002836D145B0BDE8FD
:10B26000F08FF22CE8D901F01C05A3B245F00101E2
:10B270000027F02205934FF0F40B0DF11C0AE31B9D
:10B28000934228BF1346CDE902AB3A4642441F44DD
:10B290000193A742009228BF41F00201059B32783A
:10B2A0004846FFF77AFF01460028C3D03378509A0A
:10B2B0000133337050464F9B98470028BAD0A742BD
:10B2C0004FF0F202CAD22946D9E73378509A0133B7
:10B2D000337001464F9B38469847BFE707299FBF09
:10B2E00000EBC102002340F83130C2F80330704750
:10B2F00010B50024E1B20134FFF7F0FF082CF9D1BA
:10B3000000F58050002380F84430036410BD2DE91F
:10B31000F04700F58058002316460446C8F8403030
:10B320000A4659B1B31EF22B08D80B7813F0100956
:10B330004FEA531507D02946FFF7D0FF4FF0020917
:10B340004846BDE8F087062D7CD0072D03D198F83C
:10B350004510002976D003F0020A13F0010307D04C
:10B36000BAF1000F04D1032E32D829462046E3E774
:10B370004FF0000C0227D119F61BEF00507827443C
:10B38000002B3BD0002344F83530C7F803300123AD
:10B39000BB711844BAFA8AF35B09787004F8353047
:10B3A000BCF1000F18D053887B805A1EB2F5805F25
:10B3B000DBD2B342D9D3324604F1400013F0DAFBBA
:10B3C000B3B2BB80BAF1000F0CD14FF00109B7E75F
:10B3D0004FF0010C0427CEE7BAF1000FC5D0B3B28D
:10B3E0007B80E6E77A889A42BFD1C8F8406088F847
:10B3F000445029462046FFF771FFA1E714F8353085
:10B40000002BB2D0BB79002BAFD07B788342ACD17C
:10B4100001337B70BB887A8898199042A5D804F1D3
:10B4200040003246184413F0A5FBBB881E44B6B258
:10B430007B88BE80BAF1000F01D09E42D4E79E42C5
:10B44000C3D192E74FF003097AE7034610B45C6872
:10B450000846114624B19A6823465DF8044B184704
:10B4600020465DF8044B704730B5C1B08123B2F57A
:10B47000807F054614468DF8003008D94FF480745B
:10B48000621E01310DF1010013F074FB01E0012A8D
:10B49000F6D8224669462846FFF7D7FF41B030BDAF
:10B4A0007FB5037F0546002B3ED0D0E908329A4293
:10B4B0003AD30368C3B39847AA6A6E6A0023841A12
:10B4C0002B7733D01A482246A6FB000113F042F82E
:10B4D00082238DF80030230A8DF80230230C8DF87A
:10B4E0000330330A8DF80630330C8DF80730330EF5
:10B4F0008DF80830030A8DF80A30030C8DF80B30F4
:10B50000030E8DF801408DF80900240E8DF80C30E3
:10B510000E220023694628468DF804408DF8056008
:10B520008DF80D30FFF791FF04B070BD2046CFE7D6
:10B53000A0860100042A38B50446154619D90368C7
:10B54000BBB1D1F801200262002242629847236A0F
:10B55000A0621A1E18BF0122052D227709D043B11F
:10B56000636A053B2B4463622046BDE83840FFF721
:10B5700097BF38BD017F31B12AB1416A013A114408
:10B580004162FFF78DBF7047F0B5012A93B00546C1
:10B5900014461DD90368DBB1013A402A18D8842328
:10B5A00001310DF101008DF8003013F0E3FA2B6842
:10B5B00098476E463719030A0DF804007B70030C98
:10B5C000BB70030EFB70221D69462846FFF73DFF46
:10B5D00013B0F0BD30B5436987B0044643B3816909
:10B5E00001A89847BDF80400BDF80610BDF8082072
:10B5F000BDF80A308DF80D008DF80F108DF8112070
:10B60000000A090A120A8DF80E008DF810108DF844
:10B6100012208DF8133085251B0A092203A9204624
:10B620008DF80C508DF81430FFF70FFF07B030BDC8
:10B630001A4619461846DDE730B5012A85B0054699
:10B6400038D9C468DCB30369013A01316846A047C0
:10B65000DDE90012029B9DF80C008DF80110862494
:10B660008DF800400C0A8DF802400C0C090E8DF884
:10B670000410110A8DF805208DF80610110C120E19
:10B680008DF808201A0A8DF80A201A0C8DF8071078
:10B690008DF809308DF80B201B0E8DF80D000E2251
:10B6A000694628468DF803408DF80C30FFF7CDFE33
:10B6B00005B030BD012000231A461946CDE7012010
:10B6C0002346F9E7F8B5134641B34AB30E78771E1F
:10B6D000052F03D9BDE8F840FFF7B7BE023E042EA0
:10B6E00004D8DFE806F0080C101417001A46FFF71C
:10B6F000BBFE0120F8BD1A46FFF71CFFF9E71A460A
:10B70000FFF738FFF5E71A46FFF73EFFF1E7FFF7CF
:10B7100061FFEEE71A46FFF78FFFEAE70846E9E721
:10B720001046E7E70268136810B59F2B9FBF40687B
:10B730005C1C1460C15410BDCA08006801F0070108
:10B7400001238B40815C0B438354704718B101285F
:10B7500001D0022804D1034B0C2202FB00307047B9
:10B7600000207047E0F6010007B52022002101907B
:10B7700013F0B7F901A80121FFF7DEFF01A80221AC
:10B78000FFF7DAFF01A80321FFF7D6FF04210DEB35
:10B790000100FFF7D1FF01A80521FFF7CDFF01A8A8
:10B7A0000621FFF7C9FF01A80721FFF7C5FF01A880
:10B7B0000821FFF7C1FF01A80921FFF7BDFF01A87C
:10B7C0000A21FFF7B9FF01A81021FFF7B5FF01A873
:10B7D0001121FFF7B1FF01A81221FFF7ADFF01A86A
:10B7E0001321FFF7A9FF01A82021FFF7A5FF01A85A
:10B7F0002121FFF7A1FF01A83021FFF79DFF01A83C
:10B800003121FFF799FF01A84021FFF795FF01A81B
:10B810005021FFF791FF01A85121FFF78DFF01A8EB
:10B820006021FFF789FF01A86121FFF785FF01A8CB
:10B83000F021FFF781FFF12101A8FFF77DFF03B0A1
:10B840005DF804FB2DE9F04F8846ADB09146074600
:10B8500018B900202DB0BDE8F08F04AC002501AB75
:10B86000012102A8029301950394FFF75BFF29468B
:10B8700002A8FFF757FF0B2102A8FFF753FF294645
:10B8800002A8FFF74FFF01982F4E231801222254E0
:10B890005D70831CF022E118E254031D4D70E11825
:10B8A0000630E25401904D702044FFF75DFF019B8C
:10B8B00003F12002A118A55410224A70223303215B
:10B8C00002A80193FFF72EFFAA46317802A8FFF7DE
:10B8D00029FFD6F804B000251BF805300BB1102D58
:10B8E0002AD1E9B202A8FFF71DFF5D44AB4525D17F
:10B8F000317A02A8FFF716FF019B7289E254E11822
:10B900000AF1010A120A0233BAF1030F4A700193D5
:10B9100006F10C06D9D1002102A8FFF703FF494622
:10B9200002A8FFF7FFFE019A424592D82146384609
:10B9300013F020F901988DE70135CDE71BF8011BC5
:10B9400002A8FFF7EFFED1E7E0F6010010B50822EC
:10B95000044600211C3013F0C4F8002384F82C3076
:10B9600010BD70B50D46044606460FCD0FC695E8CE
:10B9700003004FF0807386E80300A3612046FFF7C1
:10B98000E5FF0023C4E90D3384F82D30E38584F806
:10B99000303070BD30B4056835B129B122B143698A
:10B9A000AC46022030BC604730BC704707B5072367
:10B9B0008DF80510022201A98DF80430FFF7EAFF87
:10B9C00003B05DF804FB13B5046874B1837EB3FA69
:10B9D00083F35B090A221B01ADF804208DF80630C1
:10B9E0000322436901A90020A04702B010BD13B58E
:10B9F00004685CB106238DF804308DF805104369A6
:10BA00008DF8062001A903220020A04702B010BD36
:10BA100030B50368A9B0044663B190F83020A02186
:10BA20006846FFF70FFF024620B125686369694643
:10BA30000020A84729B030BD70B5044608460D4621
:10BA4000FFF784FE30B1E368E5761BB16169BDE8BC
:10BA50007040184770BD000070B500250446C0E96D
:10BA60000D1180F82F5085764576FFF76FFF012383
:10BA70002376A36884F82E5013B16169284698474D
:10BA80002046FFF7C5FF236923B161690248BDE87D
:10BA90007040184770BD00BF8FEC0100037E70B589
:10BAA00004465BB190F82C3043B100F11C01082230
:10BAB000243013F05FF8012384F82D300025A5769B
:10BAC00084F82F502046FFF741FFA368257613B175
:10BAD000616928469847236923B161690248BDE836
:10BAE0007040184770BD00BFBBEC01000A2AF8B5D2
:10BAF00004460D46164629D90B78022B26D14F78DD
:10BB00003846FFF723FE00B3AB7A0B339E421DD3BA
:10BB100004F11C060822A91C304613F02BF894F8F7
:10BB20002D00012384F82C3040B1082204F12401B7
:10BB3000304612F0ADFFB0FA80F0400984F82E00D4
:10BB400039462046FFF778FF0120F8BD0020FCE7CA
:10BB5000002310B50446837680F82F3043760AB16F
:10BB6000FFF724FFA36813B1616900209847237E83
:10BB7000033B012B9CBF022323762046BDE81040E7
:10BB8000FFF721BF90F82F3010B504468BB9A37E84
:10BB9000012084F82F002BB104232376A3680BB176
:10BBA00061699847236923B161690248BDE8104083
:10BBB000184710BDDFEC010070B504461D46002992
:10BBC00071D0002A6FD00B78023B092B6BD8DFE8CD
:10BBD00003F0052B344C6A64716B6A8B237E012B56
:10BBE00061D12046FFF782FF38B92369002B5AD074
:10BBF00061694148BDE870401847002384F82F3040
:10BC0000A3760223237665632046FFF7DCFE2369D3
:10BC1000002B48D094F82E006169384A384C00282F
:10BC200018BF14462046E5E7237E012B3BD123694C
:10BC3000002B38D061693348DCE7237E023B022BBE
:10BC400031D894F82F3065636BB3A07E00239842FF
:10BC500084F82F300CBF022303232376A36813B389
:10BC600008BB6169BDE870401847012A1BD0237EDC
:10BC7000023B022B17D84D782846FFF767FD30B9F5
:10BC8000012229462046BDE87040FFF7B0BE294694
:10BC90002046FFF7D1FE0022F3E7237E023B022B72
:10BCA00001D80123637670BD237E023B022BFAD8B4
:10BCB0000023F7E7A07E0028F5D00138C0B20023AA
:10BCC000A076637660B902232376A36884F82F00F8
:10BCD0000BB1616998472046BDE87040FFF773BE1D
:10BCE0002046FFF74FFFF6E720460122BDE87040EF
:10BCF0000321FFF72DBF00BF3DED010000ED010066
:10BD00001CED01005CED010070B504461D46237E6C
:10BD1000023B022B0846114622D8636803B3F8B1F0
:10BD2000F2B1A27EAAB1667E62699847C0B9012EBF
:10BD3000A27E10D1062A01D80132A276002384F80F
:10BD40002F300323238365632046BDE87040FFF74F
:10BD50003ABE0126E8E7002AF0D10123A376EDE7F9
:10BD600070BD0000037E023B022B10B5044618D8BC
:10BD7000436BC91A42F20F7399420BD9036913B18D
:10BD8000416908489847012220461146BDE8104005
:10BD9000FFF7DEBEB1F57A6F03D3BDE81040FFF7C1
:10BDA000F1BE10BD87ED0100807E003818BF012074
:10BDB0007047000007C8024B83E80700704700BFC8
:10BDC0000C31002070B4064E35682DB121B11AB186
:10BDD000B368AC4670BC6047002070BC704700BFC1
:10BDE0000C31002070B4064E75682DB121B11AB126
:10BDF000B368AC4670BC6047002070BC704700BFA1
:10BE00000C310020024AD2F80034002BFBD07047DE
:10BE100000E0014010B5064C237843B905484FF4C3
:10BE200080524FF4FE2112F0A5FE0123237010BDB5
:10BE3000183100201C310020024B00221A70FFF73D
:10BE4000E9BF00BF1831002070B5044616460D4604
:10BE500011B90024204670BD002AFAD00228F8D873
:10BE6000FFF7D8FF0B490C4AA30201EB8424C85802
:10BE70009042EED16468621EB2F57E7FE9D2B44290
:10BE800028BF3446083322461944284612F072FE71
:10BE9000E0E700BF1C310020544C50532DE9F04125
:10BEA000074616460C4600294BD0531EB3F57E7F3D
:10BEB00047D2022845D8244D4FEA872805EB87272B
:10BEC000FFF7A8FF214B45F8083008F1080032467B
:10BED00021467E60284412F04DFE06F108004044E1
:10BEE000C6F57E72FF21284412F0FBFD1848FFF7CB
:10BEF00089FF0223C0F804354FF4FE21FFF782FFCB
:10BF0000C0F80815FFF77EFF0023C0F80435FFF7DF
:10BF100079FFFFF777FF0123C0F80435FFF772FFC1
:10BF200055F8043B41F8043BFFF76CFFB1F5002FD7
:10BF3000F6D10023C0F80435FFF764FF0120BDE807
:10BF4000F0810020FBE700BF1C310020544C50530F
:10BF500000E00140034A13680BB150681847002005
:10BF6000002170473841002030B50A4D421E00F1D3
:10BF700017034FF0FF3012F8011F4840082140F32B
:10BF800000042C40013984EA5000F8D19342F2D1E8
:10BF9000C04330BD2083B8ED03C808B5054B182257
:10BFA00083E803000448002112F09BFD034B0022AC
:10BFB0001A7008BD38410020204100201C4100209B
:10BFC00070B586B018220021684612F08AFD18224A
:10BFD00069460020FFF7F6FE17281AD90E4B009A83
:10BFE0009A4216D100236846059C0593FFF7BCFFD3
:10BFF000A0420ED16C460FCC084E35460FC594E8D2
:10C0000003007368064A5B1A85E8030018BF012322
:10C01000137006B070BD00BF43544C532041002044
:10C020001C41002038B5084D084B2B6000242846E1
:10C030006C61FFF799FF2946686118222046BDE828
:10C040003840FFF7CFBE00BF2041002043544C537F
:10C050002DE9F047DFF8E080354C0746FFF77AFF1F
:10C0600098F8003005460E46002B57D0D4E902322E
:10C07000834272EB060151D2B5EB030A66EB020272
:10C08000D4F810904FEADA3A4AEA424A4FEAE97C99
:10C09000A9FB0A01274A00230AFB0C1112F00AFA35
:10C0A00010EB0A0241F100031F2A73F1000135DB96
:10C0B0006168B7EB010C6EEB0E0EBCF11F0F7EF149
:10C0C00000012BDB1B49BCEB020C6EEB030EACFB3F
:10C0D000010C01FB0EC112F0EDF9DFF860E04FF04A
:10C0E000FF3C70450A4671EB0C01034641F2893171
:10C0F000BCBF734662468B4272F10001A4BF41F29D
:10C10000883300220321C9FB0132002A02DA5B18BE
:10C1100042F100029B0843EA827323610123C4E9D0
:10C120000175E66088F80030BDE8F047FFF77ABF98
:10C130002041002040420F001C41002078ECFFFF0E
:10C14000F8B5164B1E783EB3FFF704FF144BD3E946
:10C150000225904271EB05045E681DD3841A61EBE1
:10C16000050518690F4AE40B44EA4544ED0BC31773
:10C1700000FB05F104FB0311A0FB04070023394475
:10C1800012F098F9341945F10005001945EB010545
:10C19000002DACBF064600263046F8BD1C410020ED
:10C1A0002041002040420F0070B50446FFF7C8FF51
:10C1B0002C4BB0FBF3F307220433B3FBF2F2C2EBD8
:10C1C000C2023C219B1AE371B0FBF1F301FB1300A7
:10C1D000B3FBF1F201FB123318216371B2FBF1F3EF
:10C1E00001FB1322A07122714FF4C87040F2B272A9
:10C1F0006426910705D1B2FBF6F106FB112189B245
:10C2000071B9B2FBF0F100FB112189B241B10025F7
:10C2100040F26D118B4207D301325B1A92B2E8E70C
:10C2200001254FF4B771F5E70F4822800122022A59
:10C23000014600F1010000D145B90978994207D9BA
:10C240000133DBB2A270E370204670BD1D21F5E71B
:10C250000132D2B20D2AA3EB0103E8D10C221F2335
:10C26000F0E700BF8051010004F70100014B18788E
:10C27000704700BF1C4100200B4B012200215A6077
:10C280009A60C3F80815C3F80C110221C3F84413CF
:10C29000C3F804134FF0E0214FF40030C1F88002DE
:10C2A000C1F800011A6070470010014010B5074B3B
:10C2B000074C1A68D4F8040519689142F9D120F0A6
:10C2C0007F4040EA0160090A10BD00BF40410020E4
:10C2D00000100140054BD3F80C2132B10022C3F805
:10C2E0000C21034A136801331360704700100140AA
:10C2F00040410020FFF7EEBFF8B50D46AB421C46AB
:10C3000028BF2C46074611461E4614B1224612F09D
:10C3100031FCAE423CBF00233B55069B1C70F8BD70
:10C3200020B140F60422002112F0DBBB704730B58B
:10C3300030B110F8A04B0023A025DAB2944200D807
:10C3400030BD05FB03F201338154F6E740B10378B9
:10C350008B4204D9A02303FB010004307047002066
:10C36000704770B50446F0B103788B421BD9013198
:10C37000CDB2A026207885420BD30138C0B2207000
:10C3800006FB0040A0220021043012F0AAFB01208D
:10C3900070BD06FB0540011D9D229C38013512F041
:10C3A000E9FBEDB2E6E70020F2E72DE9F04F134696
:10C3B0008BB00D46044618B900200BB0BDE8F08FD5
:10C3C0000029F9D0002AF7D00E78032E03D1FFF709
:10C3D000A7FF0120F1E7022E25D1012AECD091F828
:10C3E000018008F102029A42E6D8023500274FF098
:10C3F000A0092378FEB2B342DED909FB06F0231868
:10C400001B7943450DD1053042462946204412F0A0
:10C410003FFB30B9314620460BB0BDE8F04FFFF787
:10C42000A0BF0137E5E7012EC6D1012AC4D04F785D
:10C430007A1D9A42C0D8BFD011F802B007F1060A9F
:10C440000BEB0A029A42B7D2501C8A5C0492111874
:10C450000A1D9A42B0D8AB1C0393EB194FF00009A8
:10C460009A780592DA7806921B7907936A182B1846
:10C47000089393785078695CD2781B0443EA0023D0
:10C480000B4343EA02630993A02322785FFA89F8F9
:10C4900042450CD80F2A06D94FF0A0082278B242A4
:10C4A00054D8013AD2B2531C237016B210E003FBE9
:10C4B00008F022181279BA4245D1053003993A465C
:10C4C000204412F0E5FAA02300283CD10FFA88F6A8
:10C4D000A022564306F10408A0440021404612F071
:10C4E00000FB701D3B46039ACDF80080A719282158
:10C4F0002044FFF701FF059B87F82D30069B87F846
:10C500002E30079B87F82F3006F1300306F13100FB
:10C510002344009305EB0A025B4620212044FFF7E9
:10C52000EBFE06F1520051362644049B089A009611
:10C5300048212044FFF7E0FE099BC7F89C30002308
:10C5400087F8A03045E709F101099EE708FB06409E
:10C55000011D9D229C38013612F00CFBF6B29DE7BE
:10C5600018B16422002112F0BCBA704710B504461D
:10C570009AB008B36422002101A812F0B2FA7F2316
:10C58000642201A901208DF808308DF810308DF853
:10C5900018308DF820308DF828308DF830308DF837
:10C5A00038308DF84030FFF70DFC632804D9642241
:10C5B00001A9204612F0DEFA1AB010BD014618B1EA
:10C5C00064220120FFF70EBC7047F7B504469DF8C2
:10C5D000207028B90025284645EA002003B0F0BDA8
:10C5E00090F860C053EA070024D0012000FA02F25C
:10C5F0002546204600265FFA86FEF4451DD8002316
:10C6000095F84120002A3CD06A6C8A4239D804EB64
:10C61000C305002385F841302046FFF7CFFF95F88A
:10C6200040000225D8E706F830E00130C5B2AC453D
:10C63000F9D8DAE7661D8646F8E790F801E0BEF122
:10C64000000F1BD090F805E0BEF1000F16D190F856
:10C6500004E01EEA020F11D090F802E09E450DD1D1
:10C6600090F803E0BE4509D104EBC603012520463E
:10C670005D71FFF7A3FF14F83600ADE7013608300F
:10C68000B9E70133042B05F10805B9D1A2E713B5C9
:10C6900003468DF807201C68084634B1DB68012288
:10C6A0000DF10701A04702B010BD2046FBE703468D
:10C6B00010B45C680846114634B12AB1A446DB6860
:10C6C0005DF8044B0122604700205DF8044B704781
:10C6D00037B504460FC9002584E80F002582B6222D
:10C6E0007E212046FFF7D3FFA36813B1E168322013
:10C6F00098470DF10702002120468DF80750FFF7FB
:10C70000D6FF28B19DF80730112B03D101232374E4
:10C7100003B030BD132BFBD10223F8E72DE9F7431B
:10C7200004461646894621B90025284603B0BDE8CF
:10C73000F083002AF8D00368002BF5D0002259219D
:10C74000FFF7A5FF0028EFD00025A6EB0508B8F1FC
:10C75000080F28BF4FF00808E3682768424609EB36
:10C7600005015E20B8470028DED04544AE42ECD833
:10C77000012259212046FFF78AFF05460028D3D021
:10C78000A36813B1E1689620984700230DF10702D2
:10C790005F2120468DF80730FFF789FFC5E738B5E0
:10C7A000A82240210446FFF772FF10B90025284651
:10C7B00038BD002241212046FFF769FF0028F5D04F
:10C7C00004227D212046FFF762FF05460028EDD0B8
:10C7D0000A2253212046FFF75AFF042258212046FF
:10C7E000FFF755FFE3E7F8B51D46037C044673B138
:10C7F0000023437429B122B1FFF790FF08B1012350
:10C80000637429462046BDE8F840FFF7C8BF1846C4
:10C81000F8BD437C13B513B9002002B010BD4468C5
:10C820000023ADF804308DF80630002CF4D0C36836
:10C83000032201A91E20A0470028EDD09DF8060084
:10C840009DF80530000440EA03209DF804301843A9
:10C85000E3E707B500230DF107021C218DF807302F
:10C86000FFF725FF20B19DF80700003818BF012011
:10C8700003B05DF804FB000007C8024B83E8070023
:10C88000704700BF44410020094A08B5136813B936
:10C890004FF47A6008BD906898470028F8DB4FF4A1
:10C8A000FA63584340F2D943B0FBF3F080B2F1E7AA
:10C8B0004441002008B5FFF7E7FF40F6E443984203
:10C8C00010D941F2670398424FF064030CD85843E3
:10C8D000A0F5A120A0F588704FF46173B0FBF3F0D0
:10C8E000C0B208BD0020FCE71846FAE7034A5368C7
:10C8F0000BB1906818471846704700BF44410020AC
:10C90000014B1868704700BF480000204FF0A0435B
:10C91000D3F8100580F48050C0F300307047000059
:10C920001FB54FF0A0430C22C3F830270023039318
:10C93000044B019301A8044B0293FFF79DFF05B040
:10C940005DF804FB01C900000DC90000014B18602F
:10C95000704700BF48000020D0E9013210B5934273
:10C960003FBF02685C1C4460D15424BF00230373A2
:10C9700010BD10B50C46C9B2FFF7EEFF210ABDE8A5
:10C980001040FFF7E9BFF0B585B072B930238DF8DC
:10C9900004300123591AC9B21BB1013BDBB28B42EF
:10C9A00018D10023037005B0F0BD01AD01230A26A4
:10C9B000B2FBF6F706FB1724303405F8014B14469A
:10C9C000092C3A4601D8DBB2E4E701330B2BEFD157
:10C9D0000A23DFE703F110026A4412F80C2C00F876
:10C9E000012BD9E72DE9F041054606981E4617466A
:10C9F000884612F0CDF8102104462846FFF7ACFF18
:10CA00000021FFF7A9FF4146FFF7A6FF3946FFF7D0
:10CA1000A3FF0121FFF7A0FF3146FFF79DFFE1B221
:10CA2000FFF79AFF069C6618B44201D1BDE8F08179
:10CA300014F8011B2846FFF78FFFF5E708B5002122
:10CA4000FFF78AFFBDE80840FFF793BF2DE9F04FDD
:10CA5000046893B00546002C00F01A82002900F00B
:10CA60001782072A40F2148200230F9301238DF8C6
:10CA7000443023780E911092052B00F20982DFE8F2
:10CA800013F00600B8006701A401BE01E40102A88A
:10CA9000FFF78AFB0EA80121FFF75EFFFFF7CEFF2D
:10CAA0000221FFF759FF0021FFF756FF4FF6FF71F4
:10CAB000FFF75FFF0221FFF74FFF0121FFF74CFF58
:10CAC0004FF4FC61FFF755FF9DF80C300A25B3FBCE
:10CAD000F5F205FB123330338DF811303A238DF81F
:10CAE00012309DF80D3002F13001B3FBF5F205FB79
:10CAF000123330338DF810108DF8143002F13001FC
:10CB000004AB8DF8131000260093462201237821F0
:10CB10008DF81560FFF766FF9DF80B30B3FBF5F25B
:10CB200005FB123330338DF821309DF80A308DF833
:10CB3000286002F130018DF82010B3FBF5F105FB00
:10CB4000113330332D228DF82430BDF808308DF8A4
:10CB500022208DF82520642201F13000B3FBF2F190
:10CB600002FB1133DBB2B3FBF5F105FB11333033BC
:10CB70008DF823008DF8273001F1300008AB8DF8D7
:10CB800026000093782101230EA8FFF72BFFE37DF9
:10CB900063B10BADA2680C212846FFF7F4FE0095A7
:10CBA0000123822278210EA8FFF71CFF06ADA2798F
:10CBB00008212846FFF7E7FE0023C82228210EA8F7
:10CBC0000095FFF70FFF2179B34AB44B002918BF36
:10CBD0001346C8220093114602230EA8FFF702FF56
:10CBE0006379002B4BD0AE4B0093A0220123782118
:10CBF000E7E00EA80121FFF7AFFEFFF71FFF0221BC
:10CC0000FFF7AAFE0021FFF7A7FE4FF6FF71FFF71F
:10CC1000B0FEA44B0093082201237821FFF7E2FE27
:10CC20006F68002F39D03C7808AD22460421284691
:10CC3000FFF7A9FE00950123182278210EA8FFF71F
:10CC4000D1FE062CA04628BF4FF006083CB3C8EB27
:10CC5000C804A400A4B20EA84021FFF77DFE28213D
:10CC6000FFF77AFEB421FFF777FE2146FFF781FE3A
:10CC7000DFF824A230240026F1B2414511D30EA8DA
:10CC8000F021FFF769FE0021FFF766FE9DF84400E2
:10CC9000002800F0FE800F98FBE03C46C4E701242A
:10CCA000D9E73846FFF752FB054600284CD00EA8BE
:10CCB0003021FFF751FE06F1640189B2FFF759FEFA
:10CCC0000421FFF749FEA4F10801C9B2FFF744FEB1
:10CCD000E821FFF741FE1A21FFF73EFE0121FFF791
:10CCE0003BFE95F82B30A3F13002092A88BF302390
:10CCF0004FF000090DF12C0B8DF82C3022464B46DD
:10CD00000C21CDF800B08DF82D90FFF76BFE95F853
:10CD10002C2008215846FFF736FE4B46CDF800B0D0
:10CD2000224628210EA8FFF75DFE95F89C303BB106
:10CD3000CDF800A04B462246C8210EA8FFF752FEB0
:10CD400031210EA8FFF708FE1C340136E4B293E748
:10CD50000EA80121FFF700FEFFF770FE0221FFF78A
:10CD6000FBFD0021FFF7F8FD4FF6FF71FFF701FE15
:10CD70004D4B00930BAD012314227821FFF732FEB7
:10CD8000227D04212846FFF7FEFD002350222821A2
:10CD90000EA80095FFF726FE627D04212846FFF7C6
:10CDA000F2FD00236E2228210EA80095FFF71AFE3F
:10CDB000A27D04212846FFF7E6FD009500238C2282
:10CDC00028210EA8FFF70EFE59E70EA80121FFF754
:10CDD000C3FDFFF733FE0221FFF7BEFD0021FFF781
:10CDE000BBFD0BAD4FF4FC61FFF7C3FDA279082139
:10CDF0002846FFF7C8FD009501236422F7E60EA838
:10CE00000121FFF7A9FDFFF719FE0221FFF7A4FD9D
:10CE10000021FFF7A1FD0BAD4FF47841FFF7A9FD0D
:10CE2000227F04212846FFF7AEFD012350227821FE
:10CE30000EA80095FFF7D6FD627F04212846FFF774
:10CE4000A2FD009501237822D1E60EA80121FFF76B
:10CE500083FDFFF7F3FD0221FFF77EFD0021FFF7C1
:10CE60007BFD4FF6FF71FFF784FD0C4B00936E22A4
:10CE700001237821FFF7B6FDF0210EA8FFF76CFD26
:10CE80000021FFF769FD9DF84430002B7FF403AFCC
:10CE9000002013B0BDE8F08FD3ED0100D0ED01000C
:10CEA000CCED0100CFED0100D2ED01004FF4406266
:10CEB0003C21C0E90012826040F6042C4FF48052FD
:10CEC000C0E903C27047000073B50F4C064694E8F2
:10CED00003000822CDE9000169460220FEF772FF37
:10CEE00007280A4A06F1280308D90199914205D179
:10CEF000DDE9000183E8030002B070BD94E803009F
:10CF000083E80300F262F7E710F7010053544C5333
:10CF100030B5036885B00446C3B100F11403019332
:10CF200000F5B35500F6144302931C3500F5B053D9
:10CF3000183329464FF4007201A80393FFF786FDCA
:10CF4000014618B12368E2682846984705B030BD0D
:10CF500070B5044615460FC9256184E80F004FF4EB
:10CF60004062002104F1140011F0BBFD002664238F
:10CF700004F5B055A37604F6144018352675FFF76E
:10CF8000CFF92846FFF7ECFA2846FFF7EFFA2046DC
:10CF9000FFF79AFFFFF714F8206938B1037C2BB133
:10CFA00094F8293032463146FFF71DFC2046BDE893
:10CFB0007040FFF7ADBF10B5012304460383002185
:10CFC00000F61440FFF7B3F9237D052B04BF0023BF
:10CFD00023752046BDE81040FFF79ABF10B5002327
:10CFE00004460376012100F61440FFF7A0F920461D
:10CFF000BDE81040FFF78CBF037D41760BB9FFF70A
:10D0000087BF704710B5044600F61440FFF7CDF90E
:10D0100038B1237D012B04D12046BDE81040FFF735
:10D0200077BF10BD10B504460846FFF711F820463B
:10D03000BDE81040FFF76CBF00F58053012283F874
:10D040008828836813B1C1683720184770470423C4
:10D0500010B50375436880F83010044680F831201D
:10D0600013B1C168022098472046FFF7E5FF20462C
:10D07000BDE81040FFF74CBF73B50446006918B314
:10D08000037C0BB3FFF7C5FB0546FFF759F80646CF
:10D090006846FFF789F89DF805309DF804203C218B
:10D0A0004B434FF4616101FB02339DF806201344AA
:10D0B000F61A636A0BB1B34201D0C4E90856236A79
:10D0C000AB4298BFED1AE56102B070BD10B50446E1
:10D0D000FFF7F0FBA076FFF709FCE37D60B10122CA
:10D0E0008BB90323E27523752046FFF7A5FF204681
:10D0F000BDE81040FFF70CBF33B1237DE075032B73
:10D1000003D12075F3E71346E37510BD10B586B063
:10D110000446FFF7ABF800B304A8FFF745F8FFF7A4
:10D120000FF89DF815300093014604F5B0509DF8B6
:10D1300014309DF817201830FFF747FAC1B20129C3
:10D14000ADF80C0007D19DF80D20204606B0BDE8D3
:10D150001040FFF77CBF0229F5D006B010BD10B516
:10D1600090F82830044683B1006970B1FFF771FB75
:10D1700058B12046FFF760FF237D0BB1052B04D18A
:10D180002046BDE81040FFF7C3BE10BD70B500F5E6
:10D1900080560446D6F88038CB1AB3F5FA6F0D46A0
:10D1A00008D3FFF769FF237DC6F8805813B92046DE
:10D1B000FFF7AEFED6F8843841F28732EB1A93427D
:10D1C00004D92046FFF782FFC6F884582046FFF7AF
:10D1D0009DFF2046BDE87040FFF7C1BF10B5044673
:10D1E000FFF72AFF237D042B06D100232375204659
:10D1F000BDE81040FFF78CBE23B15A1E5342534185
:10D200005B00F3E70123F1E713B5FF2305248DF855
:10D2100007308DF80640FBF7EFF82046FBF74CF996
:10D2200001230DF1070219460DF10600FBF71AF96B
:10D230002046FBF748F9FBF7EBF89DF8070002B032
:10D2400010BD000010B5054CFFF7DEFFC30704D585
:10D250003220FBF703F8013CF6D110BDA086010097
:10D2600007B58DF80700FBF7C7F80520FBF724F991
:10D2700001210DF10700FBF7D7F80520FBF723F993
:10D28000FBF7C6F803B05DF804FB000010B5064CD0
:10D2900023783BB1AB20FFF7E3FF3220FAF7DEFF44
:10D2A0000023237010BD00BF50410020014B00221D
:10D2B0001A7070475041002007B5FFF7E7FF9F2322
:10D2C0008DF803300023ADF804308DF80630FBF7FD
:10D2D00093F80520FBF7F0F803230DEB030001AAF8
:10D2E0000121FBF7BFF80520FBF7EDF8FBF790F8FD
:10D2F0009DF804000138C0B2FD288CBF0020012039
:10D3000003B05DF804FB73B5054614460E4619B329
:10D3100012B31318B3F5800F1ED8FFF7B7FF03231E
:10D320008DF804302B0C6DBA8DF80530ADF8065031
:10D33000FBF762F80520FBF7BFF804210DEB0100B5
:10D3400023463246FBF78EF80520FBF7BCF8FBF7C7
:10D350005FF8012002B070BD0020FBE7F0B5054684
:10D36000C3B016460C46A1B3531EFF2B31D852FA58
:10D3700080F3B3F5807F2CD81318B3F5800F28D82D
:10D38000FFF784FF01AF0620FFF76AFF02233B701F
:10D390002B0C6DBA7B707D8020460DF10703A2191E
:10D3A00010F8011B03F8011F9042F9D1FBF724F894
:10D3B0000520FBF781F8311D3846FBF735F80520CD
:10D3C000FBF781F8FBF724F8FFF73CFF012043B09F
:10D3D000F0BD0020FBE713B50446C0F30B0020BBF3
:10D3E000B4F5800F1FD2FFF751FF0620FFF738FF7B
:10D3F00020238DF80430230C64BA8DF80530ADF885
:10D400000640FAF7F9FF0520FBF756F804210DEB6B
:10D410000100FBF709F80520FBF755F8FAF7F8FFCC
:10D42000FFF710FF012002B010BD0020FBE7000055
:10D4300010B5064C23783BB90520FBF744F8B9201A
:10D44000FFF70EFF0123237010BD00BF50410020E5
:10D45000FFF71CBF0020704701F1B40008B50003BE
:10D46000FFF7B9FF00280CBF6FF00400002008BDD3
:10D47000F8B5B431069C1E4602EB01350CB92046C6
:10D48000F8BDB4F5807F274628BF4FF480773A4631
:10D4900031462846FFF762FF18B13E443D44E41B85
:10D4A000ECE76FF00400EBE710B501F1B4001446AF
:10D4B0001946029A04EB0030FFF725FF00280CBF45
:10D4C0006FF00400002010BD10B586B01346074A67
:10D4D000039203AA009200240A4601460448CDE9BB
:10D4E000044403F0C1FE06B010BD00BF544100204B
:10D4F000EC44002038B5244D2C78002C35D1FFF7B2
:10D50000D5FEFFF7A5FFFFF7D7FE542221461F489F
:10D5100011F0E7FA1D4A1E4B53601E4B93601E4BE1
:10D52000D3601E4B136110234FF48051C2E90533C1
:10D530004FF45373C2E907134FF480704023C2E9DC
:10D540000A034FF4FA735362154B5363154B9363FD
:10D550001548164BD363114603F05EFD38B91449E4
:10D56000114803F0BBFF01232B7001240AE0074997
:10D570000D4803F0F3FC28B904490B4803F04CFDB7
:10D580000028ECD0204638BD944400209844002068
:10D59000A9D4000071D4000059D4000055D4000073
:10D5A0009443002094420020EC4400205442002088
:10D5B000D5ED0100FFF73CBFF0B51D46194B1B78B8
:10D5C00097B006460F46144613B9002017B0F0BDB9
:10D5D0000028FAD0002AF8D0002DF6D0FFF738FF47
:10D5E0000122314601A8FFF76FFF03460028ECD166
:10D5F0000D483A4601A903F06EFF002804DA01A99C
:10D60000094803F043FFE0E722462B4601A90648FC
:10D6100003F048FF01A90446034803F037FF24EA5A
:10D62000E470D3E794440020EC440020F0B51C469D
:10D630001A4B1B7897B006460F46154613B90020C3
:10D6400017B0F0BD0028FAD0002AF8D0002CF6D090
:10D65000FFF7FEFE4FF48172314601A8FFF734FF59
:10D6600003460028EBD10E483A4601A903F033FFE8
:10D67000002804DA01A90A4803F008FFDFE723467F
:10D680002A4601A9064803F024FF01A905460448DB
:10D6900003F0FCFE631B58425841D1E7944400203C
:10D6A000EC440020084B10B50446187848B14CB142
:10D6B000FFF7CEFE0548214603F06CFDB0FA80F07E
:10D6C000400910BD2046FCE794440020EC440020B3
:10D6D0000068704700234FF48062C0E90633437549
:10D6E000C3820362828480F82630704713B5C46811
:10D6F0006CB1084B02691B88ADF80430838C8DF83F
:10D7000005301B0A8DF80630032101A8A04702B09E
:10D7100010BD00BF18F7010070B50C46064605465F
:10D720000FCC0FC523682B603046FFF7D3FFBDE851
:10D730007040FFF7DBBF13B5C468BCB11123009381
:10D74000C38A8DF801301B0A8DF80230036A8DF808
:10D7500003301A0A8DF804201A0C1B0E8DF80520D0
:10D760008DF80630026907216846A04702B010BD57
:10D77000C36807B543B112228DF804208DF8051057
:10D780000269022101A8984703B05DF804FB2DE966
:10D79000F041044615460E46002900F0C680002AD6
:10D7A00000F0C3800B78013B032B05D8DFE803F0C2
:10D7B00002428E990B2D01D8022105E090F81580C8
:10D7C000B8F1000F05D001212046BDE8F041FFF778
:10D7D000CFBFB1F80130C382C81CFFF779FFA06149
:10D7E0000346C81DFFF774FFE061CF7A202FE3D80E
:10D7F00007F10C02AA42DFD8013BB3F5003F01D389
:10D800000421E1E73A460C3104F12600274411F0E7
:10D81000B1F94FF4806387F82680A38401236375F0
:10D82000A368C4F820800BB1206998472046FFF711
:10D830005DFF1CE0437D002BBED0062DBCD9C28A03
:10D84000B1F801309A42B7D1C81CFFF741FF237DE0
:10D850000746073D43B1B5F5807F05D9062120462F
:10D86000FFF786FF4FF48075236ABB4204D0204641
:10D87000BDE8F041FFF75FBFA269EB1993429BD867
:10D88000A38CAB429FD3D4F80080B8F1000F08D12D
:10D8900005212046FFF76CFF2046BDE8F041FFF769
:10D8A00019BF23692A46F11D3846C0470028EFD02A
:10D8B000236A2B442362A38C5B1B9BB2FF2B01D9F1
:10D8C000A384D4E74FF48063A384AFE783680BB1EC
:10D8D000006998472046FFF7FDFEBDE8F041FFF7DD
:10D8E00005BF437D002B3FF467AF022D7FF664AF89
:10D8F000C28AB1F801309A427FF45EAF8369016A4F
:10D9000099427FF459AF45682DB10369C269263049
:10D91000A8470028DED103212046FFF729FFA3688E
:10D92000002BB9D020699847B6E7BDE8F081000028
:10D93000024A13680BB151681847704770450020C0
:10D9400008B5FAF76BFD50B9054BC3F800054FF069
:10D950004023C3F80005BDE80840FFF72BBE08BD13
:10D9600000300040044B0722C3F800254FF040234D
:10D970000622C3F800257047003000404FF0804376
:10D9800001220249DA670220FAF7D6BCDDED010078
:10D9900007B50C23ADF8043001A9FFF7E3FF4420DD
:10D9A00040F6B8330222FBF7E4FBFFF7C9FF03B0F0
:10D9B0005DF804FB03C808B5184B83E80300184B57
:10D9C00002221A70174A00231370174A1370174B5C
:10D9D00001221F215A609A60C3F808154FF4803164
:10D9E000C3F84413C3F804134FF0E0210820C1F832
:10D9F0008002C1F88402C1F80001C1F804011A6074
:10DA00004FF08043DA67FFF7C3FFFFF799FFBDE8E8
:10DA1000084007490320FAF78FBC00BF704500207B
:10DA20004C0000206F4500206E4500200040024061
:10DA300028EE0100F8B52C4C2C4DFFF793FF082180
:10DA400000230122C4F80035C4F8F025C4F8F435E9
:10DA5000C4F8F835C4F810152549C4F81435C4F8CD
:10DA60001815C4F82C56C4F83026C4F80025C4F89C
:10DA70000031C4F80431C4F810312260FAF7E6FB33
:10DA800041F288370646D4F8003123B9FAF7DEFBB5
:10DA9000801BB842F7D901236360FAF7D7FB124E17
:10DAA000044641F28837D6F8043123B9FAF7CEFBA1
:10DAB000001BB842F7D90123B360FAF7C7FB0A4E3F
:10DAC000044641F28837D6F8103123B9FAF7BEFB85
:10DAD000001BB842F7D90023C6F80035FFF730FF26
:10DAE000B5F90000F8BD00BF007000406C45002093
:10DAF00000050200014B1878704700BF4C00002061
