:10802000000001200181000079810000898A0000A0
:108030007981000079810000798100000000000052
:10804000000000000000000000000000819D000012
:108050007981000000000000D19D0000159F000004
:108060007981000079810000798100007981000028
:108070007981000079810000E587000079810000A6
:108080007981000079810000798100007981000008
:1080900079810000798100007981000079810000F8
:1080A0007981000051880000798100007981000009
:1080B00079810000798100007981000079810000D8
:1080C00079810000798100007981000079810000C8
:1080D00079810000798100000000000079810000B2
:1080E00079810000798100007981000055880000C5
:0880F000798100007981000094
:1081000008B5144A144B15498B4213D3144B154A26
:108110000021934213D300F05BF800F037F8124CC3
:10812000124DAC420ED3124C124DAC420ED300F0A5
:10813000DFFCFEE752F8040B43F8040BE4E743F8D6
:10814000041BE6E754F8043B9847EAE754F8043B7D
:108150009847EAE720A30000000000200400002068
:1081600000010020543B002020A3000020A30000B9
:1081700020A3000020A300004FF0A0434FF4803262
:10818000C3F80825C3F81825FEE7000010B50A4A11
:108190000A4811460023013350F8044B41F8044BC0
:1081A000362BF8D14FF0E023C3F8082DBFF34F8FE3
:1081B000BFF36F8F10BD00BF0001002020800000C2
:1081C000024AD2F80034002BFBD0704700E0014097
:1081D00008B54FF0A0434FF480320321C3F80825BF
:1081E000C3F81825C3F84017C3F808254FF080439B
:1081F00001220021C3F87825C3F81825C3F804111B
:108200009A60D3F80421002AFBD04FF01020D0F858
:108210000C32023312D01749FFF7D2FF0123C1F805
:108220000435FFF7CDFF6FF00103C0F80C32FFF704
:10823000C7FF0023C1F80435FFF7C2FF0E4B012230
:1082400000215A600420DA60C3F804150321C3F842
:108250000815C3F810051A604FF0A0434FF48032A0
:10826000C3F80825C3F81825C3F84017C3F8082534
:1082700008BD00BF00E0014000900040064B012116
:108280001964D3F8402510441964D3F84025121A14
:10829000002AF9DB704700BF0090004070B504462B
:1082A0004FF47A7604B970BDB4F5FA7F254628BF3D
:1082B0004FF4FA7506FB05F0FFF7E0FF641B00F0D2
:1082C000D9FAEFE74FF0A0434FF48032C3F8082506
:1082D000704700004FF0A0431C4A30B50321002036
:1082E00004240825C2F80005C3F80817C3F80C4594
:1082F000C3F80C17C3F80C554FF48025C3F81007CA
:10830000C3F84817C3F808554FF00075C3F8641751
:10831000C3F808552025C3F81417C3F808550223DD
:10832000C2F808354FF00043C2F80C15C2F81045EA
:10833000C2F824350623C2F85435FF23C2F8C035ED
:108340000723C2F80035024B187030BD00300040E2
:10835000D8010020034B0722C3F80025024B01225D
:108360001A70704700300040D8010020014B0022F5
:108370001A707047D80100200C4B70B500240125FD
:1083800001B970BDFF290A4628BFFF22C3F8184172
:10839000C3F84405C3F84825C3F838451D61D3F830
:1083A0001861002EFBD01044891AE9E70030004024
:1083B00001234FF0A0428340C2F80C3570470123DF
:1083C0004FF0A0428340C2F8083570474FF0A043F9
:1083D0004FF48022C3F80C2570474FF0A0434FF4B0
:1083E0008022C3F80825704737B515460C468DF82E
:1083F0000700FFF7AFFF1920FFF7DAFFFFF7E6FFEF
:108400000DF107000121FFF7B7FFFFF7E6FF29464F
:108410002046FFF7B1FF1920FFF7D1FFFFF7A6FFB6
:1084200003B030BD07B58DF80700FFF793FF1920A3
:10843000FFF7BEFFFFF7CAFF01210DF10700FFF7AD
:108440009BFF1920FFF7BBFFFFF790FF03B05DF81C
:1084500004FB37B552BAADF8062040BA0422ADF895
:1084600004000D462A200DEB02011C46FFF7BCFF5D
:1084700004226DBA64BA0DEB02012B20ADF8045052
:10848000ADF80640FFF7B0FF2C2003B0BDE8304048
:10849000FFF7C8BF10B50022F8B06B461146013295
:1084A000F02A1970597003F10203F8D10024A3B225
:1084B0001946EF220020FFF7CCFFFFF74BFF1920F2
:1084C000FFF776FFFFF789FF4FF4F0716846FFF77B
:1084D00053FF01341920FFF772FFFFF747FFB4F590
:1084E000A07FE4D178B010BD7FB54FF0A044032346
:1084F0004FF000724FF08065C4F864370A20C4F86A
:108500000825C4F86837C4F80855C4F80C55FFF7B7
:10851000C5FEC4F808557820FFF7C0FE0120FFF71C
:1085200081FF9620FFF7BAFE1120FFF77BFF0A209C
:10853000FFF7B4FE5523012269463A208DF800303A
:10854000FFF752FF00230122694636208DF80030E4
:10855000FFF74AFF4F4B186800901B798DF80430E5
:1085600005226946B220FFF73FFF35230122694605
:10857000B7208DF80030FFF737FF19230122694635
:10858000BB2001258DF80030FFF72EFF2C230122A0
:108590006946C0208DF80030FFF726FF2A4669465D
:1085A000C2208DF80050FFF71FFF12232A466946AC
:1085B000C3208DF80030FFF717FF20232A466946B5
:1085C000C4208DF80030FFF70FFF0F232A466946BD
:1085D000C6208DF80030FFF707FF4AF2A4130222ED
:1085E0006946D020ADF80030FFF7FEFE2A4B6C46FE
:1085F0006A4603F1080618685968154603C508332A
:10860000B3422A46F7D118689B882860AB800E22B7
:108610002146E020FFF7E8FE204B224603F1080642
:1086200018685968154603C50833B3422A46F7D17E
:1086300018689B88AB8021460E222860E120FFF756
:10864000D3FE2120FFF7EEFE0120FFF727FE1320C7
:10865000FFF7E8FE0120FFF721FE0025104B0093F5
:10866000214606223320ADF80450FFF7BDFE02225A
:1086700021463720ADF80050FFF7B6FE2920FFF75E
:10868000D1FE1420FFF70AFE04B0BDE87040FFF7EA
:1086900001BF00BFB4A20000D8A00000E7A0000006
:1086A0000000014038B50D460446FFF753FE19207F
:1086B000FFF77EFEFFF791FE29462046FFF75CFE9E
:1086C0001920FFF77CFEBDE83840FFF74FBE0000E1
:1086D0000D4A4FF08023C2E900330C4BC3F820252C
:1086E0000422C3F8242501210022C3F82825C3F859
:1086F0002C2599605960C3F800254FF0A043044A27
:10870000C3F80825704700BFDC01002000C001400D
:108710000040C0004FF0A04303224FF48041C3F853
:108720003827C3F808154FF48001C3F85827C3F859
:108730000815C3F85C274FF40002C3F80825114B55
:1087400000220E21C3F80025C3F860151621C3F8D6
:1087500064151721C3F868154FF00041C3F86C1574
:10876000FF21C3F80425C3F80C25C3F8081502211E
:10877000C3F81015C3F814250122C3F80025FFF72C
:10878000A7BF00BF00C0014010B418B95DF8044B8A
:10879000FFF79EBF104C1149642828BF6420C0EB2E
:1087A00000236422B3FBF2F30D4A23439BB2012062
:1087B000C2F800050B804B808B800423CC80C2F86C
:1087C0002015C2F824350023C2F828355DF8044B83
:1087D000C2F82C35906070470080FFFFDC0100205C
:1087E00000C00140104BD3F87C21AAB10022C3F88D
:1087F0007C210E4B01221A704FF0A043D3F8702752
:1088000022F44031C3F8701742F440324FF08051E7
:10881000C3F82015C3F87027034BD3F8002112B119
:108820000022C3F80021704700600040E4010020EE
:10883000054BD3F80C2132B10022C3F80C21034AB6
:10884000136801331360704700100140E8010020F5
:10885000FFF7EEBF054BD3F840212AB10022C3F841
:108860004021034B01221A70704700BF00400240B4
:10887000EC010020024B034AC3F80026704700BFFA
:10888000000001403546526E2DE9F043F9B017461D
:10889000BDF8005206460C469846FFF7DAFD791CF3
:1088A000891B89B26B4600224FEA152C90B2814297
:1088B00003F1020307D84D004FF00009A04508D28C
:1088C00079B0BDE8F08303F802CC03F8015C013213
:1088D000ECE723463A462146304609F10109FFF705
:1088E000B8FD1FFA89F929466846FFF7DBFEB9F1A2
:1088F000200F05D1FFF7BEFFFFF7E4FC4FF00009A2
:108900000134A4B2DAE700002DE9F04F00F10F03C3
:1089100089B09BB2074605911C250393059B23FA5A
:1089200005F4A5EB85061C4B04F00F045C3604EB44
:108930008404B6B21C4439464FF61F094FF6FF7A3D
:108940008B1C9BB214F801BB049330464FF0000817
:108950002BFA08F212F0010F0CBF4B465346821C53
:10896000009392B2049BCDE90601FFF78DFF0698B4
:10897000079908F101080330B8F1030F80B2E7D17D
:10898000039B033189B28B42DAD1043D2B1DC5D143
:1089900009B0BDE8F08F00BFB9A2000007B5EF2312
:1089A000002100901A460846FFF76EFF03B05DF8FD
:1089B00004FB0000F0B54FF0804389B00020D3F8ED
:1089C0000074FFF7EBFF164A164BCDE90223164B56
:1089D0000FCB04AC84E80F0002AE142554F8043B1E
:1089E0003B4214BF338842F2041305F13202284699
:1089F0003735009392B296235A21ADB2FFF744FF68
:108A0000F02D06F10206E9D14FF080434FF0FF321E
:108A1000C820C3F8002409B0BDE8F040FFF73EBC11
:108A200000F820FDE0FFFF070CA3000008B5044696
:108A3000FFF748FC4FF0E023D3F8286DD3F82C5D06
:108A400004B1A4694FF61F00FFF7A8FF31462820A4
:108A5000FFF75AFF29464620FFF756FF21466420BC
:108A6000FFF752FFFFF72EFCFFF704FFFAE708B508
:108A700040F2FF70FFF792FFFFF724FCFFF7FAFECA
:108A8000FAE708B5FFF7D2FF1EF0040F0CBFEFF3B3
:108A90000880EFF30980FFF7F4BF08B54FF4FC60DE
:108AA000FFF77CFF43F69824FFF70CFCFFF7E2FE8C
:108AB000C82C254628BFC8252846FFF7EFFB641BB6
:108AC000F2D12046FFF76AFFFFF7FCFBFCE708B591
:108AD000FFF7F8FBBDE80840FFF7CCBE08B5FFF78D
:108AE000C6FF08B5FFF7C3FF08B5FFF7C0FF0000DA
:108AF00007B5FFF7E7FBFFF7BDFEFFF7EBFBFFF75F
:108B0000F3FCFFF707FE3720FFF73EFE4FF47840F7
:108B1000FFF744FFFFF74EFF4FF62050FFF73EFFF1
:108B200002220023CDE90023064907484FF4807252
:108B300000F0AEF8012801D0FFF799FF00F08EF9A0
:108B4000FAE700BFF6A000009B8A00002DE9F84379
:108B5000224B234C1D68234BD3F80080224B064642
:108B6000D3F80090206804300F4600F037FE40B97B
:108B700022681E49D06A0B680122824023EA020360
:108B80000B60731C14D19FB1194B21685A688A601D
:108B900021689068C860216804314160216804310F
:108BA0009160226853611A6801321A60BDE8F88347
:108BB00023682168AD195D6001F1040104D34846C2
:108BC000BDE8F84300F0F3BD404600F0F0FD094B6E
:108BD0001A68AA4288BF1D60E8E700BF140200209F
:108BE000F0020020600200205C0200201002002041
:108BF0001C020020F8010020064A13681968064B81
:108C000019B94FF0FF321A6070471268D2681268C3
:108C1000F9E700BF60020020F8010020F8B50E4C13
:108C20000E4F0F4E236803B9F8BD01F041F9FB6800
:108C3000DD68281D00F0D2FD3368013B33602368F6
:108C4000013B236001F052F9286B01F017F8284628
:108C500001F014F8E6E700BF3002002034020020E3
:108C60001802002008B5094C4FF0E0254FF080565F
:108C7000FFF7D4FF2368012B05D9C5F8046DBFF3B6
:108C80004F8FBFF36F8FFFF722FFF1E78C020020B9
:108C90002DE9F84F970080463846DDE90A5A0E461E
:108CA000994600F023FF834618B94FF0FF30BDE826
:108CB000F88F502000F01AFF0446002800F098803A
:108CC0005022002101F0F2F93A46C4F830B0A52153
:108CD000584601F0EBF9236B043F1F4427F00707C8
:108CE0006EB1731E04F133020B3613F8011F02F844
:108CF000011F09B1B342F8D1002384F83F30042D9D
:108D000005D9484840F26471FFF7EEFE0425261DA0
:108D1000E5622564304600F047FDC5F1050504F124
:108D2000180000F041FD2461A56164624A46414695
:108D3000384601F0A7F82060BAF1000F01D0CAF858
:108D4000004001F0B5F8384B384F1A68DFF804815D
:108D500001321A603D68002D4ED13C601B68012B2A
:108D60001FD1C1464846013500F013FD052D09F11C
:108D70001409F7D1DFF8E0902D4D484600F009FDC9
:108D8000284600F006FD2B4800F003FD2A4800F0BD
:108D900000FD2A4800F0FDFC294BC3F80090294B48
:108DA0001D60294A29491368086801331360E36A82
:108DB00001229A4002430A601422534308EB030144
:108DC0004A68A2609068E0604660966058F80320A8
:108DD0006161013248F8032001F088F81C4B1B68E0
:108DE00023B13B68DA6AE36A9A4210D301205EE756
:108DF000584600F043FF58E7154B1B68002BD0D1B5
:108E00003B68DA6AE36A9A4298BF3C60C9E74FF070
:108E1000E0234FF08052C3F8042DBFF34F8FBFF310
:108E20006F8FE3E7F9A0000018020020F002002095
:108E30006402002048020020340200201C020020AE
:108E4000600200205C020020FC01002010020020D3
:108E50000C0200208C0200207802002010B51B4A72
:108E600086B003AB12F8014B03F8014B002CF9D18B
:108E7000174B1848CDE900438022234603A9FFF78A
:108E800007FF012808D0144840F6A961FFF72CFE1F
:108E9000124B1B6806B010BD00F000FE012812D175
:108EA0004FF0600383F31188BFF36F8FBFF34F8FD1
:108EB0000B4B4FF0FF321A600A4B18600A4B1C60D4
:108EC00001F04AF8E4E70130E2D1DCE747A1000015
:108ED000F4010020658C0000F9A000001CA3000034
:108EE000F80100200C02002014020020024A13683E
:108EF00001331360704700BFF0010020014B186878
:108F0000704700BF140200202DE9F84F564B1B6834
:108F1000002B40F0A280554B1C6801341C609CB9AA
:108F2000534D2B681B6823B1524841F25F21FFF774
:108F3000DBFD514B2A68196829601A604F4A136893
:108F400001331360FFF758FE4D4D4E492B68DFF893
:108F500044C19C424FF0000207D3454F4A4E3B6844
:108F60001B689BB94FF0FF332B60DCF8003047489B
:108F7000DB6A046814204343C858012898BF002CBA
:108F800014BF012000201043BDE8F88F3B68DB6868
:108F9000DB685868844201D22860E6E7D3E9020919
:108FA000D3F81480C0F80890C9F80400D8F8040079
:108FB00003F1040E70454FF0000008BFC8F804909C
:108FC0005861D8F800000138C8F80000D3F82880AC
:108FD000B8F1000F15D0D3E90709C0F80890C9F817
:108FE0000400D8F8040003F1180A50454FF00000BF
:108FF00008BFC8F804909862D8F800000138C8F893
:109000000000D86AD6F800904FF0010808FA00F87E
:1090100048EA0908C6F800804FF0140808FB00F879
:1090200001EB080ADAF80490C3F80890D9F808B000
:10903000C3F80CB0CBF804E0C9F808E0C3F814A0FA
:1090400051F80830013341F80830DCF80030DB6AB1
:10905000984288BF42F0010281E70D4A136801334C
:109060001360002090E700BFF001002014020020F0
:1090700060020020F9A000005C0200200002002035
:10908000F80100208C0200201002002004020020C1
:1090900008020020F00200202DE9F84F4C4C00F0AF
:1090A00007FF236823B94B4840F68B71FFF71CFD7F
:1090B0002368013B236023682BB1002400F016FFD6
:1090C0002046BDE8F88F444A1268002AF5D043488C
:1090D000434C444ADFF818C1434D0126142753E09E
:1090E000C368DB68D3E90718D3F828E0C1F8088023
:1090F000C8F80410DEF8041003F1180949454FF0D0
:10910000000108BFCEF804809962DEF80010013932
:10911000CEF80010D3E90218D3F814E0C1F80880A3
:10912000C8F80410DEF8041003F104094945DEF81C
:10913000001008BFCEF804800139CEF80010D3F833
:109140002CE0D4F8008006FA0EF141EA080107FB92
:109150000EF802EB080A2160DAF804109960D1F8E1
:1091600008B0C3F80CB0CBF80490C1F8089052F8DE
:109170000810C3F814A0013142F80810DCF8001000
:10918000C96A8E4500D92E6001680029A8D10BB1AB
:10919000FFF732FD154D2C6844B1134E0127FFF740
:1091A000B3FE00B13760013CF9D12C600E4B1B6857
:1091B000002B82D00E4B1B684FF0E0234FF0805203
:1091C000C3F8042DBFF34F8FBFF36F8F012475E7F2
:1091D000F0010020F9A00000180200204802002041
:1091E000100200208C02002004020020080200204F
:1091F000F0020020204B1A68204B70B512B10122FA
:109200001A6070BD1E4D1A602B681B6B1A68B2F194
:10921000A53F0BD15A68B2F1A53F07D19A68B2F1C8
:10922000A53F03D1DB68B3F1A53F04D029682868C6
:109230003431FFF756FC134B1C68B4FA84F4E4B2E3
:10924000C4F11F041423104E6343F35823B90F488D
:1092500041F2FA31FFF748FC14235C433219083419
:1092600053685B6853602644B34204BFD3685360BD
:10927000DB682B602B68C4E7F001002004020020AB
:10928000F0020020100200208C020020F9A0000053
:1092900038B50D46044620B908484FF4A451FFF7ED
:1092A00023FC074B19682046183100F080FA284645
:1092B0000121BDE83840FFF749BC00BFF9A000001C
:1092C000F002002070B50E461546044620B911483C
:1092D00041F2BE41FFF708FC0F4B626819689068C5
:1092E000CA611968086219681831416019681B68F9
:1092F000183191609C622368002D03F10103236003
:1093000029460CBF30464FF0FF30BDE87040FFF7F4
:109310001DBC00BFF9A00000F0020020F8B5C36832
:10932000DC6824B9284841F2F541FFF7DDFBD4E9B8
:109330000712A36A8A605160596804F118008142DB
:1093400008BF5A600022A2621A68013A1A601F4BD5
:10935000E26A1B68002B2AD1D4E9020163698160AB
:1093600048605868251DA84208BF5960196801392E
:109370001960174901230868934003430B6015499E
:1093800014235343CE187068A0608768E7607D603F
:109390008560C85866610130C8500F4B1B68DB6A96
:1093A0009A4283BF0D4B012018600020F8BD0C4B82
:1093B0005968E1618D682562686088601968A362F8
:1093C00001311960E9E700BFF9A00000F0010020B9
:1093D000100200208C020020F00200200402002075
:1093E00048020020034B1B680360034B1B6843606B
:1093F000704700BF000200201402002070B50D4627
:10940000044620B9154841F2A551FFF76DFB25B977
:10941000124841F2A651FFF767FB00F049FD104BDF
:1094200019682B685A1C17D00E48266800686268B5
:10943000864208D08A4206D800232B60012400F01F
:1094400055FD204670BD881A8342F5D95B1A134436
:109450002B602046FFF7C6FF0024F0E7F9A00000CC
:109460001402002000020020014B01221A60704704
:1094700004020020054B1B6833B1054B1868B0FA95
:1094800080F0400940007047012070470C02002026
:10949000F001002010B5044600F00AFDA46B00F0B6
:1094A00025FDB4FA84F0400910BD034610B41A6CCF
:1094B000084662B1DC68A1189C68D960A14228BF47
:1094C00019685DF8044B28BFD96000F0F7BD5DF85E
:1094D000044B704770B5044600F0EAFC94F8455020
:1094E00004F124066DB2002D01DD636AB3B9FF23D8
:1094F00084F8453000F0FAFC00F0DAFC94F84450AF
:1095000004F110066DB2002D01DD23697BB9FF2344
:1095100084F84430BDE8704000F0E8BC3046FFF706
:10952000FDFE08B1FFF7A0FF013D6DB2DBE730465D
:10953000FFF7F4FE08B1FFF797FF013D6DB2E2E7D8
:1095400070B50E46044640B1C56B65B921484FF46D
:10955000B671FFF7C9FA002031E01E4840F237111A
:10956000FFF7C2FAF2E7036CA3FB0535002DEDD13E
:1095700000F09EFCD4E90F31226862604B43D018A2
:109580005B1A1A44FF23A563A06084F84430E260AC
:1095900084F84530A6B9236973B104F11000FFF7D0
:1095A000BDFE48B14FF0E0234FF08052C3F8042DC8
:1095B000BFF34F8FBFF36F8F00F098FC012070BD99
:1095C00004F1100000F0E5F804F1240000F0E1F8E7
:1095D000F2E700BF4CA1000070B50D460646C8B1C9
:1095E000A1FB0023B3B9484310F1490F12D848300A
:1095F00000F07CFA044690B155B100F14803C4E98B
:109600000F65236001212046FFF79AFF204670BDB9
:109610000346F4E7034840F22A21FFF765FA0024E5
:10962000F4E700BF4CA100002DE9FF410D46019277
:10963000044620B9444840F2E951FFF755FA35B9DC
:10964000236C23B1404840F2ED51FFF74DFAFFF78C
:1096500011FF30B9019B23B13B4840F2F251FFF7B3
:1096600043FA0027B84600F023FCA66BE6B1294672
:109670002046FFF71AFF2369013EA66373B104F188
:109680001000FFF74BFE48B14FF0E0234FF080523F
:10969000C3F8042DBFF34F8FBFF36F8F00F026FC8C
:1096A000012004B0BDE8F081019B1BB900F01EFC55
:1096B0000020F6E717B902A8FFF794FE00F016FCA9
:1096C000FFF714FC00F0F4FB94F84430FF2B08BFC4
:1096D00084F8448094F84530FF2B08BF84F8458017
:1096E00000F004FC01A902A8FFF788FE00BB204699
:1096F000FFF7D0FEB0B1019904F12400FFF7C8FDD7
:109700002046FFF7E7FEFFF7C7FC48B94FF0E0231C
:109710004FF08052C3F8042DBFF34F8FBFF36F8F0C
:109720000127A0E72046FFF7D5FEFFF7B5FCF7E7D6
:109730002046FFF7CFFEFFF7AFFC2046FFF7AAFE5B
:109740000028EDD0B4E700BF4CA1000070B504467E
:109750000D46164600F0ACFB94F84430FF2B04BFD6
:10976000002384F8443094F84530FF2B04BF0023D5
:1097700084F8453000F0BAFBA36B2BB9324629467A
:1097800004F12400FFF79EFD2046BDE87040FFF77E
:10979000A1BE00F108034FF0FF32C0E9022343608D
:1097A000036100230360704700230361704730B5F5
:1097B0000C68631C0AD103695A684A6091608B6027
:1097C0005960036808610133036030BD00F108028D
:1097D000134652681568A542FAD9EDE7D0E901129F
:1097E00003698A6051605968814208BF5A6000224B
:1097F000026118680138186070470000914208B58E
:10980000416000610AD8D21A83699A420DD2084B8E
:10981000011D1868FFF7CBFF002008BD9A4201D256
:10982000994202D2034B011DF3E70120F5E700BF87
:10983000000300200403002070B504460D461646C0
:10984000A1692B46324629442046FFF7D7FF00B9CD
:1098500070BDA36920461D44236A9847F0E70000C5
:109860000E4B1B68DB6870B5DC680546201D0E4694
:10987000FFF7B4FF94F824305A0709D53246294639
:109880002046FFF7D9FF236A2046BDE870401847FD
:1098900023F0010384F82430F5E700BF040300201F
:1098A00010B5084C23681A6822B9074A116821606C
:1098B000136010BDDB684FF0FF311868FFF7D0FF71
:1098C000F0E700BF0403002000030020F8B50D4CB2
:1098D00000F0EEFA25688DB90B4F0C4E3846FFF7B5
:1098E00058FF3046FFF755FF094B1F60094B2A46CA
:1098F0000C2108201E60FFF76FFE2060BDE8F840D5
:1099000000F0F4BAFC0200201C0300200803002031
:1099100004030020000300202DE9F0435A4E85B0D7
:1099200000275A4B1B68D3F80090B9F1000F2BD0D9
:10993000DB68D3F800900025FFF7D8FAFFF7DEFACE
:109940003368DFF85481984204461FD33060002DFD
:1099500049D04F4B1B681D68B5FA85F56D09D8F8DD
:1099600000002A46A9EB0401FFF7F0FEFFF794FB85
:1099700088B94FF0E0234FF08052C3F8042DBFF3B5
:109980004F8FBFF36F8F06E00125D5E7FFF788FF04
:109990003460FFF781FBCDE901770397D8F8000029
:1099A000002201A9FFF740FE0028BAD0019B002B3E
:1099B000F4DB039C636913B1201DFFF70FFFFFF772
:1099C0009DFA33689842054601D2FFF769FF019B73
:1099D0003560013B082BE1D8DFE803F00E0E31388B
:1099E0004E0E0E3138008145B9D8FFF755FB2146A0
:1099F0004846FFF735FFCEE794F82430A16943F0DD
:109A0000010384F82430029B2A4619442046FFF7BC
:109A1000F5FE0028C2D094F8243059070AD5A3696E
:109A200002992A4619442046FFF706FF236A20467A
:109A30009847B3E723F0010384F82430F6E794F85D
:109A4000243023F0010384F82430A7E794F824306D
:109A500043F0010384F82430029BA36123B90D482D
:109A60004FF48261FFF740F8A1692B462A4629444A
:109A70002046FFF7C3FE91E794F824309A07E0D41C
:109A8000204600F0FBF889E7F402002004030020E0
:109A9000000300209AA10000FC02002007B5FFF798
:109AA00015FF0D4B1B6843B90C484FF4A371FFF72A
:109AB0001BF8002003B05DF804FB094B019304235D
:109AC00000930849084800234FF48072FFF7E0F83C
:109AD0000028E9D0EEE700BFFC0200209AA10000B8
:109AE000F8020020E9A10000199900002DE9F84FC3
:109AF000431E0A3338D810F0070300F1080505D0DB
:109B0000A3F10902AA422FD31030C51A534EFFF712
:109B1000EDF93368F3B9524A524851071FBFD11DBE
:109B200021F0070102F56052531A0CBF4FF4605345
:109B30000A461344083B23F00703002141600260FA
:109B4000C3E90011991AC2E900313360464B19602C
:109B5000464B1960002D09DCFFF79EFAFEF7BEFFA9
:109B600000263046BDE8F88F0025CFE73F4F3B6821
:109B7000AB42F1D33B4BDFF8E8A01C68544502D35D
:109B80003B4B9C4203D93B48F521FEF7ADFFDFF884
:109B9000D480DFF8DCB06368AB4204D2D4F8009024
:109BA000B9F1000F4ED13368A342D5D0D8F8006088
:109BB0000836564502D32E4B9E4204D92D4840F21A
:109BC0000511FEF791FF2368C8F800306368AB42C7
:109BD00004D2284840F20D11FEF786FF63685A1B35
:109BE000102A14D904EB050919F0070F04D02148F5
:109BF0004FF48B71FEF778FF63685B1BC9F8043084
:109C0000D8F80030C9F80030C8F800902B46164943
:109C10003A680868D21A824238BF0A603A6043F054
:109C20000043154A63600023236013680133136007
:109C3000FFF732FA730794D00E4840F25711FEF73F
:109C400053FF8EE7D14501D3D94503D90948FB21FC
:109C5000FEF74AFFA0464C469DE700BF40030020A8
:109C60004C03002044030020380300203C03002064
:109C70004B3B0020F1A1000034030020F8B505465D
:109C8000002868D0344FA0F10804BC4202D3334B03
:109C90009C4204D932484FF4B571FEF725FF55F8C0
:109CA000043C002B04DB2E4840F26B11FEF71CFF36
:109CB00055F8083C23B12A484FF4B671FEF714FF5B
:109CC00055F8043C002B46DA55F8082C002A42D1FE
:109CD00023F0004345F8043CFFF708F9214A55F802
:109CE000043C11680B4413601F4B1A461E461B6848
:109CF0009C42FBD8964209D0BE4202D3174B9E42EB
:109D000004D917484FF4FD71FEF7EEFE7268B318E0
:109D10009C4201BF55F8043C34469B18736061684F
:109D200033686218934214D1104A1268934203D0E8
:109D30005A680A4462601A6822600D4A1368A64293
:109D400003F1010318BF34601360BDE8F840FFF76A
:109D5000A3B91A46F0E7F8BD4C0300204B3B0020A6
:109D6000F1A100003C030020440300204003002038
:109D70003003002000000000000000000000000090
:109D8000074B19680868B0E8F04F80F30988BFF303
:109D90006F8F4FF0000080F311887047AFF30080A1
:109DA000F002002008480068006880F308884FF03F
:109DB000000080F3148862B661B6BFF34F8FBFF323
:109DC0006F8F00DF00BF000008ED00E00000000022
:109DD000EFF30980BFF36F8F154B1A681EF0100F59
:109DE00008BF20ED108A20E9F04F10602DE909002E
:109DF0004FF0600080F31188BFF34F8FBFF36F8F78
:109E0000FFF7F8F94FF0000080F3118809BC1968DA
:109E10000868B0E8F04F1EF0100F08BFB0EC108AD1
:109E200080F30988BFF36F8F704700BFAFF30080E6
:109E3000F0020020DFF80C00016841F470010160BD
:109E40007047000088ED00E007B5002301930B4B3D
:109E50001B68013303D00A48F421FEF745FE4FF09A
:109E6000600383F31188BFF36F8FBFF34F8F019BA4
:109E7000002BFCD003B05DF804FB00BF0000002005
:109E800051A200004FF0807340F8043C074B40F8AB
:109E90000C3C21F001016FF0020340F8081C40F86F
:109EA000202C40F8243C4438704700BF499E0000F5
:109EB0004FF0600383F31188BFF36F8FBFF34F8FB1
:109EC000084A13680133012B13600AD14FF0E023D5
:109ED000D3F8043DDBB223B103484FF4F471FEF72D
:109EE00003BE70470000002051A2000010B5074CCF
:109EF000236823B9064840F2EF11FEF7F5FD236809
:109F0000013B23600BB983F3118810BD00000020D2
:109F100051A2000008B54FF0600383F31188BFF32E
:109F20006F8FBFF34F8FFEF7EFFF28B14FF0E023A5
:109F30004FF08052C3F8042D002383F3118808BD2D
:109F40004FF0E02300221A619A614FF223425A61D6
:109F500007221A617047000037B54FF0E0244A4BE2
:109F6000D4F8002D9A4204D1484840F23711FEF748
:109F7000BBFDD4F8002D464B9A4204D143484FF420
:109F80009C71FEF7B1FD4FF0E023D3F8084D414B33
:109F9000E26A9A4204D03D4840F25711FEF7A4FD10
:109FA000A26B3D4B9A4204D038484FF4AC71FEF797
:109FB0009BFD00230193394B1A78D2B28DF8022011
:109FC000FF221A701B78364ADBB28DF803309DF8F9
:109FD000033003F06003137023B92C4840F27B1167
:109FE000FEF782FD9DF80330DB4313F0600F04D0D1
:109FF000264840F27F11FEF777FD9DF8033013F0FD
:10A00000800F019B36D1082B18BF019B254A14BF36
:10A01000C3F1070300231B0203F4E06313609DF800
:10A0200002301E4A4FF0E024DBB21370D4F8203D1A
:10A0300043F47F03C4F8203DD4F8203D002543F0CD
:10A040007F43C4F8203DC4F81C5DFFF779FF164B31
:10A050001D60FFF7EFFED4F8343F43F04043C4F8EF
:10A06000343FFFF79FFEFFF7C5F8FFF7EDFE2846E8
:10A0700003B030BD013301939DF803305B00DBB2C8
:10A080008DF80330B9E700BF71C20F4151A2000043
:10A0900070C20F41819D0000D19D000000E400E0EE
:10A0A000503B00204C3B00200000002002440346AF
:10A0B000934200D1704703F8011BF9E70A4491422B
:10A0C00000F1FF3300D1704710B511F8014B03F8D0
:10A0D000014F9142F9D110BDD0040D11132B3F5403
:10A0E0004C180D0B1F2300D0040C11132C3F4451AE
:10A0F0002F1F1F202300623200433A2F55736572D1
:10A10000732F686967686A2F446F63756D656E7435
:10A11000732F50726F6A656374732F45766F54693D
:10A120006D652F74686972645F70617274792F460F
:10A1300072656552544F532D4B65726E656C2F746A
:10A1400061736B732E630049444C4500433A2F55AD
:10A15000736572732F686967686A2F446F63756DE2
:10A16000656E74732F50726F6A656374732F4576D2
:10A170006F54696D652F74686972645F7061727481
:10A18000792F4672656552544F532D4B65726E653B
:10A190006C2F71756575652E6300433A2F55736595
:10A1A00072732F686967686A2F446F63756D656E97
:10A1B00074732F50726F6A656374732F45766F5492
:10A1C000696D652F74686972645F70617274792F4C
:10A1D0004672656552544F532D4B65726E656C2FF8
:10A1E00074696D6572732E6300546D7220537663CB
:10A1F00000433A2F55736572732F686967686A2F39
:10A20000446F63756D656E74732F50726F6A65630A
:10A2100074732F45766F54696D652F746869726425
:10A220005F70617274792F4672656552544F532D79
:10A230004B65726E656C2F706F727461626C652F06
:10A240004D656D4D616E672F686561705F342E637B
:10A2500000433A2F55736572732F686967686A2FD8
:10A26000446F63756D656E74732F50726F6A6563AA
:10A2700074732F45766F54696D652F7468697264C5
:10A280005F70617274792F4672656552544F532D19
:10A290004B65726E656C2F706F727461626C652FA6
:10A2A0004743432F41524D5F434D34462F706F72E9
:10A2B000742E63000C0C00333307050505070202FA
:10A2C0000202020701070407070107010705050746
:10A2D000010107040701070704070507070101013A
:10A2E0000107050705070705070107070507050516
:10A2F000040407050707040404070101070507070D
:10A30000040704070704070404000000010000001C
:10A31000020000000400000008000000040000002B
:04A32000AAAAAAAA91
:040000030000810177
:00000001FF
