:108020000000012001810000798100000932010077
:108030007981000079810000798100000000000052
:10804000000000000000000000000000C15B010013
:108050007981000000000000115C0100555D010005
:10806000F92D0200798100007981000079810000FA
:1080700079810000798100005D970000798100001E
:108080007981000079810000798100007981000008
:1080900079810000798100007981000079810000F8
:1080A00079810000B12E0200798100007981000001
:1080B00079810000798100007981000079810000D8
:1080C00079810000798100007981000079810000C8
:1080D00079810000798100000000000000000000AC
:1080E00079810000798100007981000079810000A8
:0C80F00079810000798100007981000096
:1081000008B5144A144B15498B4213D3144B154A26
:108110000021934213D300F057F800F033F8124CCB
:10812000124DAC420ED3124C124DAC420ED30BF09A
:10813000E1FCFEE752F8040B43F8040BE4E743F8D4
:10814000041BE6E754F8043B9847EAE754F8043B7D
:108150009847EAE7B85B020000000020AC2D002041
:10816000002E002028EC0020B45B0200B45B02006B
:10817000B45B0200B85B020008B54FF61F000BF0BD
:1081800037F8000010B50A4A0A48114600230133A7
:1081900050F8044B41F8044B372BF8D14FF0E02353
:1081A000C3F8082DBFF34F8FBFF36F8F10BD00BF13
:1081B000002E002020800000024AD2F80034002B5C
:1081C000FBD0704700E0014008B54FF0A0434FF4EA
:1081D00080320321C3F80825C3F81825C3F84017D7
:1081E000C3F808254FF0804301220021C3F8782509
:1081F000C3F81825C3F804119A60D3F80421002AA3
:10820000FBD04FF01020D0F80C32023312D01749B7
:10821000FFF7D2FF0123C1F80435FFF7CDFF6FF060
:108220000103C0F80C32FFF7C7FF0023C1F8043583
:10823000FFF7C2FF0E4B012200215A600420DA60D2
:10824000C3F804150321C3F80815C3F810051A6014
:108250004FF0A0434FF48032C3F80825C3F8182527
:10826000C3F84017C3F8082508BD00BF00E001406F
:1082700000900040024B01221A64D3F84005704779
:1082800000900040064B01211964D3F840251044AA
:108290001964D3F84025121A002AF9DB704700BF91
:1082A0000090004070B504464FF47A7604B970BD72
:1082B000B4F5FA7F254628BF4FF4FA7506FB05F0A2
:1082C000FFF7E0FF641B07F051F8EFE74FF0A04322
:1082D0004FF48032C3F80825704738B54FF0A044FA
:1082E0004FF48035C4F80C55FFF7DCFFC4F808558F
:1082F00038BD4FF0A0430322C3F83C270422C3F843
:1083000034274FF40042C3F81825C3F808257047F6
:108310004FF080430349D3F800240A60C3F80024D7
:10832000704700BFE82E0020014B1868704700BF5F
:10833000E82E00204FF0A043D3F81005C0F34030E2
:10834000704700004FF0A043164AD3F81035164886
:10835000012110B513F400531164D2F8402505D162
:10836000124A01701370124A137010BD0378002B6B
:10837000FBD00F480378072B02D801330370F4E7D2
:108380000A480C4B047814B91A600170EDE71B68B9
:10839000D21A094B9A42E8D34FF0E023074AC3F8B8
:1083A0000C2DFEE700900040E52E0020E42E00207A
:1083B000DC2E0020E02E002000127A000400FA05D6
:1083C000084A536A116A013310B5B3FBF1F401FB9B
:1083D0001433916A99421FBF516AD4695362605441
:1083E00010BD00BF00000020704710B5441E14F8F7
:1083F000010F00B910BDFFF7E3FFF8E708B5FFF77D
:10840000F4FFBDE808400148FFF7EFBFBC4502009C
:1084100070B505460748084EFFF7E7FF1C2425FA0C
:1084200004F303F00F03043CF05CFFF7C9FF231DC6
:10843000F5D170BD4C49020024510200022838B524
:1084400004460D4612D80A48013CFFF7CEFF032C24
:1084500096BF084B3F20185DFFF7B2FF0648FFF7B5
:10846000C4FF2846BDE83840FFF7C8BF38BD00BF8D
:10847000BF45020020510200C14502004FF0A04359
:1084800003220421C3F80827C3F80C150821C3F8F8
:108490000C27C3F80C150021C3F810174FF48021E6
:1084A000C3F84827C3F808154FF00071C3F86427D4
:1084B000C3F80815C3F814272022C3F8082570470D
:1084C0000A4B0222C3F808250322C3F80C25042214
:1084D000C3F810254FF00042C3F824250622C3F844
:1084E0005425FF22C3F8C025704700BF003000406C
:1084F000034A53680146013301205360FFF79EBFD2
:1085000000310020F8B50746FFF7B4FE154D0646CA
:10851000D5F8184124B10023C5F81831012020E016
:10852000FFF7A8FE801BB842F2DD4FF0A0430E4AD1
:1085300001206861C5F80045C3F808250B4B1C6095
:10854000FFF79CFFFFF7BCFF094AC5F81841072356
:10855000C5F800351368074903441360FFF76EFF41
:108560002046F8BD00300040200000020831002005
:1085700000310020CD45020010B50D4C0020C4F89C
:108580000005FFF77BFFFFF79BFF0723C4F80035CB
:10859000084B094C1870094B1860094BC3E90000DF
:1085A00023681BB901200CF09BFC206010BD00BFAC
:1085B000003000400C310020FC3000200831002049
:1085C0000031002038B50C4C237813B10B48FFF76D
:1085D0008FFF0B4D2B6843B10CF0DAF8022804D161
:1085E00028684FF0FF310CF0EFFD064B0722C3F86F
:1085F00000250123237038BD0C310020F84502000E
:10860000FC3000200030004070B50F4D2B7813B9BE
:108610000E48FFF76DFF4FF0A04300240C4AC3F84B
:1086200008250C4B2C700C4D1C602B685BB10CF0BA
:10863000AFF8022807D12868234622462146BDE824
:1086400070400CF0ABBB70BD0C3100200C4602003A
:108650002000000208310020FC300020194B2DE9D9
:10866000F04793F8008005460C46B8F1000F05D19D
:108670001548FFF73DFF4FF0000820E0E8B1134E2A
:108680004FF000094FF0010ACCB1FF2C274628BF5C
:10869000FF2707F13200C6F818918000C6F844554C
:1086A000C6F84875C6F83895C6F810A0FFF72AFF37
:1086B0000028E0D03D44E41BE6E70029DBD140463A
:1086C000BDE8F0870C310020294602000030004050
:1086D0002DE9F0471C461D4B93F800801646B8F173
:1086E000000F05D11A48FFF703FF4FF0000801E023
:1086F00018B94EB94046BDE8F0870029F9D0FFF718
:10870000ADFF0028F5D1F0E7002CF3D0114FDFF8D2
:1087100048904FF0000AFF2C254628BFFF25012373
:1087200005F13200C7F818A18000C7F84495C7F8D2
:108730004855C7F83465C7F838553B61FFF7E2FE86
:108740000028D2D0641B2E44E5D1D3E70C310020A1
:108750004746020000300040FC2F0020192838B5A1
:10876000044606D0052804D0BDE838400B48FFF782
:10877000BFBE0B4D2B684BB1A34207D00948FFF792
:10878000B7FE4FF0A043084AC3F8082501234FF075
:10879000A042A340C2F80C352C6038BD65460200EB
:1087A0000831002080460200200000024FF0A04265
:1087B00001238340C2F80835034B1A68824204BF84
:1087C00000221A60704700BF083100204FF0A0431C
:1087D0004FF48022C3F80C2570474FF0A0434FF4AC
:1087E0008022C3F80825704737B50C4615468DF82A
:1087F0000700FFF7E7FE1920FFF7B0FFFFF7E6FFDE
:1088000001210DF10700FFF729FF28B1FFF7E5FF70
:1088100029462046FFF722FF1920FFF7C7FFFFF781
:10882000F3FE03B030BD07B58DF80700FFF7CAFEB1
:108830001920FFF793FFFFF7C9FF01210DF1070092
:10884000FFF70CFF1920FFF7B1FFFFF7DDFE03B0C4
:108850005DF804FB08B51020FFF7E5FFBDE8084010
:108860000520FFF71FBD08B51120FFF7DCFFBDE8AD
:1088700008407820FFF716BD37B552BAADF806208C
:1088800040BA0422ADF804000D462A200DEB020187
:108890001C46FFF7A9FF04226DBA64BA0DEB020172
:1088A0002B20ADF80450ADF80640FFF79DFF2C20BB
:1088B00003B0BDE83040FFF7B6BF10B50022F8B0F6
:1088C0006B4611460132F02A1970597003F1020308
:1088D000F8D10024A3B21946EF220020FFF7CCFF05
:1088E000FFF770FE1920FFF739FFFFF776FF4FF40F
:1088F000F0716846FFF7B2FE01341920FFF756FF0A
:10890000FFF782FEB4F5A07FE4D178B010BD00007F
:108910007FB54FF0A04403234FF000724FF0806505
:10892000C4F864370A20C4F80825C4F86837C4F8C6
:108930000855C4F80C55FFF7B5FCC4F80855782065
:10894000FFF7B0FC0120FFF76EFF9620FFF7AAFCAF
:108950001120FFF768FF0A20FFF7A4FC552301222E
:1089600069463A208DF80030FFF73EFF00230122D0
:10897000694636208DF80030FFF736FF4F4B1868F8
:1089800000901B798DF8043005226946B220FFF76C
:108990002BFF352301226946B7208DF80030FFF701
:1089A00023FF192301226946BB2001258DF80030E1
:1089B000FFF71AFF2C2301226946C0208DF80030F2
:1089C000FFF712FF2A466946C2208DF80050FFF7D4
:1089D0000BFF12232A466946C3208DF80030FFF7AB
:1089E00003FF20232A466946C4208DF80030FFF794
:1089F000FBFE0F232A466946C6208DF80030FFF79C
:108A0000F3FE4AF2A41302226946D020ADF80030EA
:108A1000FFF7EAFE2A4B6C466A4603F1080618681F
:108A20005968154603C50833B3422A46F7D118687A
:108A30009B882860AB800E222146E020FFF7D4FE01
:108A4000204B224603F1080618685968154603C5ED
:108A50000833B3422A46F7D118689B88AB80214679
:108A60000E222860E120FFF7BFFE2120FFF7DBFE8A
:108A70000120FFF717FC1320FFF7D5FE0120FFF7B9
:108A800011FC0025104B0093214606223320ADF83F
:108A90000450FFF7A9FE022221463720ADF800500E
:108AA000FFF7A2FE2920FFF7BEFE1420FFF7FAFB16
:108AB00004B0BDE87040FFF700BF00BF35510200B1
:108AC000A2460200B14602000000014038B50D4642
:108AD0000446FFF777FD1920FFF740FEFFF77DFE04
:108AE00029462046FFF7BAFD04461920FFF75EFE2F
:108AF000FFF78AFD204638BD4FF4B47390FBF3F2C4
:108B000002FB13001844B0FBF3F203FB12005A28D7
:108B1000094B02DC33F910007047B42802DCC0F1C5
:108B2000B400F7E7B0F5877FD4BFB438C0F5B470B0
:108B300033F91000404270473A51020000280BDB25
:108B4000C000904200F10703D4BF002001208B42F7
:108B5000B8BF40F0010070470020704770B500F5C5
:108B6000805400254FF0FF330646C4F8005EC4F879
:108B7000043EC4F8085EC4F80C5E4FF4F052294677
:108B80001AF071FDC4F8005E304670BD70B5044641
:108B90000846114600222280628001222271E3B140
:108BA00000F580500B44D0F8045E5A1E28460E464D
:108BB000FFF7C4FF88B9002D11DBED00A942B8BF53
:108BC0002E460735AA42A8BF2A46B24205DB761ACE
:108BD000521A0023268062802371204670BDEF2543
:108BE000F0E700F5805010B5B0F80C3EA3B1B0F836
:108BF000084E8C4212D823449BB28B420ED9B0F857
:108C00000A3E93420AD8B0F80E1E581880B290421D
:108C100094BF0020012010BD0120FCE70020FAE7EE
:108C2000EF29F8B504460D4616461F461FD8EF2A11
:108C30001DD8FFF7D6FFD0B104F58053D208D3F882
:108C4000041E002901DB914211D1F02106F0070634
:108C500001FB0655390A04F8151004EB45040121FF
:108C600067709140D3F8002E0A43C3F8002EF8BD78
:108C70002DE9F04F87B01446BDF940A00190994608
:108C8000BDF844300493A24500F580535246B8BF66
:108C90002246A2450E46D3F8040E5146A8BF2146EF
:108CA000FFF74CFF002852D11FFA89F0B2B2871AA1
:108CB000BBB23FB2002F00931FFA8AF1A3B2A1EB1F
:108CC0000308B8BF121A1FFA88FBB8BF90B20FFA98
:108CD00088F8BCBF009017B2B8F1000FA2BF5B1AB2
:108CE0001FFA83FB0FFA83F8B145D4BF4FF0FF336F
:108CF00001230293A245D4BF4FF0FF330123039316
:108D0000009B0BEB03052DB2B1B2EF2908D8A2B23C
:108D1000EF2A05D8049B01980591FFF781FF05997B
:108D20004E4501D1544512D0AAB253001BB298450A
:108D300004DC5A4415B2029A11440EB29F42E3DB9E
:108D4000009B1D44039B1C442DB224B2DCE707B0FA
:108D5000BDE8F08F89B2EF2907D892B2EF2A04D884
:108D6000036840681B88FFF75BBF70472DE9F04F31
:108D70001F4600F58053164685B081468846D3F8D5
:108D8000040E3A44F11BFFF7D9FE0546002865D0D2
:108D900005B0BDE8F08F0EAB1FFA87FA1FFA84FB0F
:108DA000CDE9023916FA84F418FA87F31BB222B21D
:108DB000A8EB0A04194624B202A801930092FFF717
:108DC000C9FF2146009A02A8FFF7C4FF019BA6EB4A
:108DD0000B02194612B202A80092FFF7BBFF214610
:108DE000009A02A8FFF7B6FF0BEB08031BB20AEBD1
:108DF0000602A8EB0B04194612B224B202A8019392
:108E00000092FFF7A7FF2146009A02A8FFF7A2FFF2
:108E1000019BA6EB0A02194612B202A80092FFF7C4
:108E200099FF009A214602A8FFF794FF002D0BF14D
:108E3000010BC8BF0AF1FF3A05F101030FFA8BF4E9
:108E4000C8BF0FFA8AF71FFA8BF29BB2C8BFE21BAA
:108E500003EB42031DB2A7429DDA99E704461FFACD
:108E600088F8B6B2F7E710B44468036824781B8822
:108E700089B20CB9494289B21944C3681B7889B2D6
:108E800092B20BB9524292B2EF290CD883681B8878
:108E90001A4492B2EF2A06D803695DF8044B1B8886
:108EA0004069FFF7BDBE5DF8044B70472DE9F04700
:108EB00088B04FF0000A8DF803300368ADF8061053
:108EC000ADF80420B3F90050064654460DF10607EC
:108ED0000DF103080DF10409A54202DA08B0BDE85E
:108EE000F08710AB0593736806932946B368079320
:108EF000224602A8CDE90278CDF81090FFF7B3FF23
:108F00002A46214602A8FFF7AEFFBAF1000F04F18E
:108F10000104C8BF05F1FF35A2B20AF1010324B272
:108F2000C8BF2DB29BB2C8BF621B03EB42030FFA4E
:108F300083FAD1E72DE9F84F1D4600F58053164618
:108F400007468846D3F8040EBDF92840BDF92CA089
:108F5000BDF830B02A44711BFFF7F0FD18B94FF48B
:108F6000B479544501D1BDE8F88F04F15A00FFF7F8
:108F7000C3FD684348BFFF3008EB2021EF290FD81D
:108F80002046FFF7B9FD684348BFFF30A6EB20201D
:108F9000EF2805D882B25B4689B23846FFF740FE1B
:108FA000013494FBF9F309FB134424B2D9E72DE90A
:108FB000F0471446BDF82020BDF8248001EB0309DA
:108FC000B9F1F00F2244A8BF4FF0F009F02AA8BF72
:108FD000F022EF2907460E4627D8EF2C25D8551E3C
:108FE000AAB2E108C5F3CC0500F580504FF0010CA2
:108FF0008D4201D31E291AD1D0F8045E214628469D
:10900000FFF79CFD88B9002D1BDBED00AC42B8BF1B
:109010002C46A4B20735AA4209F1FF39A8BF2A4657
:109020001FFA89F995B2AC421CD9BDE8F087D0F897
:10903000003E0CFA01FE43EA0E03C0F8003E013187
:10904000D6E7EF25E7E75146434622463846FFF785
:10905000E7FD0AF1010A1FFA8AFACA45F3D9013479
:10906000A4B2E0E7B246F8E72DE9F04F8BB08046B6
:10907000BDF85070BDF854A0894615461C464FB146
:1090800000F58053BA18D3F8040E013A2946FFF7C9
:1090900055FD50BBBDF858B0BAF1000F28D10126DC
:1090A00023462A4649464046CDF804B00096FFF7CD
:1090B0007EFF7A1E2A44234692B249464046CDE9B5
:1090C000006BFFF774FF33462A4649464046CDE918
:1090D000007BFFF76CFF611E4944CDE9007B3346FE
:1090E0002A4689B24046FFF762FF0BB0BDE8F08F19
:1090F000A7423E4628BF26467608564528BF564614
:1091000006EB09039BB2029373009BB24FF0010A76
:109110000493E31A0299CDF804B09BB22A46404664
:10912000CDF800A0ADF81A600593FFF740FFEA19EB
:1091300093B25A1E029903934046059BCDE900ABBA
:1091400092B2FFF734FF049B2E44FF1AB6B2BFB2AF
:109150004C44CDE9007B5346324649464046A4B2D2
:10916000FFF725FF611ECDE9007B5346324640469E
:1091700089B2FFF71CFF0DF11A030027079316AB06
:10918000CDE90838BDF9081000973B4632B207A870
:10919000FFF78CFEBDF81A1000974A19611A0139C1
:1091A000534607A812B209B2FFF780FEBDF81A10A5
:1091B000039BCDF800A05A1A013A49443B4607A840
:1091C00012B209B2FFF772FEBDF81A30039ACDF859
:1091D00000A0E41AD21A611E013A534612B209B233
:1091E00007A8FFF763FE80E72DE9F04F85B08046C2
:1091F0000D461E460146BDF8383002A89146FFF7DD
:10920000C5FC9DF80C30B3BB06EB050ABDF8084061
:109210001FFA8AFABDF80A30A3422CD30F9B04EB45
:10922000090204FB063B294697B21FE01BF8010B1D
:10923000019100F003034FEA501E4FEA901CC0F367
:10924000820000EBC0004CEA8E0C400140EACC20CA
:1092500003EB830C5B0843EA4C0303439BB23A469F
:109260004046FFF7DDFC0199013189B25145DDD15E
:109270000134A4B2CEE705B0BDE8F08F2DE9F04F80
:1092800087B09846BDF8483001938146BDF840301C
:10929000BDF84CB00D46014604A81746FFF776FC12
:1092A0009DF8143053BB08EB050ABDF810401FFAB7
:1092B0008AFABDF81230A34220D3E21908FB04F663
:1092C000294692B215E01198F308CDE90212C35C69
:1092D000F04300F00700034113F0010F4846019BE3
:1092E00008BF5B46FFF79CFC0299039A013189B2E3
:1092F00001365145E7D10134A4B2DAE707B0BDE841
:10930000F08F00F58050C0F8041E704700F58050C3
:10931000A0F80C3EBDF80030A0F8081EA0F80A2EF8
:10932000A0F80E3E704700F580500023C0F80C3EB8
:10933000704710B500230C0A421CC9B200F8134054
:1093400002F813100133B3F5F06FF7D110BD70B50B
:1093500000F580540646D4F8045E002D16DB1D2D62
:1093600014D8E90089B2CB1D9BB2EF220020FFF791
:1093700083FA4FF470613046FFF7A8FB0122D4F85E
:10938000003EAA4018B91343C4F8003E70BD23EA5A
:109390000203F9E70D4A4FF08023C2E900330C4B7A
:1093A000C3F820250422C3F8242501210022C3F894
:1093B0002825C3F82C2599605960C3F800254FF083
:1093C000A043044AC3F80825704700BF10310020AD
:1093D00000C001400040C0004FF0A04303224FF402
:1093E0008041C3F83827C3F808154FF48001C3F84B
:1093F0005827C3F80815C3F85C274FF40002C3F8D8
:109400000825114B00220E21C3F80025C3F8601572
:109410001621C3F864151721C3F868154FF00041F1
:10942000C3F86C15FF21C3F80425C3F80C25C3F855
:1094300008150221C3F81015C3F814250122C3F83A
:109440000025FFF7A7BF00BF00C0014010B418B946
:109450005DF8044BFFF79EBF104C1149642828BFEC
:109460006420C0EB00236422B3FBF2F30D4A2343D4
:109470009BB20120C2F800050B804B808B80042337
:10948000CC80C2F82015C2F824350023C2F8283554
:109490005DF8044BC2F82C35906070470080FFFFE8
:1094A0001031002000C00140FFF774BF1920FFF702
:1094B000CDBF3C20FFF7CABF6420FFF7C7BF4FF006
:1094C00040230022C3F80421C3F82421C3F86021FB
:1094D000C3F85C21C3F848217047F8B506460D462D
:1094E000FEF7C8FE4FF040240746D4F8043123B1FC
:1094F0000023C4F804310120F8BDD4F8242122B39C
:10950000C4F82431D4F8C434C4F8C4349A071AD443
:1095100013F0040F14BF032304234FF040242B70D7
:109520000023C4F8043101236361FEF7A3FE05465E
:10953000D4F804312BB9FEF79DFE401BB0F57A7FBD
:10954000F6DD0020D8E70223E7E7FEF793FEC31B12
:10955000B342CADD01232B706361F2E74FF0402371
:1095600070B500224FF0A044C3F8002540F20D630F
:10957000C4F81C378026C4F818374023C4F808659F
:109580000520C4F80835FEF77DFE0925D4F810350E
:109590005B060BD40520C4F80C65FEF773FEC4F817
:1095A00008650520FEF76EFE013DEFD14FF0A044A7
:1095B00040250520C4F80C55FEF764FE8023C4F84E
:1095C00008350520FEF75EFEC4F808550520FEF7B5
:1095D00059FE0C23C4F81C37C4F818374FF0402349
:1095E0000722C3F808250622C3F80C25C3F8002576
:1095F00070BD08B54FF040214FF0A04200230C2071
:10960000C1F80035C2F81C07C2F818070722C1F8D4
:10961000082506204FF0C862C1F80C05C1F82425C2
:10962000C1F80032FFF74BFFC1F8000508BD73B564
:1096300006461546184612B34FF040240623C4F8D8
:109640000035FFF73CFF4FF48073C4F88865C4F819
:109650004415C4F84855C4F800320123A36000251E
:109660000DF107018DF80750FFF737FF28B9FFF715
:1096700075FF9DF8070002B070BDC4F800520020CD
:10968000F9E773B506461546184612B34FF0402465
:109690000623C4F80035FFF712FF4FF48053C4F8D7
:1096A0008865C4F83415C4F83855C4F8003201236D
:1096B000236000250DF107018DF80750FFF70DFF1E
:1096C00028B9FFF74BFF9DF8070002B070BDC4F842
:1096D00000520020F9E72DE9F3471D46DDE90A872E
:1096E00016463AB93B464246294602B0BDE8F04725
:1096F000FFF7C7BFB8F1000F05D13B4602B0BDE888
:10970000F047FFF794BF4FF040240623C4F800351C
:10971000FFF7D5FE4FF4A053C4F88805C4F84415EC
:10972000C4F84865C4F83455C4F83885C4F8003224
:109730000123A36000250DF1070138468DF807507D
:10974000FFF7CBFE30B9FFF709FF9DF8070002B025
:10975000BDE8F087C4F800522846F8E7104BD3F86C
:109760007C21AAB10022C3F87C210E4B01221A7081
:109770004FF0A043D3F8702722F44031C3F870179C
:1097800042F440324FF08051C3F82015C3F87027DF
:10979000034BD3F8002112B10022C3F80021704717
:1097A00000600040193100207FB51D4B4FF0A045EF
:1097B00000241C704FF480660323C5F828370A2064
:1097C000C5F80C65FEF76EFDC5F808653220FEF79A
:1097D00069FD144BC5F87037134B4FF00042C3F8C6
:1097E0001045C3F87C41C3F804234FF0E023402226
:1097F000C3F88022C3F8002162B601224FF4FA6355
:10980000CDE900230DF10F010DF10E0315208DF8A8
:109810000E408DF80F40FFF75EFF04B070BD00BF33
:10982000193100200C00030000600040014B187843
:10983000704700BF1931002030B5214A117800234C
:1098400093B004460360436001B113703F252A467C
:10985000002102A819F007FF40F6B833CDE9005304
:10986000184902AB01221520FFF735FF20BB9DF8F8
:10987000093023709DF80A309DF80D209DF80B10DB
:1098800003F00F03637012029DF80E3002F4706251
:10989000134309029DF80C2001F470610A43EF2A7A
:1098A000A8BFEF22EF2BA8BFEF23A38023886280FD
:1098B000003B18BF0123A371204613B030BD00BF89
:1098C000193100201831002008B5FEF712FD044AB6
:1098D00000231370034A1370034A137008BD00BFBE
:1098E000243100201A3100201B31002037B5042517
:1098F0000024FEF71FFD013D0444FAD1FEF7BAFC37
:10990000414B1A78042A0AD8DFE802F0031A2C4DDA
:109910006D00022C05D901221A703C4B18600023FF
:1099200034E03B4A1378002BF9D0384B39491B6897
:10993000C31A8B42F3DD0023137040F2011325E0BC
:10994000022C02D800221A70E9E7304A126844F665
:109950002061801A8842E2DD022119702E4B1A60C4
:109960002E4BEFE7022C01D80322D5E72B490A78CA
:10997000002AD4D1284B1B68C31A29488342CEDD64
:1099800001230B70224B1A704FF48173ADF8043031
:109990009DF80430002063F307009DF8053063F361
:1099A0000F2003B030BD022C01D90222CBE7174CA7
:1099B000226844F62061821A8A42B0DD174A117883
:1099C000134A19B1002119701170A8E7157825B153
:1099D0001970117040F20313D8E7012111700422AD
:1099E0001A7020609BE7022C084A03D901211970E4
:1099F000106094E71268801A064A90428FDD0022B8
:109A00001A70034B1A7098E724310020203100208F
:109A10001A310020305705001C3100201B31002076
:109A200020A10700F0B51AB315461C464FF0000CF4
:109A3000634505D1A3421BD90C235C43105BF0BDE9
:109A4000EF888FB12E897EB1B5F802E070450BD357
:109A50007744BFB2B84207D2AF88B94204D33E447C
:109A6000B6B2B14238BF64460CF1010C0C35DFE7E9
:109A70004FF6FF70E3E70000024A00231360024A3A
:109A8000136070472C31002028310020024B1860F1
:109A9000024B1960704700BF2C3100202831002094
:109AA00037B5324A13680360536843609368836034
:109AB0000446FFF71BFF10F47F4FADF8000008D0FD
:109AC0009DF800302BB104222270E371204603B0D0
:109AD00030BDFFF7ABFE0028F8D06846FFF7ACFEBC
:109AE0009DF80630002BF1D09DF80030BDF8020043
:109AF000BDF8041060805A1EA1800B2AE6D801A58B
:109B000055F822F0579B0000579B0000579B000020
:109B1000579B0000359B0000CD9A0000CD9A0000B5
:109B2000CD9A0000CD9A0000CD9A00003B9B00002A
:109B3000539B00000123237003E0052323700223BD
:109B4000A3720B4B0B4A1B681268FFF76BFF208157
:109B5000BCE70223EFE7023BDBB20322022B2270B9
:109B600096BF054A0123D35CA371AFE7F45102000D
:109B7000283100202C310020F05102001FB504468E
:109B800001A880E80E0007C884E80B00069BE3608C
:109B9000079B23610023C4E905334FF6FF73A383BA
:109BA00004B010BDC0E905127047034610B41C682C
:109BB0000846114664B158B152B11A691AB1127E01
:109BC000023A022A04D89A6823465DF8044B1847E3
:109BD0005DF8044B704703464069F0B560B1D3F8B7
:109BE00018C0002703466646BC4506D1B44586BF6B
:109BF0000C2303FB06000020F0BDDD888DB11C891D
:109C00007CB1B3F802E071450BD37544ADB2A94203
:109C100007D29D88AA4204D32C44A4B2A24238BFE2
:109C20003E4601370C33DFE7022804D0C31E5842FA
:109C3000584140007047012070477FB50B78013BC9
:109C400004460D46042B15D8DFE803F064642003B6
:109C500097000369CA797BB19B7E6BB1012A0BD156
:109C6000062369468DF80030FFF79FFF2069002129
:109C700002F0FEFB04B070BD1046FFF7D5FF0423D1
:109C80008DF800308DF80100022231E08B794A888E
:109C9000042B28BF01230F2A12D8032B10D140F226
:109CA0000921ADF800108DF80320694604228DF8D3
:109CB0000230FFF77AFF20690028DBD00021D7E7C8
:109CC000E06808B300F500525168E9B1B2F89411A8
:109CD0009BB9183189B201F057FDE36803F50053D1
:109CE0000522B3F89431ADF80020ADF8023004221B
:109CF00069462046FFF759FFBCE7012B04D118291C
:109D000038BF18211839E5E703228DF800208DF8B7
:109D10000130B9E78A884988FFF75DFFD8B1837AB7
:109D2000DE06A7D41907068848BFA6835A0704D5BC
:109D3000636813B1A168002098472A78022AF3B219
:109D40004FEA16260AD18DF800208DF801308DF8E3
:109D500002600322CCE74FF6FF76EEE72A79A97876
:109D60008DF8042001208DF800008DF801308DF869
:109D700002608DF803100522BAE78A884988FFF748
:109D80002AFF0346D0B1827A12F0100016D11E8845
:109D9000530703D563680BB1A1689847AA78A97ADD
:109DA0002B798DF8042008208DF800008DF8011023
:109DB000ADF802608DF80530062299E74FF6FF7680
:109DC000ECE7037B10B54BB9D0E90142A24298BF42
:109DD000A31A99424FF0010302D90373002010BD6A
:109DE0001846FCE710B501210446FFF7EAFF20B151
:109DF000A3682268591CA160D05C10BD037B70B5BC
:109E000004460E46154623BB1AB3FFF7EBFF034685
:109E1000207BF8B99BB902212046FFF7D2FF034609
:109E200048B1A2682068511CA160835C0232A26024
:109E3000425C43EA0223207B60B92B800AE0013BAD
:109E4000DBB20F2B03D8F21892F820201AB90223A4
:109E50002373022070BD36F81330EEE738B5037B6C
:109E600005460C464BB941B1FFF7BCFF0346287BC2
:109E700020B93F2B03D902232B73022038BD03F0F6
:109E80000302032AF7D0C3F38703012B38BF012352
:109E900022706370F2E700290CBF002000F001007F
:109EA000704710B502210446FFF78BFF48B1A36845
:109EB00021685A1CA260C85C0233A3608B5C40EA34
:109EC000032010BD38B504460D46FFF77AFF20B1D8
:109ED000A368206818442B44A36038BD10B504461D
:109EE000EF2C18460CD8EF290AD84AB13BB11444DC
:109EF000F02C05DC1944F029CCBF0020012010BD56
:109F00000020FCE72DE9F04FA1B00F4616460021D6
:109F100014222A9C05469B4619F0A5FB37B94EB181
:109F200002232B70284621B0BDE8F08FDBF8043007
:109F3000B342F5D3CDE9107600263022314614A87D
:109F400012968DF84C6019F08EFB0A9609969DF8D2
:109F50004C30002B73D1DDE91173BB426FD20A9AEA
:109F600022B96E68DBF80020964203D302222A70E1
:109F7000AB60D7E710A8FFF735FF9DF84C3080465F
:109F8000002B5CD100F12003DBB201360F2B6E6099
:109F900000F2948010A8FFF784FF9DF84C3006462D
:109FA000002B4CD1014610A8FFF70BFF002846D02C
:109FB000129BBB428CBF0A9FFF1AB8F1E00F61D120
:109FC00010A8FFF70FFF0D9010A8FFF70BFF8246B8
:109FD00010A8FFF707FF9DF84C3081467BBB0DF1C1
:109FE0003E0214A910A8ADF83E30FFF707FF30BBC2
:109FF00010A8FFF7F7FE0B9010A8FFF7F3FE8046BE
:10A0000010A8FFF7EFFE9DF84C300C90BBB90D9BEC
:10A01000E3B9BAF1EF0F19D8B9F1EF0F16D80B9BCE
:10A02000022B13D808F1FF33DBB20F2B0ED80146F9
:10A0300010A8FFF747FF9DF84C2003465AB12B7834
:10A04000002B40F0BA809DF84C3026E002238DF8BA
:10A050004C302B70F3E79BF808002146FFF71BFFFD
:10A0600080B1226804930C9BCDE902830B9B019382
:10A07000BDF83E300093D2F82C804B46524600216A
:10A080002046C047DDE91138984594BFA3EB08038B
:10A090000023FA1A964202D202232B708DE0F61B9F
:10A0A0001E44314610A8FFF78CFE08B146441296B4
:10A0B0009DF84C30002B3FF44AAFC0E7312839D827
:10A0C000002844D000F1FF38B8F1300F3FD8DFE866
:10A0D00018F05A007600A100EE0045019201DA0165
:10A0E0002E028002B4023E003E003E003E003E00D2
:10A0F000C1021C038A03CD033E003E003E003E0029
:10A100003E003E003E003E003E003E003E003E005F
:10A11000010458043E003E003E003E003E003E006A
:10A120003E003E003E003E003E003E003E003E003F
:10A13000B104FF04602800F099850DD8502800F084
:10A140000C85512800F06685402800F0D884022351
:10A150008DF84C302B702CE0F02800F0B685F128FB
:10A1600000F0DF856128F2D110A8FFF73BFE9DF8D3
:10A170004C200346EAB9642840F2988502238DF802
:10A180004C302B7015E000230DF13E0214A910A8ED
:10A19000ADF83E30FFF732FE58B99BF80800214673
:10A1A000FFF779FE28B12368BDF83E101B682046F2
:10A1B00098472B78022B7FF47BAF129BD8E610A830
:10A1C000FFF710FE064610A8FFF76BFE9DF84C3017
:10A1D0000246002BEDD10F2E04D902238DF84C300E
:10A1E0002B70E6E720AB03EB4603012123F8300C8C
:10A1F00006F180036B449BF8080003F8101C21460D
:10A20000FFF749FE0028D4D0236831465B6820461A
:10A210009847CEE710A8FFF7E5FD064610A8FFF720
:10A22000E1FD074610A8FFF7DDFD804610A8FFF707
:10A23000D9FD9DF84CA08146BAF1000FB9D1034673
:10A24000424639463046FFF749FE20B902238DF8D1
:10A250004C302B70ADE74FF480730DF13E0214A922
:10A2600010A8ADF83EA0ADF83C30FFF7C7FD0028C0
:10A270009FD10FA910A8FFF7F1FD002899D19BF8F5
:10A2800008002146FFF707FE002892D0BDF83C20C9
:10A290002368ADF80820BDF83E20CDE90092314694
:10A2A000D3F808903A4643462046C84781E710A8AD
:10A2B000FFF798FD064610A8FFF794FD074610A883
:10A2C000FFF790FD804610A8FFF78CFD814610A88F
:10A2D000FFF788FD9DF84CA00B90BAF1000F7FF4BA
:10A2E00068AF4B46424639463046FFF7F7FD20B986
:10A2F00002238DF84C302B705BE74FF480730DF127
:10A300003E0214A910A8ADF83EA0ADF83C30FFF70E
:10A3100075FD00287FF44DAF0FA910A8FFF79EFD33
:10A3200000287FF446AF9BF808002146FFF7B3FDF5
:10A3300000283FF43EAFBDF83C202368ADF80C2068
:10A34000BDF83E2002920B9ACDE900923146D3F837
:10A350000C903A4643462046C8472AE710A8FFF724
:10A3600041FD064610A8FFF73DFD074610A8FFF780
:10A3700039FD804610A8FFF735FD9DF84C30814629
:10A38000002B7FF416AFEF2E30D8EF2F2ED8B8F178
:10A39000EF0F2BD8EF2829D80DF13E0214A910A8F1
:10A3A000ADF83E30FFF72AFD00287FF402AF10A879
:10A3B000FFF718FD9DF84C200346002A7FF4F9AE04
:10A3C0009BF808002146FFF766FD00283FF4F1AE38
:10A3D00022680293BDF83E30CDE900933146D2F8B1
:10A3E000109043463A462046C847E2E602238DF8DD
:10A3F0004C302B70DDE610A8FFF7F4FC064610A8E1
:10A40000FFF7F0FC074610A8FFF7ECFC9DF84C3076
:10A410008046002B7FF4CDAEEF2E2FD8EF2F2DD816
:10A42000ADF83E300DF13E024FF4807314A910A830
:10A43000ADF83C30FFF7E2FC00287FF4BAAE0FA97C
:10A4400010A8FFF70BFD00287FF4B3AE9BF80800BF
:10A450002146FFF720FD00283FF4ABAEBDF83C20BD
:10A460002368ADF80420BDF83E200092D3F8149084
:10A470003A46434631462046C8479AE602238DF8BD
:10A480004C302B7095E610A8FFF7ACFC064610A8E0
:10A49000FFF7A8FC074610A8FFF7A4FC824610A807
:10A4A000FFF7FFFC804610A8FFF7FBFC9DF84C303F
:10A4B0008146002B7FF47DAEEF2E33D8EF2F31D8BD
:10A4C000B8F5B47F2ED2B0F5B47F2BD20DF13E0299
:10A4D00014A910A8ADF83E30FFF790FC00287FF4D7
:10A4E00068AE10A8FFF77EFC9DF84C200346002ABA
:10A4F0007FF45FAE9BF808002146FFF7CCFC0028F4
:10A500003FF457AE22680393BDF83E30CDF800808B
:10A51000CDE901933146D2F8188053463A46204699
:10A52000C04746E602238DF84C302B7041E610A858
:10A53000FFF758FC9DF84C300646002B7FF439AEEF
:10A54000012804D802238DF84C302B7031E60DF130
:10A550003E0214A910A8ADF83E30FFF74FFC0028CA
:10A560007FF427AE10A8FFF73DFC9DF84C3007465E
:10A57000002B7FF41EAE710010A8FFF7A3FC9DF81E
:10A580004C200346002A7FF414AE013013F8121059
:10A59000EF29D7D810F81210EF29D3D80132D1B251
:10A5A0008E42F3D82A78022A3FF403AE9BF80800C3
:10A5B0002146FFF770FC00283FF4FBAD22680093B2
:10A5C000D2F81C80BDF83E203B4631462046C047AD
:10A5D000EFE510A8FFF706FC064610A8FFF702FCFF
:10A5E000074610A8FFF7FEFB804610A8FFF7FAFB0E
:10A5F0009DF84C308146002B7FF4DBAD034642468C
:10A6000039463046FFF76AFC20B902238DF84C30FA
:10A610002B70CEE59BF808002146FFF73CFC002894
:10A620003FF4C7AD2368CDF80090D3F820903A46A8
:10A63000434631462046C847BBE59BF80800214603
:10A64000FFF729FC00283FF4B4AD236820465B6A7D
:10A650009847AEE510A8FFF7C5FB804610A8FFF7A6
:10A66000C1FB064610A8FFF7BDFB9DF84C3007461E
:10A67000002B7FF49EADB8F1000F41D1EF2E3FD8F3
:10A68000EF283DD80DF13E0214A910A8ADF83E8088
:10A69000FFF7B4FB00287FF48CAD10A8FFF7A2FBF6
:10A6A000804610A8FFF79EFB9DF84C308146002B9A
:10A6B0007FF47FADB8F1020F22D8014610A8FFF752
:10A6C00001FC9DF84CA00346BAF1000F7FF471AD78
:10A6D0009BF808002146FFF7DEFB00283FF469AD38
:10A6E0002268CDF80480CDE90293BDF83E30009396
:10A6F000D2F828803B46324651462046C04758E5AE
:10A7000002238DF84C302B7053E510A8FFF76AFB3D
:10A71000074610A8FFF766FB0B9010A8FFF762FB37
:10A720000C9010A8FFF75EFB064610A8FFF75AFB37
:10A730009DF84C300D90002B7FF43BAD002F4DD198
:10A7400003463246DDE90B01FFF7C8FB002845D080
:10A750000DF13E0214A910A8ADF83E70FFF74EFBB4
:10A7600000287FF426AD10A8FFF73CFB074610A891
:10A77000FFF738FB804610A8FFF734FB9DF84C30FC
:10A780008146002B7FF415AD022F27D8B8F1070FB3
:10A7900024D8014610A8FFF795FB9DF84CA003466E
:10A7A000BAF1000F7FF405AD9BF808002146FFF7D2
:10A7B00072FB00283FF4FDAC2268CDE90593BDF89B
:10A7C0003E3002930D9BCDE90378CDE900635146FD
:10A7D000176B2046DDE90B23B847EAE402238DF826
:10A7E0004C302B70E5E410A8FFF7FCFA064610A8E1
:10A7F000FFF757FB074610A8FFF7F4FA804610A8AA
:10A80000FFF7F0FA9DF84C308146002B7FF4D1AC75
:10A810003EBB022F25D8B8F1EF0F22D8EF2820D861
:10A820000DF13E0214A910A8ADF83E60FFF7E6FA5C
:10A83000064600287FF4BDAC9BF808002146FFF7D0
:10A840002AFB00283FF4B5ACBDF83E202368CDE9D3
:10A8500000923146D3F834903A4643462046C847E2
:10A86000A7E402238DF84C302B70A2E410A8FFF768
:10A87000B9FA804610A8FFF714FB064610A8FFF7A8
:10A88000B1FA074610A8FFF7ADFA9DF84C20034631
:10A89000002A7FF48EACB8F1000F16D1AEB9EF2FBD
:10A8A00013D8EF2811D89BF808002146FFF7F3FAD8
:10A8B00000283FF47EAC22680093D2F838803B46F3
:10A8C000324631462046C04773E402238DF84C30AF
:10A8D0002B706EE410A8FFF785FA0B9010A8FFF715
:10A8E00081FA074610A8FFF77DFA804610A8FFF707
:10A8F00079FA814610A8FFF775FA9DF84C608246F8
:10A90000002E7FF456AC0B984B4642463946FFF773
:10A91000E5FA88B3BAF1640F2ED80FAA14A910A8CB
:10A92000ADF83C60ADF83E60FFF768FA00287FF4B0
:10A9300040AC0DF13E0214A910A8FFF75FFA002801
:10A940007FF437AC9BF808002146FFF7A4FA0028F3
:10A950003FF42FACBDF83E2023680392BDF83C20A5
:10A96000CDF80090CDE901A20B99D3F83C903A467E
:10A9700043462046C8471CE402238DF84C302B7018
:10A9800017E410A8FFF72EFA064610A8FFF72AFAD8
:10A99000074610A8FFF726FA814610A8FFF722FA0B
:10A9A0009DF84C308046002B7FF403ACEF2E3BD853
:10A9B000EF2F39D8642837D80FAA14A910A8ADF8FA
:10A9C0003C30ADF83E30FFF719FA00287FF4F1ABC8
:10A9D0000DF13E0214A910A8FFF710FA00287FF429
:10A9E000E8AB10A8FFF7FEF99DF84C200346002ABB
:10A9F0007FF4DFAB9BF808002146FFF74CFA0028F4
:10AA00003FF4D7AB22680393BDF83E300293BDF804
:10AA10003C30CDE900833146D2F840804B463A467F
:10AA20002046C047FFF7C5BB02238DF84C302B7082
:10AA3000FFF7BFBB10A8FFF734FA0B9010A8FFF781
:10AA4000D1F9064610A8FFF7CDF9074610A8FFF781
:10AA5000C9F9804610A8FFF7C5F9814610A8FFF78D
:10AA6000C1F99DF84C308246002B7FF4A2AB4B46D7
:10AA7000424639463046FFF731FA58B1BAF11F0F56
:10AA800008D8099B072B0BD902238DF84C302B706B
:10AA9000FFF78FBB02238DF84C302B70FFF789BB7B
:10AAA0009BF808002146FFF7F6F920B9099B01330E
:10AAB0000993FFF77EBB2368CDF80080CDE9019AAA
:10AAC0000B99D3F8448032463B462046C047EDE719
:10AAD000099B2BB902238DF84C302B70FFF769BB13
:10AAE0009BF808002146FFF7D6F918B123682046E5
:10AAF0009B6C9847099B013B0993FFF75ABB10A831
:10AB0000FFF770F9064610A8FFF76CF9074610A882
:10AB1000FFF7C7F99DF84C200346002A7FF449ABA4
:10AB2000EF2E14D89FB1F219F02A10DC9BF8080020
:10AB30002146FFF7B0F900283FF43BAB22683146CD
:10AB4000D2F84C8020463A46C047FFF732BB02237A
:10AB50008DF84C302B70FFF72CBB10A8FFF742F993
:10AB60000D9010A8FFF73EF9824610A8FFF73AF9BA
:10AB70000B9010A8FFF736F9074610A8FFF732F937
:10AB80000C9010A8FFF72EF9804610A8FFF72AF9BD
:10AB9000814610A8FFF785F99DF84C300646002B3A
:10ABA0007FF407AB0C9B0B993A465046FFF796F99A
:10ABB00050B3B8F1030F27D8B9F1010F24D8B6F577
:10ABC000805F21D8314610A8FFF77CF99DF84C2012
:10ABD0000346002A7FF4EDAA9BF808002146FFF700
:10ABE0005AF900283FF4E5AA22680D99CDE90463DB
:10ABF0000C9BCDE90289CDE900732046166D0B9BB5
:10AC00005246B047FFF7D5BA02238DF84C302B706F
:10AC1000FFF7CFBA10A8FFF7E5F8074610A8FFF72F
:10AC2000E1F8064610A8FFF7DDF89DF84C20034632
:10AC3000002A7FF4BEAAEF2E12D8EF2810D89BF876
:10AC400008002146FFF727F900283FF4B2AA22683E
:10AC50003946D2F8548020463246C047FFF7A9BA99
:10AC600002238DF84C302B70FFF7A3BA10A8FFF722
:10AC7000B9F89DF84C200346002A7FF49AAA0428CC
:10AC800005D902238DF84C302B70FFF792BA9BF850
:10AC900008002146FFF7FFF800283FF48AAA22683F
:10ACA0001946926D20469047FFF783BA9BF808003B
:10ACB0002146FFF7F0F800283FF47BAA22681946E6
:10ACC000D26D20469047FFF774BA10A8FFF78AF8B4
:10ACD0009DF84C200346002A7FF46BAA032805D96F
:10ACE00002238DF84C302B70FFF763BA099A2AB112
:10ACF00002238DF84C302B70FFF75BBA012268738A
:10AD000021469BF808002A73FFF7C5F818B90123FC
:10AD10000A93FFF74EBA22681946126E20469047F2
:10AD2000F5E710A8FFF7BDF89DF84C200346002A70
:10AD30007FF43FAA0122E88121469BF808002A748B
:10AD4000FFF7A9F800283FF434AA22681946526E8A
:10AD500020469047FFF72DBA7047704770477047FD
:10AD60007047704770477047704770477047F0B43E
:10AD7000089CBDF810509DF814609DF81C70D0F828
:10AD800000C0CDE90674CDE90456DCF82840A4469D
:10AD9000F0BC604770477047704770477047704716
:10ADA00070477047704770477047704770477047EB
:10ADB00030B5046D072C11D8651C0234056500EB15
:10ADC000C40520F83410EB709DF80C302B719DF801
:10ADD00010306B719DF81430AA70AB7130BD026DEC
:10ADE0002DE9F34103466AB3511E013200EBC20262
:10ADF000016592E8030002AA02E903009DF80650EB
:10AE0000AA071FD45C68ECB19868D8B10268DB6807
:10AE10009A4217D20C21514363189DF802E09DF825
:10AE200003C09DF804709DF80560BDF8008024F80B
:10AE300001800132A3F802E0A3F804C0DF801E8184
:10AE40009D72026002B0BDE8F08110B5446D04B19E
:10AE50002170816D01B10A70C26D02B11380036E61
:10AE60000BB101221A7010BD704770470846FEF7FB
:10AE7000EDBA0000042938B59ABF094B5D5C1E2568
:10AE80000C462846FDF729FA022C07D12820FDF7A9
:10AE900009FA2846BDE83840FDF71FBA38BD00BFA3
:10AEA0000052020010B504464068FEF73CFA002349
:10AEB000237410BD0123018183724068FEF739BA03
:10AEC0002DE9F04F8BB090469DF85C609DF85420C2
:10AED0000390B0000C4604939DF85010834606EB97
:10AEE0004609BAB1531E03FB00939BB2012913D14B
:10AEF000B4EB530F4FEA530114D9631A9CB2169F57
:10AF000033180593BB180793079B9F420CD10BB0D6
:10AF1000BDE8F08F1346E9E70229F0D1A34201D240
:10AF2000E31AEBE70024EAE717F8015B2D3D0D2D4E
:10AF300042460BD9049B0193059B009303984B4613
:10AF40002146FEF734F85C44A4B2DDE7134BEDB2C2
:10AF500005EB85051D446B1D069321464FF0020A43
:10AF60002B7823FA0AF3DB070AD5049B0398CDE973
:10AF700000633346CDE90812FEF719F8DDE908123F
:10AF80000AF1FF3A3144BAF1FF3F89B2E8D1069B9A
:10AF9000013532449D4292B2DFD1D4E758530200CA
:10AFA00007B50123C17202730374009240680A4618
:10AFB000F0230021FEF7AAF903B05DF804FB28B1E5
:10AFC00019448B1A04D4EF2B04DCDBB2184670470B
:10AFD0000023FBE7EF23F9E72DE9F04F85B0D0F828
:10AFE00004909DF83880BDF83CA00F461D46C17AFC
:10AFF0001346C289007CFFF7E2FF9DF840409DF8B0
:10B0000041B014F0FD0F064607D10246CDE9008A93
:10B010002B4639464846FDF7CAFF013C012C23D890
:10B0200000241EE0B5EB440F4FEA44031CD99845B9
:10B030001AD9A1B2C1EBC130400080B205EB000CBF
:10B0400040447218002380B2394401930090CDF837
:10B0500008A01FFA8CF392B289B24846FEF704F8B2
:10B060000134E3B25B45DDD305B0BDE8F08F2DE9D7
:10B07000F74F04460D461F46C17A9DF83C809DF867
:10B0800030909DF834B0BDF838A01346C289007CDA
:10B09000FFF795FF18F0FD0F064607D1CDE9009A9E
:10B0A00002463B4660682946FDF781FF08F1FF38FC
:10B0B000B8F1010F0CD8CDE90DBACDF83090606829
:10B0C0003B463246294603B0BDE8F04FFDF7CCBF02
:10B0D00003B0BDE8F08F2DE9F04F85B004460F4670
:10B0E0009946C17A9DF83C60BDF838A01346C289E4
:10B0F000007CFFF764FF16F0FD0580460FD102B219
:10B100000FFA87FBCDF800A0EBB2606803925946B6
:10B110000135FDF72BFEEBB24B45039AF2D9013E08
:10B12000012E0BD8CDF838A060684B460FFA88F294
:10B13000394605B0BDE8F04FFDF718BE05B0BDE8D3
:10B14000F08F2DE9F14F077C90F80BB0D0F8048018
:10B150009DF828A0BDF82C900C461E465946134673
:10B16000C2893846FFF72BFF5346054659463846F5
:10B17000FFF725FF00B20A9033462AB22146404627
:10B18000CDF82C9001B0BDE8F04FFDF771BD2DE971
:10B19000F04F85B005460E9C0E46904600270137BD
:10B1A000FBB29E4204F1020402D805B0BDE8F08F64
:10B1B00095F810B0E97AEA8914F8013C03915846F1
:10B1C000FFF7FDFE63780399D5F804A08146584641
:10B1D000FFF7F5FE00B20090CDF80480237814F854
:10B1E000021C0FFA89F25046FDF742FDD7E72DE920
:10B1F000F047D0F80480BDF82060BDF82470BDF899
:10B2000028900C461D46C17A1346C289007CFFF780
:10B21000D6FE3FB236B2CDF82890099708962B4655
:10B2200002B221464046BDE8F047FDF783BE2DE956
:10B23000FF470546BDF838909DF83040BDF834A072
:10B240000E461F46C17A1346C289007CFFF7B7FE3F
:10B25000CDF8089040F267134FF00009CDE9009354
:10B260000FFA80F836B23FB23B4668684246314634
:10B27000FDF760FE4FF4B47314FB03F46423B4FBD6
:10B28000F3F46CB124B2CDE90C94CDF838A0686821
:10B290003B464246314604B0BDE8F047FDF74ABEA2
:10B2A00004B0BDE8F0872DE9F04146689DF81870BC
:10B2B0000C461D46C17A1346C289007CFFF77FFE0B
:10B2C000069702462B4621463046BDE8F041FEF780
:10B2D0001DB82DE9F04F87B005469DF84CB003929C
:10B2E000159A9DF840609DF844709DF84840BDF85F
:10B2F00050A00492BBF1000F60D1C289C17A007CDA
:10B30000FFF75DFE814674BB06FB07F3BAEB430F04
:10B3100054D3A3461FFA8BF297424FD9049B4A4459
:10B3200003EB440A4FF0000892B212E0039B1AF8B4
:10B33000010C059219441AF8023C43EA00230193D8
:10B3400001230093686889B2FDF731FE059A08F180
:10B3500001081FFA88F18E420AF1020AE6D80BF1C1
:10B36000010B3444D6E7012C0FD107FB06F39A45B5
:10B3700024D3049B0399CDE91073024668683346D1
:10B3800007B0BDE8F04FFDF72FBF032C16D107FB28
:10B3900006F30733BAEBD30F10D34FF6FF731293B4
:10B3A000049BCDF84CB0CDE9107302460399686850
:10B3B000334607B0BDE8F04FFDF760BF07B0BDE80A
:10B3C000F08F2DE9F0474568C17ABDF820609DF8FF
:10B3D00028809DF82470DDF82C901446C289007CEA
:10B3E000FFF7EDFD0123CDE90A93CDE90878024688
:10B3F000334621462846BDE8F047FFF761BD2DE9F9
:10B40000F0474568C17ABDF820609DF82C809DF812
:10B4100024709DF828901446C289007CFFF7CFFD68
:10B420000C9BCDF82C90CDE9098302460897334652
:10B4300021462846BDE8F047FFF742BD2DE9F0411F
:10B440004568C17ABDF820609DF824709DF82C8075
:10B450001446C289007CFFF7B2FD012309930C9BBF
:10B460000697CDE907830246334621462846BDE8C4
:10B47000F041FFF725BD70B5C2894568C17A007CEF
:10B48000BDF814601C469DF81030FFF798FD0823A6
:10B4900002460596049321462846BDE87040FDF714
:10B4A00086BD37B54568C289C17A007C1C469DF8C7
:10B4B0001830FFF784FD102347F6EF31CDE9003156
:10B4C000024621462846FDF772FD03B030BD2DE946
:10B4D000F74F9DF83080BDF83CB09DF834A0BDF822
:10B4E00038901D46044613460E46C289C17A007C38
:10B4F000FFF765FDCDE9008B2B4602460746314636
:10B5000060680AFB05F5FDF752FD632D0CD9CDE906
:10B510000C8960683A4631466423B5FBF3F303B007
:10B52000BDE8F04FFDF743BD03B0BDE8F08F01600B
:10B5300000F5005000234360C0F88C3180F896314C
:10B54000A0F894317047000070B500F50055A4B024
:10B550000026044644223146C5E9636685F89661B3
:10B560000FA818F080F81F4B0B932B460A330C934F
:10B5700004F506530C330D9320230E9304F5065364
:10B580001033209304F506531133174A219304F521
:10B59000065307CA1233229304F506531633239336
:10B5A00008AB83E8070001228DF828200BAA00923F
:10B5B00004F580516A68043102A8FEF7A3FC95F8EF
:10B5C00096316BB1B5F8923195F89121934284BFD1
:10B5D0009B1A9EB2B5F89431B34288BFA5F8946126
:10B5E00024B070BD10520200A05302002DE9F043B8
:10B5F000036891B00446002B3FD000F500577A68ED
:10B60000002A3AD01E4ADFF87C800025CDE90B23C2
:10B6100000F58056B7F894310F95CDE90D55A94640
:10B62000ADF83A30043629462068FDF76AFE2068F6
:10B63000FDF779FE20680021FDF77BFE98E8070002
:10B6400008AB83E8070001228DF828200BAA00929E
:10B650007A688DF83C90314602A8FEF753FC01351C
:10B660002068FDF774FE1E2DDDD120684FF0FF31FC
:10B67000FDF747FE2068FDF756FE11B0BDE8F083E8
:10B6800080520200A05302002DE9F0430D4695B010
:10B690009046002114221F46044617F0E4FF2B6851
:10B6A00013B1B8F1000F05D102232370204615B065
:10B6B000BDE8F083B7F5805FF6D8FCF7DBFD304ED0
:10B6C000814696E8070009AB83E807000022009254
:10B6D00041463A460FA8FEF715FC109BE360119B0C
:10B6E0002361FCF7C7FD9DF83C30A0EB09006060CA
:10B6F000002BDAD19DF84830002BD5D005F1040994
:10B70000414605F580583A46484608F1040817F0C6
:10B71000F4FF49463A46404617F0EFFF05F5005959
:10B720009DF84C30C9F804701BB1BDF84A30A9F837
:10B7300008302846FFF708FF05F50050D9F88C11AE
:10B740000A30FEF7A3F996E807000E4B08930CABFE
:10B7500083E8070001228DF8382008AA0092D9F862
:10B760000420414602A8FEF7CDFBFCF783FD064608
:10B770002846FFF73BFFFCF77DFD801BA06095E7A7
:10B78000A0530200F052020010B400F5005494F8E7
:10B79000963123B9A4F894315DF8044B704794F8BE
:10B7A0009131B4F892219A4286BFD31A9BB20023FA
:10B7B0008B4228BF0B46A4F894315DF8044BFFF789
:10B7C00015BF2DE9F041089E0C4696469846DDE9E6
:10B7D000061276B307282CD814F0100529D114F0DE
:10B7E000010702D0A30720D52F464FF0020C099B7A
:10B7F00002EB0C05AB421CD3F42D1AD802B1D1B127
:10B8000004F01F0444EA4014347086F801E027B1C4
:10B810004FEA182386F80280F3701AB106EB0C0089
:10B8200017F06BFF2846BDE8F08101274FF0040CAC
:10B83000DDE70025F6E70D46F4E72DE9F04FC5B04A
:10B8400081464E9C9846164642B14F9B33B1B4F5A3
:10B85000805F03D824B1B8F1000F16D1002011E0A9
:10B8600007AFCDE90147F423039301F01C01CDF8A4
:10B8700000803278A3B241F003014846FFF7A1FFF0
:10B88000002836D145B0BDE8F08FF22CE8D901F0A0
:10B890001C05A3B245F001010027F02205934FF0EB
:10B8A000F40B0DF11C0AE31B934228BF1346CDE9AC
:10B8B00002AB3A4642441F440193A742009228BF7C
:10B8C00041F00201059B32784846FFF77AFF0146B6
:10B8D0000028C3D03378509A0133337050464F9BC1
:10B8E00098470028BAD0A7424FF0F202CAD22946A0
:10B8F000D9E73378509A0133337001464F9B38466D
:10B900009847BFE707299FBF00EBC102002340F81B
:10B910003130C2F80330704710B50024E1B2013471
:10B92000FFF7F0FF082CF9D100F58050002380F8D4
:10B9300044300364836410BD2DE9F04F00F5805757
:10B94000002385B0044616463B64894659B1931ED0
:10B95000F22B08D80B7813F0100A4FEA531508D0D1
:10B960002946FFF7CFFF4FF0020A504605B0BDE869
:10B97000F08F062D00F0AA80072D04D197F84C20F7
:10B98000002A00F0A38013F0010C03F0020B07D093
:10B99000BBF1000F04D1032E51D829462046E0E721
:10B9A0000022022009EB000199F801300191361ABA
:10B9B000BCF1000F59D04FF000085FFA88F1A9429E
:10B9C0000CD014F8380048B12046CDE90232FFF718
:10B9D00099FFB96CDDE902320131B96408F101085F
:10B9E000B8F1080FE9D104EBC508002144F835107F
:10B9F000C8F80310012188F80610591888F80110BA
:10BA0000BBFA8BF1490904F83510DAB1B9F8022014
:10BA1000A8F80220511EB1F5805FBED2B242BCD35D
:10BA20000199324604F1400017F067FEB3B2A8F85E
:10BA30000430BBF1000F0CD14FF0010A95E7012251
:10BA40000420AFE7BBF1000FA7D0B2B2A8F80220E4
:10BA5000E4E7B8F802209A429FD13E6487F8445048
:10BA600029462046FFF74EFF7FE714F8352004EB08
:10BA7000C508002A91D098F80620002A8DD098F8A1
:10BA800001209A4289D10132B8F804C088F8012017
:10BA9000B8F802200CEB060191423FF67EAF04F1AC
:10BAA000400032460199604417F027FEB8F8043090
:10BAB0001E44B6B2B8F80230A8F80460BBF1000F1B
:10BAC00001D09E42C8E79E42B6D166E74FF0030A16
:10BAD0004BE7034610B45C680846114624B19A68E7
:10BAE00023465DF8044B184720465DF8044B704729
:10BAF00030B5C1B08123B2F5807F054614468DF87C
:10BB0000003008D94FF48074621E01310DF101003C
:10BB100017F0F3FD01E0012AF6D8224669462846CF
:10BB2000FFF7D7FF41B030BD7FB5037F0546002B3F
:10BB30003ED0D0E908329A423AD30368C3B398475B
:10BB4000AA6A6E6A0023841A2B7733D01A482246D9
:10BB5000A6FB000117F04AFA82238DF80030230A71
:10BB60008DF80230230C8DF80330330A8DF806303F
:10BB7000330C8DF80730330E8DF80830030A8DF83A
:10BB80000A30030C8DF80B30030E8DF801408DF850
:10BB90000900240E8DF80C300E2200236946284639
:10BBA0008DF804408DF805608DF80D30FFF791FF9A
:10BBB00004B070BD2046CFE7A0860100042A38B546
:10BBC0000446154619D90368BBB1D1F801200262B9
:10BBD000002242629847236AA0621A1E18BF0122FF
:10BBE000052D227709D043B1636A053B2B4463627C
:10BBF0002046BDE83840FFF797BF38BD017F31B11F
:10BC00002AB1416A013A11444162FFF78DBF704782
:10BC1000F0B5012A93B0054614461DD90368DBB17F
:10BC2000013A402A18D8842301310DF101008DF822
:10BC3000003017F062FD2B6898476E463719030AEB
:10BC40000DF804007B70030CBB70030EFB70221D0B
:10BC500069462846FFF73DFF13B0F0BD30B5436994
:10BC600087B0044643B3816901A89847BDF8040032
:10BC7000BDF80610BDF80820BDF80A308DF80D009B
:10BC80008DF80F108DF81120000A090A120A8DF89C
:10BC90000E008DF810108DF812208DF813308525C8
:10BCA0001B0A092203A920468DF80C508DF8143088
:10BCB000FFF70FFF07B030BD1A4619461846DDE7FB
:10BCC00030B5012A85B0054638D9C468DCB30369AC
:10BCD000013A01316846A047DDE90012029B9DF858
:10BCE0000C008DF8011086248DF800400C0A8DF8A8
:10BCF00002400C0C090E8DF80410110A8DF8052075
:10BD00008DF80610110C120E8DF808201A0A8DF805
:10BD10000A201A0C8DF807108DF809308DF80B20C9
:10BD20001B0E8DF80D000E22694628468DF8034043
:10BD30008DF80C30FFF7CDFE05B030BD012000239B
:10BD40001A461946CDE701202346F9E7F8B5134610
:10BD500041B34AB30E78771E052F03D9BDE8F840EA
:10BD6000FFF7B7BE023E042E04D8DFE806F0080C49
:10BD7000101417001A46FFF7BBFE0120F8BD1A4643
:10BD8000FFF71CFFF9E71A46FFF738FFF5E71A46F9
:10BD9000FFF73EFFF1E7FFF761FFEEE71A46FFF717
:10BDA0008FFFEAE70846E9E71046E7E7026813680D
:10BDB00010B59F2B97BF406883685C1C146092BFCE
:10BDC000C15400221A7010BD38B504460D460068F3
:10BDD000C9B2FFF7EBFF2068290ABDE83840FFF73A
:10BDE000E5BFCA08006801F0070101238B40815CB0
:10BDF0000B4383547047000018B1012801D002287A
:10BE000004D1034B0C2202FB003070470020704726
:10BE1000AC53020007B520220021019017F023FC4B
:10BE200001A80121FFF7DDFF01A80221FFF7D9FFDB
:10BE300001A80321FFF7D5FF04210DEB0100FFF757
:10BE4000D0FF01A80521FFF7CCFF01A80621FFF7CD
:10BE5000C8FF01A80721FFF7C4FF01A80821FFF7C9
:10BE6000C0FF01A80921FFF7BCFF01A80A21FFF7C5
:10BE7000B8FF01A81021FFF7B4FF01A81121FFF7B7
:10BE8000B0FF01A81221FFF7ACFF01A81321FFF7B3
:10BE9000A8FF01A82021FFF7A4FF01A82121FFF797
:10BEA000A0FF01A83021FFF79CFF01A83121FFF777
:10BEB00098FF01A84021FFF794FF01A85021FFF748
:10BEC00090FF01A85121FFF78CFF01A86021FFF727
:10BED00088FF01A86121FFF784FF01A8F021FFF787
:10BEE00080FFF12101A8FFF77CFF03B05DF804FBA0
:10BEF0002DE9F04F8846B9B09146074618B90020A1
:10BF000039B0BDE8F08F05AC012603AB0025314602
:10BF1000059320460DF10B030DF1400B07938DF8AF
:10BF20000B600395CDF818B00494FFF73FFF294646
:10BF30002046FFF73BFF0B212046FFF737FF29463E
:10BF40002046FFF733FF314604A8FFF73DFFF021FD
:10BF500004A8FFF739FFF02104A8FFF735FF08A870
:10BF6000FFF758FF08AE16F8011B20460135FFF712
:10BF70001DFF202DF7D14FF4805104A8FFF724FFB7
:10BF800003212046FFF712FF214E4FF0000A3178BF
:10BF90002046FFF70BFF736800255A5D0AB1102D8C
:10BFA0002CD1E9B220460193FFF700FF019B1D440D
:10BFB000AB4225D1317A2046FFF7F8FE0AF1010A9B
:10BFC000718904A8FFF700FFBAF1030F06F10C0610
:10BFD000DDD100212046FFF7E9FE49462046FFF764
:10BFE000E5FE9DF80B30002B89D0039A424586D898
:10BFF0005946384617F081FB039881E70135CCE7B5
:10C0000013F8011B01932046FFF7D0FE019BCFE7F9
:10C01000AC53020010B50822044600211C3017F072
:10C0200022FB002384F82C3010BD70B50D46044669
:10C0300006460FCD0FC695E803004FF0807386E8E3
:10C040000300A3612046FFF7E5FF0023C4E90D3399
:10C0500084F82D30E38584F8303070BD30B4056845
:10C0600035B129B122B14369AC46022030BC6047EA
:10C0700030BC704707B507238DF80510022201A9CF
:10C080008DF80430FFF7EAFF03B05DF804FB13B549
:10C09000046874B1837EB3FA83F35B090A221B013F
:10C0A000ADF804208DF806300322436901A9002071
:10C0B000A04702B010BD13B504685CB106238DF82B
:10C0C00004308DF8051043698DF8062001A903227C
:10C0D0000020A04702B010BD30B50368A9B00446E7
:10C0E00063B190F83020A0216846FFF701FF0246B7
:10C0F00020B12568636969460020A84729B030BD92
:10C1000070B5044608460D46FFF776FE30B1E36889
:10C11000E5761BB16169BDE87040184770BD00004D
:10C1200070B500250446C0E90D1180F82F508576C2
:10C130004576FFF76FFF01232376A36884F82E501E
:10C1400013B16169284698472046FFF7C5FF236968
:10C1500023B161690248BDE87040184770BD00BF57
:10C16000C0460200037E70B504465BB190F82C30E7
:10C1700043B100F11C010822243017F0BEFA01235C
:10C1800084F82D300025A57684F82F502046FFF73F
:10C1900041FFA368257613B1616928469847236952
:10C1A00023B161690248BDE87040184770BD00BF07
:10C1B000EC4602000A2AF8B504460D46164629D96F
:10C1C0000B78022B26D14F783846FFF715FE00B3C7
:10C1D000AB7A0B339E421DD304F11C060822A91C26
:10C1E000304617F08AFA94F82D00012384F82C3099
:10C1F00040B1082204F12401304617F00BFAB0FADE
:10C2000080F0400984F82E0039462046FFF778FF79
:10C210000120F8BD0020FCE7002310B5044683761A
:10C2200080F82F3043760AB1FFF724FFA36813B1DB
:10C23000616900209847237E033B012B9CBF0223AA
:10C2400023762046BDE81040FFF721BF90F82F303D
:10C2500010B504468BB9A37E012084F82F002BB1C2
:10C2600004232376A3680BB161699847236923B13E
:10C2700061690248BDE81040184710BD1047020030
:10C2800070B504461D46002971D0002A6FD00B7886
:10C29000023B092B6BD8DFE803F0052B344C6A64B2
:10C2A000716B6A8B237E012B61D12046FFF782FFE1
:10C2B00038B92369002B5AD061694148BDE8704004
:10C2C0001847002384F82F30A37602232376656372
:10C2D0002046FFF7DCFE2369002B48D094F82E009F
:10C2E0006169384A384C002818BF14462046E5E7F3
:10C2F000237E012B3BD12369002B38D06169334861
:10C30000DCE7237E023B022B31D894F82F306563A3
:10C310006BB3A07E0023984284F82F300CBF022319
:10C3200003232376A36813B308BB6169BDE870409B
:10C330001847012A1BD0237E023B022B17D84D78C9
:10C340002846FFF759FD30B9012229462046BDE8AD
:10C350007040FFF7B0BE29462046FFF7D1FE00220D
:10C36000F3E7237E023B022B01D80123637670BDE5
:10C37000237E023B022BFAD80023F7E7A07E002899
:10C38000F5D00138C0B20023A076637660B90223ED
:10C390002376A36884F82F000BB161699847204683
:10C3A000BDE87040FFF773BE2046FFF74FFFF6E78A
:10C3B00020460122BDE870400321FFF72DBF00BFDA
:10C3C0006E470200314702004D4702008D470200D0
:10C3D00070B504461D46237E023B022B08461146DB
:10C3E00022D8636803B3F8B1F2B1A27EAAB1667E27
:10C3F00062699847C0B9012EA27E10D1062A01D8E1
:10C400000132A276002384F82F300323238365634F
:10C410002046BDE87040FFF73ABE0126E8E7002A53
:10C42000F0D10123A376EDE770BD0000037E023B4F
:10C43000022B10B5044618D8436BC91A42F20F7389
:10C4400099420BD9036913B1416908489847012201
:10C4500020461146BDE81040FFF7DEBEB1F57A6F09
:10C4600003D3BDE81040FFF7F1BE10BDB84702008E
:10C47000807E003818BF01207047000007C8024BBB
:10C4800083E80700704700BF3031002070B4064ECB
:10C4900035682DB121B11AB1B368AC4670BC6047A4
:10C4A000002070BC704700BF3031002070B4064ED1
:10C4B00075682DB121B11AB1B368AC4670BC604744
:10C4C000002070BC704700BF30310020024AD2F813
:10C4D0000034002BFBD0704700E0014010B5064C43
:10C4E000237843B905484FF480524FF4FE2117F0EA
:10C4F00004F90123237010BD3C310020403100209D
:10C50000024B00221A70FFF7E9BF00BF3C31002048
:10C5100070B5044616460D4611B90024204670BD7C
:10C52000002AFAD00228F8D8FFF7D8FF0B490C4AA6
:10C53000A30201EB8424C8589042EED16468621EC5
:10C54000B2F57E7FE9D2B44228BF34460833224692
:10C550001944284617F0D1F8E0E700BF4031002029
:10C56000544C50532DE9F041074616460C4600291D
:10C570004BD0531EB3F57E7F47D2022845D8244DB9
:10C580004FEA872805EB8727FFF7A8FF214B45F8DF
:10C59000083008F10800324621467E60284417F032
:10C5A000ACF806F108004044C6F57E72FF2128442D
:10C5B00017F059F81848FFF789FF0223C0F804352F
:10C5C0004FF4FE21FFF782FFC0F80815FFF77EFF4A
:10C5D0000023C0F80435FFF779FFFFF777FF012349
:10C5E000C0F80435FFF772FF55F8043B41F8043BEF
:10C5F000FFF76CFFB1F5002FF6D10023C0F804352A
:10C60000FFF764FF0120BDE8F0810020FBE700BFD9
:10C6100040310020544C505300E00140034A13685D
:10C620000BB150681847002000217047604100207E
:10C6300030B50A4D421E00F117034FF0FF3012F8DB
:10C64000011F4840082140F300042C40013984EACE
:10C650005000F8D19342F2D1C04330BD2083B8EDF1
:10C6600003C808B5054B182283E8030004480021DD
:10C6700016F0F9FF034B00221A7008BD604100203C
:10C68000484100204041002070B586B018220021AA
:10C69000684616F0E8FF182269460020FFF7F6FE0C
:10C6A00017281AD90E4B009A9A4216D100236846D1
:10C6B000059C0593FFF7BCFFA0420ED16C460FCC42
:10C6C000084E35460FC594E803007368064A5B1AA6
:10C6D00085E8030018BF0123137006B070BD00BFCA
:10C6E00043544C53484100204041002038B5084D88
:10C6F000084B2B60002428466C61FFF799FF294600
:10C70000686118222046BDE83840FFF7CFBE00BF61
:10C710004841002043544C532DE9F047DFF8E080B6
:10C72000354C0746FFF77AFF98F8003005460E466D
:10C73000002B57D0D4E90232834272EB060151D26A
:10C74000B5EB030A66EB0202D4F810904FEA9A2A7E
:10C750004AEA825A4FEAE97CA9FB0A01274A0023E8
:10C760000AFB0C1116F0F2FB10EB0A0241F1000378
:10C770001F2A73F1000135DB6168B7EB010C6EEB2A
:10C780000E0EBCF11F0F7EF100012BDB1B49BCEB31
:10C79000020C6EEB030EACFB010C01FB0EC116F09C
:10C7A000D5FBDFF860E04FF0FF3C70450A4671EBC7
:10C7B0000C01034641F28931BCBF734662468B428D
:10C7C00072F10001A4BF41F2883300220321C9FBAA
:10C7D0000132002A02DA5B1842F100029B0843EAA8
:10C7E000827323610123C4E90175E66088F8003093
:10C7F000BDE8F047FFF77ABF4841002040420F00F4
:10C800004041002078ECFFFFF8B5164B1E783EB390
:10C81000FFF704FF144BD3E90225904271EB0504A6
:10C820005E681DD3841A61EB050518690F4AA40AD6
:10C8300044EA8554AD0AC31700FB05F104FB03115C
:10C84000A0FB04070023394416F080FB341945F19E
:10C850000005001945EB0105002DACBF064600267A
:10C860003046F8BD404100204841002040420F00C2
:10C8700070B50446FFF7C8FF2C4BB0FBF3F307225B
:10C880000433B3FBF2F2C2EBC2023C219B1AE37108
:10C89000B0FBF1F301FB1300B3FBF1F201FB123328
:10C8A00018216371B2FBF1F301FB1322A071227115
:10C8B0004FF4C87040F2B2726426910705D1B2FB02
:10C8C000F6F106FB112189B271B9B2FBF0F100FB60
:10C8D000112189B241B1002540F26D118B4207D37D
:10C8E00001325B1A92B2E8E701254FF4B771F5E720
:10C8F0000F4822800122022A014600F1010000D1E6
:10C9000045B90978994207D90133DBB2A270E370C7
:10C91000204670BD1D21F5E70132D2B20D2AA3EBEE
:10C920000103E8D10C221F23F0E700BF8051010072
:10C93000D0530200014B1878704700BF40410020DF
:10C9400008B500F011F84FF47A72A0FB020302FB65
:10C950000133800A40EA835008BD0000014B0022E9
:10C960001A6070476841002010B5074B074C1A68E1
:10C97000D4F8040519689142F9D120F07F4040EACB
:10C980000160090A10BD00BF68410020001001408D
:10C99000024A136801331360704700BF68410020EA
:10C9A000FFF7F6BFF8B50D46AB421C4628BF2C4634
:10C9B000074611461E4614B1224616F09EFEAE42B0
:10C9C0003CBF00233B55069B1C70F8BD20B140F6D0
:10C9D0000422002116F047BE704730B530B110F880
:10C9E000A04B0023A025DAB2944200D830BD05FB4D
:10C9F00003F201338154F6E740B103788B4204D946
:10CA0000A02303FB0100043070470020704770B57D
:10CA10000446F0B103788B421BD90131CDB2A02678
:10CA2000207885420BD30138C0B2207006FB00404D
:10CA3000A0220021043016F016FE012070BD06FB76
:10CA40000540011D9D229C38013516F056FEEDB2C1
:10CA5000E6E70020F2E72DE9F04F13468BB00D46D4
:10CA6000044618B900200BB0BDE8F08F0029F9D0BA
:10CA7000002AF7D00E78032E03D1FFF7A7FF01207D
:10CA8000F1E7022E25D1012AECD091F8018008F1BE
:10CA900002029A42E6D8023500274FF0A009237817
:10CAA000FEB2B342DED909FB06F023181B794345D9
:10CAB0000DD1053042462946204416F0ABFD30B971
:10CAC000314620460BB0BDE8F04FFFF7A0BF01375D
:10CAD000E5E7012EC6D1012AC4D04F787A1D9A42CB
:10CAE000C0D8BFD011F802B007F1060A0BEB0A025A
:10CAF0009A42B7D2501C8A5C049211180A1D9A42BD
:10CB0000B0D8AB1C0393EB194FF000099A7805924B
:10CB1000DA7806921B7907936A182B180893937892
:10CB20005078695CD2781B0443EA00230B4343EA44
:10CB300002630993A02322785FFA89F842450CD852
:10CB40000F2A06D94FF0A0082278B24254D8013AF1
:10CB5000D2B2531C237016B210E003FB08F0221867
:10CB60001279BA4245D1053003993A46204416F06D
:10CB700051FDA02300283CD10FFA88F6A02256438D
:10CB800006F10408A0440021404616F06CFD701D1B
:10CB90003B46039ACDF80080A71928212044FFF7CF
:10CBA00001FF059B87F82D30069B87F82E30079BE9
:10CBB00087F82F3006F1300306F13100234400934B
:10CBC00005EB0A025B4620212044FFF7EBFE06F14D
:10CBD000520051362644049B089A0096482120446E
:10CBE000FFF7E0FE099BC7F89C30002387F8A030D0
:10CBF00045E709F101099EE708FB0640011D9D225A
:10CC00009C38013616F079FDF6B29DE718B1642222
:10CC1000002116F028BD704710B504469AB008B33D
:10CC20006422002101A816F01EFD7F23642201A9C1
:10CC300001208DF808308DF810308DF818308DF8FF
:10CC400020308DF828308DF830308DF838308DF860
:10CC50004030FFF71BFC632804D9642201A9204659
:10CC600016F04BFD1AB010BD014618B16422012028
:10CC7000FFF71CBC7047F7B504469DF8207028B933
:10CC80000025284645EA002003B0F0BD90F860C0BA
:10CC900053EA070024D0012000FA02F2254620467C
:10CCA00000265FFA86FEF4451DD8002395F8412042
:10CCB000002A3CD06A6C8A4239D804EBC3050023B1
:10CCC00085F841302046FFF7CFFF95F84000022558
:10CCD000D8E706F830E00130C5B2AC45F9D8DAE75C
:10CCE000661D8646F8E790F801E0BEF1000F1BD004
:10CCF00090F805E0BEF1000F16D190F804E01EEAAE
:10CD0000020F11D090F802E09E450DD190F803E09B
:10CD1000BE4509D104EBC603012520465D71FFF72E
:10CD2000A3FF14F83600ADE701360830B9E7013348
:10CD3000042B05F10805B9D1A2E713B503468DF818
:10CD400007201C68084634B1DB6801220DF1070199
:10CD5000A04702B010BD2046FBE7034610B45C6854
:10CD60000846114634B12AB1A446DB685DF8044B8D
:10CD70000122604700205DF8044B704737B5044638
:10CD80000FC9002584E80F002582B6227E212046A7
:10CD9000FFF7D3FFA36813B1E168322098470DF184
:10CDA0000702002120468DF80750FFF7D6FF28B173
:10CDB0009DF80730112B03D10123237403B030BD3C
:10CDC000132BFBD10223F8E72DE9F743044616465F
:10CDD000894621B90025284603B0BDE8F083002A22
:10CDE000F8D00368002BF5D000225921FFF7A5FFEA
:10CDF0000028EFD00025A6EB0508B8F1080F28BFE2
:10CE00004FF00808E3682768424609EB05015E20F9
:10CE1000B8470028DED04544AE42ECD80122592163
:10CE20002046FFF78AFF05460028D3D0A36813B138
:10CE3000E1689620984700230DF107025F21204604
:10CE40008DF80730FFF789FFC5E738B5A8224021E4
:10CE50000446FFF772FF10B90025284638BD0022AE
:10CE600041212046FFF769FF0028F5D004227D21EB
:10CE70002046FFF762FF05460028EDD00A22532125
:10CE80002046FFF75AFF042258212046FFF755FF9E
:10CE9000E3E7F8B51D46037C044673B100234374F1
:10CEA00029B122B1FFF790FF08B10123637429462D
:10CEB0002046BDE8F840FFF7C8BF1846F8BD437CE0
:10CEC00013B513B9002002B010BD44680023ADF8BB
:10CED00004308DF80630002CF4D0C368032201A979
:10CEE0001E20A0470028EDD09DF806009DF80530D3
:10CEF000000440EA03209DF804301843E3E707B537
:10CF000000230DF107021C218DF80730FFF725FFE4
:10CF100020B19DF80700003818BF012003B05DF86C
:10CF200004FB000007C8064B83E80700054BFF22FF
:10CF30001A70054A00231370044A1370704700BF2B
:10CF400070410020480000206D4100206C4100200D
:10CF5000074A08B513680BB9002008BD90689847C8
:10CF60000028F9DB4FF496535843C0F38F20F4E7C1
:10CF70007041002040F6AC53984210B534D941F2CC
:10CF80005302904232D8B0F5626F18D940F68B63E5
:10CF9000984219D9B0F56C6F1CD940F68B73984242
:10CFA0001DD819464F2430224FF46C63C01AA41ABE
:10CFB0006043C91AB0FBF1F01044C0B210BD0324A5
:10CFC0004FF462610022F1E71946162403224FF460
:10CFD0006263EBE730244FF46C611622E6E76424C9
:10CFE00041F254014F22E1E70020E7E76420E5E742
:10CFF00012B1632828BF63204BB1642907D81AB146
:10D00000884238BF08467047884228BF08467047A4
:10D01000034A53680BB1906818471846704700BF21
:10D0200070410020054A08B5136823B190689847FD
:10D03000C043C00F08BD1846FCE700BF7041002088
:10D0400070B5FFF7EFFFD0B1FFF782FFFFF792FF58
:10D050000C4C0546FFF7DCFF23780B49024623B151
:10D060000B7883F001030343DBB2084E0A702846B5
:10D070003178FFF7BDFF01233070237070BDFF20B2
:10D08000FCE700BF6D4100206C41002048000020FB
:10D09000FFF7C8BF014B1868704700BF4C00002065
:10D0A0004FF0A043D3F8100580F48050C0F3003057
:10D0B00070470000014B1868704700BF4C0000200B
:10D0C00008B501F0EDFA014B186008BD4C000020D6
:10D0D0001FB54FF0A0430C22C3F830270023039361
:10D0E000054B019301A8054B0293FFF71BFFFFF7C8
:10D0F000E7FF05B05DF804FB95D00000A1D000006B
:10D10000D0E9013210B593423FBF02685C1C446015
:10D11000D15424BF0023037310BD10B50C46C9B20F
:10D12000FFF7EEFF210ABDE81040FFF7E9BF10B599
:10D130000C460021FFF7E4FF2146BDE81040FFF751
:10D14000ECBF2DE9F0410E46032115461C469DF823
:10D150001880BDF81C70FFF7D3FF3146FFF7D0FFF2
:10D160002946FFF7CDFF2146FFF7CAFF4146FFF7EB
:10D17000C7FF3946FFF7DBFFBDE8F0410021FFF7AD
:10D18000BFBFF0B585B072B930238DF804300123EC
:10D19000591AC9B21BB1013BDBB28B4218D1002333
:10D1A000037005B0F0BD01AD01230A26B2FBF6F70E
:10D1B00006FB1724303405F8014B1446092C3A4677
:10D1C00001D8DBB2E4E701330B2BEFD10A23DFE711
:10D1D00003F110026A4412F80C2C00F8012BD9E775
:10D1E00070B5013911F8015F35B1046846682268ED
:10D1F0003668531CB34200D370BD8668366823601E
:10D20000B554EFE770B5013911F8015F35B1046825
:10D21000466822683668531CB34200D370BD8668E6
:10D2200036682360B554EFE770B5013911F8015F36
:10D2300035B10468466822683668531CB34200D38F
:10D2400070BD866836682360B554EFE72DE9F0417C
:10D25000054608981E461746884616F05CFAE021F7
:10D26000C4B22846FFF74CFFE11DFFF756FF00212F
:10D27000FFF746FF4146FFF743FF3946FFF740FF00
:10D280009DF81C100131C9B2FFF73AFF3146FFF794
:10D2900037FF9DF81810FFF733FF2146FFF730FFE7
:10D2A000089C6618B44201D1BDE8F08114F8011B56
:10D2B0002846FFF725FFF5E72DE9F04F9FB006461A
:10D2C00008A80D46FFF7D4FA30460121FFF718FFF2
:10D2D0000021FFF72CFF0221FFF712FF0021FFF7CB
:10D2E0000FFF4FF6FF71FFF718FF0221FFF708FF4E
:10D2F0000121FFF705FF48F21041FFF70EFFEB7920
:10D300004BB108234FF620540022CDE900341146DA
:10D31000F023FFF716FF0EAC4FF0280A06AA4FF0D5
:10D32000000B14AF0DF1300812920DEB0A09EA68F8
:10D330000A970C212046CDF818A0CDF830B0CDF8D2
:10D340004480CDF84C90FFF71CFF11A82146FFF751
:10D3500047FFD549FFF744FF2A690C212046FFF714
:10D3600010FF11A82146FFF73BFFCF49FFF738FF19
:10D37000EA6B0C212046FFF704FF11A82146FFF7B6
:10D380002FFFC949FFF72CFF2A7A0C212046FFF70F
:10D39000F8FE11A82146FFF723FFC349FFF720FF3E
:10D3A0006A690C212046FFF7ECFE11A82146FFF721
:10D3B00017FFBD49FFF714FF2A7E0C212046FFF717
:10D3C000E0FE11A82146FFF70BFFB849FFF708FF61
:10D3D0006A8B0C212046FFF7D4FE11A82146FFF7E7
:10D3E000FFFEB149FFF7FCFEEA690C212046FFF77A
:10D3F000C8FE214611A8FFF7F3FE0A990C9A0123F3
:10D4000001F802B00222CDE9002304215B4610227C
:10D4100030460297FFF71AFF05AACDE912290C2121
:10D4200095F820200A972046CDF814A0CDF830B00A
:10D43000CDF84480FFF7A5FE11A82146FFF7E2FED4
:10D440009A49FFF7DFFE6A6A0C212046FFF799FE32
:10D4500011A82146FFF7D6FE9349FFF7D3FE2A8D88
:10D460000C212046FFF78DFE11A82146FFF7CAFECA
:10D470008D49FFF7C7FE6A8D0C212046FFF781FE1C
:10D4800011A82146FFF7BEFE8749FFF7BBFE2A6BB6
:10D490000C212046FFF775FE11A82146FFF7B2FECA
:10D4A0008249FFF7AFFEEA6A0C212046FFF769FECA
:10D4B000214611A8FFF7A6FE0A990C9A012301F84C
:10D4C00002B00222CDE9002302971C225B46042110
:10D4D0003046FFF7BBFE95F83420002A3BD007AA60
:10D4E000CDE912290C2195F835200A972046CDF870
:10D4F0001CA0CDF830B0CDF84480FFF742FE11A853
:10D500002146FFF791FE6849FFF78EFE95F8362019
:10D510000C212046FFF735FE11A82146FFF784FEB7
:10D520006149FFF781FEAA6B0C212046FFF729FE17
:10D53000214611A8FFF778FE0A990C9A022301F8F8
:10D5400002B00121CDE9003102975B465246042129
:10D550003046FFF77BFE9DF824300A27B3FBF7F235
:10D5600007FB123330338DF829303A238DF82A30F7
:10D570009DF8253002F13001B3FBF7F207FB1233BF
:10D5800030334FF0000A8DF828108DF82C3002F15E
:10D59000300108238DF82B100093382201237821C5
:10D5A0003046CDE901A98DF82DA0FFF74FFE9DF87B
:10D5B0002330B3FBF7F207FB123330338DF83930E9
:10D5C0009DF82230029402F130018DF83810B3FB3F
:10D5D000F7F107FB113330332D228DF83C30BDF8C5
:10D5E00020308DF83A208DF83D20642201F1300082
:10D5F000B3FBF2F102FB1133DBB2B3FBF7F207FB33
:10D60000123302F130013033012403278DF83B003F
:10D610008DF83E108DF83F30CDE9007423466E2220
:10D62000782130468DF840A0FFF710FE95F84F3076
:10D630007BB10DF144092A6C0C214846FFF7A1FD8E
:10D64000CDE9014900972346882278213046FFF72B
:10D65000FDFDAC793046652C4FF0200128BF002439
:10D66000FFF74EFD1421FFF74BFDC421FFF748FDE6
:10D67000C821FFF745FD0821FFF742FD2146FFF7CE
:10D680003FFD4FF6FF71FFF752FD42F22411FFF705
:10D690004EFDAA79642A64D942F62D53ADF8303094
:10D6A00000238DF8323003E0564B0200C3480200DD
:10D6B00001230324CDE90043CDF808800023D422C0
:10D6C00014213046FFF7C2FDEB7813B34FF4FC672B
:10D6D00006233046CDE90037D42223464E21FFF7FA
:10D6E00030FD4FF008080823D7225121CDE900472B
:10D6F000FFF727FD2346DA2256210197CDF8008057
:10D70000FFF71FFDCDE900474346DD225121FFF71A
:10D7100018FD2B79002B42F2241318BF4FF4FC6341
:10D720000193D4220C23009311463046FFF709FDE4
:10D730006B794BB104234FF62052CDE900327021B2
:10D740001023B022FFF7FDFC3046F021FFF7D8FC94
:10D750000021FFF7D5FC307B00B170681FB0BDE839
:10D76000F08F08214046FFF70CFDA1E72DE9F04FAF
:10D7700004688DB00546002C00F08081002900F07F
:10D780007D81072A40F27A810023099301238DF8D5
:10D790002C30237808910A92052B00F26F81DFE884
:10D7A00013F00F010600C4000F011401450108A881
:10D7B0000121FFF7A5FC0021FFF7B9FC0221FFF7CB
:10D7C0009FFC0021FFF79CFC4FF6FF71FFF7A5FCC3
:10D7D000AC4B029300210323CDE900310422012345
:10D7E0007821FFF733FD6F68002F3BD03C7805AD03
:10D7F000224604212846FFF7C4FC03230022CDE97A
:10D800000032029501231822782108A8FFF71EFD97
:10D81000062CA04628BF4FF006082CB3C8EBC8045E
:10D82000A400A4B208A84021FFF76AFC3021FFF74A
:10D8300067FCB421FFF764FC2146FFF76EFC362439
:10D840000026F1B2884511D808A8F021FFF758FC4E
:10D850000021FFF755FC9DF82C00002800F00F81F7
:10D8600009980CE13C46C2E70124DBE73846FFF7A4
:10D87000C3F80546002854D008A83021FFF740FC23
:10D8800006F1640189B2FFF748FC0421FFF738FC78
:10D89000A11FC9B2FFF734FCE821FFF731FC1A21C0
:10D8A000FFF72EFC0121FFF72BFC95F82B30A3F19D
:10D8B0003002092A88BF30234FF0000B0DF1180AFF
:10D8C0004FF003098DF8183022465B460821CDE958
:10D8D00001BACDF800908DF819B0FFF7B7FC95F8B4
:10D8E0002C2008215046FFF74CFC2246CDE901BA16
:10D8F000CDF800905B46282108A8FFF7A7FC95F813
:10D900009C2052B1604BCDF80090CDE901B3224686
:10D910005B46C82108A8FFF799FC312108A8FFF74A
:10D92000EFFB1C340136E4B28BE708A80121FFF7B6
:10D93000E7FB0021FFF7FBFB0221FFF7E1FB0021E2
:10D94000FFF7DEFB4FF6FF71FFF7E7FB002503272C
:10D950004E4B029306AE012310227821CDE90075CB
:10D96000FFF774FC94F84C2004213046FFF709FCC3
:10D970002B464022102108A8CDE901560097FFF759
:10D9800065FC94F84D2004213046FFF7FAFB2B4646
:10D990006422102108A8CDE901560097FFF756FC34
:10D9A00094F84E2004213046FFF7EBFBCDE90156F9
:10D9B00000972B468822102108A8FFF747FC43E771
:10D9C000214608A8FFF778FC59E008A80121FFF7D5
:10D9D00097FB0021FFF7ABFB0221FFF791FB002132
:10D9E000FFF78EFB06AD4FF47841FFF796FB94F8F6
:10D9F000542004212846FFF7C4FB00260823CDE964
:10DA0000003648220123782108A80295FFF71EFC62
:10DA100094F8552004212846FFF7B3FB0323009315
:10DA2000CDE9016501238C227821C5E708A80121F1
:10DA3000FFF766FB0021FFF77AFB0221FFF760FB8F
:10DA40000021FFF75DFB4FF6FF71FFF766FB104B00
:10DA50000293002408236422CDE9003478210123B5
:10DA6000FFF7F4FBF02108A8FFF74AFB2146FFF778
:10DA700047FB9DF82C30002B7FF4F2AE00200DB058
:10DA8000BDE8F08FFD470200014802000048020097
:10DA9000FE4702004FF440627421C0E90012826028
:10DAA00040F6042C4FF48052C0E903C270470000D6
:10DAB00073B50F4C064694E803000822CDE9000137
:10DAC00069460220FEF7E2FC07280A4A06F16403D1
:10DAD00008D90199914205D1DDE9000183E80300ED
:10DAE00002B070BD94E8030083E80300B266F7E774
:10DAF000DC53020053544C5338B50446012585834A
