:10802000000001200181000079810000B1420100BF
:108030007981000079810000798100000000000052
:10804000000000000000000000000000A16E010020
:108050007981000000000000F16E01003570010020
:10806000D940020079810000798100007981000007
:108070007981000079810000059800007981000075
:108080007981000079810000798100007981000008
:1080900079810000798100007981000079810000F8
:1080A000798100009141020079810000798100000E
:1080B00079810000798100007981000079810000D8
:1080C00079810000798100007981000079810000C8
:1080D00079810000798100000000000000000000AC
:1080E00079810000798100007981000079810000A8
:0C80F00079810000798100007981000096
:1081000008B5144A144B15498B4213D3144B154A26
:108110000021934213D300F057F800F033F8124CCB
:10812000124DAC420ED3124C124DAC420ED30CF099
:1081300045FEFEE752F8040B43F8040BE4E743F86E
:10814000041BE6E754F8043B9847EAE754F8043B7D
:108150009847EAE7F4A40200000000201C2E00204B
:10816000002F002038ED0020F0A40200F0A402004F
:10817000F0A40200F4A4020008B54FF61F000CF0B2
:108180008BF8000010B50A4A0A4811460023013353
:1081900050F8044B41F8044B372BF8D14FF0E02353
:1081A000C3F8082DBFF34F8FBFF36F8F10BD00BF13
:1081B000002F002020800000024AD2F80034002B5B
:1081C000FBD0704700E0014008B54FF0A0434FF4EA
:1081D00080320321C3F80825C3F81825C3F84017D7
:1081E000C3F808254FF0804301220021C3F8782509
:1081F000C3F81825C3F804119A60D3F80421002AA3
:10820000FBD04FF01020D0F80C32023312D01749B7
:10821000FFF7D2FF0123C1F80435FFF7CDFF6FF060
:108220000103C0F80C32FFF7C7FF0023C1F8043583
:10823000FFF7C2FF0E4B012200215A600420DA60D2
:10824000C3F804150321C3F80815C3F810051A6014
:108250004FF0A0434FF48032C3F80825C3F8182527
:10826000C3F84017C3F8082508BD00BF00E001406F
:1082700000900040024B01221A64D3F84005704779
:1082800000900040064B01211964D3F840251044AA
:108290001964D3F84025121A002AF9DB704700BF91
:1082A0000090004070B504464FF47A7604B970BD72
:1082B000B4F5FA7F254628BF4FF4FA7506FB05F0A2
:1082C000FFF7E0FF641B08F0A5F8EFE74FF0A043CD
:1082D0004FF48032C3F80C2570474FF0A0434FF4A1
:1082E0008032C3F8082570474FF0A0430322C3F83B
:1082F0003C270422C3F834274FF40042C3F8182562
:10830000C3F80825704700004FF080430349D3F8B5
:1083100000240A60C3F80024704700BFE82F002043
:10832000014B1868704700BFE82F00204FF0A043B2
:10833000D3F81005C0F34030704700004FF0A04361
:10834000164AD3F810351648012110B513F400531E
:108350001164D2F8402505D1124A01701370124AF7
:10836000137010BD0378002BFBD00F480378072B48
:1083700002D801330370F4E70A480C4B047814B9AF
:108380001A600170EDE71B68D21A094B9A42E8D3D4
:108390004FF0E023074AC3F80C2DFEE700900040A1
:1083A000E52F0020E42F0020DC2F0020E02F00200C
:1083B00000127A000400FA05084A536A116A013370
:1083C00010B5B3FBF1F401FB1433916A99421FBF5E
:1083D000516AD4695362605410BD00BF0000002090
:1083E000704710B5441E14F8010F00B910BDFFF717
:1083F000E3FFF8E708B5FFF7F4FFBDE808400148E0
:10840000FFF7EFBF9C58020070B505460748084EBD
:10841000FFF7E7FF1C2425FA04F303F00F03043CE5
:10842000F05CFFF7C9FF231DF5D170BD685C020049
:1084300073640200022838B504460D4612D80A4873
:10844000013CFFF7CEFF032C96BF084B3F20185D81
:10845000FFF7B2FF0648FFF7C4FF2846BDE83840E3
:10846000FFF7C8BF38BD00BF9F5802006F6402000D
:10847000A15802004FF0A04303220421C3F80827AB
:10848000C3F80C150821C3F80C27C3F80C150021FC
:10849000C3F810174FF48021C3F84827C3F8081514
:1084A0004FF00071C3F86427C3F80815C3F8142708
:1084B0002022C3F8082570470A4B0222C3F808257A
:1084C0000322C3F80C250422C3F810254FF0004204
:1084D000C3F824250622C3F85425FF22C3F8C0257B
:1084E000704700BF00300040034A53680146013323
:1084F00001205360FFF79EBF00320020F8B5074609
:10850000FFF7B8FE154D0646D5F8184124B10023F3
:10851000C5F81831012020E0FFF7ACFE801BB842FF
:10852000F2DD4FF0A0430E4A01206861C5F8004516
:10853000C3F808250B4B1C60FFF79CFFFFF7BCFF3F
:10854000094AC5F818410723C5F8003513680749DB
:1085500003441360FFF76EFF2046F8BD0030004073
:10856000200000020832002000320020AD58020036
:1085700010B50D4C0020C4F80005FFF77BFFFFF796
:108580009BFF0723C4F80035084B094C1870094BB2
:108590001860094BC3E9000023681BB901200DF0E6
:1085A00009FE206010BD00BF003000400C320020EA
:1085B000FC310020083200200032002038B50C4C7D
:1085C000237813B10B48FFF78FFF0B4D2B6843B196
:1085D0000DF048FA022804D128684FF0FF310DF061
:1085E0005DFF064B0722C3F800250123237038BD29
:1085F0000C320020D8580200FC310020003000402E
:1086000070B50F4D2B7813B90E48FFF76DFF4FF083
:10861000A04300240C4AC3F808250C4B2C700C4DC9
:108620001C602B685BB10DF01DFA022807D1286889
:10863000234622462146BDE870400DF019BD70BDAD
:108640000C320020EC58020020000002083200200A
:10865000FC310020194B2DE9F04793F800800546C6
:108660000C46B8F1000F05D11548FFF73DFF4FF05C
:10867000000820E0E8B1134E4FF000094FF0010A66
:10868000CCB1FF2C274628BFFF2707F13200C6F8E0
:1086900018918000C6F84455C6F84875C6F8389554
:1086A000C6F810A0FFF72AFF0028E0D03D44E41BE5
:1086B000E6E70029DBD14046BDE8F0870C32002018
:1086C00009590200003000402DE9F0471C461D4BBF
:1086D00093F800801646B8F1000F05D11A48FFF74D
:1086E00003FF4FF0000801E018B94EB94046BDE85D
:1086F000F0870029F9D0FFF7ADFF0028F5D1F0E7AA
:10870000002CF3D0114FDFF848904FF0000AFF2CF7
:10871000254628BFFF25012305F13200C7F818A11F
:108720008000C7F84495C7F84855C7F83465C7F8BE
:1087300038553B61FFF7E2FE0028D2D0641B2E447F
:10874000E5D1D3E70C320020275902000030004069
:10875000FC300020192838B5044606D0052804D07E
:10876000BDE838400B48FFF7BFBE0B4D2B684BB13F
:10877000A34207D00948FFF7B7FE4FF0A043084ACD
:10878000C3F8082501234FF0A042A340C2F80C35DE
:108790002C6038BD455902000832002060590200A3
:1087A000200000024FF0A04201238340C2F80835A8
:1087B000034B1A68824204BF00221A60704700BF50
:1087C000083200204FF0A0434FF48022C3F80C255C
:1087D00070474FF0A0434FF48022C3F8082570473C
:1087E00037B50C4615468DF80700FFF7E7FE192050
:1087F000FFF7B0FFFFF7E6FF01210DF10700FFF7DC
:1088000029FF28B1FFF7E5FF29462046FFF722FFA1
:108810001920FFF7C7FFFFF7F3FE03B030BD07B520
:108820008DF80700FFF7CAFE1920FFF793FFFFF747
:10883000C9FF01210DF10700FFF70CFF1920FFF719
:10884000B1FFFFF7DDFE03B05DF804FB08B51020B3
:10885000FFF7E5FFBDE808400520FFF723BD08B599
:108860001120FFF7DCFFBDE808407820FFF71ABDB4
:1088700037B552BAADF8062040BA0422ADF804006C
:108880000D462A200DEB02011C46FFF7A9FF04222A
:108890006DBA64BA0DEB02012B20ADF80450ADF8AF
:1088A0000640FFF79DFF2C2003B0BDE83040FFF7E6
:1088B000B6BF10B50022F8B06B4611460132F02A5F
:1088C0001970597003F10203F8D10024A3B21946BC
:1088D000EF220020FFF7CCFFFFF770FE1920FFF713
:1088E00039FFFFF776FF4FF4F0716846FFF7B2FEED
:1088F00001341920FFF756FFFFF782FEB4F5A07F81
:10890000E4D178B010BD00007FB54FF0A044032340
:108910004FF000724FF08065C4F864370A20C4F845
:108920000825C4F86837C4F80855C4F80C55FFF793
:10893000B9FCC4F808557820FFF7B4FC0120FFF714
:108940006EFF9620FFF7AEFC1120FFF768FF0A20AC
:10895000FFF7A8FC5523012269463A208DF8003024
:10896000FFF73EFF00230122694636208DF80030D4
:10897000FFF736FF4F4B186800901B798DF80430D5
:1089800005226946B220FFF72BFF352301226946F5
:10899000B7208DF80030FFF723FF19230122694625
:1089A000BB2001258DF80030FFF71AFF2C23012290
:1089B0006946C0208DF80030FFF712FF2A4669464D
:1089C000C2208DF80050FFF70BFF12232A4669469C
:1089D000C3208DF80030FFF703FF20232A466946A5
:1089E000C4208DF80030FFF7FBFE0F232A466946AE
:1089F000C6208DF80030FFF7F3FE4AF2A4130222DE
:108A00006946D020ADF80030FFF7EAFE2A4B6C46ED
:108A10006A4603F1080618685968154603C5083305
:108A2000B3422A46F7D118689B882860AB800E2293
:108A30002146E020FFF7D4FE204B224603F1080632
:108A400018685968154603C50833B3422A46F7D15A
:108A500018689B88AB8021460E222860E120FFF732
:108A6000BFFE2120FFF7DBFE0120FFF71BFC1320D8
:108A7000FFF7D5FE0120FFF715FC0025104B0093F2
:108A8000214606223320ADF80450FFF7A9FE02224A
:108A900021463720ADF80050FFF7A2FE2920FFF74E
:108AA000BEFE1420FFF7FEFB04B0BDE87040FFF7E8
:108AB00000BF00BF84640200825902009159020085
:108AC0000000014038B50D460446FFF777FD192038
:108AD000FFF740FEFFF77DFE29462046FFF7BAFD6F
:108AE00004461920FFF75EFEFFF78AFD204638BDD9
:108AF0004FF4B47390FBF3F202FB13001844B0FB85
:108B0000F3F203FB12005A28094B02DC33F9100080
:108B10007047B42802DCC0F1B400F7E7B0F5877FF6
:108B2000D4BFB438C0F5B47033F910004042704778
:108B30008A64020000280BDBC000904200F10703AA
:108B4000D4BF002001208B42B8BF40F00100704725
:108B50000020704770B500F5805400254FF0FF33BA
:108B60000646C4F8005EC4F8043EC4F8085EC4F8C3
:108B70000C5E4FF4F05229461BF0E5FEC4F8005E8F
:108B8000304670BD70B5044608461146002222806A
:108B9000628001222271E3B100F580500B44D0F8CD
:108BA000045E5A1E28460E46FFF7C4FF88B9002D02
:108BB00011DBED00A942B8BF2E460735AA42A8BF77
:108BC0002A46B24205DB761A521A002326806280BA
:108BD0002371204670BDEF25F0E700F5805010B5F9
:108BE000B0F80C3EA3B1B0F8084E8C4212D8234422
:108BF0009BB28B420ED9B0F80A3E93420AD8B0F825
:108C00000E1E581880B2904294BF0020012010BD63
:108C10000120FCE70020FAE7EF29F8B504460D46ED
:108C200016461F461FD8EF2A1DD8FFF7D6FFD0B132
:108C300004F58053D208D3F8041E002901DB9142C9
:108C400011D1F02106F0070601FB0655390A04F898
:108C5000151004EB4504012167709140D3F8002EF4
:108C60000A43C3F8002EF8BD2DE9F04F87B0144633
:108C7000BDF940A001909946BDF844300493A24547
:108C800000F580535246B8BF2246A2450E46D3F89F
:108C9000040E5146A8BF2146FFF74CFF002852D1D1
:108CA0001FFA89F0B2B2871ABBB23FB2002F00930D
:108CB0001FFA8AF1A3B2A1EB0308B8BF121A1FFA78
:108CC00088FBB8BF90B20FFA88F8BCBF009017B20B
:108CD000B8F1000FA2BF5B1A1FFA83FB0FFA83F8EB
:108CE000B145D4BF4FF0FF3301230293A245D4BF57
:108CF0004FF0FF3301230393009B0BEB03052DB2D1
:108D0000B1B2EF2908D8A2B2EF2A05D8049B019886
:108D10000591FFF781FF05994E4501D1544512D0C9
:108D2000AAB253001BB2984504DC5A4415B2029A09
:108D300011440EB29F42E3DB009B1D44039B1C4485
:108D40002DB224B2DCE707B0BDE8F08F89B2EF297D
:108D500007D892B2EF2A04D8036840681B88FFF74F
:108D60005BBF70472DE9F04F1F4600F58053164654
:108D700085B081468846D3F8040E3A44F11BFFF7CC
:108D8000D9FE0546002865D005B0BDE8F08F0EABD2
:108D90001FFA87FA1FFA84FBCDE9023916FA84F428
:108DA00018FA87F31BB222B2A8EB0A04194624B2C0
:108DB00002A801930092FFF7C9FF2146009A02A87A
:108DC000FFF7C4FF019BA6EB0B02194612B202A8E3
:108DD0000092FFF7BBFF2146009A02A8FFF7B6FFFB
:108DE0000BEB08031BB20AEB0602A8EB0B041946B7
:108DF00012B224B202A801930092FFF7A7FF214606
:108E0000009A02A8FFF7A2FF019BA6EB0A021946EF
:108E100012B202A80092FFF799FF009A214602A819
:108E2000FFF794FF002D0BF1010BC8BF0AF1FF3AC9
:108E300005F101030FFA8BF4C8BF0FFA8AF71FFA86
:108E40008BF29BB2C8BFE21B03EB42031DB2A742E9
:108E50009DDA99E704461FFA88F8B6B2F7E710B42E
:108E60004468036824781B8889B20CB9494289B2E6
:108E70001944C3681B7889B292B20BB9524292B2BC
:108E8000EF290CD883681B881A4492B2EF2A06D8BF
:108E900003695DF8044B1B884069FFF7BDBE5DF8B0
:108EA000044B70472DE9F04788B04FF0000A8DF869
:108EB00003300368ADF80610ADF80420B3F9005094
:108EC000064654460DF106070DF103080DF104099D
:108ED000A54202DA08B0BDE8F08710AB05937368CD
:108EE00006932946B3680793224602A8CDE9027883
:108EF000CDF81090FFF7B3FF2A46214602A8FFF7EE
:108F0000AEFFBAF1000F04F10104C8BF05F1FF354F
:108F1000A2B20AF1010324B2C8BF2DB29BB2C8BFEE
:108F2000621B03EB42030FFA83FAD1E72DE9F84FF6
:108F30001D4600F58053164607468846D3F8040EB2
:108F4000BDF92840BDF92CA0BDF830B02A44711BF2
:108F5000FFF7F0FD18B94FF4B479544501D1BDE8DD
:108F6000F88F04F15A00FFF7C3FD684348BFFF3094
:108F700008EB2021EF290FD82046FFF7B9FD684301
:108F800048BFFF30A6EB2020EF2805D882B25B4611
:108F900089B23846FFF740FE013494FBF9F309FB30
:108FA000134424B2D9E72DE9F0471446BDF8202038
:108FB000BDF8248001EB0309B9F1F00F2244A8BFEA
:108FC0004FF0F009F02AA8BFF022EF2907460E461D
:108FD00027D8EF2C25D8551EAAB2E108C5F3CC0539
:108FE00000F580504FF0010C8D4201D31E291AD19B
:108FF000D0F8045E21462846FFF79CFD88B9002D75
:109000001BDBED00AC42B8BF2C46A4B20735AA4228
:1090100009F1FF39A8BF2A461FFA89F995B2AC4277
:109020001CD9BDE8F087D0F8003E0CFA01FE43EAF7
:109030000E03C0F8003E0131D6E7EF25E7E75146C1
:10904000434622463846FFF7E7FD0AF1010A1FFAB8
:109050008AFACA45F3D90134A4B2E0E7B246F8E788
:109060002DE9F04F8BB08046BDF85070BDF854A08C
:10907000894615461C464FB100F58053BA18D3F8FF
:10908000040E013A2946FFF755FD50BBBDF858B014
:10909000BAF1000F28D1012623462A464946404608
:1090A000CDF804B00096FFF77EFF7A1E2A442346CF
:1090B00092B249464046CDE9006BFFF774FF334654
:1090C0002A4649464046CDE9007BFFF76CFF611E0A
:1090D0004944CDE9007B33462A4689B24046FFF732
:1090E00062FF0BB0BDE8F08FA7423E4628BF264680
:1090F0007608564528BF564606EB09039BB20293F5
:1091000073009BB24FF0010A0493E31A0299CDF861
:1091100004B09BB22A464046CDF800A0ADF81A60D4
:109120000593FFF740FFEA1993B25A1E0299039381
:109130004046059BCDE900AB92B2FFF734FF049B9C
:109140002E44FF1AB6B2BFB24C44CDE9007B534661
:10915000324649464046A4B2FFF725FF611ECDE9DD
:10916000007B53463246404689B2FFF71CFF0DF1A3
:109170001A030027079316ABCDE90838BDF908108C
:1091800000973B4632B207A8FFF78CFEBDF81A10D5
:1091900000974A19611A0139534607A812B209B259
:1091A000FFF780FEBDF81A10039BCDF800A05A1AF5
:1091B000013A49443B4607A812B209B2FFF772FED2
:1091C000BDF81A30039ACDF800A0E41AD21A611E35
:1091D000013A534612B209B207A8FFF763FE80E7CF
:1091E0002DE9F04F85B080460D461E460146BDF87C
:1091F000383002A89146FFF7C5FC9DF80C30B3BB90
:1092000006EB050ABDF808401FFA8AFABDF80A30D5
:10921000A3422CD30F9B04EB090204FB063B294617
:1092200097B21FE01BF8010B019100F003034FEA16
:10923000501E4FEA901CC0F3820000EBC0004CEAC5
:109240008E0C400140EACC2003EB830C5B0843EA20
:109250004C0303439BB23A464046FFF7DDFC0199BD
:10926000013189B25145DDD10134A4B2CEE705B058
:10927000BDE8F08F2DE9F04F87B09846BDF8483033
:1092800001938146BDF84030BDF84CB00D46014613
:1092900004A81746FFF776FC9DF8143053BB08EB83
:1092A000050ABDF810401FFA8AFABDF81230A34231
:1092B00020D3E21908FB04F6294692B215E0119872
:1092C000F308CDE90212C35CF04300F0070003414C
:1092D00013F0010F4846019B08BF5B46FFF79CFC5B
:1092E0000299039A013189B201365145E7D101341F
:1092F000A4B2DAE707B0BDE8F08F00F58050C0F8FF
:10930000041E704700F58050A0F80C3EBDF80030F8
:10931000A0F8081EA0F80A2EA0F80E3E704700F52F
:1093200080500023C0F80C3E704710B500230C0A93
:10933000421CC9B200F8134002F813100133B3F510
:10934000F06FF7D100F58050D0F8043E1D2B07D800
:1093500001229A40D0F8003E23EA0203C0F8003E02
:1093600010BD10B50446FFF7E0FF04F58050D0F8BB
:10937000043E002B09DB1D2B06D801229A40D0F8B1
:10938000003E1343C0F8003E10BD6FF04043F9E7C4
:1093900070B500F580540646D4F8041E00291ADB87
:1093A0001D2918D8D4F8003E01258D401D4212D049
:1093B000C90089B2CB1D9BB2EF220020FFF758FAFB
:1093C0004FF470613046FFF77DFBD4F8003E18B9CA
:1093D0002B43C4F8003E70BD23EA0503F9E7000003
:1093E0000D4A4FF08023C2E900330C4BC3F820250F
:1093F0000422C3F8242501210022C3F82825C3F83C
:109400002C2599605960C3F800254FF0A043044A09
:10941000C3F80825704700BF1032002000C001408B
:109420000040C0004FF0A04303224FF48041C3F836
:109430003827C3F808154FF48001C3F85827C3F83C
:109440000815C3F85C274FF40002C3F80825114B38
:1094500000220E21C3F80025C3F860151621C3F8B9
:1094600064151721C3F868154FF00041C3F86C1557
:10947000FF21C3F80425C3F80C25C3F80815022101
:10948000C3F81015C3F814250122C3F80025FFF70F
:10949000A7BF00BF00C0014010B418B95DF8044B6D
:1094A000FFF79EBF104C1149642828BF6420C0EB11
:1094B00000236422B3FBF2F30D4A23439BB2012045
:1094C000C2F800050B804B808B800423CC80C2F84F
:1094D0002015C2F824350023C2F828355DF8044B66
:1094E000C2F82C35906070470080FFFF10320020DA
:1094F00000C00140FFF774BF1920FFF7CDBF3C202B
:10950000FFF7CABF6420FFF7C7BF4FF04023002218
:10951000C3F80421C3F82421C3F86021C3F85C21F7
:10952000C3F848217047F8B506460D46FEF7A2FE7F
:109530004FF040240746D4F8043123B10023C4F887
:1095400004310120F8BDD4F8242122B3C4F8243119
:10955000D4F8C434C4F8C4349A071AD413F0040FEE
:1095600014BF032304234FF040242B700023C4F8BE
:10957000043101236361FEF77DFE0546D4F8043112
:109580002BB9FEF777FE401BB0F57A7FF6DD0020A1
:10959000D8E70223E7E7FEF76DFEC31BB342CADD3F
:1095A00001232B706361F2E74FF0402370B5002276
:1095B0004FF0A044C3F8002540F20D63C4F81C37F7
:1095C0008026C4F818374023C4F808650520C4F87D
:1095D0000835FEF757FE0925D4F810355B060BD485
:1095E0000520C4F80C65FEF74DFEC4F8086505209B
:1095F000FEF748FE013DEFD14FF0A0444025052085
:10960000C4F80C55FEF73EFE8023C4F8083505204B
:10961000FEF738FEC4F808550520FEF733FE4FF478
:10962000C063C4F81C37C4F818374FF04023072232
:10963000C3F808250622C3F80C25C3F8002570BD21
:109640004FF040230022C3F8002570474FF040231D
:109650000622C3F80025704708B54FF040214FF0AF
:10966000A04200234FF4C060C1F80035C2F81C07C7
:10967000C2F818070722C1F8082506204FF0C86273
:10968000C1F80C05C1F82425C1F80032FFF73DFFF1
:10969000C1F8000508BD0000F7B506461546184696
:1096A00052B34FF040240623C4F80035FFF72DFFD6
:1096B0004FF40073C4F88865C4F84415C4F84855DD
:1096C000C4F800320123A36000250DF107018DF8D5
:1096D0000750FFF728FF094F064640B9FFF764FF20
:1096E0009DF80700C4F80065387003B0F0BDC4F8F9
:1096F0000052C4F800553D700020F6E718320020F3
:10970000F7B506461546184652B34FF040240623D7
:10971000C4F80035FFF7F9FE4FF48053C4F88865AC
:10972000C4F83415C4F83855C4F800320123236056
:1097300000250DF107018DF80750FFF7F4FE094FE2
:10974000064640B9FFF730FF9DF80700C4F80065F2
:10975000387003B0F0BDC4F80052C4F800553D7035
:109760000020F6E7183200202DE9F3471D46DDE919
:109770000A8716463AB93B464246294602B0BDE83A
:10978000F047FFF7BDBFB8F1000F05D13B4602B06F
:10979000BDE8F047FFF780BF4FF040240623C4F830
:1097A0000035FFF7B2FE4FF48453C4F88805C4F8BF
:1097B0004415C4F84865C4F83455C4F83885C4F86D
:1097C00000320123A360384600250DF107018DF812
:1097D0000750FFF7A8FE0A4F064648B9FFF7E4FE18
:1097E0009DF80700C4F80065387002B0BDE8F08746
:1097F000C4F800522846C4F800553D70F5E700BF94
:10980000183200201A4BD3F87C2142B30022C3F84F
:109810007C214FF0A043D3F81035DB0006D4154B64
:1098200001221A70144A1368013313604FF0A042EA
:109830004FF08050D2F8103513F0805FD2F87037B7
:1098400018BF4FF4403123F4403308BF4FF40031C8
:10985000C2F870370B43C2F82005C2F87037044BCA
:10986000D3F8002112B10022C3F80021704700BFD5
:109870000060004024320020203200202DE9F04119
:109880003A4B002486B01C70394B1C60394B1C606D
:10989000394B4FF0A0471C704FF480650323C7F885
:1098A00028370A20C7F80C55FEF7FCFC4FF4FA667F
:1098B0004FF00108C7F8085532201525FEF7F2FCD5
:1098C0000DF10A0342460DF10B01CDE90086284651
:1098D0008DF80A408DF80B50FFF746FF0520FEF784
:1098E000E1FCA72342460DF10B018DF80B30CDE9C9
:1098F00000860DF10A032846FFF736FF0520FEF724
:10990000D1FC40F2EC53ADF80C3003A933460222EF
:109910002846FFF7C1FE47F2FA03ADF8103004A95C
:10992000334602222846FFF7B7FEFB23ADF814307A
:109930000222334605A92846FFF7AEFE0F4BC7F8B3
:1099400070370F4B4FF00042C3F81045C3F87C410D
:10995000C3F804234FF0E0234022C3F88022C3F869
:10996000002162B606B0BDE8F08100BF24320020BD
:10997000203200201C320020193200200C0003008D
:1099800000600040014B1878704700BF243200206F
:10999000014B1868704700BF20320020014B186847
:1099A000704700BF1C32002030B5264A11780023D2
:1099B00085B004460360436001B113700293ADF8B3
:1099C0000C3040F6B8320623CDE900321E4902AB16
:1099D00001221520FFF7C8FE1C4B187030B11C4A3D
:1099E000136801331360204605B030BD9DF80A208E
:1099F0009DF80B009DF809309DF80D109DF808505A
:109A0000120202F4706210439DF80C206080120272
:109A100002F4706203F00F030A43EF286370A28020
:109A2000E1DCEF2ADFDC052D03D9A5F10B02012AC9
:109A3000D9D8003B18BF0123A37101232570E3711E
:109A4000D1E700BF24320020480000201932002056
:109A50001C3200204378F7B5044623B903B0BDE8B3
:109A6000F040FEF73ABC1A4F3D683DB9FEF735FCB1
:109A7000184B00229A809A7103B0F0BD40880026EE
:109A80004FF47A720023800231461AF01FFC01283D
:109A90000246009638BF01222846334604210DF0C5
:109AA0002FF801280546E1D13F680BF001FD009633
:109AB00002463346294638460DF022F80128D5D112
:109AC0002378002BCAD003B0BDE8F040FEF7FEBB00
:109AD000283200202C32002007B513498A7902B3BE
:109AE000487980B100234B710A8801210B4601A8F7
:109AF0008DF804308DF80510ADF80620FFF7AAFFA9
:109B000003B05DF804FB0B793BB1013B0B71012302
:109B10004B714A8819460346E9E78B711A46194684
:109B2000E5E711461346E2E72C320020114B0429E9
:109B30001BD8DFE801F003080D1116001A68026057
:109B40009B8883807047D3F8063003600A4BF7E7A1
:109B5000DB680360094BF3E7D3F812300360084B6E
:109B6000EEE79B690360074BEAE7D3F81E3003601A
:109B7000054BE5E740650200466502004C650200C2
:109B800052650200586502005E6502004FF0A04376
:109B900013B50322084CC3F84027FEF79EFB236849
:109BA0003BB9064A009206481A4601210CF07CFF98
:109BB000206002B010BD00BF28320020D99A0000FA
:109BC000A059020007B5084A002393809371074A01
:109BD000106820B100931A4603210CF091FF03B0E6
:109BE0005DF804EBFEF779BB2C3200202832002010
:109BF0001FB5014602A8FFF799FFFFF7E3FFBDF885
:109C00000830134913B19DF80A207AB900238B80DC
:109C10008B711A4601A88DF804208DF80520ADF847
:109C20000630FFF717FF05B05DF804FB013A12F0AC
:109C3000FF02BDF80C000B8002D0002808BF0022F4
:109C40000A7100224A71012248808A71E2E700BF4E
:109C50002C32002008B5FEF747FB044A002313709E
:109C6000034A1370034A137008BD00BF403200203E
:109C7000343200203532002037B504250024FEF7A9
:109C800055FB013D0444FAD1FEF7F4FA414B1A7832
:109C9000042A0AD8DFE802F0031A2C4D6D00022CCA
:109CA00005D901221A703C4B1860002334E03B4A6E
:109CB0001378002BF9D0384B39491B68C31A8B42F3
:109CC000F3DD0023137040F2011325E0022C02D8CB
:109CD00000221A70E9E7304A126844F62061801ABF
:109CE0008842E2DD022119702E4B1A602E4BEFE7FD
:109CF000022C01D80322D5E72B490A78002AD4D1B7
:109D0000284B1B68C31A29488342CEDD01230B7000
:109D1000224B1A704FF48173ADF804309DF8043073
:109D2000002063F307009DF8053063F30F2003B0B4
:109D300030BD022C01D90222CBE7174C226844F631
:109D40002061821A8A42B0DD174A1178134A19B18C
:109D5000002119701170A8E7157825B119701170DC
:109D600040F20313D8E70121117004221A70206019
:109D70009BE7022C084A03D901211970106094E76F
:109D80001268801A064A90428FDD00221A70034B37
:109D90001A7098E7403200203C3200203432002014
:109DA00030570500383200203532002020A107004E
:109DB000F0B51AB315461C464FF0000C634505D1AB
:109DC000A3421BD90C235C43105BF0BDEF888FB11D
:109DD0002E897EB1B5F802E070450BD37744BFB24F
:109DE000B84207D2AF88B94204D33E44B6B2B142BA
:109DF00038BF64460CF1010C0C35DFE74FF6FF70FD
:109E0000E3E70000044A00231360044A1360044B94
:109E100001221A70704700BF4832002044320020EF
:109E200049000020024B1860024B1960704700BFC8
:109E3000483200204432002037B53E4A13680360A0
:109E400053684360936883600446FFF715FF10F47E
:109E50007F4FADF8000008D09DF800302BB10422F0
:109E60002270E371204603B030BDFFF78BFD002860
:109E7000F8D06846FFF798FD9DF80730002BF1D029
:109E80009DF80030002B37D02B48027842B10C2BC4
:109E900018BF042B94BF0121002181F00101017042
:109EA0009DF8061011B9244901200870002AD9D064
:109EB000BDF80200BDF8041060805A1EA1800B2A74
:109EC000D0D801A555F822F01F9F00001F9F000069
:109ED0001F9F00001F9F0000FD9E0000659E000068
:109EE000659E0000659E0000659E0000659E000066
:109EF000039F00001B9F00001A46D1E70123237037
:109F000003E0052323700223A3720C4B0C4A1B6849
:109F10001268FFF74DFF2081A4E70223EFE7023B21
:109F2000DBB20322022B227096BF064A0123D35CC8
:109F3000A37197E7686502004900002044320020C1
:109F400048320020646502001FB5044601A880E87D
:109F50000E0007C884E80B00069BE360079B2361A3
:109F60000023C4E905334FF6FF73A38304B010BD8B
:109F7000C0E905127047034610B41C680846114634
:109F800064B158B152B11A691AB1127E023A022A6A
:109F900004D89A6823465DF8044B18475DF8044BD3
:109FA000704703464069F0B560B1D3F818C0002788
:109FB00003466646BC4506D1B44586BF0C2303FB69
:109FC00006000020F0BDDD888DB11C897CB1B3F89E
:109FD00002E071450BD37544ADB2A94207D29D880A
:109FE000AA4204D32C44A4B2A24238BF3E46013751
:109FF0000C33DFE7022804D0C31E5842584140000A
:10A000007047012070477FB50B78013B04460D4631
:10A01000042B15D8DFE803F064642003970003697C
:10A02000CA797BB15B7F6BB1012A0BD106236946EC
:10A030008DF80030FFF79FFF2069002102F0B0FC8F
:10A0400004B070BD1046FFF7D5FF04238DF8003033
:10A050008DF80100022231E08B794A88042B28BF59
:10A0600001230F2A12D8032B10D140F20921ADF899
:10A0700000108DF80320694604228DF80230FFF7A6
:10A080007AFF20690028DBD00021D7E7E06808B319
:10A0900000F500525168E9B1B2F894119BB918313A
:10A0A00089B201F0FDFDE36803F500530522B3F822
:10A0B0009431ADF80020ADF8023004226946204604
:10A0C000FFF759FFBCE7012B04D1182938BF18212D
:10A0D0001839E5E703228DF800208DF80130B9E743
:10A0E0008A884988FFF75DFFD8B1837ADE06A7D456
:10A0F0001907068848BFA6835A0704D5636813B1B9
:10A10000A168002098472A78022AF3B24FEA16265F
:10A110000AD18DF800208DF801308DF802600322FD
:10A12000CCE74FF6FF76EEE72A79A9788DF8042080
:10A1300001208DF800008DF801308DF802608DF857
:10A1400003100522BAE78A884988FFF72AFF0346E9
:10A15000D0B1827A12F0100016D11E88530703D5B1
:10A1600063680BB1A1689847AA78A97A2B798DF812
:10A17000042008208DF800008DF80110ADF8026071
:10A180008DF80530062299E74FF6FF76ECE7037B62
:10A1900010B54BB9D0E90142A24298BFA31A994227
:10A1A0004FF0010302D90373002010BD1846FCE7ED
:10A1B00010B501210446FFF7EAFF20B1A368226829
:10A1C000591CA160D05C10BD037B70B504460E46DF
:10A1D000154623BB1AB3FFF7EBFF0346207BF8B904
:10A1E0009BB902212046FFF7D2FF034648B1A2687F
:10A1F0002068511CA160835C0232A260425C43EA89
:10A200000223207B60B92B800AE0013BDBB20F2BDD
:10A2100003D8F21892F820201AB9022323730220DF
:10A2200070BD36F81330EEE738B5037B05460C46B3
:10A230004BB941B1FFF7BCFF0346287B20B93F2B48
:10A2400003D902232B73022038BD03F00302032A33
:10A25000F7D0C3F38703012B38BF0123227063704B
:10A26000F2E710B5EF2904469DF808000DD82488C0
:10A27000A2420ADA4BB138B11944F02905DC104486
:10A280008442B4BF0020012010BD0020FCE700295B
:10A290000CBF002000F00100704710B502210446F9
:10A2A000FFF775FF48B1A36821685A1CA260C85C1B
:10A2B0000233A3608B5C40EA032010BD38B504462E
:10A2C0000D46FFF764FF20B1A368206818442B44B3
:10A2D000A36038BD2DE9F04FA1B00F46164600210E
:10A2E00014222A9C05469B461AF02DFB37B94EB125
:10A2F00002232B70284621B0BDE8F08FDBF8043034
:10A30000B342F5D3CDE9107600263022314614A8A9
:10A3100012968DF84C601AF016FBF023ADF83A3027
:10A320000A9609969DF84C30002B76D1DDE9117321
:10A33000BB4272D20A9A22B96E68DBF800209642BC
:10A3400003D302222A70AB60D4E710A8FFF730FFD6
:10A350009DF84C308046002B5FD100F12003DBB22A
:10A3600001360F2B6E6000F2978010A8FFF795FF63
:10A370009DF84C300646002B4FD1014610A8FFF740
:10A3800006FF002849D0129BBB428CBF0A9FFF1AD0
:10A39000B8F1E00F64D110A8FFF70AFF804610A8BB
:10A3A000FFF706FF814610A8FFF702FF9DF84C302B
:10A3B0000B9093BB0DF13E0214A910A8ADF83E30EE
:10A3C000FFF702FF48BB10A8FFF7F2FE824610A875
:10A3D000FFF7EEFE0C9010A8FFF7EAFE9DF84C3058
:10A3E0000D90D3B9B8F1010F1ED8B9F1EF0F1BD8FA
:10A3F000BDF83A300B9A9A4216DABAF1020F13D826
:10A400000C9B013BDBB20F2B0ED8014610A8FFF7C7
:10A4100055FF9DF84C2003465AB12B78002B40F095
:10A42000BA809DF84C3026E002238DF84C302B701A
:10A43000F3E79BF808002146FFF729FF80B1226867
:10A4400004930D9B03930C9BCDE901A3BDF83E3013
:10A450000093D2F82CA00B9B4A4641462046D04799
:10A46000DDE91138984594BFA3EB08030023FA1ADD
:10A47000964202D202232B708DE0F61B1E44314619
:10A4800010A8FFF784FE08B1464412969DF84C30A0
:10A49000002B3FF447AFC0E7312839D8002844D01B
:10A4A00000F1FF38B8F1300F3FD8DFE818F05A005C
:10A4B0007600A100F0004A019901E30139028E0201
:10A4C000C0023E003E003E003E003E00D0022B0394
:10A4D0009C03E1033E003E003E003E003E003E0085
:10A4E0003E003E003E003E003E003E001704720467
:10A4F0003E003E003E003E003E003E003E003E006C
:10A500003E003E003E003E003E003E00CD041D05E4
:10A51000602800F0C3850DD8502800F032855128FE
:10A5200000F08E85402800F0F78402238DF84C302F
:10A530002B702CE0F02800F0E085F12800F009866F
:10A540006128F2D110A8FFF733FE9DF84C20034696
:10A55000EAB9642840F2C28502238DF84C302B7092
:10A5600015E000230DF13E0214A910A8ADF83E300D
:10A57000FFF72AFE58B99BF808002146FFF787FE2F
:10A5800028B12368BDF83E101B68204698472B78F9
:10A59000022B7FF47BAF129BD5E610A8FFF708FED5
:10A5A000064610A8FFF779FE9DF84C300246002BB6
:10A5B000EDD10F2E04D902238DF84C302B70E6E735
:10A5C00020AB03EB4603012123F8300C06F1800396
:10A5D0006B449BF8080003F8101C2146FFF757FE58
:10A5E0000028D4D0236831465B6820469847CEE7E0
:10A5F00010A8FFF7DDFD064610A8FFF7D9FD0746B6
:10A6000010A8FFF7D5FD804610A8FFF7D1FD9DF8F3
:10A610004CA08146BAF1000FB9D1009043463A46AA
:10A6200031460DF13A00FFF71CFE20B902238DF8E8
:10A630004C302B70ABE74FF480730DF13E0214A940
:10A6400010A8ADF83EA0ADF83C30FFF7BDFD0028E6
:10A650009DD10FA910A8FFF7E7FD002897D19BF81F
:10A6600008002146FFF713FE002890D0BDF83C20DB
:10A670002368ADF80820BDF83E20CDE900923146B0
:10A68000D3F808903A4643462046C8477FE710A8CB
:10A69000FFF78EFD064610A8FFF78AFD074610A8B3
:10A6A000FFF786FD804610A8FFF782FD814610A8BF
:10A6B000FFF77EFD9DF84CA00B90BAF1000F7FF4E0
:10A6C00066AFCDF8009043463A4631460DF13A0068
:10A6D000FFF7C7FD20B902238DF84C302B7056E7E9
:10A6E0004FF480730DF13E0214A910A8ADF83EA0FE
:10A6F000ADF83C30FFF768FD00287FF448AF0FA9A4
:10A7000010A8FFF791FD00287FF441AF9BF80800E7
:10A710002146FFF7BCFD00283FF439AFBDF83C20CF
:10A720002368ADF80C20BDF83E2002920B9ACDE9CB
:10A7300000923146D3F80C903A4643462046C8472B
:10A7400025E710A8FFF734FD064610A8FFF730FDF7
:10A75000074610A8FFF72CFD804610A8FFF728FD3C
:10A760009DF84C308146002B7FF411AFEF2E32D88C
:10A77000BDF83A2097422EDAB8F1EF0F2BD890426D
:10A7800029DA0DF13E0214A910A8ADF83E30FFF70A
:10A790001BFD00287FF4FBAE10A8FFF709FD9DF814
:10A7A0004C200346002A7FF4F2AE9BF808002146B5
:10A7B000FFF76DFD00283FF4EAAE22680293BDF872
:10A7C0003E30CDE900933146D2F8109043463A46E8
:10A7D0002046C847DBE602238DF84C302B70D6E6C6
:10A7E00010A8FFF7E5FC064610A8FFF7E1FC0746B6
:10A7F00010A8FFF7DDFC9DF84C308046002B7FF45D
:10A80000C6AEEF2E31D8BDF83A20BA422DD9ADF8F8
:10A810003E300DF13E024FF4807314A910A8ADF83C
:10A820003C30FFF7D1FC00287FF4B1AE0FA910A88F
:10A83000FFF7FAFC00287FF4AAAE9BF80800214637
:10A84000FFF725FD00283FF4A2AEBDF83C202368A9
:10A85000ADF80420BDF83E200092D3F814903A469B
:10A86000434631462046C84791E602238DF84C30D6
:10A870002B708CE610A8FFF79BFC064610A8FFF78C
:10A8800097FC074610A8FFF793FC824610A8FFF735
:10A8900004FD804610A8FFF700FD9DF84C3081466E
:10A8A000002B7FF474AEEF2E35D8BDF83A20BA42B3
:10A8B00031D9B8F5B47F2ED2B0F5B47F2BD20DF1DB
:10A8C0003E0214A910A8ADF83E30FFF77DFC002829
:10A8D0007FF45DAE10A8FFF76BFC9DF84C2003469B
:10A8E000002A7FF454AE9BF808002146FFF7CFFC06
:10A8F00000283FF44CAE22680393BDF83E30CDF8FB
:10A900000080CDE901933146D2F8188053463A468B
:10A910002046C0473BE602238DF84C302B7036E6CC
:10A9200010A8FFF745FC9DF84C300646002B7FF43D
:10A930002EAE012804D802238DF84C302B7026E669
:10A940000DF13E0214A910A8ADF83E30FFF73CFC13
:10A9500000287FF41CAE10A8FFF72AFC9DF84C30AD
:10A960000746002B7FF413AE710010A8FFF7A6FC7A
:10A970009DF84C200346002A7FF409AEBDF83A004A
:10A9800003F1010C13F81210EF29D4D81CF812109F
:10A990008142D0DA0132D1B28E42F3D82A78022A2B
:10A9A0003FF4F5AD9BF808002146FFF770FC002846
:10A9B0003FF4EDAD22680093D2F81C80BDF83E2034
:10A9C0003B4631462046C047E1E510A8FFF7F0FBC3
:10A9D000064610A8FFF7ECFB804610A8FFF7E8FB3F
:10A9E000814610A8FFF7E4FB9DF84C300746002B8A
:10A9F0007FF4CDAD00904B46424631460DF13A0012
:10AA0000FFF72FFC20B902238DF84C302B70BEE5E8
:10AA10009BF808002146FFF73AFC00283FF4B7AD49
:10AA2000216800970F6A20463146B847AFE5F0230A
:10AA30009BF80800ADF83A302146FFF728FC0028C3
:10AA40003FF4A5AD236820465B6A98479FE510A8B0
:10AA5000FFF7AEFB064610A8FFF7AAFB074610A8B3
:10AA6000FFF7A6FB9DF84C308046002B7FF48FAD9E
:10AA7000012E42D8EF2F40D8BDF83A2090423CDA60
:10AA80000DF13E0214A910A8ADF83E30FFF79CFB73
:10AA900000287FF47CAD10A8FFF78AFB814610A840
:10AAA000FFF786FB9DF84C308246002B7FF46FAD9C
:10AAB000B9F1020F21D8014610A8FFF7FFFB9DF85E
:10AAC0004C200346002A7FF462AD9BF80800214623
:10AAD000FFF7DDFB00283FF45AAD2268CDF8049063
:10AAE000CDE902A3BDF83E300093D2F8289043464A
:10AAF0003A4631462046C84749E502238DF84C3096
:10AB00002B7044E510A8FFF753FB064610A8FFF78B
:10AB10004FFB0B9010A8FFF74BFB0C9010A8FFF712
:10AB200047FB0D9010A8FFF743FB9DF84C800746AC
:10AB3000B8F1000F7FF42BAD012E4FD80090DDE966
:10AB40000C230B990DF13A00FFF78BFB002845D041
:10AB50000DF13E0214A910A8ADF83E80FFF734FBBA
:10AB600000287FF414AD10A8FFF722FB804610A840
:10AB7000FFF71EFB814610A8FFF71AFB9DF84C302B
:10AB80008246002B7FF403ADB8F1020F26D8B9F14D
:10AB9000070F23D8014610A8FFF790FB9DF84C2023
:10ABA0000346002A7FF4F3AC9BF808002146FFF728
:10ABB0006EFB00283FF4EBAC2268CDE905A3BDF89D
:10ABC0003E30CDE90389CDE901730D9B0093176BEE
:10ABD0003146DDE90B232046B847D8E402238DF83F
:10ABE0004C302B70D3E410A8FFF7E2FA064610A809
:10ABF000FFF753FB074610A8FFF7DAFA804610A8C4
:10AC0000FFF7D6FA9DF84C308146002B7FF4BFAC9D
:10AC10004EBB022F27D8B8F1EF0F24D8BDF83A3039
:10AC2000834220D90DF13E0214A910A8ADF83E6070
:10AC3000FFF7CAFA064600287FF4A9AC9BF8080083
:10AC40002146FFF724FB00283FF4A1ACBDF83E20CD
:10AC50002368CDE900923146D3F834903A46434612
:10AC60002046C84793E402238DF84C302B708EE4C5
:10AC700010A8FFF79DFA804610A8FFF70EFB0646C6
:10AC800010A8FFF795FA074610A8FFF791FA9DF86C
:10AC90004C200346002A7FF47AACB8F1000F18D19B
:10ACA000BEB9EF2F15D8BDF83A20904211DA9BF8C3
:10ACB00008002146FFF7EBFA00283FF468AC226851
:10ACC0000093D2F838803B46324631462046C04792
:10ACD0005DE402238DF84C302B7058E410A8FFF788
:10ACE00067FA0B9010A8FFF763FA074610A8FFF762
:10ACF0005FFA804610A8FFF75BFA814610A8FFF7BD
:10AD000057FA9DF84C608246002E7FF440AC0B99B8
:10AD1000CDF8009043463A460DF13A00FFF7A1FA0C
:10AD200088B3BAF1640F2ED80FAA14A910A8ADF8F1
:10AD30003C60ADF83E60FFF747FA00287FF427AC8F
:10AD40000DF13E0214A910A8FFF73EFA00287FF487
:10AD50001EAC9BF808002146FFF799FA00283FF443
:10AD600016ACBDF83E2023680392BDF83C20CDF818
:10AD70000090CDE901A20B99D3F83C903A464346A6
:10AD80002046C84703E402238DF84C302B70FFF7B0
:10AD9000FEBB10A8FFF70CFA064610A8FFF708FA4A
:10ADA000074610A8FFF704FA814610A8FFF700FA3B
:10ADB0009DF84C308046002B7FF4E9ABEF2E3DD858
:10ADC000BDF83A20974239DA642837D80FAA14A977
:10ADD00010A8ADF83C30ADF83E30FFF7F5F900288B
:10ADE0007FF4D5AB0DF13E0214A910A8FFF7ECF9E2
:10ADF00000287FF4CCAB10A8FFF7DAF99DF84C20BF
:10AE00000346002A7FF4C3AB9BF808002146FFF7F6
:10AE10003EFA00283FF4BBAB22680393BDF83E30F6
:10AE20000293BDF83C30CDE900833146D2F8408032
:10AE30004B463A462046C047FFF7A9BB02238DF890
:10AE40004C302B70FFF7A3BB10A8FFF726FA0B902E
:10AE500010A8FFF7ADF9064610A8FFF7A9F90746B5
:10AE600010A8FFF7A5F9804610A8FFF7A1F98146C1
:10AE700010A8FFF79DF99DF84C308246002B7FF417
:10AE800086ABCDF8009043463A4631460DF13A0084
:10AE9000FFF7E7F958B1BAF11F0F08D8099B072B44
:10AEA0000BD902238DF84C302B70FFF770BB0223B7
:10AEB0008DF84C302B70FFF76ABB9BF808002146D9
:10AEC000FFF7E5F958B12368CDF80080CDE9019A84
:10AED0000B99D3F8448032463B462046C047099B35
:10AEE00001330993FFF753BB099B2BB902238DF85C
:10AEF0004C302B70FFF74BBB9BF808002146FFF747
:10AF0000C6F920B9099B013B0993FFF740BB2368B1
:10AF100020469B6C9847F5E710A8FFF749F90646CD
:10AF200010A8FFF745F9074610A8FFF7B6F99DF8F6
:10AF30004C200346002A7FF42AABEF2E18D8BFB16D
:10AF4000F219F02A14DCBDF83A20824216D39BF89D
:10AF500008002146FFF79BF900283FF418AB226850
:10AF60003146D2F84C8020463A46C047FFF70FBB27
:10AF700002238DF84C302B70FFF709BBADF83A0077
:10AF8000E5E710A8FFF714F90D9010A8FFF710F9E6
:10AF90000B9010A8FFF70CF90C9010A8FFF708F918
:10AFA000074610A8FFF704F9804610A8FFF700F93C
:10AFB000814610A8FFF7FCF8824610A8FFF76DF94C
:10AFC0009DF84C300646002B7FF4E1AADDE90B1218
:10AFD000CDF800803B460DF13A00FFF742F948B347
:10AFE000B9F1030F26D8BAF1010F23D8B6F5805F67
:10AFF00020D8314610A8FFF761F99DF84C20034690
:10B00000002A7FF4C4AA9BF808002146FFF73FF905
:10B0100000283FF4BCAA22680D99CDE90463CDE96C
:10B02000029ACDE900782046166DDDE90B23B04782
:10B03000FFF7ADBA02238DF84C302B70FFF7A7BA9B
:10B0400010A8FFF7B5F8074610A8FFF7B1F80646B5
:10B0500010A8FFF7ADF89DF84C200346002A7FF4B6
:10B0600096AAEF2E14D8BDF83A20904210DA9BF839
:10B0700008002146FFF70BF900283FF488AA226850
:10B080003946D2F8548020463246C047FFF77FBA8F
:10B0900002238DF84C302B70FFF779BA10A8FFF718
:10B0A00087F89DF84C200346002A7FF470AA0428F4
:10B0B00005D902238DF84C302B70FFF768BA9BF846
:10B0C00008002146FFF7E3F800283FF460AA226851
:10B0D0001946926D20469047FFF759BA9BF8080031
:10B0E0002146FFF7D4F800283FF451AA22681946F8
:10B0F000D26D20469047FFF74ABA10A8FFF758F8DC
:10B100009DF84C200346002A7FF441AA032805D964
:10B1100002238DF84C302B70FFF739BA099A2AB107
:10B1200002238DF84C302B70FFF731BA012268737F
:10B1300021469BF808002A73FFF7A9F818B90123E4
:10B140000A93FFF724BA22681946126E20469047E8
:10B15000F5E710A8FFF7A1F89DF84C200346002A58
:10B160007FF415AA0122E88121469BF808002A7481
:10B17000FFF78DF800283FF40AAA22681946526E9C
:10B1800020469047FFF703BA7047704770477047F3
:10B190007047704770477047704770477047F0B40A
:10B1A000089CBDF810509DF814609DF81C70D0F8F4
:10B1B00000C0CDE90674CDE90456DCF82840A44669
:10B1C000F0BC6047704770477047704770477047E2
:10B1D00070477047704770477047704770477047B7
:10B1E00030B5046D072C12D8651C056590F86650C3
:10B1F00000EBC400C3749DF80C3003759DF810304B
:10B2000043759DF81430018282748375C57530BD15
:10B21000026D2DE9F3410346002A49D0511E013247
:10B2200000EBC202016592E8030002AA02E90300F2
:10B230009DF80670BA073BD45E68CEB39D68BDB377
:10B240002C68DA68944233D29DF807109DF80320E9
:10B250009DF805C0C1B193F867105018B3F8642089
:10B2600093F86830801A81420A460B44B8BF024600
:10B2700060448342A8BF03469342D4BF0A4619469E
:10B28000D2B2891A5FFA81FC0C21614373189DF8D0
:10B2900002E09DF80400BDF8008026F8018001342A
:10B2A000A3F802E09A80D880A3F808C09F722C60AF
:10B2B00002B0BDE8F08110B5446D04B12170846D19
:10B2C00004B12270C46D04B12380046E012304B163
:10B2D000237080F8663080F8671080F8682010BD11
:10B2E000002380F866307047704770470846FEF7C5
:10B2F000D3B80846FEF77CBC10B504464068FEF79C
:10B300000EF80023237410BD2DE9F04F01398FB0E2
:10B31000D1F1000A4AEB010A05934A49BDF86030B1
:10B3200006930C2303FB0A119DF87050CB78049010
:10B330009DF868006B43144602939DF86420D8B1D1
:10B34000029E4978431E13FB06F301FB05339BB2B3
:10B35000012A13D1B4EB530F4FEA530214D9A31AA5
:10B360009CB21B9FDFF8DCB03B180A930A9B9F42FC
:10B370000CD10FB0BDE8F08F0346E9E7022AF0D107
:10B38000A34201D2E31AEBE70024EAE70C2101FB18
:10B390000AF10791594417F8013B0879059A8E780C
:10B3A000834204D391F805C08444634511DB0C2328
:10B3B00003FB0AB3069A5B7801926E43059A0498E0
:10B3C00000966B432146FDF7EEFD029B1C44A4B2A0
:10B3D000CCE71B1A89680891734309934FF0000862
:10B3E0001FFA88F39E42F0D9079B5B4421465B78A5
:10B3F0000393013B4FF000090B9319E0DDE908309E
:10B4000003440B9813F80830A0EB0900C340DB0796
:10B410000AD5069B0498CDE900532B46CDE90C12C2
:10B42000FDF7C1FDDDE90C12294409F1010989B2DA
:10B4300003981FFA89F39842E0D82A4408F10108DA
:10B4400092B2CDE7C466020007B50123C172027350
:10B450000374009240680A46F0230021FDF752FF72
:10B4600003B05DF804FB0123018183724068FDF79E
:10B4700078BF28B119448B1A04D4EF2B04DCDBB25B
:10B48000184670470023FBE7EF23F9E770B54668DD
:10B4900086B00C461546C17AC289007CFFF7E9FFE9
:10B4A000012204920D9A03929DF8302002929DF899
:10B4B0002C200192BDF82820009203462A462146FE
:10B4C0003046FFF721FF06B070BD2DE9F14F466809
:10B4D0009DF830B09DF83490BDF828709DF82C8010
:10B4E000DDF838A00C461546C17AC289007CFFF70A
:10B4F000C0FF2A46034621463046CDE90DABCDE9D3
:10B500000B890A9701B0BDE8F04FFFF7FDBE2DE9AA
:10B51000F0474668BDF828709DF82C809DF834905F
:10B520000C461546C17AC289007CFFF7A2FF0122B2
:10B530000C920E9ACDE90878CDE90A9203462A4684
:10B5400021463046BDE8F047FFF7DEBE2DE9F04F5B
:10B5500085B0D0F804909DF83880BDF83CA00F4627
:10B560001D46C17A1346C289007CFFF782FF9DF811
:10B5700040409DF841B014F0FD0F064607D1024649
:10B58000CDE9008A2B4639464846FDF70CFD013CC3
:10B59000012C23D800241EE0B5EB440F4FEA4403EE
:10B5A0001CD998451AD9A1B2C1EBC130400080B274
:10B5B00005EB000C40447218002380B2394401931B
:10B5C0000090CDF808A01FFA8CF392B289B24846D9
:10B5D000FDF746FD0134E3B25B45DDD305B0BDE8C0
:10B5E000F08F2DE9F74F04460D461F46C17A9DF8AE
:10B5F0003C809DF830909DF834B0BDF838A01346DB
:10B60000C289007CFFF735FF18F0FD0F064607D111
:10B61000CDE9009A02463B4660682946FDF7C3FC27
:10B6200008F1FF38B8F1010F0CD8CDE90DBACDF80B
:10B63000309060683B463246294603B0BDE8F04F83
:10B64000FDF70EBD03B0BDE8F08F2DE9F74F0446BE
:10B650000E461D46C17A9DF83490BDF830A01346C1
:10B66000C289007CFFF705FF19F0FD0F804610D05E
:10B6700009F1FF39B9F1010F41D8CDF830A0606868
:10B680002B460FFA88F2314603B0BDE8F04FFDF7C4
:10B6900069BB15FB05FB6F4207EB0802EF2A1DD8BB
:10B6A00007FB17B04FF0804398421BD30021DBB952
:10B6B000731813D4711AEF2910DCEF2B21EAE17112
:10B6C000A8BFEF23012089B201335B1ACDF804A093
:10B6D000009060689BB292B2FDF765FC0137BD42F5
:10B6E000DADAC5E79B08DFE701EB030C84454FEA94
:10B6F00051019CBFC918A0EB0C009B08D7E703B011
:10B70000BDE8F08F2DE9F14F077C90F80BB0D0F831
:10B7100004809DF828A0BDF82C900C461E46594682
:10B720001346C2893846FFF7A4FE534605465946DC
:10B730003846FFF79EFE00B20A9033462AB22146F1
:10B740004046CDF82C9001B0BDE8F04FFDF78CBA23
:10B750002DE9F04F85B005460E9C0E469046002719
:10B760000137FBB29E4204F1020402D805B0BDE8E5
:10B77000F08F95F810B0E97AEA8914F8013C03914A
:10B780005846FFF776FE63780399D5F804A0814602
:10B790005846FFF76EFE00B20090CDF80480237883
:10B7A00014F8021C0FFA89F25046FDF75DFAD7E74C
:10B7B0002DE9F047D0F80480BDF82060BDF8247072
:10B7C000BDF828900C461D46C17A1346C289007CFC
:10B7D000FFF74FFE3FB236B2CDF828900997089692
:10B7E0002B4602B221464046BDE8F047FDF79EBB1E
:10B7F0002DE9FF470546BDF838909DF83040BDF86B
:10B8000034A00E461F46C17A1346C289007CFFF75A
:10B8100030FECDF8089040F267134FF00009CDE9F3
:10B8200000930FFA80F836B23FB23B466868424652
:10B830003146FDF77BFB4FF4B47314FB03F4642330
:10B84000B4FBF3F46CB124B2CDE90C94CDF838A07C
:10B8500068683B464246314604B0BDE8F047FDF714
:10B8600065BB04B0BDE8F0872DE9F04146689DF85E
:10B8700018700C461D46C17A1346C289007CFFF73A
:10B88000F8FD069702462B4621463046BDE8F041BA
:10B89000FDF738BD2DE9F04F87B005469DF84CB057
:10B8A0000392159A9DF840609DF844709DF84840B9
:10B8B000BDF850A00492BBF1000F60D1C289C17ADB
:10B8C000007CFFF7D6FD814674BB06FB07F3BAEB9D
:10B8D000430F54D3A3461FFA8BF297424FD9049BD0
:10B8E0004A4403EB440A4FF0000892B212E0039B73
:10B8F0001AF8010C059219441AF8023C43EA002395
:10B90000019301230093686889B2FDF74CFB059A07
:10B9100008F101081FFA88F18E420AF1020AE6D8FE
:10B920000BF1010B3444D6E7012C0FD107FB06F3D2
:10B930009A4524D3049B0399CDE9107302466868A5
:10B94000334607B0BDE8F04FFDF74ABC032C16D1D3
:10B9500007FB06F30733BAEBD30F10D34FF6FF7391
:10B960001293049BCDF84CB0CDE9107302460399B5
:10B970006868334607B0BDE8F04FFDF77BBC07B001
:10B98000BDE8F08F70B5C2894568C17A007CBDF80A
:10B9900014601C469DF81030FFF76BFD082302462B
:10B9A0000596049321462846BDE87040FDF7FBBA92
:10B9B00037B54568C289C17A007C1C469DF81830AD
:10B9C000FFF757FD102347F6EF31CDE9003102466E
:10B9D00021462846FDF7E7FA03B030BD2DE9F74FC1
:10B9E0009DF83080BDF83CB09DF834A0BDF838908B
:10B9F0001D46044613460E46C289C17A007CFFF7F5
:10BA000038FDCDE9008B2B4602460746314660687B
:10BA10000AFB05F5FDF7C7FA632D0CD9CDE90C89B2
:10BA200060683A4631466423B5FBF3F303B0BDE8E2
:10BA3000F04FFDF7B8BA03B0BDE8F08F016000F534
:10BA4000005000234360C0F88C3180F89631A0F894
:10BA50009431704770B500F50054A6B00026054635
:10BA60005C223146C4E9636684F896610FA818F039
:10BA70006AFF214B0B93B4F89431ADF89030234614
:10BA80000A330C9305F506530C330D9320230E93C4
:10BA900005F506531033209305F506531133174A65
:10BAA000219305F5065307CA1233229305F5065371
:10BAB0001633239308AB83E8070001228DF8282072
:10BAC0000BAA009205F580516268043102A8FEF7C6
:10BAD00001FC94F896316BB1B4F8923194F891214D
:10BAE000934284BF9B1A9EB2B4F89431B34288BF8C
:10BAF000A4F8946126B070BD7C650200506B020012
:10BB00002DE9F043036891B00446002B41D000F5C5
:10BB100000577A68002A3CD01F4ADFF88080002551
:10BB2000CDE90B2300F58056B7F894310F95CDE998
:10BB30000D55A946ADF83A30043604F06BFC2946A1
:10BB40002068FDF7DAFB2068FDF7E9FB206800219B
:10BB5000FDF7EBFB98E8070008AB83E8070001223C
:10BB60008DF828200BAA00927A688DF83C90314617
:10BB700002A8FEF7AFFB01352068FDF709FC1E2D7A
:10BB8000DBD120684FF0FF31FDF7B7FB2068FDF7F0
:10BB9000C6FB11B0BDE8F083EC650200506B0200FB
:10BBA0002DE9F0430D4695B09046002114221F4622
:10BBB000044618F0C8FE2B6813B1B8F1000F05D188
:10BBC00002232370204615B0BDE8F083B7F5805FEF
:10BBD000F6D8FCF74FFB304E814696E8070009ABDC
:10BBE00083E807000022009241463A460FA8FEF77C
:10BBF00071FB109BE360119B2361FCF73BFB9DF8FD
:10BC00003C30A0EB09006060002BDAD19DF8483091
:10BC1000002BD5D005F10409414605F580583A4678
:10BC2000484608F1040818F0D8FE49463A4640460E
:10BC300018F0D3FE05F500599DF84C30C9F8047092
:10BC40001BB1BDF84A30A9F808302846FFF702FFBB
:10BC500005F50050D9F88C110A30FEF7E3F896E8A4
:10BC600007000E4B08930CAB83E8070001228DF808
:10BC7000382008AA0092D9F80420414602A8FEF70D
:10BC800029FBFCF7F7FA06462846FFF739FFFCF7D1
:10BC9000F1FA801BA06095E7506B02005C66020021
:10BCA00038B500F50055044695F8963113B9A5F856
:10BCB000943138BD95F89131B5F892219A4286BFFA
:10BCC000D31A9BB200238B4228BF0B46A5F89431B0
:10BCD000FFF7C0FE04F50050D5F88C110A30FEF7CE
:10BCE000A1F82046BDE83840FFF70ABF2DE9F04132
:10BCF000089E0C4696469846DDE9061276B307285C
:10BD00002CD814F0100529D114F0010702D0A30794
:10BD100020D52F464FF0020C099B02EB0C05AB42DD
:10BD20001CD3F42D1AD802B1D1B104F01F0444EA97
:10BD30004014347086F801E027B14FEA182386F8E2
:10BD40000280F3701AB106EB0C0018F046FE28468C
:10BD5000BDE8F08101274FF0040CDDE70025F6E790
:10BD60000D46F4E72DE9F04FC5B081464E9C98464C
:10BD7000164642B14F9B33B1B4F5805F03D824B16E
:10BD8000B8F1000F16D1002011E007AFCDE901474F
:10BD9000F423039301F01C01CDF800803278A3B2A4
:10BDA00041F003014846FFF7A1FF002836D145B016
:10BDB000BDE8F08FF22CE8D901F01C05A3B245F0E4
:10BDC00001010027F02205934FF0F40B0DF11C0A3E
:10BDD000E31B934228BF1346CDE902AB3A464244E7
:10BDE0001F440193A742009228BF41F00201059B26
:10BDF00032784846FFF77AFF01460028C3D03378EF
:10BE0000509A0133337050464F9B98470028BAD060
:10BE1000A7424FF0F202CAD22946D9E73378509AA6
:10BE20000133337001464F9B38469847BFE70729D7
:10BE30009FBF00EBC102002340F83130C2F803304D
:10BE4000704710B50024E1B20134FFF7F0FF082C71
:10BE5000F9D100F58050002380F8443003648364F6
:10BE600010BD2DE9F04F00F58057002385B0044642
:10BE700016463B64894659B1931EF22B08D80B78BD
:10BE800013F0100A4FEA531508D02946FFF7CFFFE9
:10BE90004FF0020A504605B0BDE8F08F062D00F0C5
:10BEA000AA80072D04D197F84C20002A00F0A38027
:10BEB00013F0010C03F0020B07D0BBF1000F04D10B
:10BEC000032E51D829462046E0E70022022009EB44
:10BED000000199F801300191361ABCF1000F59D0D8
:10BEE0004FF000085FFA88F1A9420CD014F838002E
:10BEF00048B12046CDE90232FFF799FFB96CDDE980
:10BF000002320131B96408F10108B8F1080FE9D132
:10BF100004EBC508002144F83510C8F803100121CE
:10BF200088F80610591888F80110BBFA8BF14909F6
:10BF300004F83510DAB1B9F80220A8F80220511E31
:10BF4000B1F5805FBED2B242BCD30199324604F152
:10BF5000400018F042FDB3B2A8F80430BBF1000F66
:10BF60000CD14FF0010A95E701220420AFE7BBF1A5
:10BF7000000FA7D0B2B2A8F80220E4E7B8F8022078
:10BF80009A429FD13E6487F8445029462046FFF7E5
:10BF90004EFF7FE714F8352004EBC508002A91D046
:10BFA00098F80620002A8DD098F801209A4289D16D
:10BFB0000132B8F804C088F80120B8F802200CEB70
:10BFC000060191423FF67EAF04F1400032460199EE
:10BFD000604418F002FDB8F804301E44B6B2B8F858
:10BFE0000230A8F80460BBF1000F01D09E42C8E700
:10BFF0009E42B6D166E74FF0030A4BE7034610B402
:10C000005C680846114624B19A6823465DF8044BE3
:10C01000184720465DF8044B704730B5C1B0812306
:10C02000B2F5807F054614468DF8003008D94FF4EC
:10C030008074621E01310DF1010018F0CEFC01E0A8
:10C04000012AF6D8224669462846FFF7D7FF41B0B5
:10C0500030BD00007FB5037F0546002B3ED0D0E900
:10C0600008329A423AD30368C3B39847AA6A6E6A01
:10C070000023841A2B7733D01A482246A6FB0001EE
:10C0800018F024F982238DF80030230A8DF802304D
:10C09000230C8DF80330330A8DF80630330C8DF8FD
:10C0A0000730330E8DF80830030A8DF80A30030C80
:10C0B0008DF80B30030E8DF801408DF80900240E29
:10C0C0008DF80C300E220023694628468DF8044076
:10C0D0008DF805608DF80D30FFF790FF04B070BD4E
:10C0E0002046CFE7A0860100042A38B5044615464D
:10C0F00019D90368BBB1D1F8012002620022426263
:10C100009847236AA0621A1E18BF0122052D2277C4
:10C1100009D043B1636A053B2B4463622046BDE806
:10C120003840FFF797BF38BD017F31B12AB1416A6E
:10C13000013A11444162FFF78DBF7047F0B5012A03
:10C1400093B0054614461DD90368DBB1013A402A75
:10C1500018D8842301310DF101008DF8003018F05A
:10C160003CFC2B6898476E463719030A0DF804000B
:10C170007B70030CBB70030EFB70221D69462846C2
:10C18000FFF73CFF13B0F0BD30B5436987B00446FC
:10C1900043B3816901A89847BDF80400BDF80610B3
:10C1A000BDF80820BDF80A308DF80D008DF80F108D
:10C1B0008DF81120000A090A120A8DF80E008DF878
:10C1C00010108DF812208DF8133085251B0A0922D6
:10C1D00003A920468DF80C508DF81430FFF70EFFA0
:10C1E00007B030BD1A4619461846DDE730B5012ABA
:10C1F00085B0054638D9C468DCB30369013A01311A
:10C200006846A047DDE90012029B9DF80C008DF8FE
:10C21000011086248DF800400C0A8DF802400C0CA9
:10C22000090E8DF80410110A8DF805208DF80610FE
:10C23000110C120E8DF808201A0A8DF80A201A0C1B
:10C240008DF807108DF809308DF80B201B0E8DF836
:10C250000D000E22694628468DF803408DF80C30FB
:10C26000FFF7CCFE05B030BD012000231A46194669
:10C27000CDE701202346F9E7F8B5134641B34AB3A9
:10C280000E78771E052F03D9BDE8F840FFF7B6BE3C
:10C29000023E042E04D8DFE806F0080C1014170044
:10C2A0001A46FFF7BAFE0120F8BD1A46FFF71CFF39
:10C2B000F9E71A46FFF738FFF5E71A46FFF73EFFA2
:10C2C000F1E7FFF761FFEEE71A46FFF78FFFEAE7B6
:10C2D0000846E9E71046E7E70268136810B59F2BA8
:10C2E00097BF406883685C1C146092BFC1540022F1
:10C2F0001A7010BD38B504460D460068C9B2FFF784
:10C30000EBFF2068290ABDE83840FFF7E5BFCA08FF
:10C31000006801F0070101238B40815C0B438354CB
:10C320007047000018B1012801D0022804D1034B46
:10C330000C2202FB00307047002070475C6B02004B
:10C3400007B520220021019018F0FDFA01A8012173
:10C35000FFF7DDFF01A80221FFF7D9FF01A80321A4
:10C36000FFF7D5FF04210DEB0100FFF7D0FF01A877
:10C370000521FFF7CCFF01A80621FFF7C8FF01A8A0
:10C380000721FFF7C4FF01A80821FFF7C0FF01A89C
:10C390000921FFF7BCFF01A80A21FFF7B8FF01A898
:10C3A0001021FFF7B4FF01A81121FFF7B0FF01A88A
:10C3B0001221FFF7ACFF01A81321FFF7A8FF01A886
:10C3C0002021FFF7A4FF01A82121FFF7A0FF01A86A
:10C3D0003021FFF79CFF01A83121FFF798FF01A84A
:10C3E0004021FFF794FF01A85021FFF790FF01A81B
:10C3F0005121FFF78CFF01A86021FFF788FF01A8FA
:10C400006121FFF784FF01A8F021FFF780FFF121F0
:10C4100001A8FFF77CFF03B05DF804FB2DE9F04FA6
:10C420008846B9B09146074618B9002039B0BDE832
:10C43000F08F05AC012603AB00253146059320465D
:10C440000DF10B030DF1400B07938DF80B60039575
:10C45000CDF818B00494FFF73FFF29462046FFF7B8
:10C460003BFF0B212046FFF737FF29462046FFF709
:10C4700033FF314604A8FFF73DFFF02104A8FFF782
:10C4800039FFF02104A8FFF735FF08A8FFF758FF90
:10C4900008AE16F8011B20460135FFF71DFF202DC1
:10C4A000F7D14FF4805104A8FFF724FF0321204661
:10C4B000FFF712FF214E4FF0000A31782046FFF7B8
:10C4C0000BFF736800255A5D0AB1102D2CD1E9B21B
:10C4D00020460193FFF700FF019B1D44AB4225D18D
:10C4E000317A2046FFF7F8FE0AF1010A718904A8A3
:10C4F000FFF700FFBAF1030F06F10C06DDD10021B2
:10C500002046FFF7E9FE49462046FFF7E5FE9DF885
:10C510000B30002B89D0039A424586D859463846BD
:10C5200018F05BFA039881E70135CCE713F8011B9B
:10C5300001932046FFF7D0FE019BCFE75C6B020022
:10C5400010B50822044600211F3018F0FCF9002322
:10C5500084F82F3010BD70B50D46044606460FCD49
:10C560000FC695E803000123002586E80300257621
:10C57000A583A3772046FFF7E3FFC4E90C55A56325
:10C5800070BD30B4056835B129B122B14369AC46FC
:10C59000022030BC604730BC704707B507238DF8D8
:10C5A0000510022201A98DF80430FFF7EAFF03B05D
:10C5B0005DF804FB13B5046874B1437FB3FA83F3E9
:10C5C0005B090A221B01ADF804208DF80630032216
:10C5D000436901A90020A04702B010BD13B504684B
:10C5E0005CB106238DF804308DF8051043698DF891
:10C5F000062001A903220020A04702B010BD30B5DB
:10C600000368A9B0044663B190F83320A0216846BE
:10C61000FFF704FF024620B12568636969460020E0
:10C62000A84729B030BD70B5044608460D46FFF74F
:10C6300079FE30B1E368A5771BB16169BDE8704050
:10C64000184770BD70B500250446C0E90D1180F88B
:10C6500032508583FFF774FF01232376A36884F8A3
:10C66000315013B16169284698472046FFF7C7FF4C
:10C67000236923B161690248BDE87040184770BD65
:10C68000A4590200037E70B504465BB190F82F30C8
:10C6900043B100F11F010822273018F09EF9012351
:10C6A00084F830300025657784F832502046FFF753
:10C6B00047FFA368257613B1616928469847236927
:10C6C00023B161690248BDE87040184770BD00BFE2
:10C6D000D05902000A2AF8B504460D46164629D953
:10C6E0000B78022B26D14F783846FFF71BFE00B39C
:10C6F000AB7A0B339E421DD304F11F060822A91CFE
:10C70000304618F06AF994F83000012384F82F308D
:10C7100040B1082204F12701304618F0EBF8B0FAD6
:10C7200080F0400984F8310039462046FFF77BFF4E
:10C730000120F8BD0020FCE7002310B5044680F876
:10C74000323083830AB1FFF728FFA36813B1616910
:10C7500000209847237E033B012B9CBF02232376B6
:10C760002046BDE81040FFF725BF000090F83230AA
:10C7700010B504468BB9637F012084F832002BB1D9
:10C7800004232376A3680BB161699847236923B119
:10C7900061690248BDE81040184710BDF459020015
:10C7A00070B504461D46002971D0002A6FD00B7861
:10C7B000023B092B6BD8DFE803F0052B344C6A648D
:10C7C000716B6A8B237E012B61D12046FFF782FFBC
:10C7D00038B92369002B5AD061694148BDE87040DF
:10C7E0001847002384F83230637702232376656389
:10C7F0002046FFF7DFFE2369002B48D094F8310074
:10C800006169384A384C002818BF14462046E5E7CD
:10C81000237E012B3BD12369002B38D0616933483B
:10C82000DCE7237E023B022B31D894F8323065637B
:10C830006BB3607F0023984284F832300CBF022330
:10C8400003232376A36813B308BB6169BDE8704076
:10C850001847012A1BD0237E023B022B17D84D78A4
:10C860002846FFF75FFD30B9012229462046BDE882
:10C870007040FFF7B3BE29462046FFF7D4FE0022E2
:10C88000F3E7237E023B022B01D80123237770BDFF
:10C89000237E023B022BFAD80023F7E7607F0028B3
:10C8A000F5D00138C0B200236077237760B9022346
:10C8B0002376A36884F832000BB16169984720465B
:10C8C000BDE87040FFF776BE2046FFF74FFFF6E762
:10C8D00020460122BDE870400321FFF72DBF00BFB5
:10C8E000525A0200155A0200315A0200715A0200CF
:10C8F00070B504461D46237E023B022B08461146B6
:10C9000003D9638B0133638370BD6368002BF8D058
:10C910000028F6D0002AF4D0627FBAB1267F62697F
:10C9200098470028F0D1012E627F11D1062A01D844
:10C93000013262770023237784F832300323656362
:10C9400023762046BDE87040FFF734BE0126E6E7B7
:10C95000002AEFD101236377ECE70000037E023B5E
:10C96000022B10B5044618D8436BC91A42F20F7354
:10C9700099420BD9036913B14169084898470122CC
:10C9800020461146BDE81040FFF7D6BEB1F57A6FDC
:10C9900003D3BDE81040FFF7E9BE10BD9C5A02006A
:10C9A00008B50246407F20B1431ED8B2507708B187
:10C9B000012008BD93681077002BF9D05169984782
:10C9C000F6E7000007C8024B83E80700704700BF86
:10C9D0004C32002070B4064E35682DB121B11AB129
:10C9E000B368AC4670BC6047002070BC704700BFA5
:10C9F0004C32002070B4064E75682DB121B11AB1C9
:10CA0000B368AC4670BC6047002070BC704700BF84
:10CA10004C320020024AD2F80034002BFBD0704781
:10CA200000E0014010B5064C237843B905484FF4A7
:10CA300080524FF4FE2117F0D0FF0123237010BD68
:10CA4000583200205C320020024B00221A70FFF79F
:10CA5000E9BF00BF5832002070B5044616460D46A7
:10CA600011B90024204670BD002AFAD00228F8D857
:10CA7000FFF7D8FF0B490C4AA30201EB8424C858E6
:10CA80009042EED16468621EB2F57E7FE9D2B44274
:10CA900028BF3446083322461944284617F09DFF24
:10CAA000E0E700BF5C320020544C50532DE9F041C8
:10CAB000074616460C4600294BD0531EB3F57E7F21
:10CAC00047D2022845D8244D4FEA872805EB87270F
:10CAD000FFF7A8FF214B45F8083008F1080032465F
:10CAE00021467E60284417F078FF06F10800404494
:10CAF000C6F57E72FF21284417F025FF1848FFF77E
:10CB000089FF0223C0F804354FF4FE21FFF782FFAE
:10CB1000C0F80815FFF77EFF0023C0F80435FFF7C3
:10CB200079FFFFF777FF0123C0F80435FFF772FFA5
:10CB300055F8043B41F8043BFFF76CFFB1F5002FBB
:10CB4000F6D10023C0F80435FFF764FF0120BDE8EB
:10CB5000F0810020FBE700BF5C320020544C5053B2
:10CB600000E00140034A13680BB1506818470020E9
:10CB7000002170477842002030B50A4D421E00F176
:10CB800017034FF0FF3012F8011F4840082140F30F
:10CB900000042C40013984EA5000F8D19342F2D1CC
:10CBA000C04330BD2083B8ED03C808B5054B18223B
:10CBB00083E803000448002117F0C5FE034B002260
:10CBC0001A7008BD78420020604200205C420020BC
:10CBD00070B586B018220021684617F0B4FE1822FE
:10CBE00069460020FFF7F6FE17281AD90E4B009A67
:10CBF0009A4216D100236846059C0593FFF7BCFFB7
:10CC0000A0420ED16C460FCC084E35460FC594E8B5
:10CC100003007368064A5B1A85E8030018BF012306
:10CC2000137006B070BD00BF43544C5360420020E7
:10CC30005C42002038B5084D084B2B600024284684
:10CC40006C61FFF799FF2946686118222046BDE80C
:10CC50003840FFF7CFBE00BF6042002043544C5322
:10CC60002DE9F047DFF8F4803A4C0746FFF77AFFEA
:10CC700098F8003005460E46002B60D0D4E9023209
:10CC8000834272EB06015AD2B5EB030A66EB02024D
:10CC9000D4F810904FEA9A2A4AEA825A4FEAE97C7D
:10CCA000A9FB0A012C4A00230AFB0C1117F0BEFA5B
:10CCB00010EB0A0241F100031F2A73F100013EDB71
:10CCC0006068381A6CEB0C0C1F287CF1000136DB15
:10CCD000801A6CEB030CBCF1000F0146E64602DA49
:10CCE00041426CEB4C0E79297EF1000E27DA1A498D
:10CCF000A0FB010E01FB0CE117F098FADFF860E0F1
:10CD00004FF0FF3C70450A4671EB0C01034641F2BF
:10CD10008931BCBF734662468B4272F10001A4BFE9
:10CD200041F2883300220321C9FB0132002A02DAD2
:10CD30005B1842F100029B0843EA827323610123DE
:10CD4000C4E90175E66088F80030BDE8F047FFF7F8
:10CD500071BF00BF6042002040420F005C420020D3
:10CD600078ECFFFFF8B5164B1E783EB3FFF7FAFEDE
:10CD7000144BD3E90225904271EB05045E681DD384
:10CD8000841A61EB050518690F4AA40A44EA855420
:10CD9000AD0AC31700FB05F104FB0311A0FB040758
:10CDA0000023394417F042FA341945F100050019FF
:10CDB00045EB0105002DACBF064600263046F8BD08
:10CDC0005C4200206042002040420F0070B50446E3
:10CDD000FFF7C8FF2C4BB0FBF3F307220433B3FB80
:10CDE000F2F2C2EBC2023C219B1AE371B0FBF1F3F9
:10CDF00001FB1300B3FBF1F201FB12331821637145
:10CE0000B2FBF1F301FB1322A07122714FF4C87041
:10CE100040F2B2726426910705D1B2FBF6F106FB2F
:10CE2000112189B271B9B2FBF0F100FB112189B275
:10CE300041B1002540F26D118B4207D301325B1ADC
:10CE400092B2E8E701254FF4B771F5E70F48228069
:10CE50000122022A014600F1010000D145B90978FA
:10CE6000994207D90133DBB2A270E370204670BD4E
:10CE70001D21F5E70132D2B20D2AA3EB0103E8D15F
:10CE80000C221F23F0E700BF80510100806B0200DD
:10CE9000014B1878704700BF5C42002008B500F0D5
:10CEA00011F84FF47A72A0FB020302FB0133800AEF
:10CEB00040EA835008BD0000014B00221A60704711
:10CEC0008042002010B5074B074C1A68D4F80405BF
:10CED00019689142F9D120F07F4040EA0160090AC7
:10CEE00010BD00BF8042002000100140024A1368BC
:10CEF00001331360704700BF80420020FFF7F6BF88
:10CF0000F8B50D46AB421C4628BF2C4607461146D5
:10CF10001E4614B1224617F060FDAE423CBF00230E
:10CF20003B55069B1C70F8BD20B140F60422002141
:10CF300017F009BD704730B530B110F8A04B002391
:10CF4000A025DAB2944200D830BD05FB03F20133CC
:10CF50008154F6E740B103788B4204D9A02303FB48
:10CF60000100043070470020704770B50446F0B1EE
:10CF700003788B421BD90131CDB2A026207885429F
:10CF80000BD30138C0B2207006FB0040A022002164
:10CF9000043017F0D8FC012070BD06FB0540011DD0
:10CFA0009D229C38013517F018FDEDB2E6E7002010
:10CFB000F2E72DE9F04F13468BB00D46044618B941
:10CFC00000200BB0BDE8F08F0029F9D0002AF7D07F
:10CFD0000E78032E03D1FFF7A7FF0120F1E7022E01
:10CFE00025D1012AECD091F8018008F102029A4281
:10CFF000E6D8023500274FF0A0092378FEB2B342ED
:10D00000DED909FB06F023181B7943450DD1053005
:10D0100042462946204417F06DFC30B9314620467F
:10D020000BB0BDE8F04FFFF7A0BF0137E5E7012ED9
:10D03000C6D1012AC4D04F787A1D9A42C0D8BFD039
:10D0400011F802B007F1060A0BEB0A029A42B7D2B6
:10D05000501C8A5C049211180A1D9A42B0D8AB1C6D
:10D060000393EB194FF000099A780592DA7806924B
:10D070001B7907936A182B18089393785078695C8A
:10D08000D2781B0443EA00230B4343EA026309936B
:10D09000A02322785FFA89F842450CD80F2A06D9D6
:10D0A0004FF0A0082278B24254D8013AD2B2531CB1
:10D0B000237016B210E003FB08F022181279BA426E
:10D0C00045D1053003993A46204417F013FCA023BC
:10D0D00000283CD10FFA88F6A022564306F1040836
:10D0E000A0440021404617F02EFC701D3B46039AD9
:10D0F000CDF80080A71928212044FFF701FF059BE8
:10D1000087F82D30069B87F82E30079B87F82F3045
:10D1100006F1300306F131002344009305EB0A02C7
:10D120005B4620212044FFF7EBFE06F1520051360A
:10D130002644049B089A009648212044FFF7E0FE0D
:10D14000099BC7F89C30002387F8A03045E709F118
:10D1500001099EE708FB0640011D9D229C3801360F
:10D1600017F03BFCF6B29DE718B16422002117F0DE
:10D17000EABB704710B504469AB008B36422002198
:10D1800001A817F0E0FB7F23642201A901208DF89C
:10D1900008308DF810308DF818308DF820308DF86B
:10D1A00028308DF830308DF838308DF84030FFF76A
:10D1B00011FC632804D9642201A9204617F00DFC54
:10D1C0001AB010BD014618B164220120FFF712BC4D
:10D1D0007047F7B504469DF8207028B90025284609
:10D1E00045EA002003B0F0BD90F860C053EA0700A4
:10D1F00024D0012000FA02F22546204600265FFADC
:10D2000086FEF4451DD8002395F84120002A3CD025
:10D210006A6C8A4239D804EBC305002385F8413093
:10D220002046FFF7CFFF95F840000225D8E706F823
:10D2300030E00130C5B2AC45F9D8DAE7661D864664
:10D24000F8E790F801E0BEF1000F1BD090F805E080
:10D25000BEF1000F16D190F804E01EEA020F11D0C3
:10D2600090F802E09E450DD190F803E0BE4509D14B
:10D2700004EBC603012520465D71FFF7A3FF14F8F8
:10D280003600ADE701360830B9E70133042B05F16C
:10D290000805B9D1A2E713B503468DF807201C682D
:10D2A000084634B1DB6801220DF10701A04702B046
:10D2B00010BD2046FBE710B5044600685B21827C68
:10D2C000FFF7E9FF30B120685C21BDE81040C27C67
:10D2D000FFF7E1BF10BD034610B45C680846114675
:10D2E00034B12AB1A446DB685DF8044B01226047E3
:10D2F00000205DF8044B704737B504460FC9002580
:10D3000084E80F0025742575B6227E212046FFF79C
:10D31000C2FFA36813B1E168322098470DF10702FC
:10D32000002120468DF80750FFF7D5FF28B19DF862
:10D330000730112B03D10123237403B030BD132B0D
:10D34000FBD10223F8E72DE9F74304461646884649
:10D35000002951D0002A4FD00368002B4CD0002266
:10D360007C21FFF798FF002846D0A36813B1E1683D
:10D3700001209847002259212046FFF78CFF002802
:10D380003AD00025A6EB0509B9F1080FC5F3430211
:10D390004FF05B01204628BF4FF00809C5F34F0747
:10D3A000FFF779FF40B3C7F307125C212046FFF770
:10D3B00072FF08B32768E3684A4608EB05015E2060
:10D3C000B847C8B10835AE42DCD801225921204601
:10D3D000FFF761FF80B1A36813B1E1689620984719
:10D3E00000230DF107022A2120468DF80730FFF7B0
:10D3F00072FF28B9FE236374002003B0BDE8F083F8
:10D400009DF80730637404F112025B212046FFF798
:10D4100062FF04F113025C212046FFF75CFFA37C4E
:10D4200003F00F03A37401227C212046FFF733FF92
:10D430009DF8070000F00F00431E58425841DCE7FA
:10D44000F0B5436895B004461BB90025284615B0D1
:10D45000F0BD0368002BF8D000227C21FFF71BFFF2
:10D460000028F2D0A36813B1E1680120984702AE0A
:10D47000462200213046019417F065FA01A8FFF713
:10D480001AFF0025D0B1482D0BD19DF8433001A8DB
:10D4900043F010038DF84330FFF70DFF00270546DA
:10D4A00024E0C5F14602082A06EB05016768E36837
:10D4B00028BF08225E20B8470835E3E7002501228F
:10D4C0007C212046FFF7E7FE002DBED00123237507
:10D4D000BCE7C7F14602082A2568E36806EB0701A6
:10D4E00028BF08225E20A84708370546002DE5D052
:10D4F000482FEED1E3E738B5A82240210446FFF7D4
:10D50000CAFE10B90025284638BD00224121204618
:10D51000FFF7C1FE0028F5D004227D212046FFF749
:10D52000BAFE05460028EDD00A2253212046FFF717
:10D53000B2FE042258212046FFF7ADFEE3E7F8B51E
:10D540001D46037C04467BB10023037531B12AB12B
:10D55000FFF7F9FE10B12046FFF772FF294620467B
:10D56000BDE8F840FFF7C7BF1846F8BDF7B54468F7
:10D570000F4616461D4614B9002003B0F0BD002327
:10D580000093ADF804300622C36869461220A04714
:10D590000028F1D037B1BDF90040002CB8BF0F34DE
:10D5A00024113C8036B1BDF902100029B8BF0F31FB
:10D5B00009113180002DE0D0BDF90420002AB8BF48
:10D5C0000F3212112A80D8E7037D13B513B900205A
:10D5D00002B010BD44680023ADF804308DF8063069
:10D5E000002CF4D0C368032201A91E20A047002804
:10D5F000EDD09DF806009DF80530000440EA0320B8
:10D600009DF804301843E3E780EAE071A1EBE07194
:10D6100047F6FF73F0B59942214F0446A8BF19465B
:10D620002D205A25002657F82020D0B1431E5A2815
:10D6300057F8233014BF00F1010C844699421CDBDB
:10D6400057F82CC0614518DC134403EBD373B1EBDE
:10D65000630F0ADC013800B2002CBCBF404200B2AC
:10D66000F0BD03464FF0010CEAE7624402EBD272D0
:10D67000B1EB620FF0DD0130EDE7914283B20ADADF
:10D68000013B1DB206FA83F303EBD373AE4243F3BF
:10D690004F00C8DDE0E701331EB215FA83F3F3E76C
:10D6A0008C6B02002DE9F84347F6FF7905465001DF
:10D6B000DFF86C804845A8BF48464045B8BF4046A3
:10D6C0000E461F46FFF7A0FF044668014845A8BF65
:10D6D00048464045B8BF4046FFF796FF002EA2B22D
:10D6E00080B205DA002F0FDA801A00B2BDE8F883A5
:10D6F000002F12DA104480B2002DBABFC0F57F406F
:10D700004C30C0F1B400F0E7024492B2002DB4BF37
:10D7100002F1B400A2F1B400E7E7101AE5E700BF98
:10D720000180FFFF821E00F10E01002322F8023F5C
:10D730008A4213821384F9D1C0E90C33704730B5A3
:10D74000046B013404F0070400EB4405046320F883
:10D7500014102A822B84436B072B9CBF0133436335
:10D7600030BDD1F830C02DE9F04700250CF1080E8E
:10D770002E462F46A8462B462A462C46AEEB0509D8
:10D7800009F0070901EB490A31F919904C44BAF93B
:10D7900010904A44BAF920904B4405F1010909EB75
:10D7A0000C0505F0070501EB450A31F91550A844B1
:10D7B000BAF910502F44BAF92050B9F1020F2E4493
:10D7C0004FF00105DAD10CF1070C0EF0070E0CF04A
:10D7D000070C07EBD7772F4108EBD87806EBD67606
:10D7E00048FA05F82E41078101EB4E0531F91E700C
:10D7F000468101EB4C0E04EBD47431F91C10B5F9E1
:10D800001060B5F92050A0F8068044F34F0404805E
:10D810003F1B02EBD2720C1BBEF9101042F34F02F9
:10D8200003EBD37343F34F034280B61A891ABEF950
:10D8300020208380ED1A7F43D31A76436D4304FB87
:10D84000047401FB016103FB0353641049105B1076
:10D85000C46001614361BDE8F0877FB5436B072B6E
:10D86000014603D8002007B05DF804FB6846FFF7C7
:10D8700078FFBDF90030002BBCBF5B421BB2B3F593
:10D88000C07FEFDC049BB3F5446FEBDCBDF9020015
:10D8900010F5357F11DA059BB3F5446FE2DCBDF975
:10D8A0000A30BDF90820BDF90410FFF7FBFE10F1A6
:10D8B0002D0FACBF00200120D5E710F13F0FD1DACA
:10D8C000EDE700000FC810B5054C84E80F00054BCC
:10D8D000FF221A70044A00231370044A137010BD0B
:10D8E000884200204A000020854200208442002017
:10D8F000074A08B513680BB9002008BDD0689847DF
:10D900000028F9DB4FF496535843C0F38F20F4E717
:10D910008842002040F6AC53984210B534D941F209
:10D920005302904232D8B0F5626F18D940F68B633B
:10D93000984219D9B0F56C6F1CD940F68B73984298
:10D940001DD819464F2430224FF46C63C01AA41A14
:10D950006043C91AB0FBF1F01044C0B210BD0324FB
:10D960004FF462610022F1E71946162403224FF4B6
:10D970006263EBE730244FF46C611622E6E764241F
:10D9800041F254014F22E1E70020E7E76420E5E798
:10D9900030B59DF80C509DF810405DB912B1632868
:10D9A00028BF63202CB1642903D82BB1884238BF2B
:10D9B000084630BD6420F5E7884228BF0846F8E7EE
:10D9C000034A53680BB1D06818471846704700BF28
:10D9D00088420020034A93680BB9FFF7F1BFD06873
:10D9E000184700BF88420020054A08B5136823B1D4
:10D9F000D0689847C043C00F08BD1846FCE700BF79
:10DA000088420020F7B5FFF7EFFF08B3FFF770FF7C
:10DA1000FFF780FF0546FFF7D3FF0446FFF7DAFF65
:10DA20000C4A034690B10CB9012111700A4E0B4FFC
:10DA30003178019112780092397822462846FFF712
:10DA4000A7FF01233870337003B0F0BD1070EDE70D
:10DA5000FF20F9E784420020854200204A00002090
:10DA6000FFF7C2BF014B1868704700BF4C00002091
:10DA70004FF0A043D3F8100580F48050C0F300307D
:10DA800070474FF0A043D3F8100580F40020C0F396
:10DA9000C0407047014B1868704700BF4C00002021
:10DAA00008B501F051FE014B186008BD4C00002084
:10DAB0001FB54FF0A0420023C2F83037C2F84C37F0
:10DAC0000393074B0093074B01936846064B029361
:10DAD000FFF7F8FEFFF7E4FF05B05DF804FB00BFB9
:10DAE00065DA000071DA000083DA0000D0E9013263
:10DAF00010B593423FBF02685C1C4460D15424BF00
