:10802000000001200181000079810000512F010032
:108030007981000079810000798100000000000052
:1080400000000000000000000000000021580100B6
:10805000798100000000000071580100B55901004D
:10806000592A02007981000079810000798100009D
:1080700079810000798100003D960000798100003F
:108080007981000079810000798100007981000008
:1080900079810000798100007981000079810000F8
:1080A00079810000112B02007981000079810000A4
:1080B00079810000798100007981000079810000D8
:1080C00079810000798100007981000079810000C8
:1080D00079810000798100000000000000000000AC
:1080E00079810000798100007981000079810000A8
:0C80F00079810000798100007981000096
:1081000008B5144A144B15498B4213D3144B154A26
:108110000021934213D300F057F800F033F8124CCB
:10812000124DAC420ED3124C124DAC420ED30BF09A
:108130000FFBFEE752F8040B43F8040BE4E743F8A7
:10814000041BE6E754F8043B9847EAE754F8043B7D
:108150009847EAE79457020000000020A42D002071
:10816000002E002020EC00209057020090570200C3
:10817000905702009457020008B54FF61F000AF00E
:10818000DBFE000010B50A4A0A48114600230133FD
:1081900050F8044B41F8044B372BF8D14FF0E02353
:1081A000C3F8082DBFF34F8FBFF36F8F10BD00BF13
:1081B000002E002020800000024AD2F80034002B5C
:1081C000FBD0704700E0014008B54FF0A0434FF4EA
:1081D00080320321C3F80825C3F81825C3F84017D7
:1081E000C3F808254FF0804301220021C3F8782509
:1081F000C3F81825C3F804119A60D3F80421002AA3
:10820000FBD04FF01020D0F80C32023312D01749B7
:10821000FFF7D2FF0123C1F80435FFF7CDFF6FF060
:108220000103C0F80C32FFF7C7FF0023C1F8043583
:10823000FFF7C2FF0E4B012200215A600420DA60D2
:10824000C3F804150321C3F80815C3F810051A6014
:108250004FF0A0434FF48032C3F80825C3F8182527
:10826000C3F84017C3F8082508BD00BF00E001406F
:1082700000900040024B01221A64D3F84005704779
:1082800000900040064B01211964D3F840251044AA
:108290001964D3F84025121A002AF9DB704700BF91
:1082A0000090004070B504464FF47A7604B970BD72
:1082B000B4F5FA7F254628BF4FF4FA7506FB05F0A2
:1082C000FFF7E0FF641B06F01FFFEFE74FF0A0434E
:1082D0004FF48032C3F80825704738B54FF0A044FA
:1082E0004FF48035C4F80C55FFF7DCFFC4F808558F
:1082F00038BD4FF0A0430322C3F83C270422C3F843
:1083000034274FF40042C3F81825C3F808257047F6
:108310004FF080430349D3F800240A60C3F80024D7
:10832000704700BFE82E0020014B1868704700BF5F
:10833000E82E00204FF0A043D3F81005C0F34030E2
:10834000704700004FF0A043164AD3F81035164886
:10835000012110B513F400531164D2F8402505D162
:10836000124A01701370124A137010BD0378002B6B
:10837000FBD00F480378072B02D801330370F4E7D2
:108380000A480C4B047814B91A600170EDE71B68B9
:10839000D21A094B9A42E8D34FF0E023074AC3F8B8
:1083A0000C2DFEE700900040E52E0020E42E00207A
:1083B000DC2E0020E02E002000127A000400FA05D6
:1083C000084A536A116A013310B5B3FBF1F401FB9B
:1083D0001433916A99421FBF516AD4695362605441
:1083E00010BD00BF00000020704710B5441E14F8F7
:1083F000010F00B910BDFFF7E3FFF8E708B5FFF77D
:10840000F4FFBDE808400148FFF7EFBF1C4202003F
:1084100070B505460748084EFFF7E7FF1C2425FA0C
:1084200004F303F00F03043CF05CFFF7C9FF231DC6
:10843000F5D170BDAC450200004D0200022838B5F0
:1084400004460D4612D80A48013CFFF7CEFF032C24
:1084500096BF084B3F20185DFFF7B2FF0648FFF7B5
:10846000C4FF2846BDE83840FFF7C8BF38BD00BF8D
:108470001F420200FC4C0200214202004FF0A043C8
:1084800003220421C3F80827C3F80C150821C3F8F8
:108490000C27C3F80C150021C3F810174FF48021E6
:1084A000C3F84827C3F808154FF00071C3F86427D4
:1084B000C3F80815C3F814272022C3F8082570470D
:1084C0000A4B0222C3F808250322C3F80C25042214
:1084D000C3F810254FF00042C3F824250622C3F844
:1084E0005425FF22C3F8C025704700BF003000406C
:1084F000034A53680146013301205360FFF79EBFD2
:1085000000310020F8B50746FFF7B4FE154D0646CA
:10851000D5F8184124B10023C5F81831012020E016
:10852000FFF7A8FE801BB842F2DD4FF0A0430E4AD1
:1085300001206861C5F80045C3F808250B4B1C6095
:10854000FFF79CFFFFF7BCFF094AC5F81841072356
:10855000C5F800351368074903441360FFF76EFF41
:108560002046F8BD00300040200000020831002005
:10857000003100202D42020010B50D4C0020C4F83F
:108580000005FFF77BFFFFF79BFF0723C4F80035CB
:10859000084B094C1870094B1860094BC3E90000DF
:1085A00023681BB901200CF0C5FA206010BD00BF84
:1085B000003000400C310020FC3000200831002049
:1085C0000031002038B50C4C237813B10B48FFF76D
:1085D0008FFF0B4D2B6843B10BF004FF022804D131
:1085E00028684FF0FF310CF019FC064B0722C3F846
:1085F00000250123237038BD0C31002058420200B1
:10860000FC3000200030004070B50F4D2B7813B9BE
:108610000E48FFF76DFF4FF0A04300240C4AC3F84B
:1086200008250C4B2C700C4D1C602B685BB10BF0BB
:10863000D9FE022807D12868234622462146BDE8F4
:1086400070400CF0D5B970BD0C3100206C420200B6
:108650002000000208310020FC300020014B187877
:10866000704700BF0C310020194B2DE9F04793F8FB
:10867000008005460C46B8F1000F05D11548FFF7FC
:1086800037FF4FF0000820E0E8B1134E4FF000092B
:108690004FF0010ACCB1FF2C274628BFFF2707F176
:1086A0003200C6F818918000C6F84455C6F84875DF
:1086B000C6F83895C6F810A0FFF724FF0028E0D0D0
:1086C0003D44E41BE6E70029DBD14046BDE8F087E6
:1086D0000C31002089420200003000402DE9F047B3
:1086E0001C461D4B93F800801646B8F1000F05D1CB
:1086F0001A48FFF7FDFE4FF0000801E018B94EB927
:108700004046BDE8F0870029F9D0FFF7ADFF00280B
:10871000F5D1F0E7002CF3D0114FDFF848904FF07F
:10872000000AFF2C254628BFFF25012305F1320052
:10873000C7F818A18000C7F84495C7F84855C7F88E
:108740003465C7F838553B61FFF7DCFE0028D2D00E
:10875000641B2E44E5D1D3E70C310020A742020070
:1087600000300040FC2F0020192838B5044606D000
:10877000052804D0BDE838400B48FFF7B9BE0B4DC3
:108780002B684BB1A34207D00948FFF7B1FE4FF069
:10879000A043084AC3F8082501234FF0A042A34094
:1087A000C2F80C352C6038BDC542020008310020EB
:1087B000E0420200200000024FF0A042012383406B
:1087C000C2F80835034B1A68824204BF00221A60BF
:1087D000704700BF083100204FF0A0434FF48022C3
:1087E000C3F80C2570474FF0A0434FF48022C3F824
:1087F0000825704737B50C4615468DF80700FFF77A
:10880000E1FE1920FFF7B0FFFFF7E6FF01210DF1B0
:108810000700FFF729FF28B1FFF7E5FF29462046AB
:10882000FFF722FF1920FFF7C7FFFFF7EDFE03B0A8
:1088300030BD07B58DF80700FFF7C4FE1920FFF71C
:1088400093FFFFF7C9FF01210DF10700FFF70CFFB0
:108850001920FFF7B1FFFFF7D7FE03B05DF804FB67
:1088600008B51020FFF7E5FFBDE808400520FFF739
:1088700019BD08B51120FFF7DCFFBDE808407820DE
:10888000FFF710BD37B552BAADF8062040BA042242
:10889000ADF804000D462A200DEB02011C46FFF73F
:1088A000A9FF04226DBA64BA0DEB02012B20ADF8CA
:1088B0000450ADF80640FFF79DFF2C2003B0BDE843
:1088C0003040FFF7B6BF10B50022F8B06B46114636
:1088D0000132F02A1970597003F10203F8D1002413
:1088E000A3B21946EF220020FFF7CCFFFFF76AFE84
:1088F0001920FFF739FFFFF776FF4FF4F071684654
:10890000FFF7B2FE01341920FFF756FFFFF77CFE98
:10891000B4F5A07FE4D178B010BD00007FB54FF072
:10892000A04403234FF000724FF08065C4F8643711
:108930000A20C4F80825C4F86837C4F80855C4F8F4
:108940000C55FFF7AFFCC4F808557820FFF7AAFCD8
:108950000120FFF76EFF9620FFF7A4FC1120FFF720
:1089600068FF0A20FFF79EFC5523012269463A2042
:108970008DF80030FFF73EFF0023012269463620C4
:108980008DF80030FFF736FF4F4B186800901B79C9
:108990008DF8043005226946B220FFF72BFF3523FE
:1089A00001226946B7208DF80030FFF723FF192315
:1089B00001226946BB2001258DF80030FFF71AFF20
:1089C0002C2301226946C0208DF80030FFF712FFEA
:1089D0002A466946C2208DF80050FFF70BFF12238C
:1089E0002A466946C3208DF80030FFF703FF202395
:1089F0002A466946C4208DF80030FFF7FBFE0F239E
:108A00002A466946C6208DF80030FFF7F3FE4AF289
:108A1000A41302226946D020ADF80030FFF7EAFE29
:108A20002A4B6C466A4603F10806186859681546D1
:108A300003C50833B3422A46F7D118689B882860DB
:108A4000AB800E222146E020FFF7D4FE204B2246C9
:108A500003F1080618685968154603C50833B34280
:108A60002A46F7D118689B88AB8021460E222860E1
:108A7000E120FFF7BFFE2120FFF7DBFE0120FFF71B
:108A800011FC1320FFF7D5FE0120FFF70BFC00259A
:108A9000104B0093214606223320ADF80450FFF717
:108AA000A9FE022221463720ADF80050FFF7A2FEB2
:108AB0002920FFF7BEFE1420FFF7F4FB04B0BDE849
:108AC0007040FFF700BF00BF114D020002430200DB
:108AD000114302000000014038B50D460446FFF77F
:108AE00071FD1920FFF740FEFFF77DFE2946204665
:108AF000FFF7BAFD04461920FFF75EFEFFF784FD7D
:108B0000204638BD4FF4B47390FBF3F202FB130020
:108B10001844B0FBF3F203FB12005A28094B02DCA5
:108B200033F910007047B42802DCC0F1B400F7E755
:108B3000B0F5877FD4BFB438C0F5B47033F91000F6
:108B400040427047164D020070B500F58054002574
:108B50004FF0FF330646C4F8005EC4F8043EC4F884
:108B6000085EC4F80C5E4FF4F05229461AF0ABFBD5
:108B7000C4F8005E304670BD00F5805010B5B0F806
:108B80000C3EA3B1B0F8084E8C4212D823449BB2DD
:108B90008B420ED9B0F80A3E93420AD8B0F80E1EA6
:108BA000581880B2904294BF0020012010BD0120CF
:108BB000FCE70020FAE7EF29F8B504460D46164613
:108BC0001F461FD8EF2A1DD8FFF7D6FFD0B104F5F6
:108BD0008053D208D3F8041E002901DB914211D141
:108BE000F02106F0070601FB0655390A04F81510B6
:108BF00004EB4504012167709140D3F8002E0A432D
:108C0000C3F8002EF8BD2DE9F0471446BDF820202A
:108C1000BDF82480CD18F02D2244A8BFF025F02AFD
:108C2000A8BFF022EF2907460E4613D8EF2C11D823
:108C3000013A1FFA82F9E108C2F3CC0200F5805034
:108C40004FF0010C8A4201D31E2905D1013DADB27E
:108C50004C451AD9BDE8F087D0F8003E0CFA01FE69
:108C600043EA0E03C0F8003E0131EBE751464346AC
:108C700022463846FFF79FFF0AF1010A1FFA8AFAD7
:108C8000AA45F3D90134A4B2E2E7B246F8E72DE9E8
:108C9000F04F994687B00E461FFA89FC89B2BDF89D
:108CA0004050BDF940300093ACEB01071FFA87FA42
:108CB00014463FB292B2A5EB0208002F1FFA88FBC0
:108CC000B8BFA1EB0C010FFA88F8BCBF1FFA81FAFC
:108CD0000FB2B8F1000FA2BF521B1FFA82FB0FFAAE
:108CE00082F8B145D4BF4FF0FF3201220192009AC1
:108CF000BDF84430A242D4BF4FF0FF3201220AEB4C
:108D00000B0502922DB2B1B2EF290AD8A2B2EF2A16
:108D100007D8CDE904130390FFF74DFFDDE90413F5
:108D200003984E4502D1009A944214D01FFA85FC54
:108D30004FEA4C0212B2904505DC019EDC443144FE
:108D40000FFA8CF50EB29742DDDB029A55441444BB
:108D50002DB224B2D7E707B0BDE8F08F89B2EF2972
:108D600007D892B2EF2A04D8036840681B88FFF73F
:108D700022BF70472DE9F04F85B04FF0000B0090F7
:108D800099465C468EB297B2A14502DA05B0BDE8BD
:108D9000F08F0EAB0293009B03931FFA89FAA5B2E2
:108DA00016FA89F317FA84F41BB20FFA84F8A6EBCB
:108DB0000A041946424624B202A80193FFF7CEFFE7
:108DC0004246214602A8FFF7C9FF019B7A1B0FFA12
:108DD00082F81946424602A8FFF7C0FF42462146E4
:108DE00002A8FFF7BBFFAB190FFA83F80AEB0702E3
:108DF000741B12B224B2414602A80192FFF7AEFFE3
:108E00002146019A02A8FFF7A9FFA7EB0A0212B2B6
:108E1000414602A80192FFF7A1FF2146019A02A84C
:108E2000FFF79CFFBBF1000F05F10105C8BF0AF178
:108E3000FF3AABB22CB2C8BF0FFA8AF90BF10105A9
:108E4000ADB2C8BFA4EB090305EB43050FFA85FBE0
:108E50009AE710B44468036824781B8889B20CB977
:108E6000494289B21944C3681B7889B292B20BB9DE
:108E7000524292B2EF290CD883681B881A4492B2EE
:108E8000EF2A06D803695DF8044B1B884069FFF799
:108E900092BE5DF8044B70472DE9F04788B04FF063
:108EA000000A8DF803300368ADF80610ADF8042011
:108EB000B3F90050064654460DF106070DF10308BC
:108EC0000DF10409A54202DA08B0BDE8F08710AB45
:108ED0000593736806932946B3680793224602A850
:108EE000CDE90278CDF81090FFF7B3FF2A4621466E
:108EF00002A8FFF7AEFFBAF1000F04F10104C8BFEA
:108F000005F1FF35A2B20AF1010324B2C8BF2DB2A8
:108F10009BB2C8BF621B03EB42030FFA83FAD1E78F
:108F20002DE9F04F8BB08146BDF85470BDF850501C
:108F3000BDF858B00293884616462FBB0124CDF8E1
:108F400004B00094FFF75FFE6A1E3244029B92B2A7
:108F500041464846CDE9004BFFF755FE23463246D1
:108F600041464846CDE9005BFFF74DFE029B591E86
:108F70004144CDE9005B2346324689B24846FFF7BB
:108F800042FE0BB0BDE8F08F029CCDF804B0AC42BD
:108F900028BF2C466408BC4228BF3C460B199BB234
:108FA000039363009BB204930499029BADF81A40AB
:108FB0004FF0010A77195B1ABFB20399CDF800A0F0
:108FC0009BB20593FFF71FFE7A1E059B0399484647
:108FD000CDE900AB92B2FFF716FE049BED1A3444C4
:108FE000ADB2A2B2CDE9005B534641464846049279
:108FF000FFF709FE029B049A029208EB0304A4B255
:10900000611ECDE9005B5346484689B2FFF7FBFD80
:10901000029ABDF90C100DF11A030025079316AB47
:10902000CDE9083907A82B46009512B2FFF734FFA7
:10903000BDF81A1000958A19611A0139534607A81C
:1090400012B209B2FFF728FFBDF81A10CDF800A040
:109050007A1A013A41442B4607A812B209B2FFF727
:109060001BFFBDF81A30CDF800A0FA1AE11A013A38
:109070000139534612B209B207A8FFF70DFF80E786
:109080002DE9F84FBDF92840BDF92CA0BDF830B04E
:1090900006460F4690461D464FF4B479544501D11B
:1090A000BDE8F88F04F15A00FFF72CFD684348BF74
:1090B000FF3007EB2021EF290FD82046FFF722FDD4
:1090C000684348BFFF30A8EB2020EF2805D882B2C4
:1090D0005B4689B23046FFF76EFD013494FBF9F32D
:1090E00009FB134424B2D9E72DE9F74F03EB01093B
:1090F000BDF830B00D4690461E4600241FFA89F98F
:109100005C452DD20D9B04FB063A04EB080329466F
:109110009FB220E01AF8012B02F003034FEA521E1F
:109120004FEA921CC2F3820202EBC2024CEA8E0C9E
:10913000520142EACC2203EB830C5B0843EA4C0366
:1091400013439BB23A46CDE90001FFF734FD019984
:109150000098013189B28945DCD10134A4B2CFE74E
:1091600003B0BDE8F08F2DE9F04F87B0984608EBCB
:109170000109BDF84030BDF848A0BDF84CB00192DF
:109180000D46029300241FFA89F9029B9C4224D2C7
:10919000019BE21808FB04F6294692B218E0119FE1
:1091A0000390F3086FEA060CFB5C0CF0070C43FA23
:1091B0000CF313F0010F0CBF5B465346CDE90412CC
:1091C000FFF7F9FC0499059A0398013189B2013639
:1091D0004945E4D10134A4B2D7E707B0BDE8F08F28
:1091E00000F58050C0F8041E704700F58050A0F8CC
:1091F0000C3EBDF80030A0F8081EA0F80A2EA0F81A
:109200000E3E704700F580500023C0F80C3E7047BA
:1092100010B500230C0A421CC9B200F8134002F832
:1092200013100133B3F5F06FF7D110BD70B500F531
:1092300080540646D4F8045E002D16DB1D2D14D88C
:10924000E90089B2CB1D9BB2EF220020FFF71AFB89
:109250004FF470613046FFF73FFC0122D4F8003E26
:10926000AA4018B91343C4F8003E70BD23EA0203B4
:10927000F9E700000D4A4FF08023C2E900330C4BA0
:10928000C3F820250422C3F8242501210022C3F8B5
:109290002825C3F82C2599605960C3F800254FF0A4
:1092A000A043044AC3F80825704700BF10310020CE
:1092B00000C001400040C0004FF0A04303224FF423
:1092C0008041C3F83827C3F808154FF48001C3F86C
:1092D0005827C3F80815C3F85C274FF40002C3F8F9
:1092E0000825114B00220E21C3F80025C3F8601594
:1092F0001621C3F864151721C3F868154FF0004113
:10930000C3F86C15FF21C3F80425C3F80C25C3F876
:1093100008150221C3F81015C3F814250122C3F85B
:109320000025FFF7A7BF00BF00C0014010B418B967
:109330005DF8044BFFF79EBF104C1149642828BF0D
:109340006420C0EB00236422B3FBF2F30D4A2343F5
:109350009BB20120C2F800050B804B808B80042358
:10936000CC80C2F82015C2F824350023C2F8283575
:109370005DF8044BC2F82C35906070470080FFFF09
:109380001031002000C00140FFF774BF1920FFF723
:10939000CDBF3C20FFF7CABF6420FFF7C7BF4FF027
:1093A00040230022C3F80421C3F82421C3F860211C
:1093B000C3F85C21C3F848217047F8B506460D464E
:1093C000FEF758FF4FF040240746D4F8043123B18C
:1093D0000023C4F804310120F8BDD4F8242122B3BD
:1093E000C4F82431D4F8C434C4F8C4349A071AD465
:1093F00013F0040F14BF032304234FF040242B70F9
:109400000023C4F8043101236361FEF733FF0546EE
:10941000D4F804312BB9FEF72DFF401BB0F57A7F4D
:10942000F6DD0020D8E70223E7E7FEF723FFC31BA2
:10943000B342CADD01232B706361F2E74FF0402392
:1094400070B500224FF0A044C3F8002540F20D6330
:10945000C4F81C378026C4F818374023C4F80865C0
:109460000520C4F80835FEF70DFF0925D4F810359E
:109470005B060BD40520C4F80C65FEF703FFC4F8A7
:1094800008650520FEF7FEFE013DEFD14FF0A04438
:1094900040250520C4F80C55FEF7F4FE8023C4F8DF
:1094A00008350520FEF7EEFEC4F808550520FEF746
:1094B000E9FE0C23C4F81C37C4F818374FF04023DA
:1094C0000722C3F808250622C3F80C25C3F8002597
:1094D00070BD08B54FF040214FF0A04200230C2092
:1094E000C1F80035C2F81C07C2F818070722C1F8F6
:1094F000082506204FF0C862C1F80C05C1F82425E4
:10950000C1F80032FFF74BFFC1F8000508BD73B585
:1095100006461546184612B34FF040240623C4F8F9
:109520000035FFF73CFF4FF48073C4F88865C4F83A
:109530004415C4F84855C4F800320123A36000253F
:109540000DF107018DF80750FFF737FF28B9FFF736
:1095500075FF9DF8070002B070BDC4F800520020EE
:10956000F9E773B506461546184612B34FF0402486
:109570000623C4F80035FFF712FF4FF48053C4F8F8
:109580008865C4F83415C4F83855C4F8003201238E
:10959000236000250DF107018DF80750FFF70DFF3F
:1095A00028B9FFF74BFF9DF8070002B070BDC4F863
:1095B00000520020F9E72DE9F3471D46DDE90A874F
:1095C00016463AB93B464246294602B0BDE8F04746
:1095D000FFF7C7BFB8F1000F05D13B4602B0BDE8A9
:1095E000F047FFF794BF4FF040240623C4F800353E
:1095F000FFF7D5FE4FF4A053C4F88805C4F844150E
:10960000C4F84865C4F83455C4F83885C4F8003245
:109610000123A36000250DF1070138468DF807509E
:10962000FFF7CBFE30B9FFF709FF9DF8070002B046
:10963000BDE8F087C4F800522846F8E7104BD3F88D
:109640007C21AAB10022C3F87C210E4B01221A70A2
:109650004FF0A043D3F8702722F44031C3F87017BD
:1096600042F440324FF08051C3F82015C3F8702700
:10967000034BD3F8002112B10022C3F80021704738
:1096800000600040193100207FB51D4B4FF0A04510
:1096900000241C704FF480660323C5F828370A2085
:1096A000C5F80C65FEF7FEFDC5F808653220FEF72B
:1096B000F9FD144BC5F87037134B4FF00042C3F857
:1096C0001045C3F87C41C3F804234FF0E023402247
:1096D000C3F88022C3F8002162B601224FF4FA6376
:1096E000CDE900230DF10F010DF10E0315208DF8CA
:1096F0000E408DF80F40FFF75EFF04B070BD00BF55
:10970000193100200C00030000600040014B187864
:10971000704700BF1931002030B5214A117800236D
:1097200093B004460360436001B113703F252A469D
:10973000002102A819F0C7FD40F6B833CDE9005367
:10974000184902AB01221520FFF735FF20BB9DF819
:10975000093023709DF80A309DF80D209DF80B10FC
:1097600003F00F03637012029DF80E3002F4706272
:10977000134309029DF80C2001F470610A43EF2A9B
:10978000A8BFEF22EF2BA8BFEF23A380238862801E
:10979000003B18BF0123A371204613B030BD00BFAA
:1097A000193100201831002008B5FEF7A2FD044A47
:1097B00000231370034A1370034A137008BD00BFDF
:1097C000243100201A3100201B31002037B5042538
:1097D0000024FEF7AFFD013D0444FAD1FEF74AFD37
:1097E000414B1A78042A0AD8DFE802F0031A2C4DFC
:1097F0006D00022C05D901221A703C4B1860002321
:1098000034E03B4A1378002BF9D0384B39491B68B8
:10981000C31A8B42F3DD0023137040F2011325E0DD
:10982000022C02D800221A70E9E7304A126844F686
:109830002061801A8842E2DD022119702E4B1A60E5
:109840002E4BEFE7022C01D80322D5E72B490A78EB
:10985000002AD4D1284B1B68C31A29488342CEDD85
:1098600001230B70224B1A704FF48173ADF8043052
:109870009DF80430002063F307009DF8053063F382
:109880000F2003B030BD022C01D90222CBE7174CC8
:10989000226844F62061821A8A42B0DD174A1178A4
:1098A000134A19B1002119701170A8E7157825B174
:1098B0001970117040F20313D8E7012111700422CE
:1098C0001A7020609BE7022C084A03D90121197005
:1098D000106094E71268801A064A90428FDD0022D9
:1098E0001A70034B1A7098E72431002020310020B1
:1098F0001A310020305705001C3100201B31002098
:1099000020A10700F0B51AB315461C464FF0000C15
:10991000634505D1A3421BD90C235C43105BF0BD0A
:10992000EF888FB12E897EB1B5F802E070450BD378
:109930007744BFB2B84207D2AF88B94204D33E449D
:10994000B6B2B14238BF64460CF1010C0C35DFE70A
:109950004FF6FF70E3E70000024A00231360024A5B
:10996000136070472C31002028310020024B186012
:10997000024B1960704700BF2C31002028310020B5
:1099800037B5324A13680360536843609368836055
:109990000446FFF71BFF10F47F4FADF8000008D01E
:1099A0009DF800302BB104222270E371204603B0F1
:1099B00030BDFFF7ABFE0028F8D06846FFF7ACFEDD
:1099C0009DF80630002BF1D09DF80030BDF8020064
:1099D000BDF8041060805A1EA1800B2AE6D801A5AC
:1099E00055F822F0379A0000379A0000379A0000A5
:1099F000379A0000159A0000AD990000AD9900005B
:109A0000AD990000AD990000AD9900001B9A0000CF
:109A1000339A00000123237003E0052323700223FF
:109A2000A3720B4B0B4A1B681268FFF76BFF208178
:109A3000BCE70223EFE7023BDBB20322022B2270DA
:109A400096BF054A0123D35CA371AFE7D04D020056
:109A5000283100202C310020CC4D02001FB50446D7
:109A600001A880E80E0007C884E80B00069BE360AD
:109A7000079B23610023C4E905334FF6FF73A383DB
:109A800004B010BDC0E905127047034610B41C684D
:109A90000846114664B158B152B11A691AB1127E22
:109AA000023A022A04D89A6823465DF8044B184704
:109AB0005DF8044B704703464069F0B560B1D3F8D8
:109AC00018C0002703466646BC4506D1B44586BF8C
:109AD0000C2303FB06000020F0BDDD888DB11C893E
:109AE0007CB1B3F802E071450BD37544ADB2A94225
:109AF00007D29D88AA4204D32C44A4B2A24238BF04
:109B00003E4601370C33DFE7022804D0C31E58421B
:109B1000584140007047012070477FB50B78013BEA
:109B200004460D46042B15D8DFE803F064642003D7
:109B300097000369CA797BB19B7E6BB1012A0BD177
:109B4000062369468DF80030FFF79FFF206900214A
:109B500002F0FEFB04B070BD1046FFF7D5FF0423F2
:109B60008DF800308DF80100022231E08B794A88AF
:109B7000042B28BF01230F2A12D8032B10D140F247
:109B80000921ADF800108DF80320694604228DF8F4
:109B90000230FFF77AFF20690028DBD00021D7E7E9
:109BA000E06808B300F500525168E9B1B2F89411C9
:109BB0009BB9183189B201F057FDE36803F50053F2
:109BC0000522B3F89431ADF80020ADF8023004223C
:109BD00069462046FFF759FFBCE7012B04D118293D
:109BE00038BF18211839E5E703228DF800208DF8D9
:109BF0000130B9E78A884988FFF75DFFD8B1837AD9
:109C0000DE06A7D41907068848BFA6835A0704D5DD
:109C1000636813B1A168002098472A78022AF3B23A
:109C20004FEA16260AD18DF800208DF801308DF804
:109C300002600322CCE74FF6FF76EEE72A79A97897
:109C40008DF8042001208DF800008DF801308DF88A
:109C500002608DF803100522BAE78A884988FFF769
:109C60002AFF0346D0B1827A12F0100016D11E8866
:109C7000530703D563680BB1A1689847AA78A97AFE
:109C80002B798DF8042008208DF800008DF8011044
:109C9000ADF802608DF80530062299E74FF6FF76A1
:109CA000ECE7037B10B54BB9D0E90142A24298BF63
:109CB000A31A99424FF0010302D90373002010BD8B
:109CC0001846FCE710B501210446FFF7EAFF20B172
:109CD000A3682268591CA160D05C10BD037B70B5DD
:109CE00004460E46154623BB1AB3FFF7EBFF0346A7
:109CF000207BF8B99BB902212046FFF7D2FF03462B
:109D000048B1A2682068511CA160835C0232A26045
:109D1000425C43EA0223207B60B92B800AE0013BCE
:109D2000DBB20F2B03D8F21892F820201AB90223C5
:109D30002373022070BD36F81330EEE738B5037B8D
:109D400005460C464BB941B1FFF7BCFF0346287BE3
:109D500020B93F2B03D902232B73022038BD03F017
:109D60000302032AF7D0C3F38703012B38BF012373
:109D700022706370F2E700290CBF002000F00100A0
:109D8000704710B502210446FFF78BFF48B1A36866
:109D900021685A1CA260C85C0233A3608B5C40EA55
:109DA000032010BD38B504460D46FFF77AFF20B1F9
:109DB000A368206818442B44A36038BD10B504463E
:109DC000EF2C18460CD8EF290AD84AB13BB11444FD
:109DD000F02C05DC1944F029CCBF0020012010BD77
:109DE0000020FCE72DE9F04FA1B00F4616460021F8
:109DF00014222A9C05469B4619F065FA37B94EB1E4
:109E000002232B70284621B0BDE8F08FDBF8043028
:109E1000B342F5D3CDE9107600263022314614A89E
:109E200012968DF84C6019F04EFA0A9609969DF834
:109E30004C30002B73D1DDE91173BB426FD20A9A0B
:109E400022B96E68DBF80020964203D302222A7002
:109E5000AB60D7E710A8FFF735FF9DF84C30804680
:109E6000002B5CD100F12003DBB201360F2B6E60BA
:109E700000F2948010A8FFF784FF9DF84C3006464E
:109E8000002B4CD1014610A8FFF70BFF002846D04D
:109E9000129BBB428CBF0A9FFF1AB8F1E00F61D141
:109EA00010A8FFF70FFF0D9010A8FFF70BFF8246D9
:109EB00010A8FFF707FF9DF84C3081467BBB0DF1E2
:109EC0003E0214A910A8ADF83E30FFF707FF30BBE3
:109ED00010A8FFF7F7FE0B9010A8FFF7F3FE8046DF
:109EE00010A8FFF7EFFE9DF84C300C90BBB90D9B0E
:109EF000E3B9BAF1EF0F19D8B9F1EF0F16D80B9BF0
:109F0000022B13D808F1FF33DBB20F2B0ED801461A
:109F100010A8FFF747FF9DF84C2003465AB12B7855
:109F2000002B40F0BA809DF84C3026E002238DF8DB
:109F30004C302B70F3E79BF808002146FFF71BFF1E
:109F400080B1226804930C9BCDE902830B9B0193A3
:109F5000BDF83E300093D2F82C804B46524600218B
:109F60002046C047DDE91138984594BFA3EB0803AC
:109F70000023FA1A964202D202232B708DE0F61BC0
:109F80001E44314610A8FFF78CFE08B146441296D5
:109F90009DF84C30002B3FF44AAFC0E7312839D848
:109FA000002844D000F1FF38B8F1300F3FD8DFE887
:109FB00018F05A007600A100EE0045019201DA0186
:109FC0002E028002B4023E003E003E003E003E00F3
:109FD000C1021C038A03CD033E003E003E003E004A
:109FE0003E003E003E003E003E003E003E003E0081
:109FF000010458043E003E003E003E003E003E008C
:10A000003E003E003E003E003E003E003E003E0060
:10A01000B104FF04602800F099850DD8502800F0A5
:10A020000C85512800F06685402800F0D884022372
:10A030008DF84C302B702CE0F02800F0B685F1281C
:10A0400000F0DF856128F2D110A8FFF73BFE9DF8F4
:10A050004C200346EAB9642840F2988502238DF823
:10A060004C302B7015E000230DF13E0214A910A80E
:10A07000ADF83E30FFF732FE58B99BF80800214694
:10A08000FFF779FE28B12368BDF83E101B68204613
:10A0900098472B78022B7FF47BAF129BD8E610A851
:10A0A000FFF710FE064610A8FFF76BFE9DF84C3038
:10A0B0000246002BEDD10F2E04D902238DF84C302F
:10A0C0002B70E6E720AB03EB4603012123F8300CAD
:10A0D00006F180036B449BF8080003F8101C21462E
:10A0E000FFF749FE0028D4D0236831465B6820463C
:10A0F0009847CEE710A8FFF7E5FD064610A8FFF742
:10A10000E1FD074610A8FFF7DDFD804610A8FFF728
:10A11000D9FD9DF84CA08146BAF1000FB9D1034694
:10A12000424639463046FFF749FE20B902238DF8F2
:10A130004C302B70ADE74FF480730DF13E0214A943
:10A1400010A8ADF83EA0ADF83C30FFF7C7FD0028E1
:10A150009FD10FA910A8FFF7F1FD002899D19BF816
:10A1600008002146FFF707FE002892D0BDF83C20EA
:10A170002368ADF80820BDF83E20CDE900923146B5
:10A18000D3F808903A4643462046C84781E710A8CE
:10A19000FFF798FD064610A8FFF794FD074610A8A4
:10A1A000FFF790FD804610A8FFF78CFD814610A8B0
:10A1B000FFF788FD9DF84CA00B90BAF1000F7FF4DB
:10A1C00068AF4B46424639463046FFF7F7FD20B9A7
:10A1D00002238DF84C302B705BE74FF480730DF148
:10A1E0003E0214A910A8ADF83EA0ADF83C30FFF730
:10A1F00075FD00287FF44DAF0FA910A8FFF79EFD55
:10A2000000287FF446AF9BF808002146FFF7B3FD16
:10A2100000283FF43EAFBDF83C202368ADF80C2089
:10A22000BDF83E2002920B9ACDE900923146D3F858
:10A230000C903A4643462046C8472AE710A8FFF745
:10A2400041FD064610A8FFF73DFD074610A8FFF7A1
:10A2500039FD804610A8FFF735FD9DF84C3081464A
:10A26000002B7FF416AFEF2E30D8EF2F2ED8B8F199
:10A27000EF0F2BD8EF2829D80DF13E0214A910A812
:10A28000ADF83E30FFF72AFD00287FF402AF10A89A
:10A29000FFF718FD9DF84C200346002A7FF4F9AE25
:10A2A0009BF808002146FFF766FD00283FF4F1AE59
:10A2B00022680293BDF83E30CDE900933146D2F8D2
:10A2C000109043463A462046C847E2E602238DF8FE
:10A2D0004C302B70DDE610A8FFF7F4FC064610A802
:10A2E000FFF7F0FC074610A8FFF7ECFC9DF84C3098
:10A2F0008046002B7FF4CDAEEF2E2FD8EF2F2DD838
:10A30000ADF83E300DF13E024FF4807314A910A851
:10A31000ADF83C30FFF7E2FC00287FF4BAAE0FA99D
:10A3200010A8FFF70BFD00287FF4B3AE9BF80800E0
:10A330002146FFF720FD00283FF4ABAEBDF83C20DE
:10A340002368ADF80420BDF83E200092D3F81490A5
:10A350003A46434631462046C8479AE602238DF8DE
:10A360004C302B7095E610A8FFF7ACFC064610A801
:10A37000FFF7A8FC074610A8FFF7A4FC824610A828
:10A38000FFF7FFFC804610A8FFF7FBFC9DF84C3060
:10A390008146002B7FF47DAEEF2E33D8EF2F31D8DE
:10A3A000B8F5B47F2ED2B0F5B47F2BD20DF13E02BA
:10A3B00014A910A8ADF83E30FFF790FC00287FF4F8
:10A3C00068AE10A8FFF77EFC9DF84C200346002ADB
:10A3D0007FF45FAE9BF808002146FFF7CCFC002815
:10A3E0003FF457AE22680393BDF83E30CDF80080AD
:10A3F000CDE901933146D2F8188053463A462046BB
:10A40000C04746E602238DF84C302B7041E610A879
:10A41000FFF758FC9DF84C300646002B7FF439AE10
:10A42000012804D802238DF84C302B7031E60DF151
:10A430003E0214A910A8ADF83E30FFF74FFC0028EB
:10A440007FF427AE10A8FFF73DFC9DF84C3007467F
:10A45000002B7FF41EAE710010A8FFF7A3FC9DF83F
:10A460004C200346002A7FF414AE013013F812107A
:10A47000EF29D7D810F81210EF29D3D80132D1B272
:10A480008E42F3D82A78022A3FF403AE9BF80800E4
:10A490002146FFF770FC00283FF4FBAD22680093D3
:10A4A000D2F81C80BDF83E203B4631462046C047CE
:10A4B000EFE510A8FFF706FC064610A8FFF702FC20
:10A4C000074610A8FFF7FEFB804610A8FFF7FAFB2F
:10A4D0009DF84C308146002B7FF4DBAD03464246AD
:10A4E00039463046FFF76AFC20B902238DF84C301C
:10A4F0002B70CEE59BF808002146FFF73CFC0028B6
:10A500003FF4C7AD2368CDF80090D3F820903A46C9
:10A51000434631462046C847BBE59BF80800214624
:10A52000FFF729FC00283FF4B4AD236820465B6A9E
:10A530009847AEE510A8FFF7C5FB804610A8FFF7C7
:10A54000C1FB064610A8FFF7BDFB9DF84C3007463F
:10A55000002B7FF49EADB8F1000F41D1EF2E3FD814
:10A56000EF283DD80DF13E0214A910A8ADF83E80A9
:10A57000FFF7B4FB00287FF48CAD10A8FFF7A2FB17
:10A58000804610A8FFF79EFB9DF84C308146002BBB
:10A590007FF47FADB8F1020F22D8014610A8FFF773
:10A5A00001FC9DF84CA00346BAF1000F7FF471AD99
:10A5B0009BF808002146FFF7DEFB00283FF469AD59
:10A5C0002268CDF80480CDE90293BDF83E300093B7
:10A5D000D2F828803B46324651462046C04758E5CF
:10A5E00002238DF84C302B7053E510A8FFF76AFB5F
:10A5F000074610A8FFF766FB0B9010A8FFF762FB59
:10A600000C9010A8FFF75EFB064610A8FFF75AFB58
:10A610009DF84C300D90002B7FF43BAD002F4DD1B9
:10A6200003463246DDE90B01FFF7C8FB002845D0A1
:10A630000DF13E0214A910A8ADF83E70FFF74EFBD5
:10A6400000287FF426AD10A8FFF73CFB074610A8B2
:10A65000FFF738FB804610A8FFF734FB9DF84C301D
:10A660008146002B7FF415AD022F27D8B8F1070FD4
:10A6700024D8014610A8FFF795FB9DF84CA003468F
:10A68000BAF1000F7FF405AD9BF808002146FFF7F3
:10A6900072FB00283FF4FDAC2268CDE90593BDF8BC
:10A6A0003E3002930D9BCDE90378CDE9006351461E
:10A6B000176B2046DDE90B23B847EAE402238DF847
:10A6C0004C302B70E5E410A8FFF7FCFA064610A802
:10A6D000FFF757FB074610A8FFF7F4FA804610A8CB
:10A6E000FFF7F0FA9DF84C308146002B7FF4D1AC97
:10A6F0003EBB022F25D8B8F1EF0F22D8EF2820D883
:10A700000DF13E0214A910A8ADF83E60FFF7E6FA7D
:10A71000064600287FF4BDAC9BF808002146FFF7F1
:10A720002AFB00283FF4B5ACBDF83E202368CDE9F4
:10A7300000923146D3F834903A4643462046C84703
:10A74000A7E402238DF84C302B70A2E410A8FFF789
:10A75000B9FA804610A8FFF714FB064610A8FFF7C9
:10A76000B1FA074610A8FFF7ADFA9DF84C20034652
:10A77000002A7FF48EACB8F1000F16D1AEB9EF2FDE
:10A7800013D8EF2811D89BF808002146FFF7F3FAF9
:10A7900000283FF47EAC22680093D2F838803B4614
:10A7A000324631462046C04773E402238DF84C30D0
:10A7B0002B706EE410A8FFF785FA0B9010A8FFF736
:10A7C00081FA074610A8FFF77DFA804610A8FFF728
:10A7D00079FA814610A8FFF775FA9DF84C60824619
:10A7E000002E7FF456AC0B984B4642463946FFF795
:10A7F000E5FA88B3BAF1640F2ED80FAA14A910A8ED
:10A80000ADF83C60ADF83E60FFF768FA00287FF4D1
:10A8100040AC0DF13E0214A910A8FFF75FFA002822
:10A820007FF437AC9BF808002146FFF7A4FA002814
:10A830003FF42FACBDF83E2023680392BDF83C20C6
:10A84000CDF80090CDE901A20B99D3F83C903A469F
:10A8500043462046C8471CE402238DF84C302B7039
:10A8600017E410A8FFF72EFA064610A8FFF72AFAF9
:10A87000074610A8FFF726FA814610A8FFF722FA2C
:10A880009DF84C308046002B7FF403ACEF2E3BD874
:10A89000EF2F39D8642837D80FAA14A910A8ADF81B
:10A8A0003C30ADF83E30FFF719FA00287FF4F1ABE9
:10A8B0000DF13E0214A910A8FFF710FA00287FF44A
:10A8C000E8AB10A8FFF7FEF99DF84C200346002ADC
:10A8D0007FF4DFAB9BF808002146FFF74CFA002815
:10A8E0003FF4D7AB22680393BDF83E300293BDF826
:10A8F0003C30CDE900833146D2F840804B463A46A1
:10A900002046C047FFF7C5BB02238DF84C302B70A3
:10A91000FFF7BFBB10A8FFF734FA0B9010A8FFF7A2
:10A92000D1F9064610A8FFF7CDF9074610A8FFF7A2
:10A93000C9F9804610A8FFF7C5F9814610A8FFF7AE
:10A94000C1F99DF84C308246002B7FF4A2AB4B46F8
:10A95000424639463046FFF731FA58B1BAF11F0F77
:10A9600008D8099B072B0BD902238DF84C302B708C
:10A97000FFF78FBB02238DF84C302B70FFF789BB9C
:10A980009BF808002146FFF7F6F920B9099B01332F
:10A990000993FFF77EBB2368CDF80080CDE9019ACB
:10A9A0000B99D3F8448032463B462046C047EDE73A
:10A9B000099B2BB902238DF84C302B70FFF769BB34
:10A9C0009BF808002146FFF7D6F918B12368204606
:10A9D0009B6C9847099B013B0993FFF75ABB10A852
:10A9E000FFF770F9064610A8FFF76CF9074610A8A4
:10A9F000FFF7C7F99DF84C200346002A7FF449ABC6
:10AA0000EF2E14D89FB1F219F02A10DC9BF8080041
:10AA10002146FFF7B0F900283FF43BAB22683146EE
:10AA2000D2F84C8020463A46C047FFF732BB02239B
:10AA30008DF84C302B70FFF72CBB10A8FFF742F9B4
:10AA40000D9010A8FFF73EF9824610A8FFF73AF9DB
:10AA50000B9010A8FFF736F9074610A8FFF732F958
:10AA60000C9010A8FFF72EF9804610A8FFF72AF9DE
:10AA7000814610A8FFF785F99DF84C300646002B5B
:10AA80007FF407AB0C9B0B993A465046FFF796F9BB
:10AA900050B3B8F1030F27D8B9F1010F24D8B6F598
:10AAA000805F21D8314610A8FFF77CF99DF84C2033
:10AAB0000346002A7FF4EDAA9BF808002146FFF721
:10AAC0005AF900283FF4E5AA22680D99CDE90463FC
:10AAD0000C9BCDE90289CDE900732046166D0B9BD6
:10AAE0005246B047FFF7D5BA02238DF84C302B7091
:10AAF000FFF7CFBA10A8FFF7E5F8074610A8FFF751
:10AB0000E1F8064610A8FFF7DDF89DF84C20034653
:10AB1000002A7FF4BEAAEF2E12D8EF2810D89BF897
:10AB200008002146FFF727F900283FF4B2AA22685F
:10AB30003946D2F8548020463246C047FFF7A9BABA
:10AB400002238DF84C302B70FFF7A3BA10A8FFF743
:10AB5000B9F89DF84C200346002A7FF49AAA0428ED
:10AB600005D902238DF84C302B70FFF792BA9BF871
:10AB700008002146FFF7FFF800283FF48AAA226860
:10AB80001946926D20469047FFF783BA9BF808005C
:10AB90002146FFF7F0F800283FF47BAA2268194607
:10ABA000D26D20469047FFF774BA10A8FFF78AF8D5
:10ABB0009DF84C200346002A7FF46BAA032805D990
:10ABC00002238DF84C302B70FFF763BA099A2AB133
:10ABD00002238DF84C302B70FFF75BBA01226873AB
:10ABE00021469BF808002A73FFF7C5F818B901231E
:10ABF0000A93FFF74EBA22681946126E2046904714
:10AC0000F5E710A8FFF7BDF89DF84C200346002A91
:10AC10007FF43FAA0122E88121469BF808002A74AC
:10AC2000FFF7A9F800283FF434AA22681946526EAB
:10AC300020469047FFF72DBA70477047704770471E
:10AC40007047704770477047704770477047F0B45F
:10AC5000089CBDF810509DF814609DF81C70D0F849
:10AC600000C0CDE90674CDE90456DCF82840A446BE
:10AC7000F0BC604770477047704770477047704737
:10AC8000704770477047704770477047704770470C
:10AC900030B5046D072C11D8651C0234056500EB36
:10ACA000C40520F83410EB709DF80C302B719DF822
:10ACB00010306B719DF81430AA70AB7130BD026D0D
:10ACC0002DE9F34103466AB3511E013200EBC20283
:10ACD000016592E8030002AA02E903009DF806500C
:10ACE000AA071FD45C68ECB19868D8B10268DB6829
:10ACF0009A4217D20C21514363189DF802E09DF847
:10AD000003C09DF804709DF80560BDF8008024F82C
:10AD100001800132A3F802E0A3F804C0DF801E81A5
:10AD20009D72026002B0BDE8F08110B5446D04B1BF
:10AD30002170816D01B10A70C26D02B11380036E82
:10AD40000BB101221A7010BD704770470846FEF71C
:10AD5000EDBA0000042938B59ABF094B5D5C1E2589
:10AD60000C462846FDF7B9FA022C07D12820FDF73A
:10AD700099FA2846BDE83840FDF7AFBA38BD00BFA4
:10AD8000DC4D020010B504464068FEF73BFA002394
:10AD9000237410BD0123018183724068FEF738BA25
:10ADA0002DE9F04F8BB090469DF85C609DF85420E3
:10ADB0000390B0000C4604939DF85010834606EBB8
:10ADC0004609BAB1531E03FB00939BB2012913D16C
:10ADD000B4EB530F4FEA530114D9631A9CB2169F78
:10ADE00033180593BB180793079B9F420CD10BB0F8
:10ADF000BDE8F08F1346E9E70229F0D1A34201D262
:10AE0000E31AEBE70024EAE717F8015B2D3D0D2D6F
:10AE100042460BD9049B0193059B009303984B4634
:10AE20002146FDF7F0FE5C44A4B2DDE7134BEDB222
:10AE300005EB85051D446B1D069321464FF0020A64
:10AE40002B7823FA0AF3DB070AD5049B0398CDE994
:10AE500000633346CDE90812FDF7D5FEDDE908129F
:10AE60000AF1FF3A3144BAF1FF3F89B2E8D1069BBB
:10AE7000013532449D4292B2DFD1D4E7344F020013
:10AE800007B50123C17202730374009240680A4639
:10AE9000F0230021FEF7A9F903B05DF804FB28B107
:10AEA00019448B1A04D4EF2B04DCDBB2184670472C
:10AEB0000023FBE7EF23F9E72DE9F04F85B0D0F849
:10AEC00004909DF83880BDF83CA00F461D46C17A1D
:10AED0001346C289007CFFF7E2FF9DF840409DF8D1
:10AEE00041B014F0FD0F064607D10246CDE9008AB5
:10AEF0002B4639464846FDF786FE013C012C23D8F7
:10AF000000241EE0B5EB440F4FEA44031CD99845DA
:10AF10001AD9A1B2C1EBC130400080B205EB000CE0
:10AF200040447218002380B2394401930090CDF858
:10AF300008A01FFA8CF392B289B24846FDF7F0FFE1
:10AF40000134E3B25B45DDD305B0BDE8F08F2DE9F8
:10AF5000F74F04460D461F46C17A9DF83C809DF888
:10AF600030909DF834B0BDF838A01346C289007CFB
:10AF7000FFF795FF18F0FD0F064607D1CDE9009ABF
:10AF800002463B4660682946FDF73DFE08F1FF3862
:10AF9000B8F1010F0CD8CDE90DBACDF8309060684A
:10AFA0003B463246294603B0BDE8F04FFDF7B8BF37
:10AFB00003B0BDE8F08F2DE9F04F85B004460F4691
:10AFC0009946C17A9DF83C60BDF838A01346C28905
:10AFD000007CFFF764FF16F0FD0580460FD102B23A
:10AFE0000FFA87FBCDF800A0EBB2606803925946D8
:10AFF0000135FDF7BFFEEBB24B45039AF2D9013E96
:10B00000012E0BD8CDF838A060684B460FFA88F2B5
:10B01000394605B0BDE8F04FFDF7ACBE05B0BDE860
:10B02000F08F2DE9F14F077C90F80BB0D0F8048039
:10B030009DF828A0BDF82C900C461E465946134694
:10B04000C2893846FFF72BFF534605465946384616
:10B05000FFF725FF00B20A9033462AB22146404648
:10B06000CDF82C9001B0BDE8F04FFDF710BE2DE9F2
:10B07000F04F85B005460E9C0E46904600270137DE
:10B08000FBB29E4204F1020402D805B0BDE8F08F85
:10B0900095F810B0E97AEA8914F8013C0391584612
:10B0A000FFF7FDFE63780399D5F804A08146584662
:10B0B000FFF7F5FE00B20090CDF80480237814F875
:10B0C000021C0FFA89F25046FDF7E1FDD7E72DE9A2
:10B0D000F047D0F80480BDF82060BDF82470BDF8BA
:10B0E00028900C461D46C17A1346C289007CFFF7A2
:10B0F000D6FE3FB236B2CDF82890099708962B4677
:10B1000002B221464046BDE8F047FDF7B9BF2DE940
:10B11000FF470546BDF838909DF83040BDF834A093
:10B120000E461F46C17A1346C289007CFFF7B7FE60
:10B13000CDF8089040F267134FF00009CDE9009375
:10B140000FFA80F836B23FB23B4668684246314655
:10B15000FDF796FF4FF4B47314FB03F46423B4FBC0
:10B16000F3F46CB124B2CDE90C94CDF838A0686842
:10B170003B464246314604B0BDE8F047FDF780BF8C
:10B1800004B0BDE8F0872DE9F04146689DF81870DD
:10B190000C461D46C17A1346C289007CFFF77FFE2C
:10B1A000069702462B4621463046BDE8F041FEF7A1
:10B1B0001CB82DE9F04F87B005469DF84CB00392BE
:10B1C000159A9DF840609DF844709DF84840BDF880
:10B1D00050A00492BBF1000F60D1C289C17A007CFB
:10B1E000FFF75DFE814674BB06FB07F3BAEB430F26
:10B1F00054D3A3461FFA8BF297424FD9049B4A447B
:10B2000003EB440A4FF0000892B212E0039B1AF8D5
:10B21000010C059219441AF8023C43EA00230193F9
:10B2200001230093686889B2FDF7EDFC059A08F1E7
:10B2300001081FFA88F18E420AF1020AE6D80BF1E2
:10B24000010B3444D6E7012C0FD107FB06F39A45D6
:10B2500024D3049B0399CDE91073024668683346F2
:10B2600007B0BDE8F04FFDF73FBF032C16D107FB39
:10B2700006F30733BAEBD30F10D34FF6FF731293D5
:10B28000049BCDF84CB0CDE9107302460399686871
:10B29000334607B0BDE8F04FFDF765BF07B0BDE826
:10B2A000F08F2DE9F0474568C17ABDF820609DF820
:10B2B00028809DF82470DDF82C901446C289007C0B
:10B2C000FFF7EDFD0123CDE90A93CDE908780246A9
:10B2D000334621462846BDE8F047FFF761BD2DE91A
:10B2E000F0474568C17ABDF820609DF82C809DF834
:10B2F00024709DF828901446C289007CFFF7CFFD8A
:10B300000C9BCDF82C90CDE9098302460897334673
:10B3100021462846BDE8F047FFF742BD2DE9F04140
:10B320004568C17ABDF820609DF824709DF82C8096
:10B330001446C289007CFFF7B2FD012309930C9BE0
:10B340000697CDE907830246334621462846BDE8E5
:10B35000F041FFF725BD70B5C2894568C17A007C10
:10B36000BDF814601C469DF81030FFF798FD0823C7
:10B3700002460596049321462846BDE87040FDF735
:10B3800042BC37B54568C289C17A007C1C469DF82D
:10B390001830FFF784FD102347F6EF31CDE9003177
:10B3A000024621462846FDF72EFC03B030BD2DE9AC
:10B3B000F74F9DF83080BDF83CB09DF834A0BDF843
:10B3C00038901D46044613460E46C289C17A007C59
:10B3D000FFF765FDCDE9008B2B4602460746314657
:10B3E00060680AFB05F5FDF70EFC632D0CD9CDE96D
:10B3F0000C8960683A4631466423B5FBF3F303B029
:10B40000BDE8F04FFDF7FFBB03B0BDE8F08F016072
:10B4100000F5005000234360C0F88C3180F896316D
:10B42000A0F894317047000070B500F50055A4B045
:10B430000026044644223146C5E9636685F89661D4
:10B440000FA817F040FF1F4B0B932B460A330C93AA
:10B4500004F506530C330D9320230E9304F5065385
:10B460001033209304F506531133174A219304F542
:10B47000065307CA1233229304F506531633239357
:10B4800008AB83E8070001228DF828200BAA009260
:10B4900004F580516A68043102A8FEF7A3FC95F810
:10B4A00096316BB1B5F8923195F89121934284BFF2
:10B4B0009B1A9EB2B5F89431B34288BFA5F8946147
:10B4C00024B070BDEC4D02007C4F02002DE9F0432A
:10B4D000036891B00446002B3FD000F500577A680E
:10B4E000002A3AD01E4ADFF87C800025CDE90B23E4
:10B4F00000F58056B7F894310F95CDE90D55A94662
:10B50000ADF83A30043629462068FDF769FE206818
:10B51000FDF778FE20680021FDF77AFE98E8070025
:10B5200008AB83E8070001228DF828200BAA0092BF
:10B530007A688DF83C90314602A8FEF753FC01353D
:10B540002068FDF773FE1E2DDDD120684FF0FF311E
:10B55000FDF746FE2068FDF755FE11B0BDE8F0830B
:10B560005C4E02007C4F02002DE9F0430D4695B081
:10B570009046002114221F46044617F0A4FE2B68B3
:10B5800013B1B8F1000F05D102232370204615B086
:10B59000BDE8F083B7F5805FF6D8FCF76BFE304E60
:10B5A000814696E8070009AB83E807000022009275
:10B5B00041463A460FA8FEF715FC109BE360119B2D
:10B5C0002361FCF757FE9DF83C30A0EB090060605A
:10B5D000002BDAD19DF84830002BD5D005F10409B5
:10B5E000414605F580583A46484608F1040817F0E8
:10B5F000B4FE49463A46404617F0AFFE05F50059FD
:10B600009DF84C30C9F804701BB1BDF84A30A9F858
:10B6100008302846FFF708FF05F50050D9F88C11CF
:10B620000A30FEF7A3F996E807000E4B08930CAB1F
:10B6300083E8070001228DF8382008AA0092D9F883
:10B640000420414602A8FEF7CDFBFCF713FE064698
:10B650002846FFF73BFFFCF70DFE801BA06095E737
:10B660007C4F0200CC4E020010B400F5005494F858
:10B67000963123B9A4F894315DF8044B704794F8DF
:10B680009131B4F892219A4286BFD31A9BB200231B
:10B690008B4228BF0B46A4F894315DF8044BFFF7AA
:10B6A00015BF2DE9F041089E0C4696469846DDE907
:10B6B000061276B307282CD814F0100529D114F0FF
:10B6C000010702D0A30720D52F464FF0020C099B9B
:10B6D00002EB0C05AB421CD3F42D1AD802B1D1B148
:10B6E00004F01F0444EA4014347086F801E027B1E6
:10B6F0004FEA182386F80280F3701AB106EB0C00AB
:10B7000017F02BFE2846BDE8F08101274FF0040C0E
:10B71000DDE70025F6E70D46F4E72DE9F04FC5B06B
:10B7200081464E9C9846164642B14F9B33B1B4F5C4
:10B73000805F03D824B1B8F1000F16D1002011E0CA
:10B7400007AFCDE90147F423039301F01C01CDF8C5
:10B7500000803278A3B241F003014846FFF7A1FF11
:10B76000002836D145B0BDE8F08FF22CE8D901F0C1
:10B770001C05A3B245F001010027F02205934FF00C
:10B78000F40B0DF11C0AE31B934228BF1346CDE9CD
:10B7900002AB3A4642441F440193A742009228BF9D
:10B7A00041F00201059B32784846FFF77AFF0146D7
:10B7B0000028C3D03378509A0133337050464F9BE2
:10B7C00098470028BAD0A7424FF0F202CAD22946C1
:10B7D000D9E73378509A0133337001464F9B38468E
:10B7E0009847BFE707299FBF00EBC102002340F83D
:10B7F0003130C2F80330704710B50024E1B2013493
:10B80000FFF7F0FF082CF9D100F58050002380F8F5
:10B8100044300364836410BD2DE9F04F00F5805778
:10B82000002385B0044616463B64894659B1931EF1
:10B83000F22B08D80B7813F0100A4FEA531508D0F2
:10B840002946FFF7CFFF4FF0020A504605B0BDE88A
:10B85000F08F062D00F0AA80072D04D197F84C2018
:10B86000002A00F0A38013F0010C03F0020B07D0B4
:10B87000BBF1000F04D1032E51D829462046E0E742
:10B880000022022009EB000199F801300191361ADB
:10B89000BCF1000F59D04FF000085FFA88F1A942BF
:10B8A0000CD014F8380048B12046CDE90232FFF739
:10B8B00099FFB96CDDE902320131B96408F1010880
:10B8C000B8F1080FE9D104EBC508002144F83510A0
:10B8D000C8F80310012188F80610591888F80110DB
:10B8E000BBFA8BF1490904F83510DAB1B9F8022036
:10B8F000A8F80220511EB1F5805FBED2B242BCD37F
:10B900000199324604F1400017F027FDB3B2A8F8C0
:10B910000430BBF1000F0CD14FF0010A95E7012272
:10B920000420AFE7BBF1000FA7D0B2B2A8F8022005
:10B93000E4E7B8F802209A429FD13E6487F8445069
:10B9400029462046FFF74EFF7FE714F8352004EB29
:10B95000C508002A91D098F80620002A8DD098F8C2
:10B9600001209A4289D10132B8F804C088F8012038
:10B97000B8F802200CEB060191423FF67EAF04F1CD
:10B98000400032460199604417F0E7FCB8F80430F3
:10B990001E44B6B2B8F80230A8F80460BBF1000F3C
:10B9A00001D09E42C8E79E42B6D166E74FF0030A37
:10B9B0004BE7034610B45C680846114624B19A6808
:10B9C00023465DF8044B184720465DF8044B70474A
:10B9D00030B5C1B08123B2F5807F054614468DF89D
:10B9E000003008D94FF48074621E01310DF101005E
:10B9F00017F0B3FC01E0012AF6D822466946284632
:10BA0000FFF7D7FF41B030BD7FB5037F0546002B60
:10BA10003ED0D0E908329A423AD30368C3B398477C
:10BA2000AA6A6E6A0023841A2B7733D01A482246FA
:10BA3000A6FB000117F00AF982238DF80030230AD3
:10BA40008DF80230230C8DF80330330A8DF8063060
:10BA5000330C8DF80730330E8DF80830030A8DF85B
:10BA60000A30030C8DF80B30030E8DF801408DF871
:10BA70000900240E8DF80C300E220023694628465A
:10BA80008DF804408DF805608DF80D30FFF791FFBB
:10BA900004B070BD2046CFE7A0860100042A38B567
:10BAA0000446154619D90368BBB1D1F801200262DA
:10BAB000002242629847236AA0621A1E18BF012220
:10BAC000052D227709D043B1636A053B2B4463629D
:10BAD0002046BDE83840FFF797BF38BD017F31B140
:10BAE0002AB1416A013A11444162FFF78DBF7047A4
:10BAF000F0B5012A93B0054614461DD90368DBB1A1
:10BB0000013A402A18D8842301310DF101008DF843
:10BB1000003017F022FC2B6898476E463719030A4D
:10BB20000DF804007B70030CBB70030EFB70221D2C
:10BB300069462846FFF73DFF13B0F0BD30B54369B5
:10BB400087B0044643B3816901A89847BDF8040053
:10BB5000BDF80610BDF80820BDF80A308DF80D00BC
:10BB60008DF80F108DF81120000A090A120A8DF8BD
:10BB70000E008DF810108DF812208DF813308525E9
:10BB80001B0A092203A920468DF80C508DF81430A9
:10BB9000FFF70FFF07B030BD1A4619461846DDE71C
:10BBA00030B5012A85B0054638D9C468DCB30369CD
:10BBB000013A01316846A047DDE90012029B9DF879
:10BBC0000C008DF8011086248DF800400C0A8DF8C9
:10BBD00002400C0C090E8DF80410110A8DF8052096
:10BBE0008DF80610110C120E8DF808201A0A8DF827
:10BBF0000A201A0C8DF807108DF809308DF80B20EB
:10BC00001B0E8DF80D000E22694628468DF8034064
:10BC10008DF80C30FFF7CDFE05B030BD01200023BC
:10BC20001A461946CDE701202346F9E7F8B5134631
:10BC300041B34AB30E78771E052F03D9BDE8F8400B
:10BC4000FFF7B7BE023E042E04D8DFE806F0080C6A
:10BC5000101417001A46FFF7BBFE0120F8BD1A4664
:10BC6000FFF71CFFF9E71A46FFF738FFF5E71A461A
:10BC7000FFF73EFFF1E7FFF761FFEEE71A46FFF738
:10BC80008FFFEAE70846E9E71046E7E7026813682E
:10BC900010B59F2B97BF406883685C1C146092BFEF
:10BCA000C15400221A7010BD38B504460D46006814
:10BCB000C9B2FFF7EBFF2068290ABDE83840FFF75B
:10BCC000E5BFCA08006801F0070101238B40815CD1
:10BCD0000B4383547047000018B1012801D002289B
:10BCE00004D1034B0C2202FB003070470020704748
:10BCF000884F020007B520220021019017F0E3FAD7
:10BD000001A80121FFF7DDFF01A80221FFF7D9FFFC
:10BD100001A80321FFF7D5FF04210DEB0100FFF778
:10BD2000D0FF01A80521FFF7CCFF01A80621FFF7EE
:10BD3000C8FF01A80721FFF7C4FF01A80821FFF7EA
:10BD4000C0FF01A80921FFF7BCFF01A80A21FFF7E6
:10BD5000B8FF01A81021FFF7B4FF01A81121FFF7D8
:10BD6000B0FF01A81221FFF7ACFF01A81321FFF7D4
:10BD7000A8FF01A82021FFF7A4FF01A82121FFF7B8
:10BD8000A0FF01A83021FFF79CFF01A83121FFF798
:10BD900098FF01A84021FFF794FF01A85021FFF769
:10BDA00090FF01A85121FFF78CFF01A86021FFF748
:10BDB00088FF01A86121FFF784FF01A8F021FFF7A8
:10BDC00080FFF12101A8FFF77CFF03B05DF804FBC1
:10BDD0002DE9F04F8846B9B09146074618B90020C2
:10BDE00039B0BDE8F08F05AC012603AB0025314624
:10BDF000059320460DF10B030DF1400B07938DF8D1
:10BE00000B600395CDF818B00494FFF73FFF294667
:10BE10002046FFF73BFF0B212046FFF737FF29465F
:10BE20002046FFF733FF314604A8FFF73DFFF0211E
:10BE300004A8FFF739FFF02104A8FFF735FF08A891
:10BE4000FFF758FF08AE16F8011B20460135FFF733
:10BE50001DFF202DF7D14FF4805104A8FFF724FFD8
:10BE600003212046FFF712FF214E4FF0000A3178E0
:10BE70002046FFF70BFF736800255A5D0AB1102DAD
:10BE80002CD1E9B220460193FFF700FF019B1D442E
:10BE9000AB4225D1317A2046FFF7F8FE0AF1010ABC
:10BEA000718904A8FFF700FFBAF1030F06F10C0631
:10BEB000DDD100212046FFF7E9FE49462046FFF785
:10BEC000E5FE9DF80B30002B89D0039A424586D8B9
:10BED0005946384617F041FA039881E70135CCE717
:10BEE00013F8011B01932046FFF7D0FE019BCFE71B
:10BEF000884F020010B50822044600211C3017F0BC
:10BF0000E2F9002384F82C3010BD70B50D460446CC
:10BF100006460FCD0FC695E803004FF0807386E804
:10BF20000300A3612046FFF7E5FF0023C4E90D33BA
:10BF300084F82D30E38584F8303070BD30B4056866
:10BF400035B129B122B14369AC46022030BC60470B
:10BF500030BC704707B507238DF80510022201A9F0
:10BF60008DF80430FFF7EAFF03B05DF804FB13B56A
:10BF7000046874B1837EB3FA83F35B090A221B0160
:10BF8000ADF804208DF806300322436901A9002092
:10BF9000A04702B010BD13B504685CB106238DF84C
:10BFA00004308DF8051043698DF8062001A903229D
:10BFB0000020A04702B010BD30B50368A9B0044608
:10BFC00063B190F83020A0216846FFF701FF0246D8
:10BFD00020B12568636969460020A84729B030BDB3
:10BFE00070B5044608460D46FFF776FE30B1E368AB
:10BFF000E5761BB16169BDE87040184770BD00006F
:10C0000070B500250446C0E90D1180F82F508576E3
:10C010004576FFF76FFF01232376A36884F82E503F
:10C0200013B16169284698472046FFF7C5FF236989
:10C0300023B161690248BDE87040184770BD00BF78
:10C0400020430200037E70B504465BB190F82C30AB
:10C0500043B100F11C010822243017F07EF90123BE
:10C0600084F82D300025A57684F82F502046FFF760
:10C0700041FFA368257613B1616928469847236973
:10C0800023B161690248BDE87040184770BD00BF28
:10C090004C4302000A2AF8B504460D46164629D933
:10C0A0000B78022B26D14F783846FFF715FE00B3E8
:10C0B000AB7A0B339E421DD304F11C060822A91C47
:10C0C000304617F04AF994F82D00012384F82C30FB
:10C0D00040B1082204F12401304617F0CBF8B0FA41
:10C0E00080F0400984F82E0039462046FFF778FF9B
:10C0F0000120F8BD0020FCE7002310B5044683763C
:10C1000080F82F3043760AB1FFF724FFA36813B1FC
:10C11000616900209847237E033B012B9CBF0223CB
:10C1200023762046BDE81040FFF721BF90F82F305E
:10C1300010B504468BB9A37E012084F82F002BB1E3
:10C1400004232376A3680BB161699847236923B15F
:10C1500061690248BDE81040184710BD70430200F5
:10C1600070B504461D46002971D0002A6FD00B78A7
:10C17000023B092B6BD8DFE803F0052B344C6A64D3
:10C18000716B6A8B237E012B61D12046FFF782FF02
:10C1900038B92369002B5AD061694148BDE8704025
:10C1A0001847002384F82F30A37602232376656393
:10C1B0002046FFF7DCFE2369002B48D094F82E00C0
:10C1C0006169384A384C002818BF14462046E5E714
:10C1D000237E012B3BD12369002B38D06169334882
:10C1E000DCE7237E023B022B31D894F82F306563C5
:10C1F0006BB3A07E0023984284F82F300CBF02233B
:10C2000003232376A36813B308BB6169BDE87040BC
:10C210001847012A1BD0237E023B022B17D84D78EA
:10C220002846FFF759FD30B9012229462046BDE8CE
:10C230007040FFF7B0BE29462046FFF7D1FE00222E
:10C24000F3E7237E023B022B01D80123637670BD06
:10C25000237E023B022BFAD80023F7E7A07E0028BA
:10C26000F5D00138C0B20023A076637660B902230E
:10C270002376A36884F82F000BB1616998472046A4
:10C28000BDE87040FFF773BE2046FFF74FFFF6E7AB
:10C2900020460122BDE870400321FFF72DBF00BFFB
:10C2A000CE43020091430200AD430200ED43020081
:10C2B00070B504461D46237E023B022B08461146FC
:10C2C00022D8636803B3F8B1F2B1A27EAAB1667E48
:10C2D00062699847C0B9012EA27E10D1062A01D802
:10C2E0000132A276002384F82F3003232383656371
:10C2F0002046BDE87040FFF73ABE0126E8E7002A75
:10C30000F0D10123A376EDE770BD0000037E023B70
:10C31000022B10B5044618D8436BC91A42F20F73AA
:10C3200099420BD9036913B1416908489847012222
:10C3300020461146BDE81040FFF7DEBEB1F57A6F2A
:10C3400003D3BDE81040FFF7F1BE10BD1844020052
:10C35000807E003818BF01207047000007C8024BDC
:10C3600083E80700704700BF3031002070B4064EEC
:10C3700035682DB121B11AB1B368AC4670BC6047C5
:10C38000002070BC704700BF3031002070B4064EF2
:10C3900075682DB121B11AB1B368AC4670BC604765
:10C3A000002070BC704700BF30310020024AD2F834
:10C3B0000034002BFBD0704700E0014010B5064C64
:10C3C000237843B905484FF480524FF4FE2116F00C
:10C3D000C4FF0123237010BD3C31002040310020F8
:10C3E000024B00221A70FFF7E9BF00BF3C3100206A
:10C3F00070B5044616460D4611B90024204670BD9E
:10C40000002AFAD00228F8D8FFF7D8FF0B490C4AC7
:10C41000A30201EB8424C8589042EED16468621EE6
:10C42000B2F57E7FE9D2B44228BF344608332246B3
:10C430001944284616F091FFE0E700BF4031002084
:10C44000544C50532DE9F041074616460C4600293E
:10C450004BD0531EB3F57E7F47D2022845D8244DDA
:10C460004FEA872805EB8727FFF7A8FF214B45F800
:10C47000083008F10800324621467E60284416F054
:10C480006CFF06F108004044C6F57E72FF21284487
:10C4900016F019FF1848FFF789FF0223C0F804358A
:10C4A0004FF4FE21FFF782FFC0F80815FFF77EFF6B
:10C4B0000023C0F80435FFF779FFFFF777FF01236A
:10C4C000C0F80435FFF772FF55F8043B41F8043B10
:10C4D000FFF76CFFB1F5002FF6D10023C0F804354B
:10C4E000FFF764FF0120BDE8F0810020FBE700BFFB
:10C4F00040310020544C505300E00140034A13687F
:10C500000BB150681847002000217047604100209F
:10C5100030B50A4D421E00F117034FF0FF3012F8FC
:10C52000011F4840082140F300042C40013984EAEF
:10C530005000F8D19342F2D1C04330BD2083B8ED12
:10C5400003C808B5054B182283E8030004480021FE
:10C5500016F0B9FE034B00221A7008BD604100209E
:10C56000484100204041002070B586B018220021CB
:10C57000684616F0A8FE182269460020FFF7F6FE6E
:10C5800017281AD90E4B009A9A4216D100236846F2
:10C59000059C0593FFF7BCFFA0420ED16C460FCC63
:10C5A000084E35460FC594E803007368064A5B1AC7
:10C5B00085E8030018BF0123137006B070BD00BFEB
:10C5C00043544C53484100204041002038B5084DA9
:10C5D000084B2B60002428466C61FFF799FF294621
:10C5E000686118222046BDE83840FFF7CFBE00BF83
:10C5F0004841002043544C532DE9F047DFF8E080D8
:10C60000354C0746FFF77AFF98F8003005460E468E
:10C61000002B57D0D4E90232834272EB060151D28B
:10C62000B5EB030A66EB0202D4F810904FEA9A2A9F
:10C630004AEA825A4FEAE97CA9FB0A01274A002309
:10C640000AFB0C1116F0B2FA10EB0A0241F10003DA
:10C650001F2A73F1000135DB6168B7EB010C6EEB4B
:10C660000E0EBCF11F0F7EF100012BDB1B49BCEB52
:10C67000020C6EEB030EACFB010C01FB0EC116F0BD
:10C6800095FADFF860E04FF0FF3C70450A4671EB29
:10C690000C01034641F28931BCBF734662468B42AE
:10C6A00072F10001A4BF41F2883300220321C9FBCB
:10C6B0000132002A02DA5B1842F100029B0843EAC9
:10C6C000827323610123C4E90175E66088F80030B4
:10C6D000BDE8F047FFF77ABF4841002040420F0015
:10C6E0004041002078ECFFFFF8B5164B1E783EB3B2
:10C6F000FFF704FF144BD3E90225904271EB0504C8
:10C700005E681DD3841A61EB050518690F4AA40AF7
:10C7100044EA8554AD0AC31700FB05F104FB03117D
:10C72000A0FB04070023394416F040FA341945F100
:10C730000005001945EB0105002DACBF064600269B
:10C740003046F8BD404100204841002040420F00E3
:10C7500070B50446FFF7C8FF2C4BB0FBF3F307227C
:10C760000433B3FBF2F2C2EBC2023C219B1AE37129
:10C77000B0FBF1F301FB1300B3FBF1F201FB123349
:10C7800018216371B2FBF1F301FB1322A071227136
:10C790004FF4C87040F2B2726426910705D1B2FB23
:10C7A000F6F106FB112189B271B9B2FBF0F100FB81
:10C7B000112189B241B1002540F26D118B4207D39E
:10C7C00001325B1A92B2E8E701254FF4B771F5E741
:10C7D0000F4822800122022A014600F1010000D107
:10C7E00045B90978994207D90133DBB2A270E370E9
:10C7F000204670BD1D21F5E70132D2B20D2AA3EB10
:10C800000103E8D10C221F23F0E700BF8051010093
:10C81000AC4F0200014B1878704700BF4041002028
:10C8200008B500F011F84FF47A72A0FB020302FB86
:10C830000133800A40EA835008BD0000014B00220A
:10C840001A6070476841002010B5074B074C1A6802
:10C85000D4F8040519689142F9D120F07F4040EAEC
:10C860000160090A10BD00BF6841002000100140AE
:10C87000024A136801331360704700BF684100200B
:10C88000FFF7F6BFF8B50D46AB421C4628BF2C4655
:10C89000074611461E4614B1224616F05EFDAE4212
:10C8A0003CBF00233B55069B1C70F8BD20B140F6F1
:10C8B0000422002116F007BD704730B530B110F8E2
:10C8C000A04B0023A025DAB2944200D830BD05FB6E
:10C8D00003F201338154F6E740B103788B4204D967
:10C8E000A02303FB0100043070470020704770B59F
:10C8F0000446F0B103788B421BD90131CDB2A0269A
:10C90000207885420BD30138C0B2207006FB00406E
:10C91000A0220021043016F0D6FC012070BD06FBD9
:10C920000540011D9D229C38013516F016FDEDB223
:10C93000E6E70020F2E72DE9F04F13468BB00D46F5
:10C94000044618B900200BB0BDE8F08F0029F9D0DB
:10C95000002AF7D00E78032E03D1FFF7A7FF01209E
:10C96000F1E7022E25D1012AECD091F8018008F1DF
:10C9700002029A42E6D8023500274FF0A009237838
:10C98000FEB2B342DED909FB06F023181B794345FA
:10C990000DD1053042462946204416F06BFC30B9D3
:10C9A000314620460BB0BDE8F04FFFF7A0BF01377E
:10C9B000E5E7012EC6D1012AC4D04F787A1D9A42EC
:10C9C000C0D8BFD011F802B007F1060A0BEB0A027B
:10C9D0009A42B7D2501C8A5C049211180A1D9A42DE
:10C9E000B0D8AB1C0393EB194FF000099A7805926D
:10C9F000DA7806921B7907936A182B1808939378B4
:10CA00005078695CD2781B0443EA00230B4343EA65
:10CA100002630993A02322785FFA89F842450CD873
:10CA20000F2A06D94FF0A0082278B24254D8013A12
:10CA3000D2B2531C237016B210E003FB08F0221888
:10CA40001279BA4245D1053003993A46204416F08E
:10CA500011FCA02300283CD10FFA88F6A0225643EF
:10CA600006F10408A0440021404616F02CFC701D7D
:10CA70003B46039ACDF80080A71928212044FFF7F0
:10CA800001FF059B87F82D30069B87F82E30079B0A
:10CA900087F82F3006F1300306F13100234400936C
:10CAA00005EB0A025B4620212044FFF7EBFE06F16E
:10CAB000520051362644049B089A0096482120448F
:10CAC000FFF7E0FE099BC7F89C30002387F8A030F1
:10CAD00045E709F101099EE708FB0640011D9D227B
:10CAE0009C38013616F039FCF6B29DE718B1642285
:10CAF000002116F0E8BB704710B504469AB008B3A1
:10CB00006422002101A816F0DEFB7F23642201A924
:10CB100001208DF808308DF810308DF818308DF820
:10CB200020308DF828308DF830308DF838308DF881
:10CB30004030FFF71BFC632804D9642201A920467A
:10CB400016F00BFC1AB010BD014618B1642201208A
:10CB5000FFF71CBC7047F7B504469DF8207028B954
:10CB60000025284645EA002003B0F0BD90F860C0DB
:10CB700053EA070024D0012000FA02F2254620469D
:10CB800000265FFA86FEF4451DD8002395F8412063
:10CB9000002A3CD06A6C8A4239D804EBC3050023D2
:10CBA00085F841302046FFF7CFFF95F84000022579
:10CBB000D8E706F830E00130C5B2AC45F9D8DAE77D
:10CBC000661D8646F8E790F801E0BEF1000F1BD025
:10CBD00090F805E0BEF1000F16D190F804E01EEACF
:10CBE000020F11D090F802E09E450DD190F803E0BD
:10CBF000BE4509D104EBC603012520465D71FFF750
:10CC0000A3FF14F83600ADE701360830B9E7013369
:10CC1000042B05F10805B9D1A2E713B503468DF839
:10CC200007201C68084634B1DB6801220DF10701BA
:10CC3000A04702B010BD2046FBE7034610B45C6875
:10CC40000846114634B12AB1A446DB685DF8044BAE
:10CC50000122604700205DF8044B704737B5044659
:10CC60000FC9002584E80F002582B6227E212046C8
:10CC7000FFF7D3FFA36813B1E168322098470DF1A5
:10CC80000702002120468DF80750FFF7D6FF28B194
:10CC90009DF80730112B03D10123237403B030BD5D
:10CCA000132BFBD10223F8E72DE9F7430446164680
:10CCB000894621B90025284603B0BDE8F083002A43
:10CCC000F8D00368002BF5D000225921FFF7A5FF0B
:10CCD0000028EFD00025A6EB0508B8F1080F28BF03
:10CCE0004FF00808E3682768424609EB05015E201B
:10CCF000B8470028DED04544AE42ECD80122592185
:10CD00002046FFF78AFF05460028D3D0A36813B159
:10CD1000E1689620984700230DF107025F21204625
:10CD20008DF80730FFF789FFC5E738B5A822402105
:10CD30000446FFF772FF10B90025284638BD0022CF
:10CD400041212046FFF769FF0028F5D004227D210C
:10CD50002046FFF762FF05460028EDD00A22532146
:10CD60002046FFF75AFF042258212046FFF755FFBF
:10CD7000E3E7F8B51D46037C044673B10023437412
:10CD800029B122B1FFF790FF08B10123637429464E
:10CD90002046BDE8F840FFF7C8BF1846F8BD437C01
:10CDA00013B513B9002002B010BD44680023ADF8DC
:10CDB00004308DF80630002CF4D0C368032201A99A
:10CDC0001E20A0470028EDD09DF806009DF80530F4
:10CDD000000440EA03209DF804301843E3E707B558
:10CDE00000230DF107021C218DF80730FFF725FF06
:10CDF00020B19DF80700003818BF012003B05DF88E
:10CE000004FB000007C8064B83E80700054BFF2220
:10CE10001A70054A00231370044A1370704700BF4C
:10CE200070410020480000206D4100206C4100202E
:10CE3000074A08B513680BB9002008BD90689847E9
:10CE40000028F9DB4FF496535843C0F38F20F4E7E2
:10CE50007041002040F6AC53984210B534D941F2ED
:10CE60005302904232D8B0F5626F18D940F68B6306
:10CE7000984219D9B0F56C6F1CD940F68B73984263
:10CE80001DD819464F2430224FF46C63C01AA41ADF
:10CE90006043C91AB0FBF1F01044C0B210BD0324C6
:10CEA0004FF462610022F1E71946162403224FF481
:10CEB0006263EBE730244FF46C611622E6E76424EA
:10CEC00041F254014F22E1E70020E7E76420E5E763
:10CED00012B1632828BF63204BB1642907D81AB167
:10CEE000884238BF08467047884228BF08467047C6
:10CEF000034A53680BB1906818471846704700BF43
:10CF000070410020054A08B5136823B1906898471E
:10CF1000C043C00F08BD1846FCE700BF70410020A9
:10CF200070B5FFF7EFFFD0B1FFF782FFFFF792FF79
:10CF30000C4C0546FFF7DCFF23780B49024623B172
:10CF40000B7883F001030343DBB2084E0A702846D6
:10CF50003178FFF7BDFF01233070237070BDFF20D3
:10CF6000FCE700BF6D4100206C410020480000201C
:10CF7000FFF7C8BF014B1868704700BF4C00002086
:10CF80004FF0A043D3F8100580F48050C0F3003078
:10CF900070470000014B1868704700BF4C0000202C
:10CFA00008B501F099FA014B186008BD4C0000204B
:10CFB0001FB54FF0A0430C22C3F830270023039382
:10CFC000054B019301A8054B0293FFF71BFFFFF7E9
:10CFD000E7FF05B05DF804FB75CF000081CF0000CE
:10CFE000D0E9013210B593423FBF02685C1C446037
:10CFF000D15424BF0023037310BD10B50C46C9B231
:10D00000FFF7EEFF210ABDE81040FFF7E9BF10B5BA
:10D010000C460021FFF7E4FF2146BDE81040FFF772
:10D02000ECBF2DE9F0410E46032115461C469DF844
:10D030001880BDF81C70FFF7D3FF3146FFF7D0FF13
:10D040002946FFF7CDFF2146FFF7CAFF4146FFF70C
:10D05000C7FF3946FFF7DBFFBDE8F0410021FFF7CE
:10D06000BFBFF0B585B072B930238DF8043001230D
:10D07000591AC9B21BB1013BDBB28B4218D1002354
:10D08000037005B0F0BD01AD01230A26B2FBF6F72F
:10D0900006FB1724303405F8014B1446092C3A4698
:10D0A00001D8DBB2E4E701330B2BEFD10A23DFE732
:10D0B00003F110026A4412F80C2C00F8012BD9E796
:10D0C00070B5013911F8015F35B10468466822680E
:10D0D0003668531CB34200D370BD8668366823603F
:10D0E000B554EFE770B5013911F8015F35B1046847
:10D0F000466822683668531CB34200D370BD866808
:10D1000036682360B554EFE72DE9F04105460898ED
:10D110001E461746884616F02EF9E021C4B228466E
:10D12000FFF75EFFE11DFFF768FF0021FFF758FFE3
:10D130004146FFF755FF3946FFF752FF9DF81C1097
:10D140000131C9B2FFF74CFF3146FFF749FF9DF8A7
:10D150001810FFF745FF2146FFF742FF089C6618AD
:10D16000B44201D1BDE8F08114F8011B2846FFF755
:10D1700037FFF5E72DE9F04F9DB0074606A80D46AD
:10D18000FFF7E6FA38460121FFF72AFF0021FFF7F3
:10D190003EFF0221FFF724FF0021FFF721FF4FF69A
:10D1A000FF71FFF72AFF0221FFF71AFF0121FFF7A6
:10D1B00017FF48F21041FFF720FFEB794BB108232E
:10D1C0004FF620510022CDE90031F0231146FFF740
:10D1D00028FF0CAC282308AA0FAE4FF000080DF171
:10D1E000480A0DEB030B20460593119205ABEA6844
:10D1F00010930C21CDF820A0CDF82880CDF83CB0BC
:10D20000FFF72FFF21463046FFF75AFFDB49FFF7B4
:10D2100057FF2A6920460C21FFF723FF214630469D
:10D22000FFF74EFFD549FFF74BFF6A6B20460C21F5
:10D23000FFF717FF21463046FFF742FFCF49FFF7C0
:10D240003FFF2A7A20460C21FFF70BFF214630468C
:10D25000FFF736FFC949FFF733FF6A6920460C2103
:10D26000FFF7FFFE21463046FFF72AFFC349FFF7CD
:10D2700027FF2A7E20460C21FFF7F3FE2146304689
:10D28000FFF71EFFBE49FFF71BFF6A8B20460C21EC
:10D29000FFF7E7FE21463046FFF712FFB749FFF7D9
:10D2A0000FFFEA6920460C21FFF7DBFE21463046DE
:10D2B000FFF706FF089A0A9B4FF0010902F8038066
:10D2C0000222CDE90029CDF808A04346102204210E
:10D2D0003846FFF719FF2823049304AB95F8202064
:10D2E0001093204608AB0C211193CDF820A0CDF867
:10D2F0002880CDF83CB0FFF7B4FE21463046FFF75A
:10D30000F1FE9F49FFF7EEFE6A6A20460C21FFF707
:10D31000A8FE21463046FFF7E5FE9849FFF7E2FEFA
:10D320002A8D20460C21FFF79CFE21463046FFF750
:10D33000D9FE9249FFF7D6FE6A8D20460C21FFF7F1
:10D3400090FE21463046FFF7CDFE8C49FFF7CAFE1E
:10D350002A6B20460C21FFF784FE21463046FFF75A
:10D36000C1FE8749FFF7BEFEEA6A20460C21FFF79F
:10D3700078FE21463046FFF7B5FE089A0A9B02F870
:10D3800003800222CDE9019A009243461C22042127
:10D390003846FFF7B9FE9DF81C308DF825804FF018
:10D3A0000A0AB3FBFAF20AFB123330338DF821304C
:10D3B0003A238DF822309DF81D3002F13001B3FB85
:10D3C000FAF20AFB123330338DF8243008ABCDE982
:10D3D00001838DF82010082302F130018DF823100D
:10D3E000009338224B4678213846FFF78DFE9DF892
:10D3F0001B30B3FBFAF20AFB123330338DF83130B5
:10D400009DF81A308DF8388002F130018DF8301017
:10D41000B3FBFAF10AFB113330332D228DF834308F
:10D42000BDF818308DF832208DF83520642201F1D6
:10D430003000B3FBF2F102FB1133DBB2B3FBFAF2C3
:10D440000AFB123302F13001CDE901943033032499
:10D450008DF833008DF836108DF8373000944B4638
:10D460006E2278213846FFF74FFE95F847306BB1B2
:10D47000AA6B0C213046FFF7F4FDCDE9019600942C
:10D480004B46882278213846FFF73EFEAC79384675
:10D49000652C4FF0200128BF0024FFF7A1FD1421C7
:10D4A000FFF79EFDC421FFF79BFDC821FFF798FD04
:10D4B0000821FFF795FD2146FFF792FD4FF6FF711A
:10D4C000FFF7A5FD42F22411FFF7A1FDAA79642A16
:10D4D00065D942F62D53ADF8283000238DF82A3057
:10D4E00001230324CDE90043CDF808B00023D42262
:10D4F00014213846FFF708FEEB7813B34FF4FC66AF
:10D5000006233846CDE90036D42223464E21FFF7C4
:10D5100088FD4FF008080823D7225121CDE90046A5
:10D52000FFF77FFD2346DA2256210196CDF80080D1
:10D53000FFF777FDCDE900464346DD225121FFF795
:10D5400070FD2B79002B42F2241318BF4FF4FC63BB
:10D550000193D4220C23009311463846FFF761FD56
:10D560006B797BB104234FF62052CDE90032702154
:10D570001023B022FFF755FD04E000BFF74702007B
:10D58000234502003846F021FFF72AFD0021FFF76E
:10D5900027FD387B00B178681DB0BDE8F08F082109
:10D5A0005846FFF75EFD9BE72DE9F04F04688DB00C
:10D5B0000546002C00F08081002900F07D81072ABB
:10D5C00040F27A810023099301238DF82C302378CF
:10D5D00008910A92052B00F26F81DFE813F00F012A
:10D5E0000600C4000F011401450108A80121FFF73E
:10D5F000F7FC0021FFF70BFD0221FFF7F1FC0021F2
:10D60000FFF7EEFC4FF6FF71FFF7F7FCAC4B029310
:10D6100000210323CDE90031042201237821FFF703
:10D6200073FD6F68002F3BD03C7805AD2246042186
:10D630002846FFF716FD03230022CDE900320295AC
:10D6400001231822782108A8FFF75EFD062CA046CA
:10D6500028BF4FF006082CB3C8EBC804A400A4B23E
:10D6600008A84021FFF7BCFC3021FFF7B9FCB4212A
:10D67000FFF7B6FC2146FFF7C0FC36240026F1B2C6
:10D68000884511D808A8F021FFF7AAFC0021FFF770
:10D69000A7FC9DF82C00002800F00F8109980CE1F0
:10D6A0003C46C2E70124DBE73846FFF715F905469B
:10D6B000002854D008A83021FFF792FC06F164013D
:10D6C00089B2FFF79AFC0421FFF78AFCA11FC9B2B7
:10D6D000FFF786FCE821FFF783FC1A21FFF780FCA7
:10D6E0000121FFF77DFC95F82B30A3F13002092AC8
:10D6F00088BF30234FF0000B0DF1180A4FF00309DB
:10D700008DF8183022465B460821CDE901BACDF8E4
:10D7100000908DF819B0FFF7F7FC95F82C20082140
:10D720005046FFF79EFC2246CDE901BACDF80090A5
:10D730005B46282108A8FFF7E7FC95F89C2052B12A
:10D74000604BCDF80090CDE901B322465B46C8217D
:10D7500008A8FFF7D9FC312108A8FFF741FC1C34C9
:10D760000136E4B28BE708A80121FFF739FC00215C
:10D77000FFF74DFC0221FFF733FC0021FFF730FCDF
:10D780004FF6FF71FFF739FC002503274E4B02933C
:10D7900006AE012310227821CDE90075FFF7B4FC15
:10D7A00094F8442004213046FFF75BFC2B464022CE
:10D7B000102108A8CDE901560097FFF7A5FC94F8C1
:10D7C000452004213046FFF74CFC2B4664221021F3
:10D7D00008A8CDE901560097FFF796FC94F846207B
:10D7E00004213046FFF73DFCCDE9015600972B465A
:10D7F0008822102108A8FFF787FC43E7214608A8E4
:10D80000FFF7B8FC59E008A80121FFF7E9FB002168
:10D81000FFF7FDFB0221FFF7E3FB0021FFF7E0FB31
:10D8200006AD4FF47841FFF7E8FB94F84C20042153
:10D830002846FFF716FC00260823CDE900364822CB
:10D840000123782108A80295FFF75EFC94F84D208B
:10D8500004212846FFF705FC03230093CDE9016569
:10D8600001238C227821C5E708A80121FFF7B8FB26
:10D870000021FFF7CCFB0221FFF7B2FB0021FFF7ED
:10D88000AFFB4FF6FF71FFF7B8FB104B029300247C
:10D8900008236422CDE9003478210123FFF734FC0A
:10D8A000F02108A8FFF79CFB2146FFF799FB9DF8A4
:10D8B0002C30002B7FF4F2AE00200DB0BDE8F08FCD
:10D8C0005D44020061440200604402005E440200C4
:10D8D0004FF440626C21C0E90012826040F6042CD3
:10D8E0004FF48052C0E903C27047000073B50F4C7B
:10D8F000064694E803000822CDE9000169460220AB
:10D90000FEF734FD07280A4A06F15C0308D901999D
:10D91000914205D1DDE9000183E8030002B070BD4A
:10D9200094E8030083E803003266F7E7B84F02008B
:10D9300053544C5338B5044601258583002100F625
:10D940001840FEF7BAFF237E052B04BF0023237681
:10D9500004F5805484F88D5838BD10B50023044672
:10D960000377012100F6184004F58054FEF7A5FF67
:10D97000012384F88D3810BD00F58053002293F800
:10D980008D0883F88D28704730B5036885B004464C
:10D99000BBB100F11803019300F61843029300F5A0
:10D9A000B45500F5B0531C3329464FF4007201A85A
:10D9B0000393FFF7F9FD014618B123682269284651
:10D9C000984705B030BDF8B50D46044617460646E3
:10D9D0000FCD0FC62B6833604FF4406200216761A2
:10D9E00004F1180015F06FFC0026FF2304F5B05574
:10D9F000A37704F618401C352676FEF757FF284615
:10DA0000FFF774F82846FFF777F82046FFF76EFF18
:10DA1000FEF7AAFD606938B1037C2BB194F85D3044
:10DA200032463146FFF7A5F92046BDE8F840FFF73A
:10DA3000ABBF037E41770BB9FFF7A6BF704710B5A8
:10DA4000044600F61840FEF776FF38B1237E012B1E
:10DA500004D12046BDE81040FFF796BF10BD10B5B9
:10DA600004460846FEF7C8FD2046BDE81040FFF713
:10DA70008BBF00F58053012283F89428836813B18B
:10DA80000169372018477047042310B503764368AF
:10DA900080F86410044680F8652013B10169022003
:10DAA00098472046FFF7E5FF2046BDE81040FFF706
:10DAB0006BBF73B50446406918B3037C0BB3FFF723
:10DAC0006EF90546FEF710FE06466846FEF740FE74
:10DAD0009DF805309DF804203C214B434FF46161D3
:10DAE00001FB02339DF806201344F61AA36D0BB117
:10DAF000B34201D0C4E91556636DAB4298BFED1A2D
